{"contracts/bidrectionalNFT_A.sol":{"bidirectionalNFT_A":{"abi":[{"inputs":[{"internalType":"string","name":"_name","type":"string"},{"internalType":"string","name":"_symbol","type":"string"}],"stateMutability":"nonpayable","type":"constructor"},{"inputs":[],"name":"invalidCounterPartyPortId","type":"error"},{"anonymous":false,"inputs":[{"indexed":true,"internalType":"address","name":"owner","type":"address"},{"indexed":true,"internalType":"address","name":"approved","type":"address"},{"indexed":true,"internalType":"uint256","name":"tokenId","type":"uint256"}],"name":"Approval","type":"event"},{"anonymous":false,"inputs":[{"indexed":true,"internalType":"address","name":"owner","type":"address"},{"indexed":true,"internalType":"address","name":"operator","type":"address"},{"indexed":false,"internalType":"bool","name":"approved","type":"bool"}],"name":"ApprovalForAll","type":"event"},{"anonymous":false,"inputs":[{"indexed":true,"internalType":"address","name":"owner","type":"address"},{"indexed":true,"internalType":"uint256","name":"tokenId","type":"uint256"}],"name":"NFTLocked","type":"event"},{"anonymous":false,"inputs":[{"indexed":true,"internalType":"address","name":"owner","type":"address"},{"indexed":true,"internalType":"uint256","name":"tokenId","type":"uint256"},{"indexed":false,"internalType":"address","name":"destinationAddress","type":"address"}],"name":"NFTTransferred","type":"event"},{"anonymous":false,"inputs":[{"indexed":true,"internalType":"address","name":"owner","type":"address"},{"indexed":true,"internalType":"uint256","name":"tokenId","type":"uint256"}],"name":"NFTUnlocked","type":"event"},{"anonymous":false,"inputs":[{"indexed":true,"internalType":"address","name":"previousOwner","type":"address"},{"indexed":true,"internalType":"address","name":"newOwner","type":"address"}],"name":"OwnershipTransferred","type":"event"},{"anonymous":false,"inputs":[{"indexed":true,"internalType":"address","name":"from","type":"address"},{"indexed":true,"internalType":"address","name":"to","type":"address"},{"indexed":true,"internalType":"uint256","name":"tokenId","type":"uint256"}],"name":"Transfer","type":"event"},{"inputs":[{"internalType":"uint256","name":"","type":"uint256"}],"name":"ackPackets","outputs":[{"internalType":"bool","name":"success","type":"bool"},{"internalType":"bytes","name":"data","type":"bytes"}],"stateMutability":"view","type":"function"},{"inputs":[{"internalType":"address","name":"to","type":"address"},{"internalType":"uint256","name":"tokenId","type":"uint256"}],"name":"approve","outputs":[],"stateMutability":"nonpayable","type":"function"},{"inputs":[{"internalType":"address","name":"owner","type":"address"}],"name":"balanceOf","outputs":[{"internalType":"uint256","name":"","type":"uint256"}],"stateMutability":"view","type":"function"},{"inputs":[{"internalType":"uint256","name":"","type":"uint256"}],"name":"connectedChannels","outputs":[{"internalType":"bytes32","name":"","type":"bytes32"}],"stateMutability":"view","type":"function"},{"inputs":[{"internalType":"bool","name":"feeEnabled","type":"bool"},{"internalType":"string[]","name":"connectionHops","type":"string[]"},{"components":[{"internalType":"string","name":"portId","type":"string"},{"internalType":"bytes32","name":"channelId","type":"bytes32"},{"internalType":"string","name":"version","type":"string"}],"internalType":"struct CounterParty","name":"counterparty","type":"tuple"},{"components":[{"components":[{"internalType":"uint64","name":"revision_number","type":"uint64"},{"internalType":"uint64","name":"revision_height","type":"uint64"}],"internalType":"struct Height","name":"proofHeight","type":"tuple"},{"internalType":"bytes","name":"proof","type":"bytes"}],"internalType":"struct Proof","name":"proof","type":"tuple"}],"name":"createChannel","outputs":[],"stateMutability":"nonpayable","type":"function"},{"inputs":[{"internalType":"uint256","name":"tokenId","type":"uint256"}],"name":"getApproved","outputs":[{"internalType":"address","name":"","type":"address"}],"stateMutability":"view","type":"function"},{"inputs":[{"internalType":"uint256","name":"tokenId","type":"uint256"}],"name":"getClassId","outputs":[{"internalType":"string","name":"","type":"string"}],"stateMutability":"view","type":"function"},{"inputs":[{"internalType":"uint256","name":"tokenId","type":"uint256"},{"internalType":"address","name":"destinationAddress","type":"address"},{"internalType":"string","name":"memo","type":"string"},{"components":[{"internalType":"uint256","name":"recvFee","type":"uint256"},{"internalType":"uint256","name":"ackFee","type":"uint256"},{"internalType":"uint256","name":"timeoutFee","type":"uint256"}],"internalType":"struct PacketFee","name":"fee","type":"tuple"}],"name":"initiateNFTTransfer","outputs":[],"stateMutability":"nonpayable","type":"function"},{"inputs":[{"internalType":"address","name":"owner","type":"address"},{"internalType":"address","name":"operator","type":"address"}],"name":"isApprovedForAll","outputs":[{"internalType":"bool","name":"","type":"bool"}],"stateMutability":"view","type":"function"},{"inputs":[{"internalType":"address","name":"recipient","type":"address"}],"name":"mintNFT","outputs":[{"internalType":"uint256","name":"","type":"uint256"}],"stateMutability":"nonpayable","type":"function"},{"inputs":[],"name":"name","outputs":[{"internalType":"string","name":"","type":"string"}],"stateMutability":"view","type":"function"},{"inputs":[{"components":[{"components":[{"internalType":"string","name":"portId","type":"string"},{"internalType":"bytes32","name":"channelId","type":"bytes32"}],"internalType":"struct IbcEndpoint","name":"src","type":"tuple"},{"components":[{"internalType":"string","name":"portId","type":"string"},{"internalType":"bytes32","name":"channelId","type":"bytes32"}],"internalType":"struct IbcEndpoint","name":"dest","type":"tuple"},{"internalType":"uint64","name":"sequence","type":"uint64"},{"internalType":"bytes","name":"data","type":"bytes"},{"components":[{"internalType":"uint64","name":"revision_number","type":"uint64"},{"internalType":"uint64","name":"revision_height","type":"uint64"}],"internalType":"struct Height","name":"timeoutHeight","type":"tuple"},{"internalType":"uint64","name":"timeoutTimestamp","type":"uint64"}],"internalType":"struct IbcPacket","name":"packet","type":"tuple"},{"components":[{"internalType":"bool","name":"success","type":"bool"},{"internalType":"bytes","name":"data","type":"bytes"}],"internalType":"struct AckPacket","name":"ack","type":"tuple"}],"name":"onAcknowledgementPacket","outputs":[],"stateMutability":"nonpayable","type":"function"},{"inputs":[{"internalType":"bytes32","name":"channelId","type":"bytes32"},{"internalType":"string","name":"counterpartyPortId","type":"string"},{"internalType":"bytes32","name":"counterpartyChannelId","type":"bytes32"}],"name":"onCloseIbcChannel","outputs":[],"stateMutability":"nonpayable","type":"function"},{"inputs":[{"internalType":"bytes32","name":"channelId","type":"bytes32"},{"internalType":"bytes32","name":"counterpartyChannelId","type":"bytes32"},{"internalType":"string","name":"counterpartyVersion","type":"string"}],"name":"onConnectIbcChannel","outputs":[],"stateMutability":"nonpayable","type":"function"},{"inputs":[{"internalType":"string","name":"version","type":"string"},{"internalType":"enum ChannelOrder","name":"ordering","type":"uint8"},{"internalType":"bool","name":"feeEnabled","type":"bool"},{"internalType":"string[]","name":"connectionHops","type":"string[]"},{"internalType":"string","name":"counterpartyPortId","type":"string"},{"internalType":"bytes32","name":"counterpartyChannelId","type":"bytes32"},{"internalType":"string","name":"counterpartyVersion","type":"string"}],"name":"onOpenIbcChannel","outputs":[{"internalType":"string","name":"selectedVersion","type":"string"}],"stateMutability":"nonpayable","type":"function"},{"inputs":[{"components":[{"components":[{"internalType":"string","name":"portId","type":"string"},{"internalType":"bytes32","name":"channelId","type":"bytes32"}],"internalType":"struct IbcEndpoint","name":"src","type":"tuple"},{"components":[{"internalType":"string","name":"portId","type":"string"},{"internalType":"bytes32","name":"channelId","type":"bytes32"}],"internalType":"struct IbcEndpoint","name":"dest","type":"tuple"},{"internalType":"uint64","name":"sequence","type":"uint64"},{"internalType":"bytes","name":"data","type":"bytes"},{"components":[{"internalType":"uint64","name":"revision_number","type":"uint64"},{"internalType":"uint64","name":"revision_height","type":"uint64"}],"internalType":"struct Height","name":"timeoutHeight","type":"tuple"},{"internalType":"uint64","name":"timeoutTimestamp","type":"uint64"}],"internalType":"struct IbcPacket","name":"packet","type":"tuple"}],"name":"onRecvPacket","outputs":[{"components":[{"internalType":"bool","name":"success","type":"bool"},{"internalType":"bytes","name":"data","type":"bytes"}],"internalType":"struct AckPacket","name":"ackPacket","type":"tuple"}],"stateMutability":"nonpayable","type":"function"},{"inputs":[{"components":[{"components":[{"internalType":"string","name":"portId","type":"string"},{"internalType":"bytes32","name":"channelId","type":"bytes32"}],"internalType":"struct IbcEndpoint","name":"src","type":"tuple"},{"components":[{"internalType":"string","name":"portId","type":"string"},{"internalType":"bytes32","name":"channelId","type":"bytes32"}],"internalType":"struct IbcEndpoint","name":"dest","type":"tuple"},{"internalType":"uint64","name":"sequence","type":"uint64"},{"internalType":"bytes","name":"data","type":"bytes"},{"components":[{"internalType":"uint64","name":"revision_number","type":"uint64"},{"internalType":"uint64","name":"revision_height","type":"uint64"}],"internalType":"struct Height","name":"timeoutHeight","type":"tuple"},{"internalType":"uint64","name":"timeoutTimestamp","type":"uint64"}],"internalType":"struct IbcPacket","name":"packet","type":"tuple"}],"name":"onTimeoutPacket","outputs":[],"stateMutability":"nonpayable","type":"function"},{"inputs":[],"name":"owner","outputs":[{"internalType":"address","name":"","type":"address"}],"stateMutability":"view","type":"function"},{"inputs":[{"internalType":"uint256","name":"tokenId","type":"uint256"}],"name":"ownerOf","outputs":[{"internalType":"address","name":"","type":"address"}],"stateMutability":"view","type":"function"},{"inputs":[{"internalType":"uint256","name":"","type":"uint256"}],"name":"recvedPackets","outputs":[{"components":[{"internalType":"string","name":"portId","type":"string"},{"internalType":"bytes32","name":"channelId","type":"bytes32"}],"internalType":"struct IbcEndpoint","name":"src","type":"tuple"},{"components":[{"internalType":"string","name":"portId","type":"string"},{"internalType":"bytes32","name":"channelId","type":"bytes32"}],"internalType":"struct IbcEndpoint","name":"dest","type":"tuple"},{"internalType":"uint64","name":"sequence","type":"uint64"},{"internalType":"bytes","name":"data","type":"bytes"},{"components":[{"internalType":"uint64","name":"revision_number","type":"uint64"},{"internalType":"uint64","name":"revision_height","type":"uint64"}],"internalType":"struct Height","name":"timeoutHeight","type":"tuple"},{"internalType":"uint64","name":"timeoutTimestamp","type":"uint64"}],"stateMutability":"view","type":"function"},{"inputs":[],"name":"renounceOwnership","outputs":[],"stateMutability":"nonpayable","type":"function"},{"inputs":[{"internalType":"address","name":"from","type":"address"},{"internalType":"address","name":"to","type":"address"},{"internalType":"uint256","name":"tokenId","type":"uint256"}],"name":"safeTransferFrom","outputs":[],"stateMutability":"nonpayable","type":"function"},{"inputs":[{"internalType":"address","name":"from","type":"address"},{"internalType":"address","name":"to","type":"address"},{"internalType":"uint256","name":"tokenId","type":"uint256"},{"internalType":"bytes","name":"data","type":"bytes"}],"name":"safeTransferFrom","outputs":[],"stateMutability":"nonpayable","type":"function"},{"inputs":[{"internalType":"address","name":"operator","type":"address"},{"internalType":"bool","name":"approved","type":"bool"}],"name":"setApprovalForAll","outputs":[],"stateMutability":"nonpayable","type":"function"},{"inputs":[{"internalType":"uint256","name":"","type":"uint256"}],"name":"supportedVersions","outputs":[{"internalType":"string","name":"","type":"string"}],"stateMutability":"view","type":"function"},{"inputs":[{"internalType":"bytes4","name":"interfaceId","type":"bytes4"}],"name":"supportsInterface","outputs":[{"internalType":"bool","name":"","type":"bool"}],"stateMutability":"view","type":"function"},{"inputs":[],"name":"symbol","outputs":[{"internalType":"string","name":"","type":"string"}],"stateMutability":"view","type":"function"},{"inputs":[{"internalType":"uint256","name":"","type":"uint256"}],"name":"timeoutPackets","outputs":[{"components":[{"internalType":"string","name":"portId","type":"string"},{"internalType":"bytes32","name":"channelId","type":"bytes32"}],"internalType":"struct IbcEndpoint","name":"src","type":"tuple"},{"components":[{"internalType":"string","name":"portId","type":"string"},{"internalType":"bytes32","name":"channelId","type":"bytes32"}],"internalType":"struct IbcEndpoint","name":"dest","type":"tuple"},{"internalType":"uint64","name":"sequence","type":"uint64"},{"internalType":"bytes","name":"data","type":"bytes"},{"components":[{"internalType":"uint64","name":"revision_number","type":"uint64"},{"internalType":"uint64","name":"revision_height","type":"uint64"}],"internalType":"struct Height","name":"timeoutHeight","type":"tuple"},{"internalType":"uint64","name":"timeoutTimestamp","type":"uint64"}],"stateMutability":"view","type":"function"},{"inputs":[{"internalType":"uint256","name":"tokenId","type":"uint256"}],"name":"tokenURI","outputs":[{"internalType":"string","name":"","type":"string"}],"stateMutability":"view","type":"function"},{"inputs":[{"internalType":"address","name":"from","type":"address"},{"internalType":"address","name":"to","type":"address"},{"internalType":"uint256","name":"tokenId","type":"uint256"}],"name":"transferFrom","outputs":[],"stateMutability":"nonpayable","type":"function"},{"inputs":[{"internalType":"address","name":"newOwner","type":"address"}],"name":"transferOwnership","outputs":[],"stateMutability":"nonpayable","type":"function"},{"inputs":[],"name":"vibcDispatcher","outputs":[{"internalType":"contract IbcDispatcher","name":"","type":"address"}],"stateMutability":"view","type":"function"}],"evm":{"bytecode":{"linkReferences":{},"object":"60806040523480156200001157600080fd5b506040516200772938038062007729833981810160405281019062000037919062000969565b8181620000596200004d6200009960201b60201c565b620000a160201b60201c565b81600190816200006a919062000c39565b5080600290816200007c919062000c39565b50505062000090336200016560201b60201c565b505050620010b5565b600033905090565b60008060009054906101000a900473ffffffffffffffffffffffffffffffffffffffff169050816000806101000a81548173ffffffffffffffffffffffffffffffffffffffff021916908373ffffffffffffffffffffffffffffffffffffffff1602179055508173ffffffffffffffffffffffffffffffffffffffff168173ffffffffffffffffffffffffffffffffffffffff167f8be0079c531659141344cd1fd0a4f28419497f9722a3daafe3b4186f6b6457e060405160405180910390a35050565b600062000177620001c560201b60201c565b6200018960076200025660201b60201c565b620001ac82620001a060076200026c60201b60201c565b6200027a60201b60201c565b620001be60076200026c60201b60201c565b9050919050565b620001d56200009960201b60201c565b73ffffffffffffffffffffffffffffffffffffffff16620001fb620002a060201b60201c565b73ffffffffffffffffffffffffffffffffffffffff161462000254576040517f08c379a00000000000000000000000000000000000000000000000000000000081526004016200024b9062000d81565b60405180910390fd5b565b6001816000016000828254019250508190555050565b600081600001549050919050565b6200029c828260405180602001604052806000815250620002c960201b60201c565b5050565b60008060009054906101000a900473ffffffffffffffffffffffffffffffffffffffff16905090565b620002db83836200033760201b60201c565b620002f060008484846200057d60201b60201c565b62000332576040517f08c379a0000000000000000000000000000000000000000000000000000000008152600401620003299062000e19565b60405180910390fd5b505050565b600073ffffffffffffffffffffffffffffffffffffffff168273ffffffffffffffffffffffffffffffffffffffff1603620003a9576040517f08c379a0000000000000000000000000000000000000000000000000000000008152600401620003a09062000e8b565b60405180910390fd5b620003ba816200072160201b60201c565b15620003fd576040517f08c379a0000000000000000000000000000000000000000000000000000000008152600401620003f49062000efd565b60405180910390fd5b620004136000838360016200076a60201b60201c565b62000424816200072160201b60201c565b1562000467576040517f08c379a00000000000000000000000000000000000000000000000000000000081526004016200045e9062000efd565b60405180910390fd5b6001600460008473ffffffffffffffffffffffffffffffffffffffff1673ffffffffffffffffffffffffffffffffffffffff16815260200190815260200160002060008282540192505081905550816003600083815260200190815260200160002060006101000a81548173ffffffffffffffffffffffffffffffffffffffff021916908373ffffffffffffffffffffffffffffffffffffffff160217905550808273ffffffffffffffffffffffffffffffffffffffff16600073ffffffffffffffffffffffffffffffffffffffff167fddf252ad1be2c89b69c2b068fc378daa952ba7f163c4a11628f55a4df523b3ef60405160405180910390a4620005796000838360016200077060201b60201c565b5050565b6000620005a68473ffffffffffffffffffffffffffffffffffffffff166200077660201b60201c565b1562000714578373ffffffffffffffffffffffffffffffffffffffff1663150b7a02620005d86200009960201b60201c565b8786866040518563ffffffff1660e01b8152600401620005fc949392919062000fd2565b6020604051808303816000875af19250505080156200063b57506040513d601f19601f8201168201806040525081019062000638919062001083565b60015b620006c3573d80600081146200066e576040519150601f19603f3d011682016040523d82523d6000602084013e62000673565b606091505b506000815103620006bb576040517f08c379a0000000000000000000000000000000000000000000000000000000008152600401620006b29062000e19565b60405180910390fd5b805181602001fd5b63150b7a0260e01b7bffffffffffffffffffffffffffffffffffffffffffffffffffffffff1916817bffffffffffffffffffffffffffffffffffffffffffffffffffffffff19161491505062000719565b600190505b949350505050565b60008073ffffffffffffffffffffffffffffffffffffffff166200074b836200079960201b60201c565b73ffffffffffffffffffffffffffffffffffffffff1614159050919050565b50505050565b50505050565b6000808273ffffffffffffffffffffffffffffffffffffffff163b119050919050565b60006003600083815260200190815260200160002060009054906101000a900473ffffffffffffffffffffffffffffffffffffffff169050919050565b6000604051905090565b600080fd5b600080fd5b600080fd5b600080fd5b6000601f19601f8301169050919050565b7f4e487b7100000000000000000000000000000000000000000000000000000000600052604160045260246000fd5b6200083f82620007f4565b810181811067ffffffffffffffff8211171562000861576200086062000805565b5b80604052505050565b600062000876620007d6565b905062000884828262000834565b919050565b600067ffffffffffffffff821115620008a757620008a662000805565b5b620008b282620007f4565b9050602081019050919050565b60005b83811015620008df578082015181840152602081019050620008c2565b60008484015250505050565b600062000902620008fc8462000889565b6200086a565b905082815260208101848484011115620009215762000920620007ef565b5b6200092e848285620008bf565b509392505050565b600082601f8301126200094e576200094d620007ea565b5b815162000960848260208601620008eb565b91505092915050565b60008060408385031215620009835762000982620007e0565b5b600083015167ffffffffffffffff811115620009a457620009a3620007e5565b5b620009b28582860162000936565b925050602083015167ffffffffffffffff811115620009d657620009d5620007e5565b5b620009e48582860162000936565b9150509250929050565b600081519050919050565b7f4e487b7100000000000000000000000000000000000000000000000000000000600052602260045260246000fd5b6000600282049050600182168062000a4157607f821691505b60208210810362000a575762000a56620009f9565b5b50919050565b60008190508160005260206000209050919050565b60006020601f8301049050919050565b600082821b905092915050565b60006008830262000ac17fffffffffffffffffffffffffffffffffffffffffffffffffffffffffffffffff8262000a82565b62000acd868362000a82565b95508019841693508086168417925050509392505050565b6000819050919050565b6000819050919050565b600062000b1a62000b1462000b0e8462000ae5565b62000aef565b62000ae5565b9050919050565b6000819050919050565b62000b368362000af9565b62000b4e62000b458262000b21565b84845462000a8f565b825550505050565b600090565b62000b6562000b56565b62000b7281848462000b2b565b505050565b5b8181101562000b9a5762000b8e60008262000b5b565b60018101905062000b78565b5050565b601f82111562000be95762000bb38162000a5d565b62000bbe8462000a72565b8101602085101562000bce578190505b62000be662000bdd8562000a72565b83018262000b77565b50505b505050565b600082821c905092915050565b600062000c0e6000198460080262000bee565b1980831691505092915050565b600062000c29838362000bfb565b9150826002028217905092915050565b62000c4482620009ee565b67ffffffffffffffff81111562000c605762000c5f62000805565b5b62000c6c825462000a28565b62000c7982828562000b9e565b600060209050601f83116001811462000cb1576000841562000c9c578287015190505b62000ca8858262000c1b565b86555062000d18565b601f19841662000cc18662000a5d565b60005b8281101562000ceb5784890151825560018201915060208501945060208101905062000cc4565b8683101562000d0b578489015162000d07601f89168262000bfb565b8355505b6001600288020188555050505b505050505050565b600082825260208201905092915050565b7f4f776e61626c653a2063616c6c6572206973206e6f7420746865206f776e6572600082015250565b600062000d6960208362000d20565b915062000d768262000d31565b602082019050919050565b6000602082019050818103600083015262000d9c8162000d5a565b9050919050565b7f4552433732313a207472616e7366657220746f206e6f6e20455243373231526560008201527f63656976657220696d706c656d656e7465720000000000000000000000000000602082015250565b600062000e0160328362000d20565b915062000e0e8262000da3565b604082019050919050565b6000602082019050818103600083015262000e348162000df2565b9050919050565b7f4552433732313a206d696e7420746f20746865207a65726f2061646472657373600082015250565b600062000e7360208362000d20565b915062000e808262000e3b565b602082019050919050565b6000602082019050818103600083015262000ea68162000e64565b9050919050565b7f4552433732313a20746f6b656e20616c7265616479206d696e74656400000000600082015250565b600062000ee5601c8362000d20565b915062000ef28262000ead565b602082019050919050565b6000602082019050818103600083015262000f188162000ed6565b9050919050565b600073ffffffffffffffffffffffffffffffffffffffff82169050919050565b600062000f4c8262000f1f565b9050919050565b62000f5e8162000f3f565b82525050565b62000f6f8162000ae5565b82525050565b600081519050919050565b600082825260208201905092915050565b600062000f9e8262000f75565b62000faa818562000f80565b935062000fbc818560208601620008bf565b62000fc781620007f4565b840191505092915050565b600060808201905062000fe9600083018762000f53565b62000ff8602083018662000f53565b62001007604083018562000f64565b81810360608301526200101b818462000f91565b905095945050505050565b60007fffffffff0000000000000000000000000000000000000000000000000000000082169050919050565b6200105d8162001026565b81146200106957600080fd5b50565b6000815190506200107d8162001052565b92915050565b6000602082840312156200109c576200109b620007e0565b5b6000620010ac848285016200106c565b91505092915050565b61666480620010c56000396000f3fe608060405234801561001057600080fd5b50600436106101f05760003560e01c80637476c43a1161010f578063b88d4fde116100a2578063da96e10c11610071578063da96e10c14610603578063e985e9c514610621578063f12b758a14610651578063f2fde38b14610686576101f0565b8063b88d4fde14610557578063bb3f9f8d14610573578063c87b56dd146105a3578063d39b59c8146105d3576101f0565b80638da5cb5b116100de5780638da5cb5b146104e357806395d89b4114610501578063a22cb4651461051f578063a6c50b4d1461053b576101f0565b80637476c43a1461044b5780637d622184146104675780637e1d42b5146104975780638a8e1730146104b3576101f0565b80634eeb739111610187578063602f983411610156578063602f9834146103c55780636352211e146103e157806370a0823114610411578063715018a614610441576101f0565b80634eeb73911461032857806354ba0f271461035d57806359565fdb1461038d5780635fe39e0d146103a9576101f0565b806323b872dd116101c357806323b872dd1461028f5780634252ae9b146102ab57806342842e0e146102dc5780634dcc0aa6146102f8576101f0565b806301ffc9a7146101f557806306fdde0314610225578063081812fc14610243578063095ea7b314610273575b600080fd5b61020f600480360381019061020a91906134e1565b6106a2565b60405161021c9190613529565b60405180910390f35b61022d610784565b60405161023a91906135d4565b60405180910390f35b61025d6004803603810190610258919061362c565b610816565b60405161026a919061369a565b60405180910390f35b61028d600480360381019061028891906136e1565b61085c565b005b6102a960048036038101906102a49190613721565b610973565b005b6102c560048036038101906102c0919061362c565b6109d3565b6040516102d39291906137c9565b60405180910390f35b6102f660048036038101906102f19190613721565b610a9c565b005b610312600480360381019061030d919061381d565b610abc565b60405161031f91906138fc565b60405180910390f35b610342600480360381019061033d919061362c565b610bf9565b60405161035496959493929190613a1f565b60405180910390f35b61037760048036038101906103729190613a95565b610eaf565b6040516103849190613ad1565b60405180910390f35b6103a760048036038101906103a29190613bbb565b610ee7565b005b6103c360048036038101906103be9190613cfd565b610fa8565b005b6103df60048036038101906103da919061381d565b611064565b005b6103fb60048036038101906103f6919061362c565b6110a1565b604051610408919061369a565b60405180910390f35b61042b60048036038101906104269190613a95565b611127565b6040516104389190613ad1565b60405180910390f35b6104496111de565b005b61046560048036038101906104609190613ec0565b6111f2565b005b610481600480360381019061047c919061362c565b6112d3565b60405161048e91906135d4565b60405180910390f35b6104b160048036038101906104ac9190613f62565b61137f565b005b6104cd60048036038101906104c8919061362c565b6113bd565b6040516104da91906135d4565b60405180910390f35b6104eb611423565b6040516104f8919061369a565b60405180910390f35b61050961144c565b60405161051691906135d4565b60405180910390f35b61053960048036038101906105349190613fda565b6114de565b005b6105556004803603810190610550919061401a565b6114f4565b005b610571600480360381019061056c919061412f565b611604565b005b61058d6004803603810190610588919061362c565b611666565b60405161059a91906141c1565b60405180910390f35b6105bd60048036038101906105b8919061362c565b61168a565b6040516105ca91906135d4565b60405180910390f35b6105ed60048036038101906105e89190614201565b6116f4565b6040516105fa91906135d4565b60405180910390f35b61060b6118c4565b6040516106189190614384565b60405180910390f35b61063b6004803603810190610636919061439f565b6118ea565b6040516106489190613529565b60405180910390f35b61066b6004803603810190610666919061362c565b61197e565b60405161067d96959493929190613a1f565b60405180910390f35b6106a0600480360381019061069b9190613a95565b611c34565b005b60007f80ac58cd000000000000000000000000000000000000000000000000000000007bffffffffffffffffffffffffffffffffffffffffffffffffffffffff1916827bffffffffffffffffffffffffffffffffffffffffffffffffffffffff1916148061076d57507f5b5e139f000000000000000000000000000000000000000000000000000000007bffffffffffffffffffffffffffffffffffffffffffffffffffffffff1916827bffffffffffffffffffffffffffffffffffffffffffffffffffffffff1916145b8061077d575061077c82611cb7565b5b9050919050565b6060600180546107939061440e565b80601f01602080910402602001604051908101604052809291908181526020018280546107bf9061440e565b801561080c5780601f106107e15761010080835404028352916020019161080c565b820191906000526020600020905b8154815290600101906020018083116107ef57829003601f168201915b5050505050905090565b600061082182611d21565b6005600083815260200190815260200160002060009054906101000a900473ffffffffffffffffffffffffffffffffffffffff169050919050565b6000610867826110a1565b90508073ffffffffffffffffffffffffffffffffffffffff168373ffffffffffffffffffffffffffffffffffffffff16036108d7576040517f08c379a00000000000000000000000000000000000000000000000000000000081526004016108ce906144b1565b60405180910390fd5b8073ffffffffffffffffffffffffffffffffffffffff166108f6611d6c565b73ffffffffffffffffffffffffffffffffffffffff16148061092557506109248161091f611d6c565b6118ea565b5b610964576040517f08c379a000000000000000000000000000000000000000000000000000000000815260040161095b90614543565b60405180910390fd5b61096e8383611d74565b505050565b61098461097e611d6c565b82611e2d565b6109c3576040517f08c379a00000000000000000000000000000000000000000000000000000000081526004016109ba906145d5565b60405180910390fd5b6109ce838383611ec2565b505050565b600981815481106109e357600080fd5b90600052602060002090600202016000915090508060000160009054906101000a900460ff1690806001018054610a199061440e565b80601f0160208091040260200160405190810160405280929190818152602001828054610a459061440e565b8015610a925780601f10610a6757610100808354040283529160200191610a92565b820191906000526020600020905b815481529060010190602001808311610a7557829003601f168201915b5050505050905082565b610ab783838360405180602001604052806000815250611604565b505050565b610ac4613459565b600b8290806001815401808255809150506001900390600052602060002090600802016000909190919091508181610afc9190614de9565b50506000828060600190610b109190614acf565b810190610b1d9190615086565b90506000610b498260600151600081518110610b3c57610b3b6150cf565b5b60200260200101516121bb565b90506008600082815260200190815260200160002060009054906101000a900460ff1615610b7f57610b7a81612315565b610b8e565b610b8c8260e00151610eaf565b505b60008260e001518360600151600081518110610bad57610bac6150cf565b5b6020026020010151604051602001610bc69291906150fe565b60405160208183030381529060405290506040518060400160405280600115158152602001828152509350505050919050565b600a8181548110610c0957600080fd5b906000526020600020906008020160009150905080600001604051806040016040529081600082018054610c3c9061440e565b80601f0160208091040260200160405190810160405280929190818152602001828054610c689061440e565b8015610cb55780601f10610c8a57610100808354040283529160200191610cb5565b820191906000526020600020905b815481529060010190602001808311610c9857829003601f168201915b505050505081526020016001820154815250509080600201604051806040016040529081600082018054610ce89061440e565b80601f0160208091040260200160405190810160405280929190818152602001828054610d149061440e565b8015610d615780601f10610d3657610100808354040283529160200191610d61565b820191906000526020600020905b815481529060010190602001808311610d4457829003601f168201915b50505050508152602001600182015481525050908060040160009054906101000a900467ffffffffffffffff1690806005018054610d9e9061440e565b80601f0160208091040260200160405190810160405280929190818152602001828054610dca9061440e565b8015610e175780601f10610dec57610100808354040283529160200191610e17565b820191906000526020600020905b815481529060010190602001808311610dfa57829003601f168201915b505050505090806006016040518060400160405290816000820160009054906101000a900467ffffffffffffffff1667ffffffffffffffff1667ffffffffffffffff1681526020016000820160089054906101000a900467ffffffffffffffff1667ffffffffffffffff1667ffffffffffffffff1681525050908060070160009054906101000a900467ffffffffffffffff16905086565b6000610eb9612390565b610ec3600761240e565b610ed682610ed16007612424565b612432565b610ee06007612424565b9050919050565b600e60009054906101000a900473ffffffffffffffffffffffffffffffffffffffff1673ffffffffffffffffffffffffffffffffffffffff16637e9077b030600d600081548110610f3b57610f3a6150cf565b5b90600052602060002001600189898989896040518963ffffffff1660e01b8152600401610f6f98979695949392919061557c565b600060405180830381600087803b158015610f8957600080fd5b505af1158015610f9d573d6000803e3d6000fd5b505050505050505050565b6000805b600c8054905081101561101c5785600c8281548110610fce57610fcd6150cf565b5b90600052602060002001540361100957600c8181548110610ff257610ff16150cf565b5b90600052602060002001600090556001915061101c565b808061101490615638565b915050610fac565b508061105d576040517f08c379a0000000000000000000000000000000000000000000000000000000008152600401611054906156cc565b60405180910390fd5b5050505050565b600a819080600181540180825580915050600190039060005260206000209060080201600090919091909150818161109c9190614de9565b505050565b6000806110ad83612450565b9050600073ffffffffffffffffffffffffffffffffffffffff168173ffffffffffffffffffffffffffffffffffffffff160361111e576040517f08c379a000000000000000000000000000000000000000000000000000000000815260040161111590615738565b60405180910390fd5b80915050919050565b60008073ffffffffffffffffffffffffffffffffffffffff168273ffffffffffffffffffffffffffffffffffffffff1603611197576040517f08c379a000000000000000000000000000000000000000000000000000000000815260040161118e906157ca565b60405180910390fd5b600460008373ffffffffffffffffffffffffffffffffffffffff1673ffffffffffffffffffffffffffffffffffffffff168152602001908152602001600020549050919050565b6111e6612390565b6111f0600061248d565b565b3373ffffffffffffffffffffffffffffffffffffffff16611212856110a1565b73ffffffffffffffffffffffffffffffffffffffff1614611268576040517f08c379a000000000000000000000000000000000000000000000000000000000815260040161125f9061585c565b60405180910390fd5b61127184612551565b61127e84338585856125cc565b833373ffffffffffffffffffffffffffffffffffffffff167fb7076e58f35e6669b2f089716c3fe1955d72ff0150ad8a5f90475c77fa43bf99856040516112c5919061369a565b60405180910390a350505050565b600d81815481106112e357600080fd5b9060005260206000200160009150905080546112fe9061440e565b80601f016020809104026020016040519081016040528092919081815260200182805461132a9061440e565b80156113775780601f1061134c57610100808354040283529160200191611377565b820191906000526020600020905b81548152906001019060200180831161135a57829003601f168201915b505050505081565b600981908060018154018082558091505060019003906000526020600020906002020160009091909190915081816113b7919061593a565b50505050565b60606113c88261298d565b611407576040517f08c379a00000000000000000000000000000000000000000000000000000000081526004016113fe906159ba565b60405180910390fd5b6000608083901c905061141b8160206129ce565b915050919050565b60008060009054906101000a900473ffffffffffffffffffffffffffffffffffffffff16905090565b60606002805461145b9061440e565b80601f01602080910402602001604051908101604052809291908181526020018280546114879061440e565b80156114d45780601f106114a9576101008083540402835291602001916114d4565b820191906000526020600020905b8154815290600101906020018083116114b757829003601f168201915b5050505050905090565b6114f06114e9611d6c565b8383612c0a565b5050565b6000805b600d8054905081101561159357600d8181548110611519576115186150cf565b5b906000526020600020016040516020016115339190615a68565b60405160208183030381529060405280519060200120848460405160200161155c929190615aa4565b60405160208183030381529060405280519060200120036115805760019150611593565b808061158b90615638565b9150506114f8565b50806115d4576040517f08c379a00000000000000000000000000000000000000000000000000000000081526004016115cb90615b09565b60405180910390fd5b600c8590806001815401808255809150506001900390600052602060002001600090919091909150555050505050565b61161561160f611d6c565b83611e2d565b611654576040517f08c379a000000000000000000000000000000000000000000000000000000000815260040161164b906145d5565b60405180910390fd5b61166084848484612d76565b50505050565b600c818154811061167657600080fd5b906000526020600020016000915090505481565b60606116958261298d565b6116d4576040517f08c379a00000000000000000000000000000000000000000000000000000000081526004016116cb906159ba565b60405180910390fd5b6040518060800160405280605181526020016165de605191399050919050565b606060088686905011611733576040517f41cd6a4700000000000000000000000000000000000000000000000000000000815260040160405180910390fd5b600060405160200161174490615b4f565b604051602081830303815290604052805190602001208d8d60405160200161176d929190615aa4565b604051602081830303815290604052805190602001201461178f578c8c611792565b83835b8080601f016020809104026020016040519081016040528093929190818152602001838380828437600081840152601f19601f82011690508083019250505050505050915060005b600d8054905081101561187357600d81815481106117fb576117fa6150cf565b5b906000526020600020016040516020016118159190615a68565b604051602081830303815290604052805190602001208360405160200161183c9190615b95565b60405160208183030381529060405280519060200120036118605760019150611873565b808061186b90615638565b9150506117da565b50806118b4576040517f08c379a00000000000000000000000000000000000000000000000000000000081526004016118ab90615b09565b60405180910390fd5b509b9a5050505050505050505050565b600e60009054906101000a900473ffffffffffffffffffffffffffffffffffffffff1681565b6000600660008473ffffffffffffffffffffffffffffffffffffffff1673ffffffffffffffffffffffffffffffffffffffff16815260200190815260200160002060008373ffffffffffffffffffffffffffffffffffffffff1673ffffffffffffffffffffffffffffffffffffffff16815260200190815260200160002060009054906101000a900460ff16905092915050565b600b818154811061198e57600080fd5b9060005260206000209060080201600091509050806000016040518060400160405290816000820180546119c19061440e565b80601f01602080910402602001604051908101604052809291908181526020018280546119ed9061440e565b8015611a3a5780601f10611a0f57610100808354040283529160200191611a3a565b820191906000526020600020905b815481529060010190602001808311611a1d57829003601f168201915b505050505081526020016001820154815250509080600201604051806040016040529081600082018054611a6d9061440e565b80601f0160208091040260200160405190810160405280929190818152602001828054611a999061440e565b8015611ae65780601f10611abb57610100808354040283529160200191611ae6565b820191906000526020600020905b815481529060010190602001808311611ac957829003601f168201915b50505050508152602001600182015481525050908060040160009054906101000a900467ffffffffffffffff1690806005018054611b239061440e565b80601f0160208091040260200160405190810160405280929190818152602001828054611b4f9061440e565b8015611b9c5780601f10611b7157610100808354040283529160200191611b9c565b820191906000526020600020905b815481529060010190602001808311611b7f57829003601f168201915b505050505090806006016040518060400160405290816000820160009054906101000a900467ffffffffffffffff1667ffffffffffffffff1667ffffffffffffffff1681526020016000820160089054906101000a900467ffffffffffffffff1667ffffffffffffffff1667ffffffffffffffff1681525050908060070160009054906101000a900467ffffffffffffffff16905086565b611c3c612390565b600073ffffffffffffffffffffffffffffffffffffffff168173ffffffffffffffffffffffffffffffffffffffff1603611cab576040517f08c379a0000000000000000000000000000000000000000000000000000000008152600401611ca290615c1e565b60405180910390fd5b611cb48161248d565b50565b60007f01ffc9a7000000000000000000000000000000000000000000000000000000007bffffffffffffffffffffffffffffffffffffffffffffffffffffffff1916827bffffffffffffffffffffffffffffffffffffffffffffffffffffffff1916149050919050565b611d2a8161298d565b611d69576040517f08c379a0000000000000000000000000000000000000000000000000000000008152600401611d6090615738565b60405180910390fd5b50565b600033905090565b816005600083815260200190815260200160002060006101000a81548173ffffffffffffffffffffffffffffffffffffffff021916908373ffffffffffffffffffffffffffffffffffffffff160217905550808273ffffffffffffffffffffffffffffffffffffffff16611de7836110a1565b73ffffffffffffffffffffffffffffffffffffffff167f8c5be1e5ebec7d5bd14f71427d1e84f3dd0314c0f7b2291e5b200ac8c7c3b92560405160405180910390a45050565b600080611e39836110a1565b90508073ffffffffffffffffffffffffffffffffffffffff168473ffffffffffffffffffffffffffffffffffffffff161480611e7b5750611e7a81856118ea565b5b80611eb957508373ffffffffffffffffffffffffffffffffffffffff16611ea184610816565b73ffffffffffffffffffffffffffffffffffffffff16145b91505092915050565b8273ffffffffffffffffffffffffffffffffffffffff16611ee2826110a1565b73ffffffffffffffffffffffffffffffffffffffff1614611f38576040517f08c379a0000000000000000000000000000000000000000000000000000000008152600401611f2f90615cb0565b60405180910390fd5b600073ffffffffffffffffffffffffffffffffffffffff168273ffffffffffffffffffffffffffffffffffffffff1603611fa7576040517f08c379a0000000000000000000000000000000000000000000000000000000008152600401611f9e90615d42565b60405180910390fd5b611fb48383836001612dd2565b8273ffffffffffffffffffffffffffffffffffffffff16611fd4826110a1565b73ffffffffffffffffffffffffffffffffffffffff161461202a576040517f08c379a000000000000000000000000000000000000000000000000000000000815260040161202190615cb0565b60405180910390fd5b6005600082815260200190815260200160002060006101000a81549073ffffffffffffffffffffffffffffffffffffffff02191690556001600460008573ffffffffffffffffffffffffffffffffffffffff1673ffffffffffffffffffffffffffffffffffffffff168152602001908152602001600020600082825403925050819055506001600460008473ffffffffffffffffffffffffffffffffffffffff1673ffffffffffffffffffffffffffffffffffffffff16815260200190815260200160002060008282540192505081905550816003600083815260200190815260200160002060006101000a81548173ffffffffffffffffffffffffffffffffffffffff021916908373ffffffffffffffffffffffffffffffffffffffff160217905550808273ffffffffffffffffffffffffffffffffffffffff168473ffffffffffffffffffffffffffffffffffffffff167fddf252ad1be2c89b69c2b068fc378daa952ba7f163c4a11628f55a4df523b3ef60405160405180910390a46121b68383836001612dd8565b505050565b60008060009050600083905060005b815181101561230a57603060f81b8282815181106121eb576121ea6150cf565b5b602001015160f81c60f81b7effffffffffffffffffffffffffffffffffffffffffffffffffffffffffffff1916101580156122695750603960f81b828281518110612239576122386150cf565b5b602001015160f81c60f81b7effffffffffffffffffffffffffffffffffffffffffffffffffffffffffffff191611155b156122bc576030828281518110612283576122826150cf565b5b602001015160f81c60f81b60f81c60ff1661229e9190615d62565b600a846122ab9190615d96565b6122b59190615dd8565b92506122f7565b6040517f08c379a00000000000000000000000000000000000000000000000000000000081526004016122ee90615e7e565b60405180910390fd5b808061230290615638565b9150506121ca565b508192505050919050565b60006008600083815260200190815260200160002060006101000a81548160ff0219169083151502179055508061234b826110a1565b73ffffffffffffffffffffffffffffffffffffffff167ff15274e1fe5043a963d7d1dfdb31b4c69407f0c6f0fc77ddf03f605961cfe28460405160405180910390a350565b612398611d6c565b73ffffffffffffffffffffffffffffffffffffffff166123b6611423565b73ffffffffffffffffffffffffffffffffffffffff161461240c576040517f08c379a000000000000000000000000000000000000000000000000000000000815260040161240390615eea565b60405180910390fd5b565b6001816000016000828254019250508190555050565b600081600001549050919050565b61244c828260405180602001604052806000815250612dde565b5050565b60006003600083815260200190815260200160002060009054906101000a900473ffffffffffffffffffffffffffffffffffffffff169050919050565b60008060009054906101000a900473ffffffffffffffffffffffffffffffffffffffff169050816000806101000a81548173ffffffffffffffffffffffffffffffffffffffff021916908373ffffffffffffffffffffffffffffffffffffffff1602179055508173ffffffffffffffffffffffffffffffffffffffff168173ffffffffffffffffffffffffffffffffffffffff167f8be0079c531659141344cd1fd0a4f28419497f9722a3daafe3b4186f6b6457e060405160405180910390a35050565b60016008600083815260200190815260200160002060006101000a81548160ff02191690831515021790555080612587826110a1565b73ffffffffffffffffffffffffffffffffffffffff167fa9262575db5f22d8b54192efce38602ac59d04bcdbcba1962fc351473de5614660405160405180910390a350565b600115156008600087815260200190815260200160002060009054906101000a900460ff16151514612633576040517f08c379a000000000000000000000000000000000000000000000000000000000815260040161262a90615f56565b60405180910390fd5b600060405180610120016040528061264a886113bd565b81526020016040518060800160405280605181526020016165de605191398152602001604051806020016040528060008152508152602001600167ffffffffffffffff81111561269d5761269c613d76565b5b6040519080825280602002602001820160405280156126d057816020015b60608152602001906001900390816126bb5790505b508152602001600167ffffffffffffffff8111156126f1576126f0613d76565b5b60405190808252806020026020018201604052801561272457816020015b606081526020019060019003908161270f5790505b508152602001600167ffffffffffffffff81111561274557612744613d76565b5b60405190808252806020026020018201604052801561277857816020015b60608152602001906001900390816127635790505b5081526020018673ffffffffffffffffffffffffffffffffffffffff1681526020018573ffffffffffffffffffffffffffffffffffffffff1681526020018481525090506127c586612e39565b81606001516000815181106127dd576127dc6150cf565b5b60200260200101819052506127f18661168a565b8160800151600081518110612809576128086150cf565b5b60200260200101819052506040518060400160405280601481526020017f6164646974696f6e616c206461746120686572650000000000000000000000008152508160a00151600081518110612862576128616150cf565b5b60200260200101819052506000816040516020016128809190616136565b60405160208183030381529060405290506000633b9aca00618ca0426128a69190615dd8565b6128b09190615d96565b90506000600c6000815481106128c9576128c86150cf565b5b90600052602060002001549050600e60009054906101000a900473ffffffffffffffffffffffffffffffffffffffff1673ffffffffffffffffffffffffffffffffffffffff1663ca034bff61292d8780360381019061292891906161bc565b612f07565b8386868a6040518663ffffffff1660e01b81526004016129509493929190616269565b6000604051808303818588803b15801561296957600080fd5b505af115801561297d573d6000803e3d6000fd5b5050505050505050505050505050565b60008073ffffffffffffffffffffffffffffffffffffffff166129af83612450565b73ffffffffffffffffffffffffffffffffffffffff1614159050919050565b6060600060028360026129e19190615d96565b6129eb9190615dd8565b67ffffffffffffffff811115612a0457612a03613d76565b5b6040519080825280601f01601f191660200182016040528015612a365781602001600182028036833780820191505090505b5090507f300000000000000000000000000000000000000000000000000000000000000081600081518110612a6e57612a6d6150cf565b5b60200101907effffffffffffffffffffffffffffffffffffffffffffffffffffffffffffff1916908160001a9053507f780000000000000000000000000000000000000000000000000000000000000081600181518110612ad257612ad16150cf565b5b60200101907effffffffffffffffffffffffffffffffffffffffffffffffffffffffffffff1916908160001a90535060006001846002612b129190615d96565b612b1c9190615dd8565b90505b6001811115612bbc577f3031323334353637383961626364656600000000000000000000000000000000600f861660108110612b5e57612b5d6150cf565b5b1a60f81b828281518110612b7557612b746150cf565b5b60200101907effffffffffffffffffffffffffffffffffffffffffffffffffffffffffffff1916908160001a905350600485901c945080612bb5906162b5565b9050612b1f565b5060008414612c00576040517f08c379a0000000000000000000000000000000000000000000000000000000008152600401612bf79061632a565b60405180910390fd5b8091505092915050565b8173ffffffffffffffffffffffffffffffffffffffff168373ffffffffffffffffffffffffffffffffffffffff1603612c78576040517f08c379a0000000000000000000000000000000000000000000000000000000008152600401612c6f90616396565b60405180910390fd5b80600660008573ffffffffffffffffffffffffffffffffffffffff1673ffffffffffffffffffffffffffffffffffffffff16815260200190815260200160002060008473ffffffffffffffffffffffffffffffffffffffff1673ffffffffffffffffffffffffffffffffffffffff16815260200190815260200160002060006101000a81548160ff0219169083151502179055508173ffffffffffffffffffffffffffffffffffffffff168373ffffffffffffffffffffffffffffffffffffffff167f17307eab39ab6107e8899845ad3d59bd9653f200f220920489ca2b5937696c3183604051612d699190613529565b60405180910390a3505050565b612d81848484611ec2565b612d8d84848484612f3f565b612dcc576040517f08c379a0000000000000000000000000000000000000000000000000000000008152600401612dc390616428565b60405180910390fd5b50505050565b50505050565b50505050565b612de883836130c6565b612df56000848484612f3f565b612e34576040517f08c379a0000000000000000000000000000000000000000000000000000000008152600401612e2b90616428565b60405180910390fd5b505050565b606060006001612e48846132e3565b01905060008167ffffffffffffffff811115612e6757612e66613d76565b5b6040519080825280601f01601f191660200182016040528015612e995781602001600182028036833780820191505090505b509050600082602001820190505b600115612efc578080600190039150507f3031323334353637383961626364656600000000000000000000000000000000600a86061a8153600a8581612ef057612eef616448565b5b04945060008503612ea7575b819350505050919050565b60008082602001518360000151612f1e9190615dd8565b905080836040015111612f315780612f37565b82604001515b915050919050565b6000612f608473ffffffffffffffffffffffffffffffffffffffff16613436565b156130b9578373ffffffffffffffffffffffffffffffffffffffff1663150b7a02612f89611d6c565b8786866040518563ffffffff1660e01b8152600401612fab9493929190616477565b6020604051808303816000875af1925050508015612fe757506040513d601f19601f82011682018060405250810190612fe491906164d8565b60015b613069573d8060008114613017576040519150601f19603f3d011682016040523d82523d6000602084013e61301c565b606091505b506000815103613061576040517f08c379a000000000000000000000000000000000000000000000000000000000815260040161305890616428565b60405180910390fd5b805181602001fd5b63150b7a0260e01b7bffffffffffffffffffffffffffffffffffffffffffffffffffffffff1916817bffffffffffffffffffffffffffffffffffffffffffffffffffffffff1916149150506130be565b600190505b949350505050565b600073ffffffffffffffffffffffffffffffffffffffff168273ffffffffffffffffffffffffffffffffffffffff1603613135576040517f08c379a000000000000000000000000000000000000000000000000000000000815260040161312c90616551565b60405180910390fd5b61313e8161298d565b1561317e576040517f08c379a0000000000000000000000000000000000000000000000000000000008152600401613175906165bd565b60405180910390fd5b61318c600083836001612dd2565b6131958161298d565b156131d5576040517f08c379a00000000000000000000000000000000000000000000000000000000081526004016131cc906165bd565b60405180910390fd5b6001600460008473ffffffffffffffffffffffffffffffffffffffff1673ffffffffffffffffffffffffffffffffffffffff16815260200190815260200160002060008282540192505081905550816003600083815260200190815260200160002060006101000a81548173ffffffffffffffffffffffffffffffffffffffff021916908373ffffffffffffffffffffffffffffffffffffffff160217905550808273ffffffffffffffffffffffffffffffffffffffff16600073ffffffffffffffffffffffffffffffffffffffff167fddf252ad1be2c89b69c2b068fc378daa952ba7f163c4a11628f55a4df523b3ef60405160405180910390a46132df600083836001612dd8565b5050565b600080600090507a184f03e93ff9f4daa797ed6e38ed64bf6a1f0100000000000000008310613341577a184f03e93ff9f4daa797ed6e38ed64bf6a1f010000000000000000838161333757613336616448565b5b0492506040810190505b6d04ee2d6d415b85acef8100000000831061337e576d04ee2d6d415b85acef8100000000838161337457613373616448565b5b0492506020810190505b662386f26fc1000083106133ad57662386f26fc1000083816133a3576133a2616448565b5b0492506010810190505b6305f5e10083106133d6576305f5e10083816133cc576133cb616448565b5b0492506008810190505b61271083106133fb5761271083816133f1576133f0616448565b5b0492506004810190505b6064831061341e576064838161341457613413616448565b5b0492506002810190505b600a831061342d576001810190505b80915050919050565b6000808273ffffffffffffffffffffffffffffffffffffffff163b119050919050565b6040518060400160405280600015158152602001606081525090565b6000604051905090565b600080fd5b600080fd5b60007fffffffff0000000000000000000000000000000000000000000000000000000082169050919050565b6134be81613489565b81146134c957600080fd5b50565b6000813590506134db816134b5565b92915050565b6000602082840312156134f7576134f661347f565b5b6000613505848285016134cc565b91505092915050565b60008115159050919050565b6135238161350e565b82525050565b600060208201905061353e600083018461351a565b92915050565b600081519050919050565b600082825260208201905092915050565b60005b8381101561357e578082015181840152602081019050613563565b60008484015250505050565b6000601f19601f8301169050919050565b60006135a682613544565b6135b0818561354f565b93506135c0818560208601613560565b6135c98161358a565b840191505092915050565b600060208201905081810360008301526135ee818461359b565b905092915050565b6000819050919050565b613609816135f6565b811461361457600080fd5b50565b60008135905061362681613600565b92915050565b6000602082840312156136425761364161347f565b5b600061365084828501613617565b91505092915050565b600073ffffffffffffffffffffffffffffffffffffffff82169050919050565b600061368482613659565b9050919050565b61369481613679565b82525050565b60006020820190506136af600083018461368b565b92915050565b6136be81613679565b81146136c957600080fd5b50565b6000813590506136db816136b5565b92915050565b600080604083850312156136f8576136f761347f565b5b6000613706858286016136cc565b925050602061371785828601613617565b9150509250929050565b60008060006060848603121561373a5761373961347f565b5b6000613748868287016136cc565b9350506020613759868287016136cc565b925050604061376a86828701613617565b9150509250925092565b600081519050919050565b600082825260208201905092915050565b600061379b82613774565b6137a5818561377f565b93506137b5818560208601613560565b6137be8161358a565b840191505092915050565b60006040820190506137de600083018561351a565b81810360208301526137f08184613790565b90509392505050565b600080fd5b600060e08284031215613814576138136137f9565b5b81905092915050565b6000602082840312156138335761383261347f565b5b600082013567ffffffffffffffff81111561385157613850613484565b5b61385d848285016137fe565b91505092915050565b61386f8161350e565b82525050565b600082825260208201905092915050565b600061389182613774565b61389b8185613875565b93506138ab818560208601613560565b6138b48161358a565b840191505092915050565b60006040830160008301516138d76000860182613866565b50602083015184820360208601526138ef8282613886565b9150508091505092915050565b6000602082019050818103600083015261391681846138bf565b905092915050565b600082825260208201905092915050565b600061393a82613544565b613944818561391e565b9350613954818560208601613560565b61395d8161358a565b840191505092915050565b6000819050919050565b61397b81613968565b82525050565b6000604083016000830151848203600086015261399e828261392f565b91505060208301516139b36020860182613972565b508091505092915050565b600067ffffffffffffffff82169050919050565b6139db816139be565b82525050565b6139ea816139be565b82525050565b604082016000820151613a0660008501826139e1565b506020820151613a1960208501826139e1565b50505050565b600060e0820190508181036000830152613a398189613981565b90508181036020830152613a4d8188613981565b9050613a5c60408301876139d2565b8181036060830152613a6e8186613790565b9050613a7d60808301856139f0565b613a8a60c08301846139d2565b979650505050505050565b600060208284031215613aab57613aaa61347f565b5b6000613ab9848285016136cc565b91505092915050565b613acb816135f6565b82525050565b6000602082019050613ae66000830184613ac2565b92915050565b613af58161350e565b8114613b0057600080fd5b50565b600081359050613b1281613aec565b92915050565b600080fd5b600080fd5b600080fd5b60008083601f840112613b3d57613b3c613b18565b5b8235905067ffffffffffffffff811115613b5a57613b59613b1d565b5b602083019150836020820283011115613b7657613b75613b22565b5b9250929050565b600060608284031215613b9357613b926137f9565b5b81905092915050565b600060608284031215613bb257613bb16137f9565b5b81905092915050565b600080600080600060808688031215613bd757613bd661347f565b5b6000613be588828901613b03565b955050602086013567ffffffffffffffff811115613c0657613c05613484565b5b613c1288828901613b27565b9450945050604086013567ffffffffffffffff811115613c3557613c34613484565b5b613c4188828901613b7d565b925050606086013567ffffffffffffffff811115613c6257613c61613484565b5b613c6e88828901613b9c565b9150509295509295909350565b613c8481613968565b8114613c8f57600080fd5b50565b600081359050613ca181613c7b565b92915050565b60008083601f840112613cbd57613cbc613b18565b5b8235905067ffffffffffffffff811115613cda57613cd9613b1d565b5b602083019150836001820283011115613cf657613cf5613b22565b5b9250929050565b60008060008060608587031215613d1757613d1661347f565b5b6000613d2587828801613c92565b945050602085013567ffffffffffffffff811115613d4657613d45613484565b5b613d5287828801613ca7565b93509350506040613d6587828801613c92565b91505092959194509250565b600080fd5b7f4e487b7100000000000000000000000000000000000000000000000000000000600052604160045260246000fd5b613dae8261358a565b810181811067ffffffffffffffff82111715613dcd57613dcc613d76565b5b80604052505050565b6000613de0613475565b9050613dec8282613da5565b919050565b600067ffffffffffffffff821115613e0c57613e0b613d76565b5b613e158261358a565b9050602081019050919050565b82818337600083830152505050565b6000613e44613e3f84613df1565b613dd6565b905082815260208101848484011115613e6057613e5f613d71565b5b613e6b848285613e22565b509392505050565b600082601f830112613e8857613e87613b18565b5b8135613e98848260208601613e31565b91505092915050565b600060608284031215613eb757613eb66137f9565b5b81905092915050565b60008060008060c08587031215613eda57613ed961347f565b5b6000613ee887828801613617565b9450506020613ef9878288016136cc565b935050604085013567ffffffffffffffff811115613f1a57613f19613484565b5b613f2687828801613e73565b9250506060613f3787828801613ea1565b91505092959194509250565b600060408284031215613f5957613f586137f9565b5b81905092915050565b60008060408385031215613f7957613f7861347f565b5b600083013567ffffffffffffffff811115613f9757613f96613484565b5b613fa3858286016137fe565b925050602083013567ffffffffffffffff811115613fc457613fc3613484565b5b613fd085828601613f43565b9150509250929050565b60008060408385031215613ff157613ff061347f565b5b6000613fff858286016136cc565b925050602061401085828601613b03565b9150509250929050565b600080600080606085870312156140345761403361347f565b5b600061404287828801613c92565b945050602061405387828801613c92565b935050604085013567ffffffffffffffff81111561407457614073613484565b5b61408087828801613ca7565b925092505092959194509250565b600067ffffffffffffffff8211156140a9576140a8613d76565b5b6140b28261358a565b9050602081019050919050565b60006140d26140cd8461408e565b613dd6565b9050828152602081018484840111156140ee576140ed613d71565b5b6140f9848285613e22565b509392505050565b600082601f83011261411657614115613b18565b5b81356141268482602086016140bf565b91505092915050565b600080600080608085870312156141495761414861347f565b5b6000614157878288016136cc565b9450506020614168878288016136cc565b935050604061417987828801613617565b925050606085013567ffffffffffffffff81111561419a57614199613484565b5b6141a687828801614101565b91505092959194509250565b6141bb81613968565b82525050565b60006020820190506141d660008301846141b2565b92915050565b600381106141e957600080fd5b50565b6000813590506141fb816141dc565b92915050565b600080600080600080600080600080600060e08c8e0312156142265761422561347f565b5b60008c013567ffffffffffffffff81111561424457614243613484565b5b6142508e828f01613ca7565b9b509b505060206142638e828f016141ec565b99505060406142748e828f01613b03565b98505060608c013567ffffffffffffffff81111561429557614294613484565b5b6142a18e828f01613b27565b975097505060808c013567ffffffffffffffff8111156142c4576142c3613484565b5b6142d08e828f01613ca7565b955095505060a06142e38e828f01613c92565b93505060c08c013567ffffffffffffffff81111561430457614303613484565b5b6143108e828f01613ca7565b92509250509295989b509295989b9093969950565b6000819050919050565b600061434a61434561434084613659565b614325565b613659565b9050919050565b600061435c8261432f565b9050919050565b600061436e82614351565b9050919050565b61437e81614363565b82525050565b60006020820190506143996000830184614375565b92915050565b600080604083850312156143b6576143b561347f565b5b60006143c4858286016136cc565b92505060206143d5858286016136cc565b9150509250929050565b7f4e487b7100000000000000000000000000000000000000000000000000000000600052602260045260246000fd5b6000600282049050600182168061442657607f821691505b602082108103614439576144386143df565b5b50919050565b7f4552433732313a20617070726f76616c20746f2063757272656e74206f776e6560008201527f7200000000000000000000000000000000000000000000000000000000000000602082015250565b600061449b60218361354f565b91506144a68261443f565b604082019050919050565b600060208201905081810360008301526144ca8161448e565b9050919050565b7f4552433732313a20617070726f76652063616c6c6572206973206e6f7420746f60008201527f6b656e206f776e6572206f7220617070726f76656420666f7220616c6c000000602082015250565b600061452d603d8361354f565b9150614538826144d1565b604082019050919050565b6000602082019050818103600083015261455c81614520565b9050919050565b7f4552433732313a2063616c6c6572206973206e6f7420746f6b656e206f776e6560008201527f72206f7220617070726f76656400000000000000000000000000000000000000602082015250565b60006145bf602d8361354f565b91506145ca82614563565b604082019050919050565b600060208201905081810360008301526145ee816145b2565b9050919050565b600080fd5b600080fd5b600080fd5b6000823560016040038336030381126146205761461f6145f5565b5b80830191505092915050565b60008083356001602003843603038112614649576146486145f5565b5b80840192508235915067ffffffffffffffff82111561466b5761466a6145fa565b5b602083019250600182023603831315614687576146866145ff565b5b509250929050565b600082905092915050565b60008190508160005260206000209050919050565b60006020601f8301049050919050565b600082821b905092915050565b6000600883026146fc7fffffffffffffffffffffffffffffffffffffffffffffffffffffffffffffffff826146bf565b61470686836146bf565b95508019841693508086168417925050509392505050565b600061473961473461472f846135f6565b614325565b6135f6565b9050919050565b6000819050919050565b6147538361471e565b61476761475f82614740565b8484546146cc565b825550505050565b600090565b61477c61476f565b61478781848461474a565b505050565b5b818110156147ab576147a0600082614774565b60018101905061478d565b5050565b601f8211156147f0576147c18161469a565b6147ca846146af565b810160208510156147d9578190505b6147ed6147e5856146af565b83018261478c565b50505b505050565b600082821c905092915050565b6000614813600019846008026147f5565b1980831691505092915050565b600061482c8383614802565b9150826002028217905092915050565b614846838361468f565b67ffffffffffffffff81111561485f5761485e613d76565b5b614869825461440e565b6148748282856147af565b6000601f8311600181146148a35760008415614891578287013590505b61489b8582614820565b865550614903565b601f1984166148b18661469a565b60005b828110156148d9578489013582556001820191506020850194506020810190506148b4565b868310156148f657848901356148f2601f891682614802565b8355505b6001600288020188555050505b50505050505050565b61491783838361483c565b505050565b6000813561492981613c7b565b80915050919050565b60008160001b9050919050565b60007fffffffffffffffffffffffffffffffffffffffffffffffffffffffffffffffff61496b84614932565b9350801983169250808416831791505092915050565b600061498c82613968565b9050919050565b60008160001c9050919050565b60006149ab82614993565b9050919050565b6149bb82614981565b6149ce6149c7826149a0565b835461493f565b8255505050565b60008101600083016149e7818561462c565b6149f281838661490c565b50505050600181016020830180614a088161491c565b9050614a1481846149b2565b5050505050565b614a2582826149d5565b5050565b614a32816139be565b8114614a3d57600080fd5b50565b60008135614a4d81614a29565b80915050919050565b600067ffffffffffffffff614a6a84614932565b9350801983169250808416831791505092915050565b6000614a9b614a96614a91846139be565b614325565b6139be565b9050919050565b6000819050919050565b614ab582614a80565b614ac8614ac182614aa2565b8354614a56565b8255505050565b60008083356001602003843603038112614aec57614aeb6145f5565b5b80840192508235915067ffffffffffffffff821115614b0e57614b0d6145fa565b5b602083019250600182023603831315614b2a57614b296145ff565b5b509250929050565b600082905092915050565b60008190508160005260206000209050919050565b601f821115614b9357614b6481614b3d565b614b6d846146af565b81016020851015614b7c578190505b614b90614b88856146af565b83018261478c565b50505b505050565b614ba28383614b32565b67ffffffffffffffff811115614bbb57614bba613d76565b5b614bc5825461440e565b614bd0828285614b52565b6000601f831160018114614bff5760008415614bed578287013590505b614bf78582614820565b865550614c5f565b601f198416614c0d86614b3d565b60005b82811015614c3557848901358255600182019150602085019450602081019050614c10565b86831015614c525784890135614c4e601f891682614802565b8355505b6001600288020188555050505b50505050505050565b614c73838383614b98565b505050565b60008160401b9050919050565b60006fffffffffffffffff0000000000000000614ca184614c78565b9350801983169250808416831791505092915050565b614cc082614a80565b614cd3614ccc82614aa2565b8354614c85565b8255505050565b600081016000830180614cec81614a40565b9050614cf88184614aac565b505050600081016020830180614d0d81614a40565b9050614d198184614cb7565b5050505050565b614d2a8282614cda565b5050565b6000810160008301614d408185614604565b614d4a8184614a1b565b5050506002810160208301614d5f8185614604565b614d698184614a1b565b505050600481016040830180614d7e81614a40565b9050614d8a8184614aac565b5050506005810160608301614d9f8185614acf565b614daa818386614c68565b50505050600681016080830180614dc18184614d20565b5050506007810160c0830180614dd681614a40565b9050614de28184614aac565b5050505050565b614df38282614d2e565b5050565b600080fd5b600080fd5b600067ffffffffffffffff821115614e1c57614e1b613d76565b5b602082029050602081019050919050565b6000614e40614e3b84614e01565b613dd6565b90508083825260208201905060208402830185811115614e6357614e62613b22565b5b835b81811015614eaa57803567ffffffffffffffff811115614e8857614e87613b18565b5b808601614e958982613e73565b85526020850194505050602081019050614e65565b5050509392505050565b600082601f830112614ec957614ec8613b18565b5b8135614ed9848260208601614e2d565b91505092915050565b60006101208284031215614ef957614ef8614df7565b5b614f04610120613dd6565b9050600082013567ffffffffffffffff811115614f2457614f23614dfc565b5b614f3084828501613e73565b600083015250602082013567ffffffffffffffff811115614f5457614f53614dfc565b5b614f6084828501613e73565b602083015250604082013567ffffffffffffffff811115614f8457614f83614dfc565b5b614f9084828501613e73565b604083015250606082013567ffffffffffffffff811115614fb457614fb3614dfc565b5b614fc084828501614eb4565b606083015250608082013567ffffffffffffffff811115614fe457614fe3614dfc565b5b614ff084828501614eb4565b60808301525060a082013567ffffffffffffffff81111561501457615013614dfc565b5b61502084828501614eb4565b60a08301525060c0615034848285016136cc565b60c08301525060e0615048848285016136cc565b60e08301525061010082013567ffffffffffffffff81111561506d5761506c614dfc565b5b61507984828501613e73565b6101008301525092915050565b60006020828403121561509c5761509b61347f565b5b600082013567ffffffffffffffff8111156150ba576150b9613484565b5b6150c684828501614ee2565b91505092915050565b7f4e487b7100000000000000000000000000000000000000000000000000000000600052603260045260246000fd5b6000604082019050615113600083018561368b565b8181036020830152615125818461359b565b90509392505050565b600061513982614351565b9050919050565b6151498161512e565b82525050565b6000815461515c8161440e565b615166818661354f565b945060018216600081146151815760018114615197576151ca565b60ff1983168652811515602002860193506151ca565b6151a08561469a565b60005b838110156151c2578154818901526001820191506020810190506151a3565b808801955050505b50505092915050565b7f4e487b7100000000000000000000000000000000000000000000000000000000600052602160045260246000fd5b60038110615213576152126151d3565b5b50565b600081905061522482615202565b919050565b600061523482615216565b9050919050565b61524481615229565b82525050565b600082825260208201905092915050565b6000819050919050565b6000615271838561391e565b935061527e838584613e22565b6152878361358a565b840190509392505050565b600061529f848484615265565b90509392505050565b600080fd5b600080fd5b600080fd5b600080833560016020038436030381126152d4576152d36152b2565b5b83810192508235915060208301925067ffffffffffffffff8211156152fc576152fb6152a8565b5b600182023603831315615312576153116152ad565b5b509250929050565b6000602082019050919050565b6000615333838561524a565b9350836020840285016153458461525b565b8060005b8781101561538b57848403895261536082846152b7565b61536b868284615292565b95506153768461531a565b935060208b019a505050600181019050615349565b50829750879450505050509392505050565b60006153ac6020840184613c92565b905092915050565b6000606083016153c760008401846152b7565b85830360008701526153da838284615265565b925050506153eb602084018461539d565b6153f86020860182613972565b5061540660408401846152b7565b8583036040870152615419838284615265565b925050508091505092915050565b600082905092915050565b60008135905061544181614a29565b92915050565b60006154566020840184615432565b905092915050565b6040820161546f6000830183615447565b61547c60008501826139e1565b5061548a6020830183615447565b61549760208501826139e1565b50505050565b600080833560016020038436030381126154ba576154b96152b2565b5b83810192508235915060208301925067ffffffffffffffff8211156154e2576154e16152a8565b5b6001820236038313156154f8576154f76152ad565b5b509250929050565b600061550c8385613875565b9350615519838584613e22565b6155228361358a565b840190509392505050565b6000606083016155406000840184615427565b61554d600086018261545e565b5061555b604084018461549d565b858303604087015261556e838284615500565b925050508091505092915050565b600060e082019050615591600083018b615140565b81810360208301526155a3818a61514f565b90506155b2604083018961523b565b6155bf606083018861351a565b81810360808301526155d2818688615327565b905081810360a08301526155e681856153b4565b905081810360c08301526155fa818461552d565b90509998505050505050505050565b7f4e487b7100000000000000000000000000000000000000000000000000000000600052601160045260246000fd5b6000615643826135f6565b91507fffffffffffffffffffffffffffffffffffffffffffffffffffffffffffffffff820361567557615674615609565b5b600182019050919050565b7f4368616e6e656c206e6f7420666f756e64000000000000000000000000000000600082015250565b60006156b660118361354f565b91506156c182615680565b602082019050919050565b600060208201905081810360008301526156e5816156a9565b9050919050565b7f4552433732313a20696e76616c696420746f6b656e2049440000000000000000600082015250565b600061572260188361354f565b915061572d826156ec565b602082019050919050565b6000602082019050818103600083015261575181615715565b9050919050565b7f4552433732313a2061646472657373207a65726f206973206e6f74206120766160008201527f6c6964206f776e65720000000000000000000000000000000000000000000000602082015250565b60006157b460298361354f565b91506157bf82615758565b604082019050919050565b600060208201905081810360008301526157e3816157a7565b9050919050565b7f596f7520617265206e6f7420746865206f776e6572206f66207468697320746f60008201527f6b656e0000000000000000000000000000000000000000000000000000000000602082015250565b600061584660238361354f565b9150615851826157ea565b604082019050919050565b6000602082019050818103600083015261587581615839565b9050919050565b6000813561588981613aec565b80915050919050565b600060ff61589f84614932565b9350801983169250808416831791505092915050565b60006158c08261350e565b9050919050565b6000819050919050565b6158da826158b5565b6158ed6158e6826158c7565b8354615892565b8255505050565b6000810160008301806159068161587c565b905061591281846158d1565b50505060018101602083016159278185614acf565b615932818386614c68565b505050505050565b61594482826158f4565b5050565b7f4552433732314d657461646174613a2055524920717565727920666f72206e6f60008201527f6e6578697374656e7420746f6b656e0000000000000000000000000000000000602082015250565b60006159a4602f8361354f565b91506159af82615948565b604082019050919050565b600060208201905081810360008301526159d381615997565b9050919050565b600081905092915050565b600081546159f28161440e565b6159fc81866159da565b94506001821660008114615a175760018114615a2c57615a5f565b60ff1983168652811515820286019350615a5f565b615a358561469a565b60005b83811015615a5757815481890152600182019150602081019050615a38565b838801955050505b50505092915050565b6000615a7482846159e5565b915081905092915050565b6000615a8b83856159da565b9350615a98838584613e22565b82840190509392505050565b6000615ab1828486615a7f565b91508190509392505050565b7f556e737570706f727465642076657273696f6e00000000000000000000000000600082015250565b6000615af360138361354f565b9150615afe82615abd565b602082019050919050565b60006020820190508181036000830152615b2281615ae6565b9050919050565b50565b6000615b396000836159da565b9150615b4482615b29565b600082019050919050565b6000615b5a82615b2c565b9150819050919050565b6000615b6f82613544565b615b7981856159da565b9350615b89818560208601613560565b80840191505092915050565b6000615ba18284615b64565b915081905092915050565b7f4f776e61626c653a206e6577206f776e657220697320746865207a65726f206160008201527f6464726573730000000000000000000000000000000000000000000000000000602082015250565b6000615c0860268361354f565b9150615c1382615bac565b604082019050919050565b60006020820190508181036000830152615c3781615bfb565b9050919050565b7f4552433732313a207472616e736665722066726f6d20696e636f72726563742060008201527f6f776e6572000000000000000000000000000000000000000000000000000000602082015250565b6000615c9a60258361354f565b9150615ca582615c3e565b604082019050919050565b60006020820190508181036000830152615cc981615c8d565b9050919050565b7f4552433732313a207472616e7366657220746f20746865207a65726f2061646460008201527f7265737300000000000000000000000000000000000000000000000000000000602082015250565b6000615d2c60248361354f565b9150615d3782615cd0565b604082019050919050565b60006020820190508181036000830152615d5b81615d1f565b9050919050565b6000615d6d826135f6565b9150615d78836135f6565b9250828203905081811115615d9057615d8f615609565b5b92915050565b6000615da1826135f6565b9150615dac836135f6565b9250828202615dba816135f6565b91508282048414831517615dd157615dd0615609565b5b5092915050565b6000615de3826135f6565b9150615dee836135f6565b9250828201905080821115615e0657615e05615609565b5b92915050565b7f537472696e6720636f6e7461696e73206e6f6e2d6e756d65726963206368617260008201527f6163746572730000000000000000000000000000000000000000000000000000602082015250565b6000615e6860268361354f565b9150615e7382615e0c565b604082019050919050565b60006020820190508181036000830152615e9781615e5b565b9050919050565b7f4f776e61626c653a2063616c6c6572206973206e6f7420746865206f776e6572600082015250565b6000615ed460208361354f565b9150615edf82615e9e565b602082019050919050565b60006020820190508181036000830152615f0381615ec7565b9050919050565b7f5468697320746f6b656e206973206e6f74206c6f636b65640000000000000000600082015250565b6000615f4060188361354f565b9150615f4b82615f0a565b602082019050919050565b60006020820190508181036000830152615f6f81615f33565b9050919050565b600081519050919050565b600082825260208201905092915050565b6000819050602082019050919050565b6000615fae838361392f565b905092915050565b6000602082019050919050565b6000615fce82615f76565b615fd88185615f81565b935083602082028501615fea85615f92565b8060005b8581101561602657848403895281516160078582615fa2565b945061601283615fb6565b925060208a01995050600181019050615fee565b50829750879550505050505092915050565b61604181613679565b82525050565b6000610120830160008301518482036000860152616065828261392f565b9150506020830151848203602086015261607f828261392f565b91505060408301518482036040860152616099828261392f565b915050606083015184820360608601526160b38282615fc3565b915050608083015184820360808601526160cd8282615fc3565b91505060a083015184820360a08601526160e78282615fc3565b91505060c08301516160fc60c0860182616038565b5060e083015161610f60e0860182616038565b50610100830151848203610100860152616129828261392f565b9150508091505092915050565b600060208201905081810360008301526161508184616047565b905092915050565b60006060828403121561616e5761616d614df7565b5b6161786060613dd6565b9050600061618884828501613617565b600083015250602061619c84828501613617565b60208301525060406161b084828501613617565b60408301525092915050565b6000606082840312156161d2576161d161347f565b5b60006161e084828501616158565b91505092915050565b60006161f86020840184613617565b905092915050565b616209816135f6565b82525050565b6060820161622060008301836161e9565b61622d6000850182616200565b5061623b60208301836161e9565b6162486020850182616200565b5061625660408301836161e9565b6162636040850182616200565b50505050565b600060c08201905061627e60008301876141b2565b81810360208301526162908186613790565b905061629f60408301856139d2565b6162ac606083018461620f565b95945050505050565b60006162c0826135f6565b9150600082036162d3576162d2615609565b5b600182039050919050565b7f537472696e67733a20686578206c656e67746820696e73756666696369656e74600082015250565b600061631460208361354f565b915061631f826162de565b602082019050919050565b6000602082019050818103600083015261634381616307565b9050919050565b7f4552433732313a20617070726f766520746f2063616c6c657200000000000000600082015250565b600061638060198361354f565b915061638b8261634a565b602082019050919050565b600060208201905081810360008301526163af81616373565b9050919050565b7f4552433732313a207472616e7366657220746f206e6f6e20455243373231526560008201527f63656976657220696d706c656d656e7465720000000000000000000000000000602082015250565b600061641260328361354f565b915061641d826163b6565b604082019050919050565b6000602082019050818103600083015261644181616405565b9050919050565b7f4e487b7100000000000000000000000000000000000000000000000000000000600052601260045260246000fd5b600060808201905061648c600083018761368b565b616499602083018661368b565b6164a66040830185613ac2565b81810360608301526164b88184613790565b905095945050505050565b6000815190506164d2816134b5565b92915050565b6000602082840312156164ee576164ed61347f565b5b60006164fc848285016164c3565b91505092915050565b7f4552433732313a206d696e7420746f20746865207a65726f2061646472657373600082015250565b600061653b60208361354f565b915061654682616505565b602082019050919050565b6000602082019050818103600083015261656a8161652e565b9050919050565b7f4552433732313a20746f6b656e20616c7265616479206d696e74656400000000600082015250565b60006165a7601c8361354f565b91506165b282616571565b602082019050919050565b600060208201905081810360008301526165d68161659a565b905091905056fe68747470733a2f2f7261772e67697468756275736572636f6e74656e742e636f6d2f62626568726d616e31302f73616d706c654e46544d657461446174612f6d61696e2f6d657461646174612e6a736f6ea26469706673582212206b4ca686104884343084b97a4f806d71fb438ef0a5335fb0262d34e7a5b7c0a664736f6c63430008140033","opcodes":"PUSH1 0x80 PUSH1 0x40 MSTORE CALLVALUE DUP1 ISZERO PUSH3 0x11 JUMPI PUSH1 0x0 DUP1 REVERT JUMPDEST POP PUSH1 0x40 MLOAD PUSH3 0x7729 CODESIZE SUB DUP1 PUSH3 0x7729 DUP4 CODECOPY DUP2 DUP2 ADD PUSH1 0x40 MSTORE DUP2 ADD SWAP1 PUSH3 0x37 SWAP2 SWAP1 PUSH3 0x969 JUMP JUMPDEST DUP2 DUP2 PUSH3 0x59 PUSH3 0x4D PUSH3 0x99 PUSH1 0x20 SHL PUSH1 0x20 SHR JUMP JUMPDEST PUSH3 0xA1 PUSH1 0x20 SHL PUSH1 0x20 SHR JUMP JUMPDEST DUP2 PUSH1 0x1 SWAP1 DUP2 PUSH3 0x6A SWAP2 SWAP1 PUSH3 0xC39 JUMP JUMPDEST POP DUP1 PUSH1 0x2 SWAP1 DUP2 PUSH3 0x7C SWAP2 SWAP1 PUSH3 0xC39 JUMP JUMPDEST POP POP POP PUSH3 0x90 CALLER PUSH3 0x165 PUSH1 0x20 SHL PUSH1 0x20 SHR JUMP JUMPDEST POP POP POP PUSH3 0x10B5 JUMP JUMPDEST PUSH1 0x0 CALLER SWAP1 POP SWAP1 JUMP JUMPDEST PUSH1 0x0 DUP1 PUSH1 0x0 SWAP1 SLOAD SWAP1 PUSH2 0x100 EXP SWAP1 DIV PUSH20 0xFFFFFFFFFFFFFFFFFFFFFFFFFFFFFFFFFFFFFFFF AND SWAP1 POP DUP2 PUSH1 0x0 DUP1 PUSH2 0x100 EXP DUP2 SLOAD DUP2 PUSH20 0xFFFFFFFFFFFFFFFFFFFFFFFFFFFFFFFFFFFFFFFF MUL NOT AND SWAP1 DUP4 PUSH20 0xFFFFFFFFFFFFFFFFFFFFFFFFFFFFFFFFFFFFFFFF AND MUL OR SWAP1 SSTORE POP DUP2 PUSH20 0xFFFFFFFFFFFFFFFFFFFFFFFFFFFFFFFFFFFFFFFF AND DUP2 PUSH20 0xFFFFFFFFFFFFFFFFFFFFFFFFFFFFFFFFFFFFFFFF AND PUSH32 0x8BE0079C531659141344CD1FD0A4F28419497F9722A3DAAFE3B4186F6B6457E0 PUSH1 0x40 MLOAD PUSH1 0x40 MLOAD DUP1 SWAP2 SUB SWAP1 LOG3 POP POP JUMP JUMPDEST PUSH1 0x0 PUSH3 0x177 PUSH3 0x1C5 PUSH1 0x20 SHL PUSH1 0x20 SHR JUMP JUMPDEST PUSH3 0x189 PUSH1 0x7 PUSH3 0x256 PUSH1 0x20 SHL PUSH1 0x20 SHR JUMP JUMPDEST PUSH3 0x1AC DUP3 PUSH3 0x1A0 PUSH1 0x7 PUSH3 0x26C PUSH1 0x20 SHL PUSH1 0x20 SHR JUMP JUMPDEST PUSH3 0x27A PUSH1 0x20 SHL PUSH1 0x20 SHR JUMP JUMPDEST PUSH3 0x1BE PUSH1 0x7 PUSH3 0x26C PUSH1 0x20 SHL PUSH1 0x20 SHR JUMP JUMPDEST SWAP1 POP SWAP2 SWAP1 POP JUMP JUMPDEST PUSH3 0x1D5 PUSH3 0x99 PUSH1 0x20 SHL PUSH1 0x20 SHR JUMP JUMPDEST PUSH20 0xFFFFFFFFFFFFFFFFFFFFFFFFFFFFFFFFFFFFFFFF AND PUSH3 0x1FB PUSH3 0x2A0 PUSH1 0x20 SHL PUSH1 0x20 SHR JUMP JUMPDEST PUSH20 0xFFFFFFFFFFFFFFFFFFFFFFFFFFFFFFFFFFFFFFFF AND EQ PUSH3 0x254 JUMPI PUSH1 0x40 MLOAD PUSH32 0x8C379A000000000000000000000000000000000000000000000000000000000 DUP2 MSTORE PUSH1 0x4 ADD PUSH3 0x24B SWAP1 PUSH3 0xD81 JUMP JUMPDEST PUSH1 0x40 MLOAD DUP1 SWAP2 SUB SWAP1 REVERT JUMPDEST JUMP JUMPDEST PUSH1 0x1 DUP2 PUSH1 0x0 ADD PUSH1 0x0 DUP3 DUP3 SLOAD ADD SWAP3 POP POP DUP2 SWAP1 SSTORE POP POP JUMP JUMPDEST PUSH1 0x0 DUP2 PUSH1 0x0 ADD SLOAD SWAP1 POP SWAP2 SWAP1 POP JUMP JUMPDEST PUSH3 0x29C DUP3 DUP3 PUSH1 0x40 MLOAD DUP1 PUSH1 0x20 ADD PUSH1 0x40 MSTORE DUP1 PUSH1 0x0 DUP2 MSTORE POP PUSH3 0x2C9 PUSH1 0x20 SHL PUSH1 0x20 SHR JUMP JUMPDEST POP POP JUMP JUMPDEST PUSH1 0x0 DUP1 PUSH1 0x0 SWAP1 SLOAD SWAP1 PUSH2 0x100 EXP SWAP1 DIV PUSH20 0xFFFFFFFFFFFFFFFFFFFFFFFFFFFFFFFFFFFFFFFF AND SWAP1 POP SWAP1 JUMP JUMPDEST PUSH3 0x2DB DUP4 DUP4 PUSH3 0x337 PUSH1 0x20 SHL PUSH1 0x20 SHR JUMP JUMPDEST PUSH3 0x2F0 PUSH1 0x0 DUP5 DUP5 DUP5 PUSH3 0x57D PUSH1 0x20 SHL PUSH1 0x20 SHR JUMP JUMPDEST PUSH3 0x332 JUMPI PUSH1 0x40 MLOAD PUSH32 0x8C379A000000000000000000000000000000000000000000000000000000000 DUP2 MSTORE PUSH1 0x4 ADD PUSH3 0x329 SWAP1 PUSH3 0xE19 JUMP JUMPDEST PUSH1 0x40 MLOAD DUP1 SWAP2 SUB SWAP1 REVERT JUMPDEST POP POP POP JUMP JUMPDEST PUSH1 0x0 PUSH20 0xFFFFFFFFFFFFFFFFFFFFFFFFFFFFFFFFFFFFFFFF AND DUP3 PUSH20 0xFFFFFFFFFFFFFFFFFFFFFFFFFFFFFFFFFFFFFFFF AND SUB PUSH3 0x3A9 JUMPI PUSH1 0x40 MLOAD PUSH32 0x8C379A000000000000000000000000000000000000000000000000000000000 DUP2 MSTORE PUSH1 0x4 ADD PUSH3 0x3A0 SWAP1 PUSH3 0xE8B JUMP JUMPDEST PUSH1 0x40 MLOAD DUP1 SWAP2 SUB SWAP1 REVERT JUMPDEST PUSH3 0x3BA DUP2 PUSH3 0x721 PUSH1 0x20 SHL PUSH1 0x20 SHR JUMP JUMPDEST ISZERO PUSH3 0x3FD JUMPI PUSH1 0x40 MLOAD PUSH32 0x8C379A000000000000000000000000000000000000000000000000000000000 DUP2 MSTORE PUSH1 0x4 ADD PUSH3 0x3F4 SWAP1 PUSH3 0xEFD JUMP JUMPDEST PUSH1 0x40 MLOAD DUP1 SWAP2 SUB SWAP1 REVERT JUMPDEST PUSH3 0x413 PUSH1 0x0 DUP4 DUP4 PUSH1 0x1 PUSH3 0x76A PUSH1 0x20 SHL PUSH1 0x20 SHR JUMP JUMPDEST PUSH3 0x424 DUP2 PUSH3 0x721 PUSH1 0x20 SHL PUSH1 0x20 SHR JUMP JUMPDEST ISZERO PUSH3 0x467 JUMPI PUSH1 0x40 MLOAD PUSH32 0x8C379A000000000000000000000000000000000000000000000000000000000 DUP2 MSTORE PUSH1 0x4 ADD PUSH3 0x45E SWAP1 PUSH3 0xEFD JUMP JUMPDEST PUSH1 0x40 MLOAD DUP1 SWAP2 SUB SWAP1 REVERT JUMPDEST PUSH1 0x1 PUSH1 0x4 PUSH1 0x0 DUP5 PUSH20 0xFFFFFFFFFFFFFFFFFFFFFFFFFFFFFFFFFFFFFFFF AND PUSH20 0xFFFFFFFFFFFFFFFFFFFFFFFFFFFFFFFFFFFFFFFF AND DUP2 MSTORE PUSH1 0x20 ADD SWAP1 DUP2 MSTORE PUSH1 0x20 ADD PUSH1 0x0 KECCAK256 PUSH1 0x0 DUP3 DUP3 SLOAD ADD SWAP3 POP POP DUP2 SWAP1 SSTORE POP DUP2 PUSH1 0x3 PUSH1 0x0 DUP4 DUP2 MSTORE PUSH1 0x20 ADD SWAP1 DUP2 MSTORE PUSH1 0x20 ADD PUSH1 0x0 KECCAK256 PUSH1 0x0 PUSH2 0x100 EXP DUP2 SLOAD DUP2 PUSH20 0xFFFFFFFFFFFFFFFFFFFFFFFFFFFFFFFFFFFFFFFF MUL NOT AND SWAP1 DUP4 PUSH20 0xFFFFFFFFFFFFFFFFFFFFFFFFFFFFFFFFFFFFFFFF AND MUL OR SWAP1 SSTORE POP DUP1 DUP3 PUSH20 0xFFFFFFFFFFFFFFFFFFFFFFFFFFFFFFFFFFFFFFFF AND PUSH1 0x0 PUSH20 0xFFFFFFFFFFFFFFFFFFFFFFFFFFFFFFFFFFFFFFFF AND PUSH32 0xDDF252AD1BE2C89B69C2B068FC378DAA952BA7F163C4A11628F55A4DF523B3EF PUSH1 0x40 MLOAD PUSH1 0x40 MLOAD DUP1 SWAP2 SUB SWAP1 LOG4 PUSH3 0x579 PUSH1 0x0 DUP4 DUP4 PUSH1 0x1 PUSH3 0x770 PUSH1 0x20 SHL PUSH1 0x20 SHR JUMP JUMPDEST POP POP JUMP JUMPDEST PUSH1 0x0 PUSH3 0x5A6 DUP5 PUSH20 0xFFFFFFFFFFFFFFFFFFFFFFFFFFFFFFFFFFFFFFFF AND PUSH3 0x776 PUSH1 0x20 SHL PUSH1 0x20 SHR JUMP JUMPDEST ISZERO PUSH3 0x714 JUMPI DUP4 PUSH20 0xFFFFFFFFFFFFFFFFFFFFFFFFFFFFFFFFFFFFFFFF AND PUSH4 0x150B7A02 PUSH3 0x5D8 PUSH3 0x99 PUSH1 0x20 SHL PUSH1 0x20 SHR JUMP JUMPDEST DUP8 DUP7 DUP7 PUSH1 0x40 MLOAD DUP6 PUSH4 0xFFFFFFFF AND PUSH1 0xE0 SHL DUP2 MSTORE PUSH1 0x4 ADD PUSH3 0x5FC SWAP5 SWAP4 SWAP3 SWAP2 SWAP1 PUSH3 0xFD2 JUMP JUMPDEST PUSH1 0x20 PUSH1 0x40 MLOAD DUP1 DUP4 SUB DUP2 PUSH1 0x0 DUP8 GAS CALL SWAP3 POP POP POP DUP1 ISZERO PUSH3 0x63B JUMPI POP PUSH1 0x40 MLOAD RETURNDATASIZE PUSH1 0x1F NOT PUSH1 0x1F DUP3 ADD AND DUP3 ADD DUP1 PUSH1 0x40 MSTORE POP DUP2 ADD SWAP1 PUSH3 0x638 SWAP2 SWAP1 PUSH3 0x1083 JUMP JUMPDEST PUSH1 0x1 JUMPDEST PUSH3 0x6C3 JUMPI RETURNDATASIZE DUP1 PUSH1 0x0 DUP2 EQ PUSH3 0x66E JUMPI PUSH1 0x40 MLOAD SWAP2 POP PUSH1 0x1F NOT PUSH1 0x3F RETURNDATASIZE ADD AND DUP3 ADD PUSH1 0x40 MSTORE RETURNDATASIZE DUP3 MSTORE RETURNDATASIZE PUSH1 0x0 PUSH1 0x20 DUP5 ADD RETURNDATACOPY PUSH3 0x673 JUMP JUMPDEST PUSH1 0x60 SWAP2 POP JUMPDEST POP PUSH1 0x0 DUP2 MLOAD SUB PUSH3 0x6BB JUMPI PUSH1 0x40 MLOAD PUSH32 0x8C379A000000000000000000000000000000000000000000000000000000000 DUP2 MSTORE PUSH1 0x4 ADD PUSH3 0x6B2 SWAP1 PUSH3 0xE19 JUMP JUMPDEST PUSH1 0x40 MLOAD DUP1 SWAP2 SUB SWAP1 REVERT JUMPDEST DUP1 MLOAD DUP2 PUSH1 0x20 ADD REVERT JUMPDEST PUSH4 0x150B7A02 PUSH1 0xE0 SHL PUSH28 0xFFFFFFFFFFFFFFFFFFFFFFFFFFFFFFFFFFFFFFFFFFFFFFFFFFFFFFFF NOT AND DUP2 PUSH28 0xFFFFFFFFFFFFFFFFFFFFFFFFFFFFFFFFFFFFFFFFFFFFFFFFFFFFFFFF NOT AND EQ SWAP2 POP POP PUSH3 0x719 JUMP JUMPDEST PUSH1 0x1 SWAP1 POP JUMPDEST SWAP5 SWAP4 POP POP POP POP JUMP JUMPDEST PUSH1 0x0 DUP1 PUSH20 0xFFFFFFFFFFFFFFFFFFFFFFFFFFFFFFFFFFFFFFFF AND PUSH3 0x74B DUP4 PUSH3 0x799 PUSH1 0x20 SHL PUSH1 0x20 SHR JUMP JUMPDEST PUSH20 0xFFFFFFFFFFFFFFFFFFFFFFFFFFFFFFFFFFFFFFFF AND EQ ISZERO SWAP1 POP SWAP2 SWAP1 POP JUMP JUMPDEST POP POP POP POP JUMP JUMPDEST POP POP POP POP JUMP JUMPDEST PUSH1 0x0 DUP1 DUP3 PUSH20 0xFFFFFFFFFFFFFFFFFFFFFFFFFFFFFFFFFFFFFFFF AND EXTCODESIZE GT SWAP1 POP SWAP2 SWAP1 POP JUMP JUMPDEST PUSH1 0x0 PUSH1 0x3 PUSH1 0x0 DUP4 DUP2 MSTORE PUSH1 0x20 ADD SWAP1 DUP2 MSTORE PUSH1 0x20 ADD PUSH1 0x0 KECCAK256 PUSH1 0x0 SWAP1 SLOAD SWAP1 PUSH2 0x100 EXP SWAP1 DIV PUSH20 0xFFFFFFFFFFFFFFFFFFFFFFFFFFFFFFFFFFFFFFFF AND SWAP1 POP SWAP2 SWAP1 POP JUMP JUMPDEST PUSH1 0x0 PUSH1 0x40 MLOAD SWAP1 POP SWAP1 JUMP JUMPDEST PUSH1 0x0 DUP1 REVERT JUMPDEST PUSH1 0x0 DUP1 REVERT JUMPDEST PUSH1 0x0 DUP1 REVERT JUMPDEST PUSH1 0x0 DUP1 REVERT JUMPDEST PUSH1 0x0 PUSH1 0x1F NOT PUSH1 0x1F DUP4 ADD AND SWAP1 POP SWAP2 SWAP1 POP JUMP JUMPDEST PUSH32 0x4E487B7100000000000000000000000000000000000000000000000000000000 PUSH1 0x0 MSTORE PUSH1 0x41 PUSH1 0x4 MSTORE PUSH1 0x24 PUSH1 0x0 REVERT JUMPDEST PUSH3 0x83F DUP3 PUSH3 0x7F4 JUMP JUMPDEST DUP2 ADD DUP2 DUP2 LT PUSH8 0xFFFFFFFFFFFFFFFF DUP3 GT OR ISZERO PUSH3 0x861 JUMPI PUSH3 0x860 PUSH3 0x805 JUMP JUMPDEST JUMPDEST DUP1 PUSH1 0x40 MSTORE POP POP POP JUMP JUMPDEST PUSH1 0x0 PUSH3 0x876 PUSH3 0x7D6 JUMP JUMPDEST SWAP1 POP PUSH3 0x884 DUP3 DUP3 PUSH3 0x834 JUMP JUMPDEST SWAP2 SWAP1 POP JUMP JUMPDEST PUSH1 0x0 PUSH8 0xFFFFFFFFFFFFFFFF DUP3 GT ISZERO PUSH3 0x8A7 JUMPI PUSH3 0x8A6 PUSH3 0x805 JUMP JUMPDEST JUMPDEST PUSH3 0x8B2 DUP3 PUSH3 0x7F4 JUMP JUMPDEST SWAP1 POP PUSH1 0x20 DUP2 ADD SWAP1 POP SWAP2 SWAP1 POP JUMP JUMPDEST PUSH1 0x0 JUMPDEST DUP4 DUP2 LT ISZERO PUSH3 0x8DF JUMPI DUP1 DUP3 ADD MLOAD DUP2 DUP5 ADD MSTORE PUSH1 0x20 DUP2 ADD SWAP1 POP PUSH3 0x8C2 JUMP JUMPDEST PUSH1 0x0 DUP5 DUP5 ADD MSTORE POP POP POP POP JUMP JUMPDEST PUSH1 0x0 PUSH3 0x902 PUSH3 0x8FC DUP5 PUSH3 0x889 JUMP JUMPDEST PUSH3 0x86A JUMP JUMPDEST SWAP1 POP DUP3 DUP2 MSTORE PUSH1 0x20 DUP2 ADD DUP5 DUP5 DUP5 ADD GT ISZERO PUSH3 0x921 JUMPI PUSH3 0x920 PUSH3 0x7EF JUMP JUMPDEST JUMPDEST PUSH3 0x92E DUP5 DUP3 DUP6 PUSH3 0x8BF JUMP JUMPDEST POP SWAP4 SWAP3 POP POP POP JUMP JUMPDEST PUSH1 0x0 DUP3 PUSH1 0x1F DUP4 ADD SLT PUSH3 0x94E JUMPI PUSH3 0x94D PUSH3 0x7EA JUMP JUMPDEST JUMPDEST DUP2 MLOAD PUSH3 0x960 DUP5 DUP3 PUSH1 0x20 DUP7 ADD PUSH3 0x8EB JUMP JUMPDEST SWAP2 POP POP SWAP3 SWAP2 POP POP JUMP JUMPDEST PUSH1 0x0 DUP1 PUSH1 0x40 DUP4 DUP6 SUB SLT ISZERO PUSH3 0x983 JUMPI PUSH3 0x982 PUSH3 0x7E0 JUMP JUMPDEST JUMPDEST PUSH1 0x0 DUP4 ADD MLOAD PUSH8 0xFFFFFFFFFFFFFFFF DUP2 GT ISZERO PUSH3 0x9A4 JUMPI PUSH3 0x9A3 PUSH3 0x7E5 JUMP JUMPDEST JUMPDEST PUSH3 0x9B2 DUP6 DUP3 DUP7 ADD PUSH3 0x936 JUMP JUMPDEST SWAP3 POP POP PUSH1 0x20 DUP4 ADD MLOAD PUSH8 0xFFFFFFFFFFFFFFFF DUP2 GT ISZERO PUSH3 0x9D6 JUMPI PUSH3 0x9D5 PUSH3 0x7E5 JUMP JUMPDEST JUMPDEST PUSH3 0x9E4 DUP6 DUP3 DUP7 ADD PUSH3 0x936 JUMP JUMPDEST SWAP2 POP POP SWAP3 POP SWAP3 SWAP1 POP JUMP JUMPDEST PUSH1 0x0 DUP2 MLOAD SWAP1 POP SWAP2 SWAP1 POP JUMP JUMPDEST PUSH32 0x4E487B7100000000000000000000000000000000000000000000000000000000 PUSH1 0x0 MSTORE PUSH1 0x22 PUSH1 0x4 MSTORE PUSH1 0x24 PUSH1 0x0 REVERT JUMPDEST PUSH1 0x0 PUSH1 0x2 DUP3 DIV SWAP1 POP PUSH1 0x1 DUP3 AND DUP1 PUSH3 0xA41 JUMPI PUSH1 0x7F DUP3 AND SWAP2 POP JUMPDEST PUSH1 0x20 DUP3 LT DUP2 SUB PUSH3 0xA57 JUMPI PUSH3 0xA56 PUSH3 0x9F9 JUMP JUMPDEST JUMPDEST POP SWAP2 SWAP1 POP JUMP JUMPDEST PUSH1 0x0 DUP2 SWAP1 POP DUP2 PUSH1 0x0 MSTORE PUSH1 0x20 PUSH1 0x0 KECCAK256 SWAP1 POP SWAP2 SWAP1 POP JUMP JUMPDEST PUSH1 0x0 PUSH1 0x20 PUSH1 0x1F DUP4 ADD DIV SWAP1 POP SWAP2 SWAP1 POP JUMP JUMPDEST PUSH1 0x0 DUP3 DUP3 SHL SWAP1 POP SWAP3 SWAP2 POP POP JUMP JUMPDEST PUSH1 0x0 PUSH1 0x8 DUP4 MUL PUSH3 0xAC1 PUSH32 0xFFFFFFFFFFFFFFFFFFFFFFFFFFFFFFFFFFFFFFFFFFFFFFFFFFFFFFFFFFFFFFFF DUP3 PUSH3 0xA82 JUMP JUMPDEST PUSH3 0xACD DUP7 DUP4 PUSH3 0xA82 JUMP JUMPDEST SWAP6 POP DUP1 NOT DUP5 AND SWAP4 POP DUP1 DUP7 AND DUP5 OR SWAP3 POP POP POP SWAP4 SWAP3 POP POP POP JUMP JUMPDEST PUSH1 0x0 DUP2 SWAP1 POP SWAP2 SWAP1 POP JUMP JUMPDEST PUSH1 0x0 DUP2 SWAP1 POP SWAP2 SWAP1 POP JUMP JUMPDEST PUSH1 0x0 PUSH3 0xB1A PUSH3 0xB14 PUSH3 0xB0E DUP5 PUSH3 0xAE5 JUMP JUMPDEST PUSH3 0xAEF JUMP JUMPDEST PUSH3 0xAE5 JUMP JUMPDEST SWAP1 POP SWAP2 SWAP1 POP JUMP JUMPDEST PUSH1 0x0 DUP2 SWAP1 POP SWAP2 SWAP1 POP JUMP JUMPDEST PUSH3 0xB36 DUP4 PUSH3 0xAF9 JUMP JUMPDEST PUSH3 0xB4E PUSH3 0xB45 DUP3 PUSH3 0xB21 JUMP JUMPDEST DUP5 DUP5 SLOAD PUSH3 0xA8F JUMP JUMPDEST DUP3 SSTORE POP POP POP POP JUMP JUMPDEST PUSH1 0x0 SWAP1 JUMP JUMPDEST PUSH3 0xB65 PUSH3 0xB56 JUMP JUMPDEST PUSH3 0xB72 DUP2 DUP5 DUP5 PUSH3 0xB2B JUMP JUMPDEST POP POP POP JUMP JUMPDEST JUMPDEST DUP2 DUP2 LT ISZERO PUSH3 0xB9A JUMPI PUSH3 0xB8E PUSH1 0x0 DUP3 PUSH3 0xB5B JUMP JUMPDEST PUSH1 0x1 DUP2 ADD SWAP1 POP PUSH3 0xB78 JUMP JUMPDEST POP POP JUMP JUMPDEST PUSH1 0x1F DUP3 GT ISZERO PUSH3 0xBE9 JUMPI PUSH3 0xBB3 DUP2 PUSH3 0xA5D JUMP JUMPDEST PUSH3 0xBBE DUP5 PUSH3 0xA72 JUMP JUMPDEST DUP2 ADD PUSH1 0x20 DUP6 LT ISZERO PUSH3 0xBCE JUMPI DUP2 SWAP1 POP JUMPDEST PUSH3 0xBE6 PUSH3 0xBDD DUP6 PUSH3 0xA72 JUMP JUMPDEST DUP4 ADD DUP3 PUSH3 0xB77 JUMP JUMPDEST POP POP JUMPDEST POP POP POP JUMP JUMPDEST PUSH1 0x0 DUP3 DUP3 SHR SWAP1 POP SWAP3 SWAP2 POP POP JUMP JUMPDEST PUSH1 0x0 PUSH3 0xC0E PUSH1 0x0 NOT DUP5 PUSH1 0x8 MUL PUSH3 0xBEE JUMP JUMPDEST NOT DUP1 DUP4 AND SWAP2 POP POP SWAP3 SWAP2 POP POP JUMP JUMPDEST PUSH1 0x0 PUSH3 0xC29 DUP4 DUP4 PUSH3 0xBFB JUMP JUMPDEST SWAP2 POP DUP3 PUSH1 0x2 MUL DUP3 OR SWAP1 POP SWAP3 SWAP2 POP POP JUMP JUMPDEST PUSH3 0xC44 DUP3 PUSH3 0x9EE JUMP JUMPDEST PUSH8 0xFFFFFFFFFFFFFFFF DUP2 GT ISZERO PUSH3 0xC60 JUMPI PUSH3 0xC5F PUSH3 0x805 JUMP JUMPDEST JUMPDEST PUSH3 0xC6C DUP3 SLOAD PUSH3 0xA28 JUMP JUMPDEST PUSH3 0xC79 DUP3 DUP3 DUP6 PUSH3 0xB9E JUMP JUMPDEST PUSH1 0x0 PUSH1 0x20 SWAP1 POP PUSH1 0x1F DUP4 GT PUSH1 0x1 DUP2 EQ PUSH3 0xCB1 JUMPI PUSH1 0x0 DUP5 ISZERO PUSH3 0xC9C JUMPI DUP3 DUP8 ADD MLOAD SWAP1 POP JUMPDEST PUSH3 0xCA8 DUP6 DUP3 PUSH3 0xC1B JUMP JUMPDEST DUP7 SSTORE POP PUSH3 0xD18 JUMP JUMPDEST PUSH1 0x1F NOT DUP5 AND PUSH3 0xCC1 DUP7 PUSH3 0xA5D JUMP JUMPDEST PUSH1 0x0 JUMPDEST DUP3 DUP2 LT ISZERO PUSH3 0xCEB JUMPI DUP5 DUP10 ADD MLOAD DUP3 SSTORE PUSH1 0x1 DUP3 ADD SWAP2 POP PUSH1 0x20 DUP6 ADD SWAP5 POP PUSH1 0x20 DUP2 ADD SWAP1 POP PUSH3 0xCC4 JUMP JUMPDEST DUP7 DUP4 LT ISZERO PUSH3 0xD0B JUMPI DUP5 DUP10 ADD MLOAD PUSH3 0xD07 PUSH1 0x1F DUP10 AND DUP3 PUSH3 0xBFB JUMP JUMPDEST DUP4 SSTORE POP JUMPDEST PUSH1 0x1 PUSH1 0x2 DUP9 MUL ADD DUP9 SSTORE POP POP POP JUMPDEST POP POP POP POP POP POP JUMP JUMPDEST PUSH1 0x0 DUP3 DUP3 MSTORE PUSH1 0x20 DUP3 ADD SWAP1 POP SWAP3 SWAP2 POP POP JUMP JUMPDEST PUSH32 0x4F776E61626C653A2063616C6C6572206973206E6F7420746865206F776E6572 PUSH1 0x0 DUP3 ADD MSTORE POP JUMP JUMPDEST PUSH1 0x0 PUSH3 0xD69 PUSH1 0x20 DUP4 PUSH3 0xD20 JUMP JUMPDEST SWAP2 POP PUSH3 0xD76 DUP3 PUSH3 0xD31 JUMP JUMPDEST PUSH1 0x20 DUP3 ADD SWAP1 POP SWAP2 SWAP1 POP JUMP JUMPDEST PUSH1 0x0 PUSH1 0x20 DUP3 ADD SWAP1 POP DUP2 DUP2 SUB PUSH1 0x0 DUP4 ADD MSTORE PUSH3 0xD9C DUP2 PUSH3 0xD5A JUMP JUMPDEST SWAP1 POP SWAP2 SWAP1 POP JUMP JUMPDEST PUSH32 0x4552433732313A207472616E7366657220746F206E6F6E204552433732315265 PUSH1 0x0 DUP3 ADD MSTORE PUSH32 0x63656976657220696D706C656D656E7465720000000000000000000000000000 PUSH1 0x20 DUP3 ADD MSTORE POP JUMP JUMPDEST PUSH1 0x0 PUSH3 0xE01 PUSH1 0x32 DUP4 PUSH3 0xD20 JUMP JUMPDEST SWAP2 POP PUSH3 0xE0E DUP3 PUSH3 0xDA3 JUMP JUMPDEST PUSH1 0x40 DUP3 ADD SWAP1 POP SWAP2 SWAP1 POP JUMP JUMPDEST PUSH1 0x0 PUSH1 0x20 DUP3 ADD SWAP1 POP DUP2 DUP2 SUB PUSH1 0x0 DUP4 ADD MSTORE PUSH3 0xE34 DUP2 PUSH3 0xDF2 JUMP JUMPDEST SWAP1 POP SWAP2 SWAP1 POP JUMP JUMPDEST PUSH32 0x4552433732313A206D696E7420746F20746865207A65726F2061646472657373 PUSH1 0x0 DUP3 ADD MSTORE POP JUMP JUMPDEST PUSH1 0x0 PUSH3 0xE73 PUSH1 0x20 DUP4 PUSH3 0xD20 JUMP JUMPDEST SWAP2 POP PUSH3 0xE80 DUP3 PUSH3 0xE3B JUMP JUMPDEST PUSH1 0x20 DUP3 ADD SWAP1 POP SWAP2 SWAP1 POP JUMP JUMPDEST PUSH1 0x0 PUSH1 0x20 DUP3 ADD SWAP1 POP DUP2 DUP2 SUB PUSH1 0x0 DUP4 ADD MSTORE PUSH3 0xEA6 DUP2 PUSH3 0xE64 JUMP JUMPDEST SWAP1 POP SWAP2 SWAP1 POP JUMP JUMPDEST PUSH32 0x4552433732313A20746F6B656E20616C7265616479206D696E74656400000000 PUSH1 0x0 DUP3 ADD MSTORE POP JUMP JUMPDEST PUSH1 0x0 PUSH3 0xEE5 PUSH1 0x1C DUP4 PUSH3 0xD20 JUMP JUMPDEST SWAP2 POP PUSH3 0xEF2 DUP3 PUSH3 0xEAD JUMP JUMPDEST PUSH1 0x20 DUP3 ADD SWAP1 POP SWAP2 SWAP1 POP JUMP JUMPDEST PUSH1 0x0 PUSH1 0x20 DUP3 ADD SWAP1 POP DUP2 DUP2 SUB PUSH1 0x0 DUP4 ADD MSTORE PUSH3 0xF18 DUP2 PUSH3 0xED6 JUMP JUMPDEST SWAP1 POP SWAP2 SWAP1 POP JUMP JUMPDEST PUSH1 0x0 PUSH20 0xFFFFFFFFFFFFFFFFFFFFFFFFFFFFFFFFFFFFFFFF DUP3 AND SWAP1 POP SWAP2 SWAP1 POP JUMP JUMPDEST PUSH1 0x0 PUSH3 0xF4C DUP3 PUSH3 0xF1F JUMP JUMPDEST SWAP1 POP SWAP2 SWAP1 POP JUMP JUMPDEST PUSH3 0xF5E DUP2 PUSH3 0xF3F JUMP JUMPDEST DUP3 MSTORE POP POP JUMP JUMPDEST PUSH3 0xF6F DUP2 PUSH3 0xAE5 JUMP JUMPDEST DUP3 MSTORE POP POP JUMP JUMPDEST PUSH1 0x0 DUP2 MLOAD SWAP1 POP SWAP2 SWAP1 POP JUMP JUMPDEST PUSH1 0x0 DUP3 DUP3 MSTORE PUSH1 0x20 DUP3 ADD SWAP1 POP SWAP3 SWAP2 POP POP JUMP JUMPDEST PUSH1 0x0 PUSH3 0xF9E DUP3 PUSH3 0xF75 JUMP JUMPDEST PUSH3 0xFAA DUP2 DUP6 PUSH3 0xF80 JUMP JUMPDEST SWAP4 POP PUSH3 0xFBC DUP2 DUP6 PUSH1 0x20 DUP7 ADD PUSH3 0x8BF JUMP JUMPDEST PUSH3 0xFC7 DUP2 PUSH3 0x7F4 JUMP JUMPDEST DUP5 ADD SWAP2 POP POP SWAP3 SWAP2 POP POP JUMP JUMPDEST PUSH1 0x0 PUSH1 0x80 DUP3 ADD SWAP1 POP PUSH3 0xFE9 PUSH1 0x0 DUP4 ADD DUP8 PUSH3 0xF53 JUMP JUMPDEST PUSH3 0xFF8 PUSH1 0x20 DUP4 ADD DUP7 PUSH3 0xF53 JUMP JUMPDEST PUSH3 0x1007 PUSH1 0x40 DUP4 ADD DUP6 PUSH3 0xF64 JUMP JUMPDEST DUP2 DUP2 SUB PUSH1 0x60 DUP4 ADD MSTORE PUSH3 0x101B DUP2 DUP5 PUSH3 0xF91 JUMP JUMPDEST SWAP1 POP SWAP6 SWAP5 POP POP POP POP POP JUMP JUMPDEST PUSH1 0x0 PUSH32 0xFFFFFFFF00000000000000000000000000000000000000000000000000000000 DUP3 AND SWAP1 POP SWAP2 SWAP1 POP JUMP JUMPDEST PUSH3 0x105D DUP2 PUSH3 0x1026 JUMP JUMPDEST DUP2 EQ PUSH3 0x1069 JUMPI PUSH1 0x0 DUP1 REVERT JUMPDEST POP JUMP JUMPDEST PUSH1 0x0 DUP2 MLOAD SWAP1 POP PUSH3 0x107D DUP2 PUSH3 0x1052 JUMP JUMPDEST SWAP3 SWAP2 POP POP JUMP JUMPDEST PUSH1 0x0 PUSH1 0x20 DUP3 DUP5 SUB SLT ISZERO PUSH3 0x109C JUMPI PUSH3 0x109B PUSH3 0x7E0 JUMP JUMPDEST JUMPDEST PUSH1 0x0 PUSH3 0x10AC DUP5 DUP3 DUP6 ADD PUSH3 0x106C JUMP JUMPDEST SWAP2 POP POP SWAP3 SWAP2 POP POP JUMP JUMPDEST PUSH2 0x6664 DUP1 PUSH3 0x10C5 PUSH1 0x0 CODECOPY PUSH1 0x0 RETURN INVALID PUSH1 0x80 PUSH1 0x40 MSTORE CALLVALUE DUP1 ISZERO PUSH2 0x10 JUMPI PUSH1 0x0 DUP1 REVERT JUMPDEST POP PUSH1 0x4 CALLDATASIZE LT PUSH2 0x1F0 JUMPI PUSH1 0x0 CALLDATALOAD PUSH1 0xE0 SHR DUP1 PUSH4 0x7476C43A GT PUSH2 0x10F JUMPI DUP1 PUSH4 0xB88D4FDE GT PUSH2 0xA2 JUMPI DUP1 PUSH4 0xDA96E10C GT PUSH2 0x71 JUMPI DUP1 PUSH4 0xDA96E10C EQ PUSH2 0x603 JUMPI DUP1 PUSH4 0xE985E9C5 EQ PUSH2 0x621 JUMPI DUP1 PUSH4 0xF12B758A EQ PUSH2 0x651 JUMPI DUP1 PUSH4 0xF2FDE38B EQ PUSH2 0x686 JUMPI PUSH2 0x1F0 JUMP JUMPDEST DUP1 PUSH4 0xB88D4FDE EQ PUSH2 0x557 JUMPI DUP1 PUSH4 0xBB3F9F8D EQ PUSH2 0x573 JUMPI DUP1 PUSH4 0xC87B56DD EQ PUSH2 0x5A3 JUMPI DUP1 PUSH4 0xD39B59C8 EQ PUSH2 0x5D3 JUMPI PUSH2 0x1F0 JUMP JUMPDEST DUP1 PUSH4 0x8DA5CB5B GT PUSH2 0xDE JUMPI DUP1 PUSH4 0x8DA5CB5B EQ PUSH2 0x4E3 JUMPI DUP1 PUSH4 0x95D89B41 EQ PUSH2 0x501 JUMPI DUP1 PUSH4 0xA22CB465 EQ PUSH2 0x51F JUMPI DUP1 PUSH4 0xA6C50B4D EQ PUSH2 0x53B JUMPI PUSH2 0x1F0 JUMP JUMPDEST DUP1 PUSH4 0x7476C43A EQ PUSH2 0x44B JUMPI DUP1 PUSH4 0x7D622184 EQ PUSH2 0x467 JUMPI DUP1 PUSH4 0x7E1D42B5 EQ PUSH2 0x497 JUMPI DUP1 PUSH4 0x8A8E1730 EQ PUSH2 0x4B3 JUMPI PUSH2 0x1F0 JUMP JUMPDEST DUP1 PUSH4 0x4EEB7391 GT PUSH2 0x187 JUMPI DUP1 PUSH4 0x602F9834 GT PUSH2 0x156 JUMPI DUP1 PUSH4 0x602F9834 EQ PUSH2 0x3C5 JUMPI DUP1 PUSH4 0x6352211E EQ PUSH2 0x3E1 JUMPI DUP1 PUSH4 0x70A08231 EQ PUSH2 0x411 JUMPI DUP1 PUSH4 0x715018A6 EQ PUSH2 0x441 JUMPI PUSH2 0x1F0 JUMP JUMPDEST DUP1 PUSH4 0x4EEB7391 EQ PUSH2 0x328 JUMPI DUP1 PUSH4 0x54BA0F27 EQ PUSH2 0x35D JUMPI DUP1 PUSH4 0x59565FDB EQ PUSH2 0x38D JUMPI DUP1 PUSH4 0x5FE39E0D EQ PUSH2 0x3A9 JUMPI PUSH2 0x1F0 JUMP JUMPDEST DUP1 PUSH4 0x23B872DD GT PUSH2 0x1C3 JUMPI DUP1 PUSH4 0x23B872DD EQ PUSH2 0x28F JUMPI DUP1 PUSH4 0x4252AE9B EQ PUSH2 0x2AB JUMPI DUP1 PUSH4 0x42842E0E EQ PUSH2 0x2DC JUMPI DUP1 PUSH4 0x4DCC0AA6 EQ PUSH2 0x2F8 JUMPI PUSH2 0x1F0 JUMP JUMPDEST DUP1 PUSH4 0x1FFC9A7 EQ PUSH2 0x1F5 JUMPI DUP1 PUSH4 0x6FDDE03 EQ PUSH2 0x225 JUMPI DUP1 PUSH4 0x81812FC EQ PUSH2 0x243 JUMPI DUP1 PUSH4 0x95EA7B3 EQ PUSH2 0x273 JUMPI JUMPDEST PUSH1 0x0 DUP1 REVERT JUMPDEST PUSH2 0x20F PUSH1 0x4 DUP1 CALLDATASIZE SUB DUP2 ADD SWAP1 PUSH2 0x20A SWAP2 SWAP1 PUSH2 0x34E1 JUMP JUMPDEST PUSH2 0x6A2 JUMP JUMPDEST PUSH1 0x40 MLOAD PUSH2 0x21C SWAP2 SWAP1 PUSH2 0x3529 JUMP JUMPDEST PUSH1 0x40 MLOAD DUP1 SWAP2 SUB SWAP1 RETURN JUMPDEST PUSH2 0x22D PUSH2 0x784 JUMP JUMPDEST PUSH1 0x40 MLOAD PUSH2 0x23A SWAP2 SWAP1 PUSH2 0x35D4 JUMP JUMPDEST PUSH1 0x40 MLOAD DUP1 SWAP2 SUB SWAP1 RETURN JUMPDEST PUSH2 0x25D PUSH1 0x4 DUP1 CALLDATASIZE SUB DUP2 ADD SWAP1 PUSH2 0x258 SWAP2 SWAP1 PUSH2 0x362C JUMP JUMPDEST PUSH2 0x816 JUMP JUMPDEST PUSH1 0x40 MLOAD PUSH2 0x26A SWAP2 SWAP1 PUSH2 0x369A JUMP JUMPDEST PUSH1 0x40 MLOAD DUP1 SWAP2 SUB SWAP1 RETURN JUMPDEST PUSH2 0x28D PUSH1 0x4 DUP1 CALLDATASIZE SUB DUP2 ADD SWAP1 PUSH2 0x288 SWAP2 SWAP1 PUSH2 0x36E1 JUMP JUMPDEST PUSH2 0x85C JUMP JUMPDEST STOP JUMPDEST PUSH2 0x2A9 PUSH1 0x4 DUP1 CALLDATASIZE SUB DUP2 ADD SWAP1 PUSH2 0x2A4 SWAP2 SWAP1 PUSH2 0x3721 JUMP JUMPDEST PUSH2 0x973 JUMP JUMPDEST STOP JUMPDEST PUSH2 0x2C5 PUSH1 0x4 DUP1 CALLDATASIZE SUB DUP2 ADD SWAP1 PUSH2 0x2C0 SWAP2 SWAP1 PUSH2 0x362C JUMP JUMPDEST PUSH2 0x9D3 JUMP JUMPDEST PUSH1 0x40 MLOAD PUSH2 0x2D3 SWAP3 SWAP2 SWAP1 PUSH2 0x37C9 JUMP JUMPDEST PUSH1 0x40 MLOAD DUP1 SWAP2 SUB SWAP1 RETURN JUMPDEST PUSH2 0x2F6 PUSH1 0x4 DUP1 CALLDATASIZE SUB DUP2 ADD SWAP1 PUSH2 0x2F1 SWAP2 SWAP1 PUSH2 0x3721 JUMP JUMPDEST PUSH2 0xA9C JUMP JUMPDEST STOP JUMPDEST PUSH2 0x312 PUSH1 0x4 DUP1 CALLDATASIZE SUB DUP2 ADD SWAP1 PUSH2 0x30D SWAP2 SWAP1 PUSH2 0x381D JUMP JUMPDEST PUSH2 0xABC JUMP JUMPDEST PUSH1 0x40 MLOAD PUSH2 0x31F SWAP2 SWAP1 PUSH2 0x38FC JUMP JUMPDEST PUSH1 0x40 MLOAD DUP1 SWAP2 SUB SWAP1 RETURN JUMPDEST PUSH2 0x342 PUSH1 0x4 DUP1 CALLDATASIZE SUB DUP2 ADD SWAP1 PUSH2 0x33D SWAP2 SWAP1 PUSH2 0x362C JUMP JUMPDEST PUSH2 0xBF9 JUMP JUMPDEST PUSH1 0x40 MLOAD PUSH2 0x354 SWAP7 SWAP6 SWAP5 SWAP4 SWAP3 SWAP2 SWAP1 PUSH2 0x3A1F JUMP JUMPDEST PUSH1 0x40 MLOAD DUP1 SWAP2 SUB SWAP1 RETURN JUMPDEST PUSH2 0x377 PUSH1 0x4 DUP1 CALLDATASIZE SUB DUP2 ADD SWAP1 PUSH2 0x372 SWAP2 SWAP1 PUSH2 0x3A95 JUMP JUMPDEST PUSH2 0xEAF JUMP JUMPDEST PUSH1 0x40 MLOAD PUSH2 0x384 SWAP2 SWAP1 PUSH2 0x3AD1 JUMP JUMPDEST PUSH1 0x40 MLOAD DUP1 SWAP2 SUB SWAP1 RETURN JUMPDEST PUSH2 0x3A7 PUSH1 0x4 DUP1 CALLDATASIZE SUB DUP2 ADD SWAP1 PUSH2 0x3A2 SWAP2 SWAP1 PUSH2 0x3BBB JUMP JUMPDEST PUSH2 0xEE7 JUMP JUMPDEST STOP JUMPDEST PUSH2 0x3C3 PUSH1 0x4 DUP1 CALLDATASIZE SUB DUP2 ADD SWAP1 PUSH2 0x3BE SWAP2 SWAP1 PUSH2 0x3CFD JUMP JUMPDEST PUSH2 0xFA8 JUMP JUMPDEST STOP JUMPDEST PUSH2 0x3DF PUSH1 0x4 DUP1 CALLDATASIZE SUB DUP2 ADD SWAP1 PUSH2 0x3DA SWAP2 SWAP1 PUSH2 0x381D JUMP JUMPDEST PUSH2 0x1064 JUMP JUMPDEST STOP JUMPDEST PUSH2 0x3FB PUSH1 0x4 DUP1 CALLDATASIZE SUB DUP2 ADD SWAP1 PUSH2 0x3F6 SWAP2 SWAP1 PUSH2 0x362C JUMP JUMPDEST PUSH2 0x10A1 JUMP JUMPDEST PUSH1 0x40 MLOAD PUSH2 0x408 SWAP2 SWAP1 PUSH2 0x369A JUMP JUMPDEST PUSH1 0x40 MLOAD DUP1 SWAP2 SUB SWAP1 RETURN JUMPDEST PUSH2 0x42B PUSH1 0x4 DUP1 CALLDATASIZE SUB DUP2 ADD SWAP1 PUSH2 0x426 SWAP2 SWAP1 PUSH2 0x3A95 JUMP JUMPDEST PUSH2 0x1127 JUMP JUMPDEST PUSH1 0x40 MLOAD PUSH2 0x438 SWAP2 SWAP1 PUSH2 0x3AD1 JUMP JUMPDEST PUSH1 0x40 MLOAD DUP1 SWAP2 SUB SWAP1 RETURN JUMPDEST PUSH2 0x449 PUSH2 0x11DE JUMP JUMPDEST STOP JUMPDEST PUSH2 0x465 PUSH1 0x4 DUP1 CALLDATASIZE SUB DUP2 ADD SWAP1 PUSH2 0x460 SWAP2 SWAP1 PUSH2 0x3EC0 JUMP JUMPDEST PUSH2 0x11F2 JUMP JUMPDEST STOP JUMPDEST PUSH2 0x481 PUSH1 0x4 DUP1 CALLDATASIZE SUB DUP2 ADD SWAP1 PUSH2 0x47C SWAP2 SWAP1 PUSH2 0x362C JUMP JUMPDEST PUSH2 0x12D3 JUMP JUMPDEST PUSH1 0x40 MLOAD PUSH2 0x48E SWAP2 SWAP1 PUSH2 0x35D4 JUMP JUMPDEST PUSH1 0x40 MLOAD DUP1 SWAP2 SUB SWAP1 RETURN JUMPDEST PUSH2 0x4B1 PUSH1 0x4 DUP1 CALLDATASIZE SUB DUP2 ADD SWAP1 PUSH2 0x4AC SWAP2 SWAP1 PUSH2 0x3F62 JUMP JUMPDEST PUSH2 0x137F JUMP JUMPDEST STOP JUMPDEST PUSH2 0x4CD PUSH1 0x4 DUP1 CALLDATASIZE SUB DUP2 ADD SWAP1 PUSH2 0x4C8 SWAP2 SWAP1 PUSH2 0x362C JUMP JUMPDEST PUSH2 0x13BD JUMP JUMPDEST PUSH1 0x40 MLOAD PUSH2 0x4DA SWAP2 SWAP1 PUSH2 0x35D4 JUMP JUMPDEST PUSH1 0x40 MLOAD DUP1 SWAP2 SUB SWAP1 RETURN JUMPDEST PUSH2 0x4EB PUSH2 0x1423 JUMP JUMPDEST PUSH1 0x40 MLOAD PUSH2 0x4F8 SWAP2 SWAP1 PUSH2 0x369A JUMP JUMPDEST PUSH1 0x40 MLOAD DUP1 SWAP2 SUB SWAP1 RETURN JUMPDEST PUSH2 0x509 PUSH2 0x144C JUMP JUMPDEST PUSH1 0x40 MLOAD PUSH2 0x516 SWAP2 SWAP1 PUSH2 0x35D4 JUMP JUMPDEST PUSH1 0x40 MLOAD DUP1 SWAP2 SUB SWAP1 RETURN JUMPDEST PUSH2 0x539 PUSH1 0x4 DUP1 CALLDATASIZE SUB DUP2 ADD SWAP1 PUSH2 0x534 SWAP2 SWAP1 PUSH2 0x3FDA JUMP JUMPDEST PUSH2 0x14DE JUMP JUMPDEST STOP JUMPDEST PUSH2 0x555 PUSH1 0x4 DUP1 CALLDATASIZE SUB DUP2 ADD SWAP1 PUSH2 0x550 SWAP2 SWAP1 PUSH2 0x401A JUMP JUMPDEST PUSH2 0x14F4 JUMP JUMPDEST STOP JUMPDEST PUSH2 0x571 PUSH1 0x4 DUP1 CALLDATASIZE SUB DUP2 ADD SWAP1 PUSH2 0x56C SWAP2 SWAP1 PUSH2 0x412F JUMP JUMPDEST PUSH2 0x1604 JUMP JUMPDEST STOP JUMPDEST PUSH2 0x58D PUSH1 0x4 DUP1 CALLDATASIZE SUB DUP2 ADD SWAP1 PUSH2 0x588 SWAP2 SWAP1 PUSH2 0x362C JUMP JUMPDEST PUSH2 0x1666 JUMP JUMPDEST PUSH1 0x40 MLOAD PUSH2 0x59A SWAP2 SWAP1 PUSH2 0x41C1 JUMP JUMPDEST PUSH1 0x40 MLOAD DUP1 SWAP2 SUB SWAP1 RETURN JUMPDEST PUSH2 0x5BD PUSH1 0x4 DUP1 CALLDATASIZE SUB DUP2 ADD SWAP1 PUSH2 0x5B8 SWAP2 SWAP1 PUSH2 0x362C JUMP JUMPDEST PUSH2 0x168A JUMP JUMPDEST PUSH1 0x40 MLOAD PUSH2 0x5CA SWAP2 SWAP1 PUSH2 0x35D4 JUMP JUMPDEST PUSH1 0x40 MLOAD DUP1 SWAP2 SUB SWAP1 RETURN JUMPDEST PUSH2 0x5ED PUSH1 0x4 DUP1 CALLDATASIZE SUB DUP2 ADD SWAP1 PUSH2 0x5E8 SWAP2 SWAP1 PUSH2 0x4201 JUMP JUMPDEST PUSH2 0x16F4 JUMP JUMPDEST PUSH1 0x40 MLOAD PUSH2 0x5FA SWAP2 SWAP1 PUSH2 0x35D4 JUMP JUMPDEST PUSH1 0x40 MLOAD DUP1 SWAP2 SUB SWAP1 RETURN JUMPDEST PUSH2 0x60B PUSH2 0x18C4 JUMP JUMPDEST PUSH1 0x40 MLOAD PUSH2 0x618 SWAP2 SWAP1 PUSH2 0x4384 JUMP JUMPDEST PUSH1 0x40 MLOAD DUP1 SWAP2 SUB SWAP1 RETURN JUMPDEST PUSH2 0x63B PUSH1 0x4 DUP1 CALLDATASIZE SUB DUP2 ADD SWAP1 PUSH2 0x636 SWAP2 SWAP1 PUSH2 0x439F JUMP JUMPDEST PUSH2 0x18EA JUMP JUMPDEST PUSH1 0x40 MLOAD PUSH2 0x648 SWAP2 SWAP1 PUSH2 0x3529 JUMP JUMPDEST PUSH1 0x40 MLOAD DUP1 SWAP2 SUB SWAP1 RETURN JUMPDEST PUSH2 0x66B PUSH1 0x4 DUP1 CALLDATASIZE SUB DUP2 ADD SWAP1 PUSH2 0x666 SWAP2 SWAP1 PUSH2 0x362C JUMP JUMPDEST PUSH2 0x197E JUMP JUMPDEST PUSH1 0x40 MLOAD PUSH2 0x67D SWAP7 SWAP6 SWAP5 SWAP4 SWAP3 SWAP2 SWAP1 PUSH2 0x3A1F JUMP JUMPDEST PUSH1 0x40 MLOAD DUP1 SWAP2 SUB SWAP1 RETURN JUMPDEST PUSH2 0x6A0 PUSH1 0x4 DUP1 CALLDATASIZE SUB DUP2 ADD SWAP1 PUSH2 0x69B SWAP2 SWAP1 PUSH2 0x3A95 JUMP JUMPDEST PUSH2 0x1C34 JUMP JUMPDEST STOP JUMPDEST PUSH1 0x0 PUSH32 0x80AC58CD00000000000000000000000000000000000000000000000000000000 PUSH28 0xFFFFFFFFFFFFFFFFFFFFFFFFFFFFFFFFFFFFFFFFFFFFFFFFFFFFFFFF NOT AND DUP3 PUSH28 0xFFFFFFFFFFFFFFFFFFFFFFFFFFFFFFFFFFFFFFFFFFFFFFFFFFFFFFFF NOT AND EQ DUP1 PUSH2 0x76D JUMPI POP PUSH32 0x5B5E139F00000000000000000000000000000000000000000000000000000000 PUSH28 0xFFFFFFFFFFFFFFFFFFFFFFFFFFFFFFFFFFFFFFFFFFFFFFFFFFFFFFFF NOT AND DUP3 PUSH28 0xFFFFFFFFFFFFFFFFFFFFFFFFFFFFFFFFFFFFFFFFFFFFFFFFFFFFFFFF NOT AND EQ JUMPDEST DUP1 PUSH2 0x77D JUMPI POP PUSH2 0x77C DUP3 PUSH2 0x1CB7 JUMP JUMPDEST JUMPDEST SWAP1 POP SWAP2 SWAP1 POP JUMP JUMPDEST PUSH1 0x60 PUSH1 0x1 DUP1 SLOAD PUSH2 0x793 SWAP1 PUSH2 0x440E JUMP JUMPDEST DUP1 PUSH1 0x1F ADD PUSH1 0x20 DUP1 SWAP2 DIV MUL PUSH1 0x20 ADD PUSH1 0x40 MLOAD SWAP1 DUP2 ADD PUSH1 0x40 MSTORE DUP1 SWAP3 SWAP2 SWAP1 DUP2 DUP2 MSTORE PUSH1 0x20 ADD DUP3 DUP1 SLOAD PUSH2 0x7BF SWAP1 PUSH2 0x440E JUMP JUMPDEST DUP1 ISZERO PUSH2 0x80C JUMPI DUP1 PUSH1 0x1F LT PUSH2 0x7E1 JUMPI PUSH2 0x100 DUP1 DUP4 SLOAD DIV MUL DUP4 MSTORE SWAP2 PUSH1 0x20 ADD SWAP2 PUSH2 0x80C JUMP JUMPDEST DUP3 ADD SWAP2 SWAP1 PUSH1 0x0 MSTORE PUSH1 0x20 PUSH1 0x0 KECCAK256 SWAP1 JUMPDEST DUP2 SLOAD DUP2 MSTORE SWAP1 PUSH1 0x1 ADD SWAP1 PUSH1 0x20 ADD DUP1 DUP4 GT PUSH2 0x7EF JUMPI DUP3 SWAP1 SUB PUSH1 0x1F AND DUP3 ADD SWAP2 JUMPDEST POP POP POP POP POP SWAP1 POP SWAP1 JUMP JUMPDEST PUSH1 0x0 PUSH2 0x821 DUP3 PUSH2 0x1D21 JUMP JUMPDEST PUSH1 0x5 PUSH1 0x0 DUP4 DUP2 MSTORE PUSH1 0x20 ADD SWAP1 DUP2 MSTORE PUSH1 0x20 ADD PUSH1 0x0 KECCAK256 PUSH1 0x0 SWAP1 SLOAD SWAP1 PUSH2 0x100 EXP SWAP1 DIV PUSH20 0xFFFFFFFFFFFFFFFFFFFFFFFFFFFFFFFFFFFFFFFF AND SWAP1 POP SWAP2 SWAP1 POP JUMP JUMPDEST PUSH1 0x0 PUSH2 0x867 DUP3 PUSH2 0x10A1 JUMP JUMPDEST SWAP1 POP DUP1 PUSH20 0xFFFFFFFFFFFFFFFFFFFFFFFFFFFFFFFFFFFFFFFF AND DUP4 PUSH20 0xFFFFFFFFFFFFFFFFFFFFFFFFFFFFFFFFFFFFFFFF AND SUB PUSH2 0x8D7 JUMPI PUSH1 0x40 MLOAD PUSH32 0x8C379A000000000000000000000000000000000000000000000000000000000 DUP2 MSTORE PUSH1 0x4 ADD PUSH2 0x8CE SWAP1 PUSH2 0x44B1 JUMP JUMPDEST PUSH1 0x40 MLOAD DUP1 SWAP2 SUB SWAP1 REVERT JUMPDEST DUP1 PUSH20 0xFFFFFFFFFFFFFFFFFFFFFFFFFFFFFFFFFFFFFFFF AND PUSH2 0x8F6 PUSH2 0x1D6C JUMP JUMPDEST PUSH20 0xFFFFFFFFFFFFFFFFFFFFFFFFFFFFFFFFFFFFFFFF AND EQ DUP1 PUSH2 0x925 JUMPI POP PUSH2 0x924 DUP2 PUSH2 0x91F PUSH2 0x1D6C JUMP JUMPDEST PUSH2 0x18EA JUMP JUMPDEST JUMPDEST PUSH2 0x964 JUMPI PUSH1 0x40 MLOAD PUSH32 0x8C379A000000000000000000000000000000000000000000000000000000000 DUP2 MSTORE PUSH1 0x4 ADD PUSH2 0x95B SWAP1 PUSH2 0x4543 JUMP JUMPDEST PUSH1 0x40 MLOAD DUP1 SWAP2 SUB SWAP1 REVERT JUMPDEST PUSH2 0x96E DUP4 DUP4 PUSH2 0x1D74 JUMP JUMPDEST POP POP POP JUMP JUMPDEST PUSH2 0x984 PUSH2 0x97E PUSH2 0x1D6C JUMP JUMPDEST DUP3 PUSH2 0x1E2D JUMP JUMPDEST PUSH2 0x9C3 JUMPI PUSH1 0x40 MLOAD PUSH32 0x8C379A000000000000000000000000000000000000000000000000000000000 DUP2 MSTORE PUSH1 0x4 ADD PUSH2 0x9BA SWAP1 PUSH2 0x45D5 JUMP JUMPDEST PUSH1 0x40 MLOAD DUP1 SWAP2 SUB SWAP1 REVERT JUMPDEST PUSH2 0x9CE DUP4 DUP4 DUP4 PUSH2 0x1EC2 JUMP JUMPDEST POP POP POP JUMP JUMPDEST PUSH1 0x9 DUP2 DUP2 SLOAD DUP2 LT PUSH2 0x9E3 JUMPI PUSH1 0x0 DUP1 REVERT JUMPDEST SWAP1 PUSH1 0x0 MSTORE PUSH1 0x20 PUSH1 0x0 KECCAK256 SWAP1 PUSH1 0x2 MUL ADD PUSH1 0x0 SWAP2 POP SWAP1 POP DUP1 PUSH1 0x0 ADD PUSH1 0x0 SWAP1 SLOAD SWAP1 PUSH2 0x100 EXP SWAP1 DIV PUSH1 0xFF AND SWAP1 DUP1 PUSH1 0x1 ADD DUP1 SLOAD PUSH2 0xA19 SWAP1 PUSH2 0x440E JUMP JUMPDEST DUP1 PUSH1 0x1F ADD PUSH1 0x20 DUP1 SWAP2 DIV MUL PUSH1 0x20 ADD PUSH1 0x40 MLOAD SWAP1 DUP2 ADD PUSH1 0x40 MSTORE DUP1 SWAP3 SWAP2 SWAP1 DUP2 DUP2 MSTORE PUSH1 0x20 ADD DUP3 DUP1 SLOAD PUSH2 0xA45 SWAP1 PUSH2 0x440E JUMP JUMPDEST DUP1 ISZERO PUSH2 0xA92 JUMPI DUP1 PUSH1 0x1F LT PUSH2 0xA67 JUMPI PUSH2 0x100 DUP1 DUP4 SLOAD DIV MUL DUP4 MSTORE SWAP2 PUSH1 0x20 ADD SWAP2 PUSH2 0xA92 JUMP JUMPDEST DUP3 ADD SWAP2 SWAP1 PUSH1 0x0 MSTORE PUSH1 0x20 PUSH1 0x0 KECCAK256 SWAP1 JUMPDEST DUP2 SLOAD DUP2 MSTORE SWAP1 PUSH1 0x1 ADD SWAP1 PUSH1 0x20 ADD DUP1 DUP4 GT PUSH2 0xA75 JUMPI DUP3 SWAP1 SUB PUSH1 0x1F AND DUP3 ADD SWAP2 JUMPDEST POP POP POP POP POP SWAP1 POP DUP3 JUMP JUMPDEST PUSH2 0xAB7 DUP4 DUP4 DUP4 PUSH1 0x40 MLOAD DUP1 PUSH1 0x20 ADD PUSH1 0x40 MSTORE DUP1 PUSH1 0x0 DUP2 MSTORE POP PUSH2 0x1604 JUMP JUMPDEST POP POP POP JUMP JUMPDEST PUSH2 0xAC4 PUSH2 0x3459 JUMP JUMPDEST PUSH1 0xB DUP3 SWAP1 DUP1 PUSH1 0x1 DUP2 SLOAD ADD DUP1 DUP3 SSTORE DUP1 SWAP2 POP POP PUSH1 0x1 SWAP1 SUB SWAP1 PUSH1 0x0 MSTORE PUSH1 0x20 PUSH1 0x0 KECCAK256 SWAP1 PUSH1 0x8 MUL ADD PUSH1 0x0 SWAP1 SWAP2 SWAP1 SWAP2 SWAP1 SWAP2 POP DUP2 DUP2 PUSH2 0xAFC SWAP2 SWAP1 PUSH2 0x4DE9 JUMP JUMPDEST POP POP PUSH1 0x0 DUP3 DUP1 PUSH1 0x60 ADD SWAP1 PUSH2 0xB10 SWAP2 SWAP1 PUSH2 0x4ACF JUMP JUMPDEST DUP2 ADD SWAP1 PUSH2 0xB1D SWAP2 SWAP1 PUSH2 0x5086 JUMP JUMPDEST SWAP1 POP PUSH1 0x0 PUSH2 0xB49 DUP3 PUSH1 0x60 ADD MLOAD PUSH1 0x0 DUP2 MLOAD DUP2 LT PUSH2 0xB3C JUMPI PUSH2 0xB3B PUSH2 0x50CF JUMP JUMPDEST JUMPDEST PUSH1 0x20 MUL PUSH1 0x20 ADD ADD MLOAD PUSH2 0x21BB JUMP JUMPDEST SWAP1 POP PUSH1 0x8 PUSH1 0x0 DUP3 DUP2 MSTORE PUSH1 0x20 ADD SWAP1 DUP2 MSTORE PUSH1 0x20 ADD PUSH1 0x0 KECCAK256 PUSH1 0x0 SWAP1 SLOAD SWAP1 PUSH2 0x100 EXP SWAP1 DIV PUSH1 0xFF AND ISZERO PUSH2 0xB7F JUMPI PUSH2 0xB7A DUP2 PUSH2 0x2315 JUMP JUMPDEST PUSH2 0xB8E JUMP JUMPDEST PUSH2 0xB8C DUP3 PUSH1 0xE0 ADD MLOAD PUSH2 0xEAF JUMP JUMPDEST POP JUMPDEST PUSH1 0x0 DUP3 PUSH1 0xE0 ADD MLOAD DUP4 PUSH1 0x60 ADD MLOAD PUSH1 0x0 DUP2 MLOAD DUP2 LT PUSH2 0xBAD JUMPI PUSH2 0xBAC PUSH2 0x50CF JUMP JUMPDEST JUMPDEST PUSH1 0x20 MUL PUSH1 0x20 ADD ADD MLOAD PUSH1 0x40 MLOAD PUSH1 0x20 ADD PUSH2 0xBC6 SWAP3 SWAP2 SWAP1 PUSH2 0x50FE JUMP JUMPDEST PUSH1 0x40 MLOAD PUSH1 0x20 DUP2 DUP4 SUB SUB DUP2 MSTORE SWAP1 PUSH1 0x40 MSTORE SWAP1 POP PUSH1 0x40 MLOAD DUP1 PUSH1 0x40 ADD PUSH1 0x40 MSTORE DUP1 PUSH1 0x1 ISZERO ISZERO DUP2 MSTORE PUSH1 0x20 ADD DUP3 DUP2 MSTORE POP SWAP4 POP POP POP POP SWAP2 SWAP1 POP JUMP JUMPDEST PUSH1 0xA DUP2 DUP2 SLOAD DUP2 LT PUSH2 0xC09 JUMPI PUSH1 0x0 DUP1 REVERT JUMPDEST SWAP1 PUSH1 0x0 MSTORE PUSH1 0x20 PUSH1 0x0 KECCAK256 SWAP1 PUSH1 0x8 MUL ADD PUSH1 0x0 SWAP2 POP SWAP1 POP DUP1 PUSH1 0x0 ADD PUSH1 0x40 MLOAD DUP1 PUSH1 0x40 ADD PUSH1 0x40 MSTORE SWAP1 DUP2 PUSH1 0x0 DUP3 ADD DUP1 SLOAD PUSH2 0xC3C SWAP1 PUSH2 0x440E JUMP JUMPDEST DUP1 PUSH1 0x1F ADD PUSH1 0x20 DUP1 SWAP2 DIV MUL PUSH1 0x20 ADD PUSH1 0x40 MLOAD SWAP1 DUP2 ADD PUSH1 0x40 MSTORE DUP1 SWAP3 SWAP2 SWAP1 DUP2 DUP2 MSTORE PUSH1 0x20 ADD DUP3 DUP1 SLOAD PUSH2 0xC68 SWAP1 PUSH2 0x440E JUMP JUMPDEST DUP1 ISZERO PUSH2 0xCB5 JUMPI DUP1 PUSH1 0x1F LT PUSH2 0xC8A JUMPI PUSH2 0x100 DUP1 DUP4 SLOAD DIV MUL DUP4 MSTORE SWAP2 PUSH1 0x20 ADD SWAP2 PUSH2 0xCB5 JUMP JUMPDEST DUP3 ADD SWAP2 SWAP1 PUSH1 0x0 MSTORE PUSH1 0x20 PUSH1 0x0 KECCAK256 SWAP1 JUMPDEST DUP2 SLOAD DUP2 MSTORE SWAP1 PUSH1 0x1 ADD SWAP1 PUSH1 0x20 ADD DUP1 DUP4 GT PUSH2 0xC98 JUMPI DUP3 SWAP1 SUB PUSH1 0x1F AND DUP3 ADD SWAP2 JUMPDEST POP POP POP POP POP DUP2 MSTORE PUSH1 0x20 ADD PUSH1 0x1 DUP3 ADD SLOAD DUP2 MSTORE POP POP SWAP1 DUP1 PUSH1 0x2 ADD PUSH1 0x40 MLOAD DUP1 PUSH1 0x40 ADD PUSH1 0x40 MSTORE SWAP1 DUP2 PUSH1 0x0 DUP3 ADD DUP1 SLOAD PUSH2 0xCE8 SWAP1 PUSH2 0x440E JUMP JUMPDEST DUP1 PUSH1 0x1F ADD PUSH1 0x20 DUP1 SWAP2 DIV MUL PUSH1 0x20 ADD PUSH1 0x40 MLOAD SWAP1 DUP2 ADD PUSH1 0x40 MSTORE DUP1 SWAP3 SWAP2 SWAP1 DUP2 DUP2 MSTORE PUSH1 0x20 ADD DUP3 DUP1 SLOAD PUSH2 0xD14 SWAP1 PUSH2 0x440E JUMP JUMPDEST DUP1 ISZERO PUSH2 0xD61 JUMPI DUP1 PUSH1 0x1F LT PUSH2 0xD36 JUMPI PUSH2 0x100 DUP1 DUP4 SLOAD DIV MUL DUP4 MSTORE SWAP2 PUSH1 0x20 ADD SWAP2 PUSH2 0xD61 JUMP JUMPDEST DUP3 ADD SWAP2 SWAP1 PUSH1 0x0 MSTORE PUSH1 0x20 PUSH1 0x0 KECCAK256 SWAP1 JUMPDEST DUP2 SLOAD DUP2 MSTORE SWAP1 PUSH1 0x1 ADD SWAP1 PUSH1 0x20 ADD DUP1 DUP4 GT PUSH2 0xD44 JUMPI DUP3 SWAP1 SUB PUSH1 0x1F AND DUP3 ADD SWAP2 JUMPDEST POP POP POP POP POP DUP2 MSTORE PUSH1 0x20 ADD PUSH1 0x1 DUP3 ADD SLOAD DUP2 MSTORE POP POP SWAP1 DUP1 PUSH1 0x4 ADD PUSH1 0x0 SWAP1 SLOAD SWAP1 PUSH2 0x100 EXP SWAP1 DIV PUSH8 0xFFFFFFFFFFFFFFFF AND SWAP1 DUP1 PUSH1 0x5 ADD DUP1 SLOAD PUSH2 0xD9E SWAP1 PUSH2 0x440E JUMP JUMPDEST DUP1 PUSH1 0x1F ADD PUSH1 0x20 DUP1 SWAP2 DIV MUL PUSH1 0x20 ADD PUSH1 0x40 MLOAD SWAP1 DUP2 ADD PUSH1 0x40 MSTORE DUP1 SWAP3 SWAP2 SWAP1 DUP2 DUP2 MSTORE PUSH1 0x20 ADD DUP3 DUP1 SLOAD PUSH2 0xDCA SWAP1 PUSH2 0x440E JUMP JUMPDEST DUP1 ISZERO PUSH2 0xE17 JUMPI DUP1 PUSH1 0x1F LT PUSH2 0xDEC JUMPI PUSH2 0x100 DUP1 DUP4 SLOAD DIV MUL DUP4 MSTORE SWAP2 PUSH1 0x20 ADD SWAP2 PUSH2 0xE17 JUMP JUMPDEST DUP3 ADD SWAP2 SWAP1 PUSH1 0x0 MSTORE PUSH1 0x20 PUSH1 0x0 KECCAK256 SWAP1 JUMPDEST DUP2 SLOAD DUP2 MSTORE SWAP1 PUSH1 0x1 ADD SWAP1 PUSH1 0x20 ADD DUP1 DUP4 GT PUSH2 0xDFA JUMPI DUP3 SWAP1 SUB PUSH1 0x1F AND DUP3 ADD SWAP2 JUMPDEST POP POP POP POP POP SWAP1 DUP1 PUSH1 0x6 ADD PUSH1 0x40 MLOAD DUP1 PUSH1 0x40 ADD PUSH1 0x40 MSTORE SWAP1 DUP2 PUSH1 0x0 DUP3 ADD PUSH1 0x0 SWAP1 SLOAD SWAP1 PUSH2 0x100 EXP SWAP1 DIV PUSH8 0xFFFFFFFFFFFFFFFF AND PUSH8 0xFFFFFFFFFFFFFFFF AND PUSH8 0xFFFFFFFFFFFFFFFF AND DUP2 MSTORE PUSH1 0x20 ADD PUSH1 0x0 DUP3 ADD PUSH1 0x8 SWAP1 SLOAD SWAP1 PUSH2 0x100 EXP SWAP1 DIV PUSH8 0xFFFFFFFFFFFFFFFF AND PUSH8 0xFFFFFFFFFFFFFFFF AND PUSH8 0xFFFFFFFFFFFFFFFF AND DUP2 MSTORE POP POP SWAP1 DUP1 PUSH1 0x7 ADD PUSH1 0x0 SWAP1 SLOAD SWAP1 PUSH2 0x100 EXP SWAP1 DIV PUSH8 0xFFFFFFFFFFFFFFFF AND SWAP1 POP DUP7 JUMP JUMPDEST PUSH1 0x0 PUSH2 0xEB9 PUSH2 0x2390 JUMP JUMPDEST PUSH2 0xEC3 PUSH1 0x7 PUSH2 0x240E JUMP JUMPDEST PUSH2 0xED6 DUP3 PUSH2 0xED1 PUSH1 0x7 PUSH2 0x2424 JUMP JUMPDEST PUSH2 0x2432 JUMP JUMPDEST PUSH2 0xEE0 PUSH1 0x7 PUSH2 0x2424 JUMP JUMPDEST SWAP1 POP SWAP2 SWAP1 POP JUMP JUMPDEST PUSH1 0xE PUSH1 0x0 SWAP1 SLOAD SWAP1 PUSH2 0x100 EXP SWAP1 DIV PUSH20 0xFFFFFFFFFFFFFFFFFFFFFFFFFFFFFFFFFFFFFFFF AND PUSH20 0xFFFFFFFFFFFFFFFFFFFFFFFFFFFFFFFFFFFFFFFF AND PUSH4 0x7E9077B0 ADDRESS PUSH1 0xD PUSH1 0x0 DUP2 SLOAD DUP2 LT PUSH2 0xF3B JUMPI PUSH2 0xF3A PUSH2 0x50CF JUMP JUMPDEST JUMPDEST SWAP1 PUSH1 0x0 MSTORE PUSH1 0x20 PUSH1 0x0 KECCAK256 ADD PUSH1 0x1 DUP10 DUP10 DUP10 DUP10 DUP10 PUSH1 0x40 MLOAD DUP10 PUSH4 0xFFFFFFFF AND PUSH1 0xE0 SHL DUP2 MSTORE PUSH1 0x4 ADD PUSH2 0xF6F SWAP9 SWAP8 SWAP7 SWAP6 SWAP5 SWAP4 SWAP3 SWAP2 SWAP1 PUSH2 0x557C JUMP JUMPDEST PUSH1 0x0 PUSH1 0x40 MLOAD DUP1 DUP4 SUB DUP2 PUSH1 0x0 DUP8 DUP1 EXTCODESIZE ISZERO DUP1 ISZERO PUSH2 0xF89 JUMPI PUSH1 0x0 DUP1 REVERT JUMPDEST POP GAS CALL ISZERO DUP1 ISZERO PUSH2 0xF9D JUMPI RETURNDATASIZE PUSH1 0x0 DUP1 RETURNDATACOPY RETURNDATASIZE PUSH1 0x0 REVERT JUMPDEST POP POP POP POP POP POP POP POP POP JUMP JUMPDEST PUSH1 0x0 DUP1 JUMPDEST PUSH1 0xC DUP1 SLOAD SWAP1 POP DUP2 LT ISZERO PUSH2 0x101C JUMPI DUP6 PUSH1 0xC DUP3 DUP2 SLOAD DUP2 LT PUSH2 0xFCE JUMPI PUSH2 0xFCD PUSH2 0x50CF JUMP JUMPDEST JUMPDEST SWAP1 PUSH1 0x0 MSTORE PUSH1 0x20 PUSH1 0x0 KECCAK256 ADD SLOAD SUB PUSH2 0x1009 JUMPI PUSH1 0xC DUP2 DUP2 SLOAD DUP2 LT PUSH2 0xFF2 JUMPI PUSH2 0xFF1 PUSH2 0x50CF JUMP JUMPDEST JUMPDEST SWAP1 PUSH1 0x0 MSTORE PUSH1 0x20 PUSH1 0x0 KECCAK256 ADD PUSH1 0x0 SWAP1 SSTORE PUSH1 0x1 SWAP2 POP PUSH2 0x101C JUMP JUMPDEST DUP1 DUP1 PUSH2 0x1014 SWAP1 PUSH2 0x5638 JUMP JUMPDEST SWAP2 POP POP PUSH2 0xFAC JUMP JUMPDEST POP DUP1 PUSH2 0x105D JUMPI PUSH1 0x40 MLOAD PUSH32 0x8C379A000000000000000000000000000000000000000000000000000000000 DUP2 MSTORE PUSH1 0x4 ADD PUSH2 0x1054 SWAP1 PUSH2 0x56CC JUMP JUMPDEST PUSH1 0x40 MLOAD DUP1 SWAP2 SUB SWAP1 REVERT JUMPDEST POP POP POP POP POP JUMP JUMPDEST PUSH1 0xA DUP2 SWAP1 DUP1 PUSH1 0x1 DUP2 SLOAD ADD DUP1 DUP3 SSTORE DUP1 SWAP2 POP POP PUSH1 0x1 SWAP1 SUB SWAP1 PUSH1 0x0 MSTORE PUSH1 0x20 PUSH1 0x0 KECCAK256 SWAP1 PUSH1 0x8 MUL ADD PUSH1 0x0 SWAP1 SWAP2 SWAP1 SWAP2 SWAP1 SWAP2 POP DUP2 DUP2 PUSH2 0x109C SWAP2 SWAP1 PUSH2 0x4DE9 JUMP JUMPDEST POP POP POP JUMP JUMPDEST PUSH1 0x0 DUP1 PUSH2 0x10AD DUP4 PUSH2 0x2450 JUMP JUMPDEST SWAP1 POP PUSH1 0x0 PUSH20 0xFFFFFFFFFFFFFFFFFFFFFFFFFFFFFFFFFFFFFFFF AND DUP2 PUSH20 0xFFFFFFFFFFFFFFFFFFFFFFFFFFFFFFFFFFFFFFFF AND SUB PUSH2 0x111E JUMPI PUSH1 0x40 MLOAD PUSH32 0x8C379A000000000000000000000000000000000000000000000000000000000 DUP2 MSTORE PUSH1 0x4 ADD PUSH2 0x1115 SWAP1 PUSH2 0x5738 JUMP JUMPDEST PUSH1 0x40 MLOAD DUP1 SWAP2 SUB SWAP1 REVERT JUMPDEST DUP1 SWAP2 POP POP SWAP2 SWAP1 POP JUMP JUMPDEST PUSH1 0x0 DUP1 PUSH20 0xFFFFFFFFFFFFFFFFFFFFFFFFFFFFFFFFFFFFFFFF AND DUP3 PUSH20 0xFFFFFFFFFFFFFFFFFFFFFFFFFFFFFFFFFFFFFFFF AND SUB PUSH2 0x1197 JUMPI PUSH1 0x40 MLOAD PUSH32 0x8C379A000000000000000000000000000000000000000000000000000000000 DUP2 MSTORE PUSH1 0x4 ADD PUSH2 0x118E SWAP1 PUSH2 0x57CA JUMP JUMPDEST PUSH1 0x40 MLOAD DUP1 SWAP2 SUB SWAP1 REVERT JUMPDEST PUSH1 0x4 PUSH1 0x0 DUP4 PUSH20 0xFFFFFFFFFFFFFFFFFFFFFFFFFFFFFFFFFFFFFFFF AND PUSH20 0xFFFFFFFFFFFFFFFFFFFFFFFFFFFFFFFFFFFFFFFF AND DUP2 MSTORE PUSH1 0x20 ADD SWAP1 DUP2 MSTORE PUSH1 0x20 ADD PUSH1 0x0 KECCAK256 SLOAD SWAP1 POP SWAP2 SWAP1 POP JUMP JUMPDEST PUSH2 0x11E6 PUSH2 0x2390 JUMP JUMPDEST PUSH2 0x11F0 PUSH1 0x0 PUSH2 0x248D JUMP JUMPDEST JUMP JUMPDEST CALLER PUSH20 0xFFFFFFFFFFFFFFFFFFFFFFFFFFFFFFFFFFFFFFFF AND PUSH2 0x1212 DUP6 PUSH2 0x10A1 JUMP JUMPDEST PUSH20 0xFFFFFFFFFFFFFFFFFFFFFFFFFFFFFFFFFFFFFFFF AND EQ PUSH2 0x1268 JUMPI PUSH1 0x40 MLOAD PUSH32 0x8C379A000000000000000000000000000000000000000000000000000000000 DUP2 MSTORE PUSH1 0x4 ADD PUSH2 0x125F SWAP1 PUSH2 0x585C JUMP JUMPDEST PUSH1 0x40 MLOAD DUP1 SWAP2 SUB SWAP1 REVERT JUMPDEST PUSH2 0x1271 DUP5 PUSH2 0x2551 JUMP JUMPDEST PUSH2 0x127E DUP5 CALLER DUP6 DUP6 DUP6 PUSH2 0x25CC JUMP JUMPDEST DUP4 CALLER PUSH20 0xFFFFFFFFFFFFFFFFFFFFFFFFFFFFFFFFFFFFFFFF AND PUSH32 0xB7076E58F35E6669B2F089716C3FE1955D72FF0150AD8A5F90475C77FA43BF99 DUP6 PUSH1 0x40 MLOAD PUSH2 0x12C5 SWAP2 SWAP1 PUSH2 0x369A JUMP JUMPDEST PUSH1 0x40 MLOAD DUP1 SWAP2 SUB SWAP1 LOG3 POP POP POP POP JUMP JUMPDEST PUSH1 0xD DUP2 DUP2 SLOAD DUP2 LT PUSH2 0x12E3 JUMPI PUSH1 0x0 DUP1 REVERT JUMPDEST SWAP1 PUSH1 0x0 MSTORE PUSH1 0x20 PUSH1 0x0 KECCAK256 ADD PUSH1 0x0 SWAP2 POP SWAP1 POP DUP1 SLOAD PUSH2 0x12FE SWAP1 PUSH2 0x440E JUMP JUMPDEST DUP1 PUSH1 0x1F ADD PUSH1 0x20 DUP1 SWAP2 DIV MUL PUSH1 0x20 ADD PUSH1 0x40 MLOAD SWAP1 DUP2 ADD PUSH1 0x40 MSTORE DUP1 SWAP3 SWAP2 SWAP1 DUP2 DUP2 MSTORE PUSH1 0x20 ADD DUP3 DUP1 SLOAD PUSH2 0x132A SWAP1 PUSH2 0x440E JUMP JUMPDEST DUP1 ISZERO PUSH2 0x1377 JUMPI DUP1 PUSH1 0x1F LT PUSH2 0x134C JUMPI PUSH2 0x100 DUP1 DUP4 SLOAD DIV MUL DUP4 MSTORE SWAP2 PUSH1 0x20 ADD SWAP2 PUSH2 0x1377 JUMP JUMPDEST DUP3 ADD SWAP2 SWAP1 PUSH1 0x0 MSTORE PUSH1 0x20 PUSH1 0x0 KECCAK256 SWAP1 JUMPDEST DUP2 SLOAD DUP2 MSTORE SWAP1 PUSH1 0x1 ADD SWAP1 PUSH1 0x20 ADD DUP1 DUP4 GT PUSH2 0x135A JUMPI DUP3 SWAP1 SUB PUSH1 0x1F AND DUP3 ADD SWAP2 JUMPDEST POP POP POP POP POP DUP2 JUMP JUMPDEST PUSH1 0x9 DUP2 SWAP1 DUP1 PUSH1 0x1 DUP2 SLOAD ADD DUP1 DUP3 SSTORE DUP1 SWAP2 POP POP PUSH1 0x1 SWAP1 SUB SWAP1 PUSH1 0x0 MSTORE PUSH1 0x20 PUSH1 0x0 KECCAK256 SWAP1 PUSH1 0x2 MUL ADD PUSH1 0x0 SWAP1 SWAP2 SWAP1 SWAP2 SWAP1 SWAP2 POP DUP2 DUP2 PUSH2 0x13B7 SWAP2 SWAP1 PUSH2 0x593A JUMP JUMPDEST POP POP POP POP JUMP JUMPDEST PUSH1 0x60 PUSH2 0x13C8 DUP3 PUSH2 0x298D JUMP JUMPDEST PUSH2 0x1407 JUMPI PUSH1 0x40 MLOAD PUSH32 0x8C379A000000000000000000000000000000000000000000000000000000000 DUP2 MSTORE PUSH1 0x4 ADD PUSH2 0x13FE SWAP1 PUSH2 0x59BA JUMP JUMPDEST PUSH1 0x40 MLOAD DUP1 SWAP2 SUB SWAP1 REVERT JUMPDEST PUSH1 0x0 PUSH1 0x80 DUP4 SWAP1 SHR SWAP1 POP PUSH2 0x141B DUP2 PUSH1 0x20 PUSH2 0x29CE JUMP JUMPDEST SWAP2 POP POP SWAP2 SWAP1 POP JUMP JUMPDEST PUSH1 0x0 DUP1 PUSH1 0x0 SWAP1 SLOAD SWAP1 PUSH2 0x100 EXP SWAP1 DIV PUSH20 0xFFFFFFFFFFFFFFFFFFFFFFFFFFFFFFFFFFFFFFFF AND SWAP1 POP SWAP1 JUMP JUMPDEST PUSH1 0x60 PUSH1 0x2 DUP1 SLOAD PUSH2 0x145B SWAP1 PUSH2 0x440E JUMP JUMPDEST DUP1 PUSH1 0x1F ADD PUSH1 0x20 DUP1 SWAP2 DIV MUL PUSH1 0x20 ADD PUSH1 0x40 MLOAD SWAP1 DUP2 ADD PUSH1 0x40 MSTORE DUP1 SWAP3 SWAP2 SWAP1 DUP2 DUP2 MSTORE PUSH1 0x20 ADD DUP3 DUP1 SLOAD PUSH2 0x1487 SWAP1 PUSH2 0x440E JUMP JUMPDEST DUP1 ISZERO PUSH2 0x14D4 JUMPI DUP1 PUSH1 0x1F LT PUSH2 0x14A9 JUMPI PUSH2 0x100 DUP1 DUP4 SLOAD DIV MUL DUP4 MSTORE SWAP2 PUSH1 0x20 ADD SWAP2 PUSH2 0x14D4 JUMP JUMPDEST DUP3 ADD SWAP2 SWAP1 PUSH1 0x0 MSTORE PUSH1 0x20 PUSH1 0x0 KECCAK256 SWAP1 JUMPDEST DUP2 SLOAD DUP2 MSTORE SWAP1 PUSH1 0x1 ADD SWAP1 PUSH1 0x20 ADD DUP1 DUP4 GT PUSH2 0x14B7 JUMPI DUP3 SWAP1 SUB PUSH1 0x1F AND DUP3 ADD SWAP2 JUMPDEST POP POP POP POP POP SWAP1 POP SWAP1 JUMP JUMPDEST PUSH2 0x14F0 PUSH2 0x14E9 PUSH2 0x1D6C JUMP JUMPDEST DUP4 DUP4 PUSH2 0x2C0A JUMP JUMPDEST POP POP JUMP JUMPDEST PUSH1 0x0 DUP1 JUMPDEST PUSH1 0xD DUP1 SLOAD SWAP1 POP DUP2 LT ISZERO PUSH2 0x1593 JUMPI PUSH1 0xD DUP2 DUP2 SLOAD DUP2 LT PUSH2 0x1519 JUMPI PUSH2 0x1518 PUSH2 0x50CF JUMP JUMPDEST JUMPDEST SWAP1 PUSH1 0x0 MSTORE PUSH1 0x20 PUSH1 0x0 KECCAK256 ADD PUSH1 0x40 MLOAD PUSH1 0x20 ADD PUSH2 0x1533 SWAP2 SWAP1 PUSH2 0x5A68 JUMP JUMPDEST PUSH1 0x40 MLOAD PUSH1 0x20 DUP2 DUP4 SUB SUB DUP2 MSTORE SWAP1 PUSH1 0x40 MSTORE DUP1 MLOAD SWAP1 PUSH1 0x20 ADD KECCAK256 DUP5 DUP5 PUSH1 0x40 MLOAD PUSH1 0x20 ADD PUSH2 0x155C SWAP3 SWAP2 SWAP1 PUSH2 0x5AA4 JUMP JUMPDEST PUSH1 0x40 MLOAD PUSH1 0x20 DUP2 DUP4 SUB SUB DUP2 MSTORE SWAP1 PUSH1 0x40 MSTORE DUP1 MLOAD SWAP1 PUSH1 0x20 ADD KECCAK256 SUB PUSH2 0x1580 JUMPI PUSH1 0x1 SWAP2 POP PUSH2 0x1593 JUMP JUMPDEST DUP1 DUP1 PUSH2 0x158B SWAP1 PUSH2 0x5638 JUMP JUMPDEST SWAP2 POP POP PUSH2 0x14F8 JUMP JUMPDEST POP DUP1 PUSH2 0x15D4 JUMPI PUSH1 0x40 MLOAD PUSH32 0x8C379A000000000000000000000000000000000000000000000000000000000 DUP2 MSTORE PUSH1 0x4 ADD PUSH2 0x15CB SWAP1 PUSH2 0x5B09 JUMP JUMPDEST PUSH1 0x40 MLOAD DUP1 SWAP2 SUB SWAP1 REVERT JUMPDEST PUSH1 0xC DUP6 SWAP1 DUP1 PUSH1 0x1 DUP2 SLOAD ADD DUP1 DUP3 SSTORE DUP1 SWAP2 POP POP PUSH1 0x1 SWAP1 SUB SWAP1 PUSH1 0x0 MSTORE PUSH1 0x20 PUSH1 0x0 KECCAK256 ADD PUSH1 0x0 SWAP1 SWAP2 SWAP1 SWAP2 SWAP1 SWAP2 POP SSTORE POP POP POP POP POP JUMP JUMPDEST PUSH2 0x1615 PUSH2 0x160F PUSH2 0x1D6C JUMP JUMPDEST DUP4 PUSH2 0x1E2D JUMP JUMPDEST PUSH2 0x1654 JUMPI PUSH1 0x40 MLOAD PUSH32 0x8C379A000000000000000000000000000000000000000000000000000000000 DUP2 MSTORE PUSH1 0x4 ADD PUSH2 0x164B SWAP1 PUSH2 0x45D5 JUMP JUMPDEST PUSH1 0x40 MLOAD DUP1 SWAP2 SUB SWAP1 REVERT JUMPDEST PUSH2 0x1660 DUP5 DUP5 DUP5 DUP5 PUSH2 0x2D76 JUMP JUMPDEST POP POP POP POP JUMP JUMPDEST PUSH1 0xC DUP2 DUP2 SLOAD DUP2 LT PUSH2 0x1676 JUMPI PUSH1 0x0 DUP1 REVERT JUMPDEST SWAP1 PUSH1 0x0 MSTORE PUSH1 0x20 PUSH1 0x0 KECCAK256 ADD PUSH1 0x0 SWAP2 POP SWAP1 POP SLOAD DUP2 JUMP JUMPDEST PUSH1 0x60 PUSH2 0x1695 DUP3 PUSH2 0x298D JUMP JUMPDEST PUSH2 0x16D4 JUMPI PUSH1 0x40 MLOAD PUSH32 0x8C379A000000000000000000000000000000000000000000000000000000000 DUP2 MSTORE PUSH1 0x4 ADD PUSH2 0x16CB SWAP1 PUSH2 0x59BA JUMP JUMPDEST PUSH1 0x40 MLOAD DUP1 SWAP2 SUB SWAP1 REVERT JUMPDEST PUSH1 0x40 MLOAD DUP1 PUSH1 0x80 ADD PUSH1 0x40 MSTORE DUP1 PUSH1 0x51 DUP2 MSTORE PUSH1 0x20 ADD PUSH2 0x65DE PUSH1 0x51 SWAP2 CODECOPY SWAP1 POP SWAP2 SWAP1 POP JUMP JUMPDEST PUSH1 0x60 PUSH1 0x8 DUP7 DUP7 SWAP1 POP GT PUSH2 0x1733 JUMPI PUSH1 0x40 MLOAD PUSH32 0x41CD6A4700000000000000000000000000000000000000000000000000000000 DUP2 MSTORE PUSH1 0x4 ADD PUSH1 0x40 MLOAD DUP1 SWAP2 SUB SWAP1 REVERT JUMPDEST PUSH1 0x0 PUSH1 0x40 MLOAD PUSH1 0x20 ADD PUSH2 0x1744 SWAP1 PUSH2 0x5B4F JUMP JUMPDEST PUSH1 0x40 MLOAD PUSH1 0x20 DUP2 DUP4 SUB SUB DUP2 MSTORE SWAP1 PUSH1 0x40 MSTORE DUP1 MLOAD SWAP1 PUSH1 0x20 ADD KECCAK256 DUP14 DUP14 PUSH1 0x40 MLOAD PUSH1 0x20 ADD PUSH2 0x176D SWAP3 SWAP2 SWAP1 PUSH2 0x5AA4 JUMP JUMPDEST PUSH1 0x40 MLOAD PUSH1 0x20 DUP2 DUP4 SUB SUB DUP2 MSTORE SWAP1 PUSH1 0x40 MSTORE DUP1 MLOAD SWAP1 PUSH1 0x20 ADD KECCAK256 EQ PUSH2 0x178F JUMPI DUP13 DUP13 PUSH2 0x1792 JUMP JUMPDEST DUP4 DUP4 JUMPDEST DUP1 DUP1 PUSH1 0x1F ADD PUSH1 0x20 DUP1 SWAP2 DIV MUL PUSH1 0x20 ADD PUSH1 0x40 MLOAD SWAP1 DUP2 ADD PUSH1 0x40 MSTORE DUP1 SWAP4 SWAP3 SWAP2 SWAP1 DUP2 DUP2 MSTORE PUSH1 0x20 ADD DUP4 DUP4 DUP1 DUP3 DUP5 CALLDATACOPY PUSH1 0x0 DUP2 DUP5 ADD MSTORE PUSH1 0x1F NOT PUSH1 0x1F DUP3 ADD AND SWAP1 POP DUP1 DUP4 ADD SWAP3 POP POP POP POP POP POP POP SWAP2 POP PUSH1 0x0 JUMPDEST PUSH1 0xD DUP1 SLOAD SWAP1 POP DUP2 LT ISZERO PUSH2 0x1873 JUMPI PUSH1 0xD DUP2 DUP2 SLOAD DUP2 LT PUSH2 0x17FB JUMPI PUSH2 0x17FA PUSH2 0x50CF JUMP JUMPDEST JUMPDEST SWAP1 PUSH1 0x0 MSTORE PUSH1 0x20 PUSH1 0x0 KECCAK256 ADD PUSH1 0x40 MLOAD PUSH1 0x20 ADD PUSH2 0x1815 SWAP2 SWAP1 PUSH2 0x5A68 JUMP JUMPDEST PUSH1 0x40 MLOAD PUSH1 0x20 DUP2 DUP4 SUB SUB DUP2 MSTORE SWAP1 PUSH1 0x40 MSTORE DUP1 MLOAD SWAP1 PUSH1 0x20 ADD KECCAK256 DUP4 PUSH1 0x40 MLOAD PUSH1 0x20 ADD PUSH2 0x183C SWAP2 SWAP1 PUSH2 0x5B95 JUMP JUMPDEST PUSH1 0x40 MLOAD PUSH1 0x20 DUP2 DUP4 SUB SUB DUP2 MSTORE SWAP1 PUSH1 0x40 MSTORE DUP1 MLOAD SWAP1 PUSH1 0x20 ADD KECCAK256 SUB PUSH2 0x1860 JUMPI PUSH1 0x1 SWAP2 POP PUSH2 0x1873 JUMP JUMPDEST DUP1 DUP1 PUSH2 0x186B SWAP1 PUSH2 0x5638 JUMP JUMPDEST SWAP2 POP POP PUSH2 0x17DA JUMP JUMPDEST POP DUP1 PUSH2 0x18B4 JUMPI PUSH1 0x40 MLOAD PUSH32 0x8C379A000000000000000000000000000000000000000000000000000000000 DUP2 MSTORE PUSH1 0x4 ADD PUSH2 0x18AB SWAP1 PUSH2 0x5B09 JUMP JUMPDEST PUSH1 0x40 MLOAD DUP1 SWAP2 SUB SWAP1 REVERT JUMPDEST POP SWAP12 SWAP11 POP POP POP POP POP POP POP POP POP POP POP JUMP JUMPDEST PUSH1 0xE PUSH1 0x0 SWAP1 SLOAD SWAP1 PUSH2 0x100 EXP SWAP1 DIV PUSH20 0xFFFFFFFFFFFFFFFFFFFFFFFFFFFFFFFFFFFFFFFF AND DUP2 JUMP JUMPDEST PUSH1 0x0 PUSH1 0x6 PUSH1 0x0 DUP5 PUSH20 0xFFFFFFFFFFFFFFFFFFFFFFFFFFFFFFFFFFFFFFFF AND PUSH20 0xFFFFFFFFFFFFFFFFFFFFFFFFFFFFFFFFFFFFFFFF AND DUP2 MSTORE PUSH1 0x20 ADD SWAP1 DUP2 MSTORE PUSH1 0x20 ADD PUSH1 0x0 KECCAK256 PUSH1 0x0 DUP4 PUSH20 0xFFFFFFFFFFFFFFFFFFFFFFFFFFFFFFFFFFFFFFFF AND PUSH20 0xFFFFFFFFFFFFFFFFFFFFFFFFFFFFFFFFFFFFFFFF AND DUP2 MSTORE PUSH1 0x20 ADD SWAP1 DUP2 MSTORE PUSH1 0x20 ADD PUSH1 0x0 KECCAK256 PUSH1 0x0 SWAP1 SLOAD SWAP1 PUSH2 0x100 EXP SWAP1 DIV PUSH1 0xFF AND SWAP1 POP SWAP3 SWAP2 POP POP JUMP JUMPDEST PUSH1 0xB DUP2 DUP2 SLOAD DUP2 LT PUSH2 0x198E JUMPI PUSH1 0x0 DUP1 REVERT JUMPDEST SWAP1 PUSH1 0x0 MSTORE PUSH1 0x20 PUSH1 0x0 KECCAK256 SWAP1 PUSH1 0x8 MUL ADD PUSH1 0x0 SWAP2 POP SWAP1 POP DUP1 PUSH1 0x0 ADD PUSH1 0x40 MLOAD DUP1 PUSH1 0x40 ADD PUSH1 0x40 MSTORE SWAP1 DUP2 PUSH1 0x0 DUP3 ADD DUP1 SLOAD PUSH2 0x19C1 SWAP1 PUSH2 0x440E JUMP JUMPDEST DUP1 PUSH1 0x1F ADD PUSH1 0x20 DUP1 SWAP2 DIV MUL PUSH1 0x20 ADD PUSH1 0x40 MLOAD SWAP1 DUP2 ADD PUSH1 0x40 MSTORE DUP1 SWAP3 SWAP2 SWAP1 DUP2 DUP2 MSTORE PUSH1 0x20 ADD DUP3 DUP1 SLOAD PUSH2 0x19ED SWAP1 PUSH2 0x440E JUMP JUMPDEST DUP1 ISZERO PUSH2 0x1A3A JUMPI DUP1 PUSH1 0x1F LT PUSH2 0x1A0F JUMPI PUSH2 0x100 DUP1 DUP4 SLOAD DIV MUL DUP4 MSTORE SWAP2 PUSH1 0x20 ADD SWAP2 PUSH2 0x1A3A JUMP JUMPDEST DUP3 ADD SWAP2 SWAP1 PUSH1 0x0 MSTORE PUSH1 0x20 PUSH1 0x0 KECCAK256 SWAP1 JUMPDEST DUP2 SLOAD DUP2 MSTORE SWAP1 PUSH1 0x1 ADD SWAP1 PUSH1 0x20 ADD DUP1 DUP4 GT PUSH2 0x1A1D JUMPI DUP3 SWAP1 SUB PUSH1 0x1F AND DUP3 ADD SWAP2 JUMPDEST POP POP POP POP POP DUP2 MSTORE PUSH1 0x20 ADD PUSH1 0x1 DUP3 ADD SLOAD DUP2 MSTORE POP POP SWAP1 DUP1 PUSH1 0x2 ADD PUSH1 0x40 MLOAD DUP1 PUSH1 0x40 ADD PUSH1 0x40 MSTORE SWAP1 DUP2 PUSH1 0x0 DUP3 ADD DUP1 SLOAD PUSH2 0x1A6D SWAP1 PUSH2 0x440E JUMP JUMPDEST DUP1 PUSH1 0x1F ADD PUSH1 0x20 DUP1 SWAP2 DIV MUL PUSH1 0x20 ADD PUSH1 0x40 MLOAD SWAP1 DUP2 ADD PUSH1 0x40 MSTORE DUP1 SWAP3 SWAP2 SWAP1 DUP2 DUP2 MSTORE PUSH1 0x20 ADD DUP3 DUP1 SLOAD PUSH2 0x1A99 SWAP1 PUSH2 0x440E JUMP JUMPDEST DUP1 ISZERO PUSH2 0x1AE6 JUMPI DUP1 PUSH1 0x1F LT PUSH2 0x1ABB JUMPI PUSH2 0x100 DUP1 DUP4 SLOAD DIV MUL DUP4 MSTORE SWAP2 PUSH1 0x20 ADD SWAP2 PUSH2 0x1AE6 JUMP JUMPDEST DUP3 ADD SWAP2 SWAP1 PUSH1 0x0 MSTORE PUSH1 0x20 PUSH1 0x0 KECCAK256 SWAP1 JUMPDEST DUP2 SLOAD DUP2 MSTORE SWAP1 PUSH1 0x1 ADD SWAP1 PUSH1 0x20 ADD DUP1 DUP4 GT PUSH2 0x1AC9 JUMPI DUP3 SWAP1 SUB PUSH1 0x1F AND DUP3 ADD SWAP2 JUMPDEST POP POP POP POP POP DUP2 MSTORE PUSH1 0x20 ADD PUSH1 0x1 DUP3 ADD SLOAD DUP2 MSTORE POP POP SWAP1 DUP1 PUSH1 0x4 ADD PUSH1 0x0 SWAP1 SLOAD SWAP1 PUSH2 0x100 EXP SWAP1 DIV PUSH8 0xFFFFFFFFFFFFFFFF AND SWAP1 DUP1 PUSH1 0x5 ADD DUP1 SLOAD PUSH2 0x1B23 SWAP1 PUSH2 0x440E JUMP JUMPDEST DUP1 PUSH1 0x1F ADD PUSH1 0x20 DUP1 SWAP2 DIV MUL PUSH1 0x20 ADD PUSH1 0x40 MLOAD SWAP1 DUP2 ADD PUSH1 0x40 MSTORE DUP1 SWAP3 SWAP2 SWAP1 DUP2 DUP2 MSTORE PUSH1 0x20 ADD DUP3 DUP1 SLOAD PUSH2 0x1B4F SWAP1 PUSH2 0x440E JUMP JUMPDEST DUP1 ISZERO PUSH2 0x1B9C JUMPI DUP1 PUSH1 0x1F LT PUSH2 0x1B71 JUMPI PUSH2 0x100 DUP1 DUP4 SLOAD DIV MUL DUP4 MSTORE SWAP2 PUSH1 0x20 ADD SWAP2 PUSH2 0x1B9C JUMP JUMPDEST DUP3 ADD SWAP2 SWAP1 PUSH1 0x0 MSTORE PUSH1 0x20 PUSH1 0x0 KECCAK256 SWAP1 JUMPDEST DUP2 SLOAD DUP2 MSTORE SWAP1 PUSH1 0x1 ADD SWAP1 PUSH1 0x20 ADD DUP1 DUP4 GT PUSH2 0x1B7F JUMPI DUP3 SWAP1 SUB PUSH1 0x1F AND DUP3 ADD SWAP2 JUMPDEST POP POP POP POP POP SWAP1 DUP1 PUSH1 0x6 ADD PUSH1 0x40 MLOAD DUP1 PUSH1 0x40 ADD PUSH1 0x40 MSTORE SWAP1 DUP2 PUSH1 0x0 DUP3 ADD PUSH1 0x0 SWAP1 SLOAD SWAP1 PUSH2 0x100 EXP SWAP1 DIV PUSH8 0xFFFFFFFFFFFFFFFF AND PUSH8 0xFFFFFFFFFFFFFFFF AND PUSH8 0xFFFFFFFFFFFFFFFF AND DUP2 MSTORE PUSH1 0x20 ADD PUSH1 0x0 DUP3 ADD PUSH1 0x8 SWAP1 SLOAD SWAP1 PUSH2 0x100 EXP SWAP1 DIV PUSH8 0xFFFFFFFFFFFFFFFF AND PUSH8 0xFFFFFFFFFFFFFFFF AND PUSH8 0xFFFFFFFFFFFFFFFF AND DUP2 MSTORE POP POP SWAP1 DUP1 PUSH1 0x7 ADD PUSH1 0x0 SWAP1 SLOAD SWAP1 PUSH2 0x100 EXP SWAP1 DIV PUSH8 0xFFFFFFFFFFFFFFFF AND SWAP1 POP DUP7 JUMP JUMPDEST PUSH2 0x1C3C PUSH2 0x2390 JUMP JUMPDEST PUSH1 0x0 PUSH20 0xFFFFFFFFFFFFFFFFFFFFFFFFFFFFFFFFFFFFFFFF AND DUP2 PUSH20 0xFFFFFFFFFFFFFFFFFFFFFFFFFFFFFFFFFFFFFFFF AND SUB PUSH2 0x1CAB JUMPI PUSH1 0x40 MLOAD PUSH32 0x8C379A000000000000000000000000000000000000000000000000000000000 DUP2 MSTORE PUSH1 0x4 ADD PUSH2 0x1CA2 SWAP1 PUSH2 0x5C1E JUMP JUMPDEST PUSH1 0x40 MLOAD DUP1 SWAP2 SUB SWAP1 REVERT JUMPDEST PUSH2 0x1CB4 DUP2 PUSH2 0x248D JUMP JUMPDEST POP JUMP JUMPDEST PUSH1 0x0 PUSH32 0x1FFC9A700000000000000000000000000000000000000000000000000000000 PUSH28 0xFFFFFFFFFFFFFFFFFFFFFFFFFFFFFFFFFFFFFFFFFFFFFFFFFFFFFFFF NOT AND DUP3 PUSH28 0xFFFFFFFFFFFFFFFFFFFFFFFFFFFFFFFFFFFFFFFFFFFFFFFFFFFFFFFF NOT AND EQ SWAP1 POP SWAP2 SWAP1 POP JUMP JUMPDEST PUSH2 0x1D2A DUP2 PUSH2 0x298D JUMP JUMPDEST PUSH2 0x1D69 JUMPI PUSH1 0x40 MLOAD PUSH32 0x8C379A000000000000000000000000000000000000000000000000000000000 DUP2 MSTORE PUSH1 0x4 ADD PUSH2 0x1D60 SWAP1 PUSH2 0x5738 JUMP JUMPDEST PUSH1 0x40 MLOAD DUP1 SWAP2 SUB SWAP1 REVERT JUMPDEST POP JUMP JUMPDEST PUSH1 0x0 CALLER SWAP1 POP SWAP1 JUMP JUMPDEST DUP2 PUSH1 0x5 PUSH1 0x0 DUP4 DUP2 MSTORE PUSH1 0x20 ADD SWAP1 DUP2 MSTORE PUSH1 0x20 ADD PUSH1 0x0 KECCAK256 PUSH1 0x0 PUSH2 0x100 EXP DUP2 SLOAD DUP2 PUSH20 0xFFFFFFFFFFFFFFFFFFFFFFFFFFFFFFFFFFFFFFFF MUL NOT AND SWAP1 DUP4 PUSH20 0xFFFFFFFFFFFFFFFFFFFFFFFFFFFFFFFFFFFFFFFF AND MUL OR SWAP1 SSTORE POP DUP1 DUP3 PUSH20 0xFFFFFFFFFFFFFFFFFFFFFFFFFFFFFFFFFFFFFFFF AND PUSH2 0x1DE7 DUP4 PUSH2 0x10A1 JUMP JUMPDEST PUSH20 0xFFFFFFFFFFFFFFFFFFFFFFFFFFFFFFFFFFFFFFFF AND PUSH32 0x8C5BE1E5EBEC7D5BD14F71427D1E84F3DD0314C0F7B2291E5B200AC8C7C3B925 PUSH1 0x40 MLOAD PUSH1 0x40 MLOAD DUP1 SWAP2 SUB SWAP1 LOG4 POP POP JUMP JUMPDEST PUSH1 0x0 DUP1 PUSH2 0x1E39 DUP4 PUSH2 0x10A1 JUMP JUMPDEST SWAP1 POP DUP1 PUSH20 0xFFFFFFFFFFFFFFFFFFFFFFFFFFFFFFFFFFFFFFFF AND DUP5 PUSH20 0xFFFFFFFFFFFFFFFFFFFFFFFFFFFFFFFFFFFFFFFF AND EQ DUP1 PUSH2 0x1E7B JUMPI POP PUSH2 0x1E7A DUP2 DUP6 PUSH2 0x18EA JUMP JUMPDEST JUMPDEST DUP1 PUSH2 0x1EB9 JUMPI POP DUP4 PUSH20 0xFFFFFFFFFFFFFFFFFFFFFFFFFFFFFFFFFFFFFFFF AND PUSH2 0x1EA1 DUP5 PUSH2 0x816 JUMP JUMPDEST PUSH20 0xFFFFFFFFFFFFFFFFFFFFFFFFFFFFFFFFFFFFFFFF AND EQ JUMPDEST SWAP2 POP POP SWAP3 SWAP2 POP POP JUMP JUMPDEST DUP3 PUSH20 0xFFFFFFFFFFFFFFFFFFFFFFFFFFFFFFFFFFFFFFFF AND PUSH2 0x1EE2 DUP3 PUSH2 0x10A1 JUMP JUMPDEST PUSH20 0xFFFFFFFFFFFFFFFFFFFFFFFFFFFFFFFFFFFFFFFF AND EQ PUSH2 0x1F38 JUMPI PUSH1 0x40 MLOAD PUSH32 0x8C379A000000000000000000000000000000000000000000000000000000000 DUP2 MSTORE PUSH1 0x4 ADD PUSH2 0x1F2F SWAP1 PUSH2 0x5CB0 JUMP JUMPDEST PUSH1 0x40 MLOAD DUP1 SWAP2 SUB SWAP1 REVERT JUMPDEST PUSH1 0x0 PUSH20 0xFFFFFFFFFFFFFFFFFFFFFFFFFFFFFFFFFFFFFFFF AND DUP3 PUSH20 0xFFFFFFFFFFFFFFFFFFFFFFFFFFFFFFFFFFFFFFFF AND SUB PUSH2 0x1FA7 JUMPI PUSH1 0x40 MLOAD PUSH32 0x8C379A000000000000000000000000000000000000000000000000000000000 DUP2 MSTORE PUSH1 0x4 ADD PUSH2 0x1F9E SWAP1 PUSH2 0x5D42 JUMP JUMPDEST PUSH1 0x40 MLOAD DUP1 SWAP2 SUB SWAP1 REVERT JUMPDEST PUSH2 0x1FB4 DUP4 DUP4 DUP4 PUSH1 0x1 PUSH2 0x2DD2 JUMP JUMPDEST DUP3 PUSH20 0xFFFFFFFFFFFFFFFFFFFFFFFFFFFFFFFFFFFFFFFF AND PUSH2 0x1FD4 DUP3 PUSH2 0x10A1 JUMP JUMPDEST PUSH20 0xFFFFFFFFFFFFFFFFFFFFFFFFFFFFFFFFFFFFFFFF AND EQ PUSH2 0x202A JUMPI PUSH1 0x40 MLOAD PUSH32 0x8C379A000000000000000000000000000000000000000000000000000000000 DUP2 MSTORE PUSH1 0x4 ADD PUSH2 0x2021 SWAP1 PUSH2 0x5CB0 JUMP JUMPDEST PUSH1 0x40 MLOAD DUP1 SWAP2 SUB SWAP1 REVERT JUMPDEST PUSH1 0x5 PUSH1 0x0 DUP3 DUP2 MSTORE PUSH1 0x20 ADD SWAP1 DUP2 MSTORE PUSH1 0x20 ADD PUSH1 0x0 KECCAK256 PUSH1 0x0 PUSH2 0x100 EXP DUP2 SLOAD SWAP1 PUSH20 0xFFFFFFFFFFFFFFFFFFFFFFFFFFFFFFFFFFFFFFFF MUL NOT AND SWAP1 SSTORE PUSH1 0x1 PUSH1 0x4 PUSH1 0x0 DUP6 PUSH20 0xFFFFFFFFFFFFFFFFFFFFFFFFFFFFFFFFFFFFFFFF AND PUSH20 0xFFFFFFFFFFFFFFFFFFFFFFFFFFFFFFFFFFFFFFFF AND DUP2 MSTORE PUSH1 0x20 ADD SWAP1 DUP2 MSTORE PUSH1 0x20 ADD PUSH1 0x0 KECCAK256 PUSH1 0x0 DUP3 DUP3 SLOAD SUB SWAP3 POP POP DUP2 SWAP1 SSTORE POP PUSH1 0x1 PUSH1 0x4 PUSH1 0x0 DUP5 PUSH20 0xFFFFFFFFFFFFFFFFFFFFFFFFFFFFFFFFFFFFFFFF AND PUSH20 0xFFFFFFFFFFFFFFFFFFFFFFFFFFFFFFFFFFFFFFFF AND DUP2 MSTORE PUSH1 0x20 ADD SWAP1 DUP2 MSTORE PUSH1 0x20 ADD PUSH1 0x0 KECCAK256 PUSH1 0x0 DUP3 DUP3 SLOAD ADD SWAP3 POP POP DUP2 SWAP1 SSTORE POP DUP2 PUSH1 0x3 PUSH1 0x0 DUP4 DUP2 MSTORE PUSH1 0x20 ADD SWAP1 DUP2 MSTORE PUSH1 0x20 ADD PUSH1 0x0 KECCAK256 PUSH1 0x0 PUSH2 0x100 EXP DUP2 SLOAD DUP2 PUSH20 0xFFFFFFFFFFFFFFFFFFFFFFFFFFFFFFFFFFFFFFFF MUL NOT AND SWAP1 DUP4 PUSH20 0xFFFFFFFFFFFFFFFFFFFFFFFFFFFFFFFFFFFFFFFF AND MUL OR SWAP1 SSTORE POP DUP1 DUP3 PUSH20 0xFFFFFFFFFFFFFFFFFFFFFFFFFFFFFFFFFFFFFFFF AND DUP5 PUSH20 0xFFFFFFFFFFFFFFFFFFFFFFFFFFFFFFFFFFFFFFFF AND PUSH32 0xDDF252AD1BE2C89B69C2B068FC378DAA952BA7F163C4A11628F55A4DF523B3EF PUSH1 0x40 MLOAD PUSH1 0x40 MLOAD DUP1 SWAP2 SUB SWAP1 LOG4 PUSH2 0x21B6 DUP4 DUP4 DUP4 PUSH1 0x1 PUSH2 0x2DD8 JUMP JUMPDEST POP POP POP JUMP JUMPDEST PUSH1 0x0 DUP1 PUSH1 0x0 SWAP1 POP PUSH1 0x0 DUP4 SWAP1 POP PUSH1 0x0 JUMPDEST DUP2 MLOAD DUP2 LT ISZERO PUSH2 0x230A JUMPI PUSH1 0x30 PUSH1 0xF8 SHL DUP3 DUP3 DUP2 MLOAD DUP2 LT PUSH2 0x21EB JUMPI PUSH2 0x21EA PUSH2 0x50CF JUMP JUMPDEST JUMPDEST PUSH1 0x20 ADD ADD MLOAD PUSH1 0xF8 SHR PUSH1 0xF8 SHL PUSH31 0xFFFFFFFFFFFFFFFFFFFFFFFFFFFFFFFFFFFFFFFFFFFFFFFFFFFFFFFFFFFFFF NOT AND LT ISZERO DUP1 ISZERO PUSH2 0x2269 JUMPI POP PUSH1 0x39 PUSH1 0xF8 SHL DUP3 DUP3 DUP2 MLOAD DUP2 LT PUSH2 0x2239 JUMPI PUSH2 0x2238 PUSH2 0x50CF JUMP JUMPDEST JUMPDEST PUSH1 0x20 ADD ADD MLOAD PUSH1 0xF8 SHR PUSH1 0xF8 SHL PUSH31 0xFFFFFFFFFFFFFFFFFFFFFFFFFFFFFFFFFFFFFFFFFFFFFFFFFFFFFFFFFFFFFF NOT AND GT ISZERO JUMPDEST ISZERO PUSH2 0x22BC JUMPI PUSH1 0x30 DUP3 DUP3 DUP2 MLOAD DUP2 LT PUSH2 0x2283 JUMPI PUSH2 0x2282 PUSH2 0x50CF JUMP JUMPDEST JUMPDEST PUSH1 0x20 ADD ADD MLOAD PUSH1 0xF8 SHR PUSH1 0xF8 SHL PUSH1 0xF8 SHR PUSH1 0xFF AND PUSH2 0x229E SWAP2 SWAP1 PUSH2 0x5D62 JUMP JUMPDEST PUSH1 0xA DUP5 PUSH2 0x22AB SWAP2 SWAP1 PUSH2 0x5D96 JUMP JUMPDEST PUSH2 0x22B5 SWAP2 SWAP1 PUSH2 0x5DD8 JUMP JUMPDEST SWAP3 POP PUSH2 0x22F7 JUMP JUMPDEST PUSH1 0x40 MLOAD PUSH32 0x8C379A000000000000000000000000000000000000000000000000000000000 DUP2 MSTORE PUSH1 0x4 ADD PUSH2 0x22EE SWAP1 PUSH2 0x5E7E JUMP JUMPDEST PUSH1 0x40 MLOAD DUP1 SWAP2 SUB SWAP1 REVERT JUMPDEST DUP1 DUP1 PUSH2 0x2302 SWAP1 PUSH2 0x5638 JUMP JUMPDEST SWAP2 POP POP PUSH2 0x21CA JUMP JUMPDEST POP DUP2 SWAP3 POP POP POP SWAP2 SWAP1 POP JUMP JUMPDEST PUSH1 0x0 PUSH1 0x8 PUSH1 0x0 DUP4 DUP2 MSTORE PUSH1 0x20 ADD SWAP1 DUP2 MSTORE PUSH1 0x20 ADD PUSH1 0x0 KECCAK256 PUSH1 0x0 PUSH2 0x100 EXP DUP2 SLOAD DUP2 PUSH1 0xFF MUL NOT AND SWAP1 DUP4 ISZERO ISZERO MUL OR SWAP1 SSTORE POP DUP1 PUSH2 0x234B DUP3 PUSH2 0x10A1 JUMP JUMPDEST PUSH20 0xFFFFFFFFFFFFFFFFFFFFFFFFFFFFFFFFFFFFFFFF AND PUSH32 0xF15274E1FE5043A963D7D1DFDB31B4C69407F0C6F0FC77DDF03F605961CFE284 PUSH1 0x40 MLOAD PUSH1 0x40 MLOAD DUP1 SWAP2 SUB SWAP1 LOG3 POP JUMP JUMPDEST PUSH2 0x2398 PUSH2 0x1D6C JUMP JUMPDEST PUSH20 0xFFFFFFFFFFFFFFFFFFFFFFFFFFFFFFFFFFFFFFFF AND PUSH2 0x23B6 PUSH2 0x1423 JUMP JUMPDEST PUSH20 0xFFFFFFFFFFFFFFFFFFFFFFFFFFFFFFFFFFFFFFFF AND EQ PUSH2 0x240C JUMPI PUSH1 0x40 MLOAD PUSH32 0x8C379A000000000000000000000000000000000000000000000000000000000 DUP2 MSTORE PUSH1 0x4 ADD PUSH2 0x2403 SWAP1 PUSH2 0x5EEA JUMP JUMPDEST PUSH1 0x40 MLOAD DUP1 SWAP2 SUB SWAP1 REVERT JUMPDEST JUMP JUMPDEST PUSH1 0x1 DUP2 PUSH1 0x0 ADD PUSH1 0x0 DUP3 DUP3 SLOAD ADD SWAP3 POP POP DUP2 SWAP1 SSTORE POP POP JUMP JUMPDEST PUSH1 0x0 DUP2 PUSH1 0x0 ADD SLOAD SWAP1 POP SWAP2 SWAP1 POP JUMP JUMPDEST PUSH2 0x244C DUP3 DUP3 PUSH1 0x40 MLOAD DUP1 PUSH1 0x20 ADD PUSH1 0x40 MSTORE DUP1 PUSH1 0x0 DUP2 MSTORE POP PUSH2 0x2DDE JUMP JUMPDEST POP POP JUMP JUMPDEST PUSH1 0x0 PUSH1 0x3 PUSH1 0x0 DUP4 DUP2 MSTORE PUSH1 0x20 ADD SWAP1 DUP2 MSTORE PUSH1 0x20 ADD PUSH1 0x0 KECCAK256 PUSH1 0x0 SWAP1 SLOAD SWAP1 PUSH2 0x100 EXP SWAP1 DIV PUSH20 0xFFFFFFFFFFFFFFFFFFFFFFFFFFFFFFFFFFFFFFFF AND SWAP1 POP SWAP2 SWAP1 POP JUMP JUMPDEST PUSH1 0x0 DUP1 PUSH1 0x0 SWAP1 SLOAD SWAP1 PUSH2 0x100 EXP SWAP1 DIV PUSH20 0xFFFFFFFFFFFFFFFFFFFFFFFFFFFFFFFFFFFFFFFF AND SWAP1 POP DUP2 PUSH1 0x0 DUP1 PUSH2 0x100 EXP DUP2 SLOAD DUP2 PUSH20 0xFFFFFFFFFFFFFFFFFFFFFFFFFFFFFFFFFFFFFFFF MUL NOT AND SWAP1 DUP4 PUSH20 0xFFFFFFFFFFFFFFFFFFFFFFFFFFFFFFFFFFFFFFFF AND MUL OR SWAP1 SSTORE POP DUP2 PUSH20 0xFFFFFFFFFFFFFFFFFFFFFFFFFFFFFFFFFFFFFFFF AND DUP2 PUSH20 0xFFFFFFFFFFFFFFFFFFFFFFFFFFFFFFFFFFFFFFFF AND PUSH32 0x8BE0079C531659141344CD1FD0A4F28419497F9722A3DAAFE3B4186F6B6457E0 PUSH1 0x40 MLOAD PUSH1 0x40 MLOAD DUP1 SWAP2 SUB SWAP1 LOG3 POP POP JUMP JUMPDEST PUSH1 0x1 PUSH1 0x8 PUSH1 0x0 DUP4 DUP2 MSTORE PUSH1 0x20 ADD SWAP1 DUP2 MSTORE PUSH1 0x20 ADD PUSH1 0x0 KECCAK256 PUSH1 0x0 PUSH2 0x100 EXP DUP2 SLOAD DUP2 PUSH1 0xFF MUL NOT AND SWAP1 DUP4 ISZERO ISZERO MUL OR SWAP1 SSTORE POP DUP1 PUSH2 0x2587 DUP3 PUSH2 0x10A1 JUMP JUMPDEST PUSH20 0xFFFFFFFFFFFFFFFFFFFFFFFFFFFFFFFFFFFFFFFF AND PUSH32 0xA9262575DB5F22D8B54192EFCE38602AC59D04BCDBCBA1962FC351473DE56146 PUSH1 0x40 MLOAD PUSH1 0x40 MLOAD DUP1 SWAP2 SUB SWAP1 LOG3 POP JUMP JUMPDEST PUSH1 0x1 ISZERO ISZERO PUSH1 0x8 PUSH1 0x0 DUP8 DUP2 MSTORE PUSH1 0x20 ADD SWAP1 DUP2 MSTORE PUSH1 0x20 ADD PUSH1 0x0 KECCAK256 PUSH1 0x0 SWAP1 SLOAD SWAP1 PUSH2 0x100 EXP SWAP1 DIV PUSH1 0xFF AND ISZERO ISZERO EQ PUSH2 0x2633 JUMPI PUSH1 0x40 MLOAD PUSH32 0x8C379A000000000000000000000000000000000000000000000000000000000 DUP2 MSTORE PUSH1 0x4 ADD PUSH2 0x262A SWAP1 PUSH2 0x5F56 JUMP JUMPDEST PUSH1 0x40 MLOAD DUP1 SWAP2 SUB SWAP1 REVERT JUMPDEST PUSH1 0x0 PUSH1 0x40 MLOAD DUP1 PUSH2 0x120 ADD PUSH1 0x40 MSTORE DUP1 PUSH2 0x264A DUP9 PUSH2 0x13BD JUMP JUMPDEST DUP2 MSTORE PUSH1 0x20 ADD PUSH1 0x40 MLOAD DUP1 PUSH1 0x80 ADD PUSH1 0x40 MSTORE DUP1 PUSH1 0x51 DUP2 MSTORE PUSH1 0x20 ADD PUSH2 0x65DE PUSH1 0x51 SWAP2 CODECOPY DUP2 MSTORE PUSH1 0x20 ADD PUSH1 0x40 MLOAD DUP1 PUSH1 0x20 ADD PUSH1 0x40 MSTORE DUP1 PUSH1 0x0 DUP2 MSTORE POP DUP2 MSTORE PUSH1 0x20 ADD PUSH1 0x1 PUSH8 0xFFFFFFFFFFFFFFFF DUP2 GT ISZERO PUSH2 0x269D JUMPI PUSH2 0x269C PUSH2 0x3D76 JUMP JUMPDEST JUMPDEST PUSH1 0x40 MLOAD SWAP1 DUP1 DUP3 MSTORE DUP1 PUSH1 0x20 MUL PUSH1 0x20 ADD DUP3 ADD PUSH1 0x40 MSTORE DUP1 ISZERO PUSH2 0x26D0 JUMPI DUP2 PUSH1 0x20 ADD JUMPDEST PUSH1 0x60 DUP2 MSTORE PUSH1 0x20 ADD SWAP1 PUSH1 0x1 SWAP1 SUB SWAP1 DUP2 PUSH2 0x26BB JUMPI SWAP1 POP JUMPDEST POP DUP2 MSTORE PUSH1 0x20 ADD PUSH1 0x1 PUSH8 0xFFFFFFFFFFFFFFFF DUP2 GT ISZERO PUSH2 0x26F1 JUMPI PUSH2 0x26F0 PUSH2 0x3D76 JUMP JUMPDEST JUMPDEST PUSH1 0x40 MLOAD SWAP1 DUP1 DUP3 MSTORE DUP1 PUSH1 0x20 MUL PUSH1 0x20 ADD DUP3 ADD PUSH1 0x40 MSTORE DUP1 ISZERO PUSH2 0x2724 JUMPI DUP2 PUSH1 0x20 ADD JUMPDEST PUSH1 0x60 DUP2 MSTORE PUSH1 0x20 ADD SWAP1 PUSH1 0x1 SWAP1 SUB SWAP1 DUP2 PUSH2 0x270F JUMPI SWAP1 POP JUMPDEST POP DUP2 MSTORE PUSH1 0x20 ADD PUSH1 0x1 PUSH8 0xFFFFFFFFFFFFFFFF DUP2 GT ISZERO PUSH2 0x2745 JUMPI PUSH2 0x2744 PUSH2 0x3D76 JUMP JUMPDEST JUMPDEST PUSH1 0x40 MLOAD SWAP1 DUP1 DUP3 MSTORE DUP1 PUSH1 0x20 MUL PUSH1 0x20 ADD DUP3 ADD PUSH1 0x40 MSTORE DUP1 ISZERO PUSH2 0x2778 JUMPI DUP2 PUSH1 0x20 ADD JUMPDEST PUSH1 0x60 DUP2 MSTORE PUSH1 0x20 ADD SWAP1 PUSH1 0x1 SWAP1 SUB SWAP1 DUP2 PUSH2 0x2763 JUMPI SWAP1 POP JUMPDEST POP DUP2 MSTORE PUSH1 0x20 ADD DUP7 PUSH20 0xFFFFFFFFFFFFFFFFFFFFFFFFFFFFFFFFFFFFFFFF AND DUP2 MSTORE PUSH1 0x20 ADD DUP6 PUSH20 0xFFFFFFFFFFFFFFFFFFFFFFFFFFFFFFFFFFFFFFFF AND DUP2 MSTORE PUSH1 0x20 ADD DUP5 DUP2 MSTORE POP SWAP1 POP PUSH2 0x27C5 DUP7 PUSH2 0x2E39 JUMP JUMPDEST DUP2 PUSH1 0x60 ADD MLOAD PUSH1 0x0 DUP2 MLOAD DUP2 LT PUSH2 0x27DD JUMPI PUSH2 0x27DC PUSH2 0x50CF JUMP JUMPDEST JUMPDEST PUSH1 0x20 MUL PUSH1 0x20 ADD ADD DUP2 SWAP1 MSTORE POP PUSH2 0x27F1 DUP7 PUSH2 0x168A JUMP JUMPDEST DUP2 PUSH1 0x80 ADD MLOAD PUSH1 0x0 DUP2 MLOAD DUP2 LT PUSH2 0x2809 JUMPI PUSH2 0x2808 PUSH2 0x50CF JUMP JUMPDEST JUMPDEST PUSH1 0x20 MUL PUSH1 0x20 ADD ADD DUP2 SWAP1 MSTORE POP PUSH1 0x40 MLOAD DUP1 PUSH1 0x40 ADD PUSH1 0x40 MSTORE DUP1 PUSH1 0x14 DUP2 MSTORE PUSH1 0x20 ADD PUSH32 0x6164646974696F6E616C20646174612068657265000000000000000000000000 DUP2 MSTORE POP DUP2 PUSH1 0xA0 ADD MLOAD PUSH1 0x0 DUP2 MLOAD DUP2 LT PUSH2 0x2862 JUMPI PUSH2 0x2861 PUSH2 0x50CF JUMP JUMPDEST JUMPDEST PUSH1 0x20 MUL PUSH1 0x20 ADD ADD DUP2 SWAP1 MSTORE POP PUSH1 0x0 DUP2 PUSH1 0x40 MLOAD PUSH1 0x20 ADD PUSH2 0x2880 SWAP2 SWAP1 PUSH2 0x6136 JUMP JUMPDEST PUSH1 0x40 MLOAD PUSH1 0x20 DUP2 DUP4 SUB SUB DUP2 MSTORE SWAP1 PUSH1 0x40 MSTORE SWAP1 POP PUSH1 0x0 PUSH4 0x3B9ACA00 PUSH2 0x8CA0 TIMESTAMP PUSH2 0x28A6 SWAP2 SWAP1 PUSH2 0x5DD8 JUMP JUMPDEST PUSH2 0x28B0 SWAP2 SWAP1 PUSH2 0x5D96 JUMP JUMPDEST SWAP1 POP PUSH1 0x0 PUSH1 0xC PUSH1 0x0 DUP2 SLOAD DUP2 LT PUSH2 0x28C9 JUMPI PUSH2 0x28C8 PUSH2 0x50CF JUMP JUMPDEST JUMPDEST SWAP1 PUSH1 0x0 MSTORE PUSH1 0x20 PUSH1 0x0 KECCAK256 ADD SLOAD SWAP1 POP PUSH1 0xE PUSH1 0x0 SWAP1 SLOAD SWAP1 PUSH2 0x100 EXP SWAP1 DIV PUSH20 0xFFFFFFFFFFFFFFFFFFFFFFFFFFFFFFFFFFFFFFFF AND PUSH20 0xFFFFFFFFFFFFFFFFFFFFFFFFFFFFFFFFFFFFFFFF AND PUSH4 0xCA034BFF PUSH2 0x292D DUP8 DUP1 CALLDATASIZE SUB DUP2 ADD SWAP1 PUSH2 0x2928 SWAP2 SWAP1 PUSH2 0x61BC JUMP JUMPDEST PUSH2 0x2F07 JUMP JUMPDEST DUP4 DUP7 DUP7 DUP11 PUSH1 0x40 MLOAD DUP7 PUSH4 0xFFFFFFFF AND PUSH1 0xE0 SHL DUP2 MSTORE PUSH1 0x4 ADD PUSH2 0x2950 SWAP5 SWAP4 SWAP3 SWAP2 SWAP1 PUSH2 0x6269 JUMP JUMPDEST PUSH1 0x0 PUSH1 0x40 MLOAD DUP1 DUP4 SUB DUP2 DUP6 DUP9 DUP1 EXTCODESIZE ISZERO DUP1 ISZERO PUSH2 0x2969 JUMPI PUSH1 0x0 DUP1 REVERT JUMPDEST POP GAS CALL ISZERO DUP1 ISZERO PUSH2 0x297D JUMPI RETURNDATASIZE PUSH1 0x0 DUP1 RETURNDATACOPY RETURNDATASIZE PUSH1 0x0 REVERT JUMPDEST POP POP POP POP POP POP POP POP POP POP POP POP POP POP JUMP JUMPDEST PUSH1 0x0 DUP1 PUSH20 0xFFFFFFFFFFFFFFFFFFFFFFFFFFFFFFFFFFFFFFFF AND PUSH2 0x29AF DUP4 PUSH2 0x2450 JUMP JUMPDEST PUSH20 0xFFFFFFFFFFFFFFFFFFFFFFFFFFFFFFFFFFFFFFFF AND EQ ISZERO SWAP1 POP SWAP2 SWAP1 POP JUMP JUMPDEST PUSH1 0x60 PUSH1 0x0 PUSH1 0x2 DUP4 PUSH1 0x2 PUSH2 0x29E1 SWAP2 SWAP1 PUSH2 0x5D96 JUMP JUMPDEST PUSH2 0x29EB SWAP2 SWAP1 PUSH2 0x5DD8 JUMP JUMPDEST PUSH8 0xFFFFFFFFFFFFFFFF DUP2 GT ISZERO PUSH2 0x2A04 JUMPI PUSH2 0x2A03 PUSH2 0x3D76 JUMP JUMPDEST JUMPDEST PUSH1 0x40 MLOAD SWAP1 DUP1 DUP3 MSTORE DUP1 PUSH1 0x1F ADD PUSH1 0x1F NOT AND PUSH1 0x20 ADD DUP3 ADD PUSH1 0x40 MSTORE DUP1 ISZERO PUSH2 0x2A36 JUMPI DUP2 PUSH1 0x20 ADD PUSH1 0x1 DUP3 MUL DUP1 CALLDATASIZE DUP4 CALLDATACOPY DUP1 DUP3 ADD SWAP2 POP POP SWAP1 POP JUMPDEST POP SWAP1 POP PUSH32 0x3000000000000000000000000000000000000000000000000000000000000000 DUP2 PUSH1 0x0 DUP2 MLOAD DUP2 LT PUSH2 0x2A6E JUMPI PUSH2 0x2A6D PUSH2 0x50CF JUMP JUMPDEST JUMPDEST PUSH1 0x20 ADD ADD SWAP1 PUSH31 0xFFFFFFFFFFFFFFFFFFFFFFFFFFFFFFFFFFFFFFFFFFFFFFFFFFFFFFFFFFFFFF NOT AND SWAP1 DUP2 PUSH1 0x0 BYTE SWAP1 MSTORE8 POP PUSH32 0x7800000000000000000000000000000000000000000000000000000000000000 DUP2 PUSH1 0x1 DUP2 MLOAD DUP2 LT PUSH2 0x2AD2 JUMPI PUSH2 0x2AD1 PUSH2 0x50CF JUMP JUMPDEST JUMPDEST PUSH1 0x20 ADD ADD SWAP1 PUSH31 0xFFFFFFFFFFFFFFFFFFFFFFFFFFFFFFFFFFFFFFFFFFFFFFFFFFFFFFFFFFFFFF NOT AND SWAP1 DUP2 PUSH1 0x0 BYTE SWAP1 MSTORE8 POP PUSH1 0x0 PUSH1 0x1 DUP5 PUSH1 0x2 PUSH2 0x2B12 SWAP2 SWAP1 PUSH2 0x5D96 JUMP JUMPDEST PUSH2 0x2B1C SWAP2 SWAP1 PUSH2 0x5DD8 JUMP JUMPDEST SWAP1 POP JUMPDEST PUSH1 0x1 DUP2 GT ISZERO PUSH2 0x2BBC JUMPI PUSH32 0x3031323334353637383961626364656600000000000000000000000000000000 PUSH1 0xF DUP7 AND PUSH1 0x10 DUP2 LT PUSH2 0x2B5E JUMPI PUSH2 0x2B5D PUSH2 0x50CF JUMP JUMPDEST JUMPDEST BYTE PUSH1 0xF8 SHL DUP3 DUP3 DUP2 MLOAD DUP2 LT PUSH2 0x2B75 JUMPI PUSH2 0x2B74 PUSH2 0x50CF JUMP JUMPDEST JUMPDEST PUSH1 0x20 ADD ADD SWAP1 PUSH31 0xFFFFFFFFFFFFFFFFFFFFFFFFFFFFFFFFFFFFFFFFFFFFFFFFFFFFFFFFFFFFFF NOT AND SWAP1 DUP2 PUSH1 0x0 BYTE SWAP1 MSTORE8 POP PUSH1 0x4 DUP6 SWAP1 SHR SWAP5 POP DUP1 PUSH2 0x2BB5 SWAP1 PUSH2 0x62B5 JUMP JUMPDEST SWAP1 POP PUSH2 0x2B1F JUMP JUMPDEST POP PUSH1 0x0 DUP5 EQ PUSH2 0x2C00 JUMPI PUSH1 0x40 MLOAD PUSH32 0x8C379A000000000000000000000000000000000000000000000000000000000 DUP2 MSTORE PUSH1 0x4 ADD PUSH2 0x2BF7 SWAP1 PUSH2 0x632A JUMP JUMPDEST PUSH1 0x40 MLOAD DUP1 SWAP2 SUB SWAP1 REVERT JUMPDEST DUP1 SWAP2 POP POP SWAP3 SWAP2 POP POP JUMP JUMPDEST DUP2 PUSH20 0xFFFFFFFFFFFFFFFFFFFFFFFFFFFFFFFFFFFFFFFF AND DUP4 PUSH20 0xFFFFFFFFFFFFFFFFFFFFFFFFFFFFFFFFFFFFFFFF AND SUB PUSH2 0x2C78 JUMPI PUSH1 0x40 MLOAD PUSH32 0x8C379A000000000000000000000000000000000000000000000000000000000 DUP2 MSTORE PUSH1 0x4 ADD PUSH2 0x2C6F SWAP1 PUSH2 0x6396 JUMP JUMPDEST PUSH1 0x40 MLOAD DUP1 SWAP2 SUB SWAP1 REVERT JUMPDEST DUP1 PUSH1 0x6 PUSH1 0x0 DUP6 PUSH20 0xFFFFFFFFFFFFFFFFFFFFFFFFFFFFFFFFFFFFFFFF AND PUSH20 0xFFFFFFFFFFFFFFFFFFFFFFFFFFFFFFFFFFFFFFFF AND DUP2 MSTORE PUSH1 0x20 ADD SWAP1 DUP2 MSTORE PUSH1 0x20 ADD PUSH1 0x0 KECCAK256 PUSH1 0x0 DUP5 PUSH20 0xFFFFFFFFFFFFFFFFFFFFFFFFFFFFFFFFFFFFFFFF AND PUSH20 0xFFFFFFFFFFFFFFFFFFFFFFFFFFFFFFFFFFFFFFFF AND DUP2 MSTORE PUSH1 0x20 ADD SWAP1 DUP2 MSTORE PUSH1 0x20 ADD PUSH1 0x0 KECCAK256 PUSH1 0x0 PUSH2 0x100 EXP DUP2 SLOAD DUP2 PUSH1 0xFF MUL NOT AND SWAP1 DUP4 ISZERO ISZERO MUL OR SWAP1 SSTORE POP DUP2 PUSH20 0xFFFFFFFFFFFFFFFFFFFFFFFFFFFFFFFFFFFFFFFF AND DUP4 PUSH20 0xFFFFFFFFFFFFFFFFFFFFFFFFFFFFFFFFFFFFFFFF AND PUSH32 0x17307EAB39AB6107E8899845AD3D59BD9653F200F220920489CA2B5937696C31 DUP4 PUSH1 0x40 MLOAD PUSH2 0x2D69 SWAP2 SWAP1 PUSH2 0x3529 JUMP JUMPDEST PUSH1 0x40 MLOAD DUP1 SWAP2 SUB SWAP1 LOG3 POP POP POP JUMP JUMPDEST PUSH2 0x2D81 DUP5 DUP5 DUP5 PUSH2 0x1EC2 JUMP JUMPDEST PUSH2 0x2D8D DUP5 DUP5 DUP5 DUP5 PUSH2 0x2F3F JUMP JUMPDEST PUSH2 0x2DCC JUMPI PUSH1 0x40 MLOAD PUSH32 0x8C379A000000000000000000000000000000000000000000000000000000000 DUP2 MSTORE PUSH1 0x4 ADD PUSH2 0x2DC3 SWAP1 PUSH2 0x6428 JUMP JUMPDEST PUSH1 0x40 MLOAD DUP1 SWAP2 SUB SWAP1 REVERT JUMPDEST POP POP POP POP JUMP JUMPDEST POP POP POP POP JUMP JUMPDEST POP POP POP POP JUMP JUMPDEST PUSH2 0x2DE8 DUP4 DUP4 PUSH2 0x30C6 JUMP JUMPDEST PUSH2 0x2DF5 PUSH1 0x0 DUP5 DUP5 DUP5 PUSH2 0x2F3F JUMP JUMPDEST PUSH2 0x2E34 JUMPI PUSH1 0x40 MLOAD PUSH32 0x8C379A000000000000000000000000000000000000000000000000000000000 DUP2 MSTORE PUSH1 0x4 ADD PUSH2 0x2E2B SWAP1 PUSH2 0x6428 JUMP JUMPDEST PUSH1 0x40 MLOAD DUP1 SWAP2 SUB SWAP1 REVERT JUMPDEST POP POP POP JUMP JUMPDEST PUSH1 0x60 PUSH1 0x0 PUSH1 0x1 PUSH2 0x2E48 DUP5 PUSH2 0x32E3 JUMP JUMPDEST ADD SWAP1 POP PUSH1 0x0 DUP2 PUSH8 0xFFFFFFFFFFFFFFFF DUP2 GT ISZERO PUSH2 0x2E67 JUMPI PUSH2 0x2E66 PUSH2 0x3D76 JUMP JUMPDEST JUMPDEST PUSH1 0x40 MLOAD SWAP1 DUP1 DUP3 MSTORE DUP1 PUSH1 0x1F ADD PUSH1 0x1F NOT AND PUSH1 0x20 ADD DUP3 ADD PUSH1 0x40 MSTORE DUP1 ISZERO PUSH2 0x2E99 JUMPI DUP2 PUSH1 0x20 ADD PUSH1 0x1 DUP3 MUL DUP1 CALLDATASIZE DUP4 CALLDATACOPY DUP1 DUP3 ADD SWAP2 POP POP SWAP1 POP JUMPDEST POP SWAP1 POP PUSH1 0x0 DUP3 PUSH1 0x20 ADD DUP3 ADD SWAP1 POP JUMPDEST PUSH1 0x1 ISZERO PUSH2 0x2EFC JUMPI DUP1 DUP1 PUSH1 0x1 SWAP1 SUB SWAP2 POP POP PUSH32 0x3031323334353637383961626364656600000000000000000000000000000000 PUSH1 0xA DUP7 MOD BYTE DUP2 MSTORE8 PUSH1 0xA DUP6 DUP2 PUSH2 0x2EF0 JUMPI PUSH2 0x2EEF PUSH2 0x6448 JUMP JUMPDEST JUMPDEST DIV SWAP5 POP PUSH1 0x0 DUP6 SUB PUSH2 0x2EA7 JUMPI JUMPDEST DUP2 SWAP4 POP POP POP POP SWAP2 SWAP1 POP JUMP JUMPDEST PUSH1 0x0 DUP1 DUP3 PUSH1 0x20 ADD MLOAD DUP4 PUSH1 0x0 ADD MLOAD PUSH2 0x2F1E SWAP2 SWAP1 PUSH2 0x5DD8 JUMP JUMPDEST SWAP1 POP DUP1 DUP4 PUSH1 0x40 ADD MLOAD GT PUSH2 0x2F31 JUMPI DUP1 PUSH2 0x2F37 JUMP JUMPDEST DUP3 PUSH1 0x40 ADD MLOAD JUMPDEST SWAP2 POP POP SWAP2 SWAP1 POP JUMP JUMPDEST PUSH1 0x0 PUSH2 0x2F60 DUP5 PUSH20 0xFFFFFFFFFFFFFFFFFFFFFFFFFFFFFFFFFFFFFFFF AND PUSH2 0x3436 JUMP JUMPDEST ISZERO PUSH2 0x30B9 JUMPI DUP4 PUSH20 0xFFFFFFFFFFFFFFFFFFFFFFFFFFFFFFFFFFFFFFFF AND PUSH4 0x150B7A02 PUSH2 0x2F89 PUSH2 0x1D6C JUMP JUMPDEST DUP8 DUP7 DUP7 PUSH1 0x40 MLOAD DUP6 PUSH4 0xFFFFFFFF AND PUSH1 0xE0 SHL DUP2 MSTORE PUSH1 0x4 ADD PUSH2 0x2FAB SWAP5 SWAP4 SWAP3 SWAP2 SWAP1 PUSH2 0x6477 JUMP JUMPDEST PUSH1 0x20 PUSH1 0x40 MLOAD DUP1 DUP4 SUB DUP2 PUSH1 0x0 DUP8 GAS CALL SWAP3 POP POP POP DUP1 ISZERO PUSH2 0x2FE7 JUMPI POP PUSH1 0x40 MLOAD RETURNDATASIZE PUSH1 0x1F NOT PUSH1 0x1F DUP3 ADD AND DUP3 ADD DUP1 PUSH1 0x40 MSTORE POP DUP2 ADD SWAP1 PUSH2 0x2FE4 SWAP2 SWAP1 PUSH2 0x64D8 JUMP JUMPDEST PUSH1 0x1 JUMPDEST PUSH2 0x3069 JUMPI RETURNDATASIZE DUP1 PUSH1 0x0 DUP2 EQ PUSH2 0x3017 JUMPI PUSH1 0x40 MLOAD SWAP2 POP PUSH1 0x1F NOT PUSH1 0x3F RETURNDATASIZE ADD AND DUP3 ADD PUSH1 0x40 MSTORE RETURNDATASIZE DUP3 MSTORE RETURNDATASIZE PUSH1 0x0 PUSH1 0x20 DUP5 ADD RETURNDATACOPY PUSH2 0x301C JUMP JUMPDEST PUSH1 0x60 SWAP2 POP JUMPDEST POP PUSH1 0x0 DUP2 MLOAD SUB PUSH2 0x3061 JUMPI PUSH1 0x40 MLOAD PUSH32 0x8C379A000000000000000000000000000000000000000000000000000000000 DUP2 MSTORE PUSH1 0x4 ADD PUSH2 0x3058 SWAP1 PUSH2 0x6428 JUMP JUMPDEST PUSH1 0x40 MLOAD DUP1 SWAP2 SUB SWAP1 REVERT JUMPDEST DUP1 MLOAD DUP2 PUSH1 0x20 ADD REVERT JUMPDEST PUSH4 0x150B7A02 PUSH1 0xE0 SHL PUSH28 0xFFFFFFFFFFFFFFFFFFFFFFFFFFFFFFFFFFFFFFFFFFFFFFFFFFFFFFFF NOT AND DUP2 PUSH28 0xFFFFFFFFFFFFFFFFFFFFFFFFFFFFFFFFFFFFFFFFFFFFFFFFFFFFFFFF NOT AND EQ SWAP2 POP POP PUSH2 0x30BE JUMP JUMPDEST PUSH1 0x1 SWAP1 POP JUMPDEST SWAP5 SWAP4 POP POP POP POP JUMP JUMPDEST PUSH1 0x0 PUSH20 0xFFFFFFFFFFFFFFFFFFFFFFFFFFFFFFFFFFFFFFFF AND DUP3 PUSH20 0xFFFFFFFFFFFFFFFFFFFFFFFFFFFFFFFFFFFFFFFF AND SUB PUSH2 0x3135 JUMPI PUSH1 0x40 MLOAD PUSH32 0x8C379A000000000000000000000000000000000000000000000000000000000 DUP2 MSTORE PUSH1 0x4 ADD PUSH2 0x312C SWAP1 PUSH2 0x6551 JUMP JUMPDEST PUSH1 0x40 MLOAD DUP1 SWAP2 SUB SWAP1 REVERT JUMPDEST PUSH2 0x313E DUP2 PUSH2 0x298D JUMP JUMPDEST ISZERO PUSH2 0x317E JUMPI PUSH1 0x40 MLOAD PUSH32 0x8C379A000000000000000000000000000000000000000000000000000000000 DUP2 MSTORE PUSH1 0x4 ADD PUSH2 0x3175 SWAP1 PUSH2 0x65BD JUMP JUMPDEST PUSH1 0x40 MLOAD DUP1 SWAP2 SUB SWAP1 REVERT JUMPDEST PUSH2 0x318C PUSH1 0x0 DUP4 DUP4 PUSH1 0x1 PUSH2 0x2DD2 JUMP JUMPDEST PUSH2 0x3195 DUP2 PUSH2 0x298D JUMP JUMPDEST ISZERO PUSH2 0x31D5 JUMPI PUSH1 0x40 MLOAD PUSH32 0x8C379A000000000000000000000000000000000000000000000000000000000 DUP2 MSTORE PUSH1 0x4 ADD PUSH2 0x31CC SWAP1 PUSH2 0x65BD JUMP JUMPDEST PUSH1 0x40 MLOAD DUP1 SWAP2 SUB SWAP1 REVERT JUMPDEST PUSH1 0x1 PUSH1 0x4 PUSH1 0x0 DUP5 PUSH20 0xFFFFFFFFFFFFFFFFFFFFFFFFFFFFFFFFFFFFFFFF AND PUSH20 0xFFFFFFFFFFFFFFFFFFFFFFFFFFFFFFFFFFFFFFFF AND DUP2 MSTORE PUSH1 0x20 ADD SWAP1 DUP2 MSTORE PUSH1 0x20 ADD PUSH1 0x0 KECCAK256 PUSH1 0x0 DUP3 DUP3 SLOAD ADD SWAP3 POP POP DUP2 SWAP1 SSTORE POP DUP2 PUSH1 0x3 PUSH1 0x0 DUP4 DUP2 MSTORE PUSH1 0x20 ADD SWAP1 DUP2 MSTORE PUSH1 0x20 ADD PUSH1 0x0 KECCAK256 PUSH1 0x0 PUSH2 0x100 EXP DUP2 SLOAD DUP2 PUSH20 0xFFFFFFFFFFFFFFFFFFFFFFFFFFFFFFFFFFFFFFFF MUL NOT AND SWAP1 DUP4 PUSH20 0xFFFFFFFFFFFFFFFFFFFFFFFFFFFFFFFFFFFFFFFF AND MUL OR SWAP1 SSTORE POP DUP1 DUP3 PUSH20 0xFFFFFFFFFFFFFFFFFFFFFFFFFFFFFFFFFFFFFFFF AND PUSH1 0x0 PUSH20 0xFFFFFFFFFFFFFFFFFFFFFFFFFFFFFFFFFFFFFFFF AND PUSH32 0xDDF252AD1BE2C89B69C2B068FC378DAA952BA7F163C4A11628F55A4DF523B3EF PUSH1 0x40 MLOAD PUSH1 0x40 MLOAD DUP1 SWAP2 SUB SWAP1 LOG4 PUSH2 0x32DF PUSH1 0x0 DUP4 DUP4 PUSH1 0x1 PUSH2 0x2DD8 JUMP JUMPDEST POP POP JUMP JUMPDEST PUSH1 0x0 DUP1 PUSH1 0x0 SWAP1 POP PUSH27 0x184F03E93FF9F4DAA797ED6E38ED64BF6A1F010000000000000000 DUP4 LT PUSH2 0x3341 JUMPI PUSH27 0x184F03E93FF9F4DAA797ED6E38ED64BF6A1F010000000000000000 DUP4 DUP2 PUSH2 0x3337 JUMPI PUSH2 0x3336 PUSH2 0x6448 JUMP JUMPDEST JUMPDEST DIV SWAP3 POP PUSH1 0x40 DUP2 ADD SWAP1 POP JUMPDEST PUSH14 0x4EE2D6D415B85ACEF8100000000 DUP4 LT PUSH2 0x337E JUMPI PUSH14 0x4EE2D6D415B85ACEF8100000000 DUP4 DUP2 PUSH2 0x3374 JUMPI PUSH2 0x3373 PUSH2 0x6448 JUMP JUMPDEST JUMPDEST DIV SWAP3 POP PUSH1 0x20 DUP2 ADD SWAP1 POP JUMPDEST PUSH7 0x2386F26FC10000 DUP4 LT PUSH2 0x33AD JUMPI PUSH7 0x2386F26FC10000 DUP4 DUP2 PUSH2 0x33A3 JUMPI PUSH2 0x33A2 PUSH2 0x6448 JUMP JUMPDEST JUMPDEST DIV SWAP3 POP PUSH1 0x10 DUP2 ADD SWAP1 POP JUMPDEST PUSH4 0x5F5E100 DUP4 LT PUSH2 0x33D6 JUMPI PUSH4 0x5F5E100 DUP4 DUP2 PUSH2 0x33CC JUMPI PUSH2 0x33CB PUSH2 0x6448 JUMP JUMPDEST JUMPDEST DIV SWAP3 POP PUSH1 0x8 DUP2 ADD SWAP1 POP JUMPDEST PUSH2 0x2710 DUP4 LT PUSH2 0x33FB JUMPI PUSH2 0x2710 DUP4 DUP2 PUSH2 0x33F1 JUMPI PUSH2 0x33F0 PUSH2 0x6448 JUMP JUMPDEST JUMPDEST DIV SWAP3 POP PUSH1 0x4 DUP2 ADD SWAP1 POP JUMPDEST PUSH1 0x64 DUP4 LT PUSH2 0x341E JUMPI PUSH1 0x64 DUP4 DUP2 PUSH2 0x3414 JUMPI PUSH2 0x3413 PUSH2 0x6448 JUMP JUMPDEST JUMPDEST DIV SWAP3 POP PUSH1 0x2 DUP2 ADD SWAP1 POP JUMPDEST PUSH1 0xA DUP4 LT PUSH2 0x342D JUMPI PUSH1 0x1 DUP2 ADD SWAP1 POP JUMPDEST DUP1 SWAP2 POP POP SWAP2 SWAP1 POP JUMP JUMPDEST PUSH1 0x0 DUP1 DUP3 PUSH20 0xFFFFFFFFFFFFFFFFFFFFFFFFFFFFFFFFFFFFFFFF AND EXTCODESIZE GT SWAP1 POP SWAP2 SWAP1 POP JUMP JUMPDEST PUSH1 0x40 MLOAD DUP1 PUSH1 0x40 ADD PUSH1 0x40 MSTORE DUP1 PUSH1 0x0 ISZERO ISZERO DUP2 MSTORE PUSH1 0x20 ADD PUSH1 0x60 DUP2 MSTORE POP SWAP1 JUMP JUMPDEST PUSH1 0x0 PUSH1 0x40 MLOAD SWAP1 POP SWAP1 JUMP JUMPDEST PUSH1 0x0 DUP1 REVERT JUMPDEST PUSH1 0x0 DUP1 REVERT JUMPDEST PUSH1 0x0 PUSH32 0xFFFFFFFF00000000000000000000000000000000000000000000000000000000 DUP3 AND SWAP1 POP SWAP2 SWAP1 POP JUMP JUMPDEST PUSH2 0x34BE DUP2 PUSH2 0x3489 JUMP JUMPDEST DUP2 EQ PUSH2 0x34C9 JUMPI PUSH1 0x0 DUP1 REVERT JUMPDEST POP JUMP JUMPDEST PUSH1 0x0 DUP2 CALLDATALOAD SWAP1 POP PUSH2 0x34DB DUP2 PUSH2 0x34B5 JUMP JUMPDEST SWAP3 SWAP2 POP POP JUMP JUMPDEST PUSH1 0x0 PUSH1 0x20 DUP3 DUP5 SUB SLT ISZERO PUSH2 0x34F7 JUMPI PUSH2 0x34F6 PUSH2 0x347F JUMP JUMPDEST JUMPDEST PUSH1 0x0 PUSH2 0x3505 DUP5 DUP3 DUP6 ADD PUSH2 0x34CC JUMP JUMPDEST SWAP2 POP POP SWAP3 SWAP2 POP POP JUMP JUMPDEST PUSH1 0x0 DUP2 ISZERO ISZERO SWAP1 POP SWAP2 SWAP1 POP JUMP JUMPDEST PUSH2 0x3523 DUP2 PUSH2 0x350E JUMP JUMPDEST DUP3 MSTORE POP POP JUMP JUMPDEST PUSH1 0x0 PUSH1 0x20 DUP3 ADD SWAP1 POP PUSH2 0x353E PUSH1 0x0 DUP4 ADD DUP5 PUSH2 0x351A JUMP JUMPDEST SWAP3 SWAP2 POP POP JUMP JUMPDEST PUSH1 0x0 DUP2 MLOAD SWAP1 POP SWAP2 SWAP1 POP JUMP JUMPDEST PUSH1 0x0 DUP3 DUP3 MSTORE PUSH1 0x20 DUP3 ADD SWAP1 POP SWAP3 SWAP2 POP POP JUMP JUMPDEST PUSH1 0x0 JUMPDEST DUP4 DUP2 LT ISZERO PUSH2 0x357E JUMPI DUP1 DUP3 ADD MLOAD DUP2 DUP5 ADD MSTORE PUSH1 0x20 DUP2 ADD SWAP1 POP PUSH2 0x3563 JUMP JUMPDEST PUSH1 0x0 DUP5 DUP5 ADD MSTORE POP POP POP POP JUMP JUMPDEST PUSH1 0x0 PUSH1 0x1F NOT PUSH1 0x1F DUP4 ADD AND SWAP1 POP SWAP2 SWAP1 POP JUMP JUMPDEST PUSH1 0x0 PUSH2 0x35A6 DUP3 PUSH2 0x3544 JUMP JUMPDEST PUSH2 0x35B0 DUP2 DUP6 PUSH2 0x354F JUMP JUMPDEST SWAP4 POP PUSH2 0x35C0 DUP2 DUP6 PUSH1 0x20 DUP7 ADD PUSH2 0x3560 JUMP JUMPDEST PUSH2 0x35C9 DUP2 PUSH2 0x358A JUMP JUMPDEST DUP5 ADD SWAP2 POP POP SWAP3 SWAP2 POP POP JUMP JUMPDEST PUSH1 0x0 PUSH1 0x20 DUP3 ADD SWAP1 POP DUP2 DUP2 SUB PUSH1 0x0 DUP4 ADD MSTORE PUSH2 0x35EE DUP2 DUP5 PUSH2 0x359B JUMP JUMPDEST SWAP1 POP SWAP3 SWAP2 POP POP JUMP JUMPDEST PUSH1 0x0 DUP2 SWAP1 POP SWAP2 SWAP1 POP JUMP JUMPDEST PUSH2 0x3609 DUP2 PUSH2 0x35F6 JUMP JUMPDEST DUP2 EQ PUSH2 0x3614 JUMPI PUSH1 0x0 DUP1 REVERT JUMPDEST POP JUMP JUMPDEST PUSH1 0x0 DUP2 CALLDATALOAD SWAP1 POP PUSH2 0x3626 DUP2 PUSH2 0x3600 JUMP JUMPDEST SWAP3 SWAP2 POP POP JUMP JUMPDEST PUSH1 0x0 PUSH1 0x20 DUP3 DUP5 SUB SLT ISZERO PUSH2 0x3642 JUMPI PUSH2 0x3641 PUSH2 0x347F JUMP JUMPDEST JUMPDEST PUSH1 0x0 PUSH2 0x3650 DUP5 DUP3 DUP6 ADD PUSH2 0x3617 JUMP JUMPDEST SWAP2 POP POP SWAP3 SWAP2 POP POP JUMP JUMPDEST PUSH1 0x0 PUSH20 0xFFFFFFFFFFFFFFFFFFFFFFFFFFFFFFFFFFFFFFFF DUP3 AND SWAP1 POP SWAP2 SWAP1 POP JUMP JUMPDEST PUSH1 0x0 PUSH2 0x3684 DUP3 PUSH2 0x3659 JUMP JUMPDEST SWAP1 POP SWAP2 SWAP1 POP JUMP JUMPDEST PUSH2 0x3694 DUP2 PUSH2 0x3679 JUMP JUMPDEST DUP3 MSTORE POP POP JUMP JUMPDEST PUSH1 0x0 PUSH1 0x20 DUP3 ADD SWAP1 POP PUSH2 0x36AF PUSH1 0x0 DUP4 ADD DUP5 PUSH2 0x368B JUMP JUMPDEST SWAP3 SWAP2 POP POP JUMP JUMPDEST PUSH2 0x36BE DUP2 PUSH2 0x3679 JUMP JUMPDEST DUP2 EQ PUSH2 0x36C9 JUMPI PUSH1 0x0 DUP1 REVERT JUMPDEST POP JUMP JUMPDEST PUSH1 0x0 DUP2 CALLDATALOAD SWAP1 POP PUSH2 0x36DB DUP2 PUSH2 0x36B5 JUMP JUMPDEST SWAP3 SWAP2 POP POP JUMP JUMPDEST PUSH1 0x0 DUP1 PUSH1 0x40 DUP4 DUP6 SUB SLT ISZERO PUSH2 0x36F8 JUMPI PUSH2 0x36F7 PUSH2 0x347F JUMP JUMPDEST JUMPDEST PUSH1 0x0 PUSH2 0x3706 DUP6 DUP3 DUP7 ADD PUSH2 0x36CC JUMP JUMPDEST SWAP3 POP POP PUSH1 0x20 PUSH2 0x3717 DUP6 DUP3 DUP7 ADD PUSH2 0x3617 JUMP JUMPDEST SWAP2 POP POP SWAP3 POP SWAP3 SWAP1 POP JUMP JUMPDEST PUSH1 0x0 DUP1 PUSH1 0x0 PUSH1 0x60 DUP5 DUP7 SUB SLT ISZERO PUSH2 0x373A JUMPI PUSH2 0x3739 PUSH2 0x347F JUMP JUMPDEST JUMPDEST PUSH1 0x0 PUSH2 0x3748 DUP7 DUP3 DUP8 ADD PUSH2 0x36CC JUMP JUMPDEST SWAP4 POP POP PUSH1 0x20 PUSH2 0x3759 DUP7 DUP3 DUP8 ADD PUSH2 0x36CC JUMP JUMPDEST SWAP3 POP POP PUSH1 0x40 PUSH2 0x376A DUP7 DUP3 DUP8 ADD PUSH2 0x3617 JUMP JUMPDEST SWAP2 POP POP SWAP3 POP SWAP3 POP SWAP3 JUMP JUMPDEST PUSH1 0x0 DUP2 MLOAD SWAP1 POP SWAP2 SWAP1 POP JUMP JUMPDEST PUSH1 0x0 DUP3 DUP3 MSTORE PUSH1 0x20 DUP3 ADD SWAP1 POP SWAP3 SWAP2 POP POP JUMP JUMPDEST PUSH1 0x0 PUSH2 0x379B DUP3 PUSH2 0x3774 JUMP JUMPDEST PUSH2 0x37A5 DUP2 DUP6 PUSH2 0x377F JUMP JUMPDEST SWAP4 POP PUSH2 0x37B5 DUP2 DUP6 PUSH1 0x20 DUP7 ADD PUSH2 0x3560 JUMP JUMPDEST PUSH2 0x37BE DUP2 PUSH2 0x358A JUMP JUMPDEST DUP5 ADD SWAP2 POP POP SWAP3 SWAP2 POP POP JUMP JUMPDEST PUSH1 0x0 PUSH1 0x40 DUP3 ADD SWAP1 POP PUSH2 0x37DE PUSH1 0x0 DUP4 ADD DUP6 PUSH2 0x351A JUMP JUMPDEST DUP2 DUP2 SUB PUSH1 0x20 DUP4 ADD MSTORE PUSH2 0x37F0 DUP2 DUP5 PUSH2 0x3790 JUMP JUMPDEST SWAP1 POP SWAP4 SWAP3 POP POP POP JUMP JUMPDEST PUSH1 0x0 DUP1 REVERT JUMPDEST PUSH1 0x0 PUSH1 0xE0 DUP3 DUP5 SUB SLT ISZERO PUSH2 0x3814 JUMPI PUSH2 0x3813 PUSH2 0x37F9 JUMP JUMPDEST JUMPDEST DUP2 SWAP1 POP SWAP3 SWAP2 POP POP JUMP JUMPDEST PUSH1 0x0 PUSH1 0x20 DUP3 DUP5 SUB SLT ISZERO PUSH2 0x3833 JUMPI PUSH2 0x3832 PUSH2 0x347F JUMP JUMPDEST JUMPDEST PUSH1 0x0 DUP3 ADD CALLDATALOAD PUSH8 0xFFFFFFFFFFFFFFFF DUP2 GT ISZERO PUSH2 0x3851 JUMPI PUSH2 0x3850 PUSH2 0x3484 JUMP JUMPDEST JUMPDEST PUSH2 0x385D DUP5 DUP3 DUP6 ADD PUSH2 0x37FE JUMP JUMPDEST SWAP2 POP POP SWAP3 SWAP2 POP POP JUMP JUMPDEST PUSH2 0x386F DUP2 PUSH2 0x350E JUMP JUMPDEST DUP3 MSTORE POP POP JUMP JUMPDEST PUSH1 0x0 DUP3 DUP3 MSTORE PUSH1 0x20 DUP3 ADD SWAP1 POP SWAP3 SWAP2 POP POP JUMP JUMPDEST PUSH1 0x0 PUSH2 0x3891 DUP3 PUSH2 0x3774 JUMP JUMPDEST PUSH2 0x389B DUP2 DUP6 PUSH2 0x3875 JUMP JUMPDEST SWAP4 POP PUSH2 0x38AB DUP2 DUP6 PUSH1 0x20 DUP7 ADD PUSH2 0x3560 JUMP JUMPDEST PUSH2 0x38B4 DUP2 PUSH2 0x358A JUMP JUMPDEST DUP5 ADD SWAP2 POP POP SWAP3 SWAP2 POP POP JUMP JUMPDEST PUSH1 0x0 PUSH1 0x40 DUP4 ADD PUSH1 0x0 DUP4 ADD MLOAD PUSH2 0x38D7 PUSH1 0x0 DUP7 ADD DUP3 PUSH2 0x3866 JUMP JUMPDEST POP PUSH1 0x20 DUP4 ADD MLOAD DUP5 DUP3 SUB PUSH1 0x20 DUP7 ADD MSTORE PUSH2 0x38EF DUP3 DUP3 PUSH2 0x3886 JUMP JUMPDEST SWAP2 POP POP DUP1 SWAP2 POP POP SWAP3 SWAP2 POP POP JUMP JUMPDEST PUSH1 0x0 PUSH1 0x20 DUP3 ADD SWAP1 POP DUP2 DUP2 SUB PUSH1 0x0 DUP4 ADD MSTORE PUSH2 0x3916 DUP2 DUP5 PUSH2 0x38BF JUMP JUMPDEST SWAP1 POP SWAP3 SWAP2 POP POP JUMP JUMPDEST PUSH1 0x0 DUP3 DUP3 MSTORE PUSH1 0x20 DUP3 ADD SWAP1 POP SWAP3 SWAP2 POP POP JUMP JUMPDEST PUSH1 0x0 PUSH2 0x393A DUP3 PUSH2 0x3544 JUMP JUMPDEST PUSH2 0x3944 DUP2 DUP6 PUSH2 0x391E JUMP JUMPDEST SWAP4 POP PUSH2 0x3954 DUP2 DUP6 PUSH1 0x20 DUP7 ADD PUSH2 0x3560 JUMP JUMPDEST PUSH2 0x395D DUP2 PUSH2 0x358A JUMP JUMPDEST DUP5 ADD SWAP2 POP POP SWAP3 SWAP2 POP POP JUMP JUMPDEST PUSH1 0x0 DUP2 SWAP1 POP SWAP2 SWAP1 POP JUMP JUMPDEST PUSH2 0x397B DUP2 PUSH2 0x3968 JUMP JUMPDEST DUP3 MSTORE POP POP JUMP JUMPDEST PUSH1 0x0 PUSH1 0x40 DUP4 ADD PUSH1 0x0 DUP4 ADD MLOAD DUP5 DUP3 SUB PUSH1 0x0 DUP7 ADD MSTORE PUSH2 0x399E DUP3 DUP3 PUSH2 0x392F JUMP JUMPDEST SWAP2 POP POP PUSH1 0x20 DUP4 ADD MLOAD PUSH2 0x39B3 PUSH1 0x20 DUP7 ADD DUP3 PUSH2 0x3972 JUMP JUMPDEST POP DUP1 SWAP2 POP POP SWAP3 SWAP2 POP POP JUMP JUMPDEST PUSH1 0x0 PUSH8 0xFFFFFFFFFFFFFFFF DUP3 AND SWAP1 POP SWAP2 SWAP1 POP JUMP JUMPDEST PUSH2 0x39DB DUP2 PUSH2 0x39BE JUMP JUMPDEST DUP3 MSTORE POP POP JUMP JUMPDEST PUSH2 0x39EA DUP2 PUSH2 0x39BE JUMP JUMPDEST DUP3 MSTORE POP POP JUMP JUMPDEST PUSH1 0x40 DUP3 ADD PUSH1 0x0 DUP3 ADD MLOAD PUSH2 0x3A06 PUSH1 0x0 DUP6 ADD DUP3 PUSH2 0x39E1 JUMP JUMPDEST POP PUSH1 0x20 DUP3 ADD MLOAD PUSH2 0x3A19 PUSH1 0x20 DUP6 ADD DUP3 PUSH2 0x39E1 JUMP JUMPDEST POP POP POP POP JUMP JUMPDEST PUSH1 0x0 PUSH1 0xE0 DUP3 ADD SWAP1 POP DUP2 DUP2 SUB PUSH1 0x0 DUP4 ADD MSTORE PUSH2 0x3A39 DUP2 DUP10 PUSH2 0x3981 JUMP JUMPDEST SWAP1 POP DUP2 DUP2 SUB PUSH1 0x20 DUP4 ADD MSTORE PUSH2 0x3A4D DUP2 DUP9 PUSH2 0x3981 JUMP JUMPDEST SWAP1 POP PUSH2 0x3A5C PUSH1 0x40 DUP4 ADD DUP8 PUSH2 0x39D2 JUMP JUMPDEST DUP2 DUP2 SUB PUSH1 0x60 DUP4 ADD MSTORE PUSH2 0x3A6E DUP2 DUP7 PUSH2 0x3790 JUMP JUMPDEST SWAP1 POP PUSH2 0x3A7D PUSH1 0x80 DUP4 ADD DUP6 PUSH2 0x39F0 JUMP JUMPDEST PUSH2 0x3A8A PUSH1 0xC0 DUP4 ADD DUP5 PUSH2 0x39D2 JUMP JUMPDEST SWAP8 SWAP7 POP POP POP POP POP POP POP JUMP JUMPDEST PUSH1 0x0 PUSH1 0x20 DUP3 DUP5 SUB SLT ISZERO PUSH2 0x3AAB JUMPI PUSH2 0x3AAA PUSH2 0x347F JUMP JUMPDEST JUMPDEST PUSH1 0x0 PUSH2 0x3AB9 DUP5 DUP3 DUP6 ADD PUSH2 0x36CC JUMP JUMPDEST SWAP2 POP POP SWAP3 SWAP2 POP POP JUMP JUMPDEST PUSH2 0x3ACB DUP2 PUSH2 0x35F6 JUMP JUMPDEST DUP3 MSTORE POP POP JUMP JUMPDEST PUSH1 0x0 PUSH1 0x20 DUP3 ADD SWAP1 POP PUSH2 0x3AE6 PUSH1 0x0 DUP4 ADD DUP5 PUSH2 0x3AC2 JUMP JUMPDEST SWAP3 SWAP2 POP POP JUMP JUMPDEST PUSH2 0x3AF5 DUP2 PUSH2 0x350E JUMP JUMPDEST DUP2 EQ PUSH2 0x3B00 JUMPI PUSH1 0x0 DUP1 REVERT JUMPDEST POP JUMP JUMPDEST PUSH1 0x0 DUP2 CALLDATALOAD SWAP1 POP PUSH2 0x3B12 DUP2 PUSH2 0x3AEC JUMP JUMPDEST SWAP3 SWAP2 POP POP JUMP JUMPDEST PUSH1 0x0 DUP1 REVERT JUMPDEST PUSH1 0x0 DUP1 REVERT JUMPDEST PUSH1 0x0 DUP1 REVERT JUMPDEST PUSH1 0x0 DUP1 DUP4 PUSH1 0x1F DUP5 ADD SLT PUSH2 0x3B3D JUMPI PUSH2 0x3B3C PUSH2 0x3B18 JUMP JUMPDEST JUMPDEST DUP3 CALLDATALOAD SWAP1 POP PUSH8 0xFFFFFFFFFFFFFFFF DUP2 GT ISZERO PUSH2 0x3B5A JUMPI PUSH2 0x3B59 PUSH2 0x3B1D JUMP JUMPDEST JUMPDEST PUSH1 0x20 DUP4 ADD SWAP2 POP DUP4 PUSH1 0x20 DUP3 MUL DUP4 ADD GT ISZERO PUSH2 0x3B76 JUMPI PUSH2 0x3B75 PUSH2 0x3B22 JUMP JUMPDEST JUMPDEST SWAP3 POP SWAP3 SWAP1 POP JUMP JUMPDEST PUSH1 0x0 PUSH1 0x60 DUP3 DUP5 SUB SLT ISZERO PUSH2 0x3B93 JUMPI PUSH2 0x3B92 PUSH2 0x37F9 JUMP JUMPDEST JUMPDEST DUP2 SWAP1 POP SWAP3 SWAP2 POP POP JUMP JUMPDEST PUSH1 0x0 PUSH1 0x60 DUP3 DUP5 SUB SLT ISZERO PUSH2 0x3BB2 JUMPI PUSH2 0x3BB1 PUSH2 0x37F9 JUMP JUMPDEST JUMPDEST DUP2 SWAP1 POP SWAP3 SWAP2 POP POP JUMP JUMPDEST PUSH1 0x0 DUP1 PUSH1 0x0 DUP1 PUSH1 0x0 PUSH1 0x80 DUP7 DUP9 SUB SLT ISZERO PUSH2 0x3BD7 JUMPI PUSH2 0x3BD6 PUSH2 0x347F JUMP JUMPDEST JUMPDEST PUSH1 0x0 PUSH2 0x3BE5 DUP9 DUP3 DUP10 ADD PUSH2 0x3B03 JUMP JUMPDEST SWAP6 POP POP PUSH1 0x20 DUP7 ADD CALLDATALOAD PUSH8 0xFFFFFFFFFFFFFFFF DUP2 GT ISZERO PUSH2 0x3C06 JUMPI PUSH2 0x3C05 PUSH2 0x3484 JUMP JUMPDEST JUMPDEST PUSH2 0x3C12 DUP9 DUP3 DUP10 ADD PUSH2 0x3B27 JUMP JUMPDEST SWAP5 POP SWAP5 POP POP PUSH1 0x40 DUP7 ADD CALLDATALOAD PUSH8 0xFFFFFFFFFFFFFFFF DUP2 GT ISZERO PUSH2 0x3C35 JUMPI PUSH2 0x3C34 PUSH2 0x3484 JUMP JUMPDEST JUMPDEST PUSH2 0x3C41 DUP9 DUP3 DUP10 ADD PUSH2 0x3B7D JUMP JUMPDEST SWAP3 POP POP PUSH1 0x60 DUP7 ADD CALLDATALOAD PUSH8 0xFFFFFFFFFFFFFFFF DUP2 GT ISZERO PUSH2 0x3C62 JUMPI PUSH2 0x3C61 PUSH2 0x3484 JUMP JUMPDEST JUMPDEST PUSH2 0x3C6E DUP9 DUP3 DUP10 ADD PUSH2 0x3B9C JUMP JUMPDEST SWAP2 POP POP SWAP3 SWAP6 POP SWAP3 SWAP6 SWAP1 SWAP4 POP JUMP JUMPDEST PUSH2 0x3C84 DUP2 PUSH2 0x3968 JUMP JUMPDEST DUP2 EQ PUSH2 0x3C8F JUMPI PUSH1 0x0 DUP1 REVERT JUMPDEST POP JUMP JUMPDEST PUSH1 0x0 DUP2 CALLDATALOAD SWAP1 POP PUSH2 0x3CA1 DUP2 PUSH2 0x3C7B JUMP JUMPDEST SWAP3 SWAP2 POP POP JUMP JUMPDEST PUSH1 0x0 DUP1 DUP4 PUSH1 0x1F DUP5 ADD SLT PUSH2 0x3CBD JUMPI PUSH2 0x3CBC PUSH2 0x3B18 JUMP JUMPDEST JUMPDEST DUP3 CALLDATALOAD SWAP1 POP PUSH8 0xFFFFFFFFFFFFFFFF DUP2 GT ISZERO PUSH2 0x3CDA JUMPI PUSH2 0x3CD9 PUSH2 0x3B1D JUMP JUMPDEST JUMPDEST PUSH1 0x20 DUP4 ADD SWAP2 POP DUP4 PUSH1 0x1 DUP3 MUL DUP4 ADD GT ISZERO PUSH2 0x3CF6 JUMPI PUSH2 0x3CF5 PUSH2 0x3B22 JUMP JUMPDEST JUMPDEST SWAP3 POP SWAP3 SWAP1 POP JUMP JUMPDEST PUSH1 0x0 DUP1 PUSH1 0x0 DUP1 PUSH1 0x60 DUP6 DUP8 SUB SLT ISZERO PUSH2 0x3D17 JUMPI PUSH2 0x3D16 PUSH2 0x347F JUMP JUMPDEST JUMPDEST PUSH1 0x0 PUSH2 0x3D25 DUP8 DUP3 DUP9 ADD PUSH2 0x3C92 JUMP JUMPDEST SWAP5 POP POP PUSH1 0x20 DUP6 ADD CALLDATALOAD PUSH8 0xFFFFFFFFFFFFFFFF DUP2 GT ISZERO PUSH2 0x3D46 JUMPI PUSH2 0x3D45 PUSH2 0x3484 JUMP JUMPDEST JUMPDEST PUSH2 0x3D52 DUP8 DUP3 DUP9 ADD PUSH2 0x3CA7 JUMP JUMPDEST SWAP4 POP SWAP4 POP POP PUSH1 0x40 PUSH2 0x3D65 DUP8 DUP3 DUP9 ADD PUSH2 0x3C92 JUMP JUMPDEST SWAP2 POP POP SWAP3 SWAP6 SWAP2 SWAP5 POP SWAP3 POP JUMP JUMPDEST PUSH1 0x0 DUP1 REVERT JUMPDEST PUSH32 0x4E487B7100000000000000000000000000000000000000000000000000000000 PUSH1 0x0 MSTORE PUSH1 0x41 PUSH1 0x4 MSTORE PUSH1 0x24 PUSH1 0x0 REVERT JUMPDEST PUSH2 0x3DAE DUP3 PUSH2 0x358A JUMP JUMPDEST DUP2 ADD DUP2 DUP2 LT PUSH8 0xFFFFFFFFFFFFFFFF DUP3 GT OR ISZERO PUSH2 0x3DCD JUMPI PUSH2 0x3DCC PUSH2 0x3D76 JUMP JUMPDEST JUMPDEST DUP1 PUSH1 0x40 MSTORE POP POP POP JUMP JUMPDEST PUSH1 0x0 PUSH2 0x3DE0 PUSH2 0x3475 JUMP JUMPDEST SWAP1 POP PUSH2 0x3DEC DUP3 DUP3 PUSH2 0x3DA5 JUMP JUMPDEST SWAP2 SWAP1 POP JUMP JUMPDEST PUSH1 0x0 PUSH8 0xFFFFFFFFFFFFFFFF DUP3 GT ISZERO PUSH2 0x3E0C JUMPI PUSH2 0x3E0B PUSH2 0x3D76 JUMP JUMPDEST JUMPDEST PUSH2 0x3E15 DUP3 PUSH2 0x358A JUMP JUMPDEST SWAP1 POP PUSH1 0x20 DUP2 ADD SWAP1 POP SWAP2 SWAP1 POP JUMP JUMPDEST DUP3 DUP2 DUP4 CALLDATACOPY PUSH1 0x0 DUP4 DUP4 ADD MSTORE POP POP POP JUMP JUMPDEST PUSH1 0x0 PUSH2 0x3E44 PUSH2 0x3E3F DUP5 PUSH2 0x3DF1 JUMP JUMPDEST PUSH2 0x3DD6 JUMP JUMPDEST SWAP1 POP DUP3 DUP2 MSTORE PUSH1 0x20 DUP2 ADD DUP5 DUP5 DUP5 ADD GT ISZERO PUSH2 0x3E60 JUMPI PUSH2 0x3E5F PUSH2 0x3D71 JUMP JUMPDEST JUMPDEST PUSH2 0x3E6B DUP5 DUP3 DUP6 PUSH2 0x3E22 JUMP JUMPDEST POP SWAP4 SWAP3 POP POP POP JUMP JUMPDEST PUSH1 0x0 DUP3 PUSH1 0x1F DUP4 ADD SLT PUSH2 0x3E88 JUMPI PUSH2 0x3E87 PUSH2 0x3B18 JUMP JUMPDEST JUMPDEST DUP2 CALLDATALOAD PUSH2 0x3E98 DUP5 DUP3 PUSH1 0x20 DUP7 ADD PUSH2 0x3E31 JUMP JUMPDEST SWAP2 POP POP SWAP3 SWAP2 POP POP JUMP JUMPDEST PUSH1 0x0 PUSH1 0x60 DUP3 DUP5 SUB SLT ISZERO PUSH2 0x3EB7 JUMPI PUSH2 0x3EB6 PUSH2 0x37F9 JUMP JUMPDEST JUMPDEST DUP2 SWAP1 POP SWAP3 SWAP2 POP POP JUMP JUMPDEST PUSH1 0x0 DUP1 PUSH1 0x0 DUP1 PUSH1 0xC0 DUP6 DUP8 SUB SLT ISZERO PUSH2 0x3EDA JUMPI PUSH2 0x3ED9 PUSH2 0x347F JUMP JUMPDEST JUMPDEST PUSH1 0x0 PUSH2 0x3EE8 DUP8 DUP3 DUP9 ADD PUSH2 0x3617 JUMP JUMPDEST SWAP5 POP POP PUSH1 0x20 PUSH2 0x3EF9 DUP8 DUP3 DUP9 ADD PUSH2 0x36CC JUMP JUMPDEST SWAP4 POP POP PUSH1 0x40 DUP6 ADD CALLDATALOAD PUSH8 0xFFFFFFFFFFFFFFFF DUP2 GT ISZERO PUSH2 0x3F1A JUMPI PUSH2 0x3F19 PUSH2 0x3484 JUMP JUMPDEST JUMPDEST PUSH2 0x3F26 DUP8 DUP3 DUP9 ADD PUSH2 0x3E73 JUMP JUMPDEST SWAP3 POP POP PUSH1 0x60 PUSH2 0x3F37 DUP8 DUP3 DUP9 ADD PUSH2 0x3EA1 JUMP JUMPDEST SWAP2 POP POP SWAP3 SWAP6 SWAP2 SWAP5 POP SWAP3 POP JUMP JUMPDEST PUSH1 0x0 PUSH1 0x40 DUP3 DUP5 SUB SLT ISZERO PUSH2 0x3F59 JUMPI PUSH2 0x3F58 PUSH2 0x37F9 JUMP JUMPDEST JUMPDEST DUP2 SWAP1 POP SWAP3 SWAP2 POP POP JUMP JUMPDEST PUSH1 0x0 DUP1 PUSH1 0x40 DUP4 DUP6 SUB SLT ISZERO PUSH2 0x3F79 JUMPI PUSH2 0x3F78 PUSH2 0x347F JUMP JUMPDEST JUMPDEST PUSH1 0x0 DUP4 ADD CALLDATALOAD PUSH8 0xFFFFFFFFFFFFFFFF DUP2 GT ISZERO PUSH2 0x3F97 JUMPI PUSH2 0x3F96 PUSH2 0x3484 JUMP JUMPDEST JUMPDEST PUSH2 0x3FA3 DUP6 DUP3 DUP7 ADD PUSH2 0x37FE JUMP JUMPDEST SWAP3 POP POP PUSH1 0x20 DUP4 ADD CALLDATALOAD PUSH8 0xFFFFFFFFFFFFFFFF DUP2 GT ISZERO PUSH2 0x3FC4 JUMPI PUSH2 0x3FC3 PUSH2 0x3484 JUMP JUMPDEST JUMPDEST PUSH2 0x3FD0 DUP6 DUP3 DUP7 ADD PUSH2 0x3F43 JUMP JUMPDEST SWAP2 POP POP SWAP3 POP SWAP3 SWAP1 POP JUMP JUMPDEST PUSH1 0x0 DUP1 PUSH1 0x40 DUP4 DUP6 SUB SLT ISZERO PUSH2 0x3FF1 JUMPI PUSH2 0x3FF0 PUSH2 0x347F JUMP JUMPDEST JUMPDEST PUSH1 0x0 PUSH2 0x3FFF DUP6 DUP3 DUP7 ADD PUSH2 0x36CC JUMP JUMPDEST SWAP3 POP POP PUSH1 0x20 PUSH2 0x4010 DUP6 DUP3 DUP7 ADD PUSH2 0x3B03 JUMP JUMPDEST SWAP2 POP POP SWAP3 POP SWAP3 SWAP1 POP JUMP JUMPDEST PUSH1 0x0 DUP1 PUSH1 0x0 DUP1 PUSH1 0x60 DUP6 DUP8 SUB SLT ISZERO PUSH2 0x4034 JUMPI PUSH2 0x4033 PUSH2 0x347F JUMP JUMPDEST JUMPDEST PUSH1 0x0 PUSH2 0x4042 DUP8 DUP3 DUP9 ADD PUSH2 0x3C92 JUMP JUMPDEST SWAP5 POP POP PUSH1 0x20 PUSH2 0x4053 DUP8 DUP3 DUP9 ADD PUSH2 0x3C92 JUMP JUMPDEST SWAP4 POP POP PUSH1 0x40 DUP6 ADD CALLDATALOAD PUSH8 0xFFFFFFFFFFFFFFFF DUP2 GT ISZERO PUSH2 0x4074 JUMPI PUSH2 0x4073 PUSH2 0x3484 JUMP JUMPDEST JUMPDEST PUSH2 0x4080 DUP8 DUP3 DUP9 ADD PUSH2 0x3CA7 JUMP JUMPDEST SWAP3 POP SWAP3 POP POP SWAP3 SWAP6 SWAP2 SWAP5 POP SWAP3 POP JUMP JUMPDEST PUSH1 0x0 PUSH8 0xFFFFFFFFFFFFFFFF DUP3 GT ISZERO PUSH2 0x40A9 JUMPI PUSH2 0x40A8 PUSH2 0x3D76 JUMP JUMPDEST JUMPDEST PUSH2 0x40B2 DUP3 PUSH2 0x358A JUMP JUMPDEST SWAP1 POP PUSH1 0x20 DUP2 ADD SWAP1 POP SWAP2 SWAP1 POP JUMP JUMPDEST PUSH1 0x0 PUSH2 0x40D2 PUSH2 0x40CD DUP5 PUSH2 0x408E JUMP JUMPDEST PUSH2 0x3DD6 JUMP JUMPDEST SWAP1 POP DUP3 DUP2 MSTORE PUSH1 0x20 DUP2 ADD DUP5 DUP5 DUP5 ADD GT ISZERO PUSH2 0x40EE JUMPI PUSH2 0x40ED PUSH2 0x3D71 JUMP JUMPDEST JUMPDEST PUSH2 0x40F9 DUP5 DUP3 DUP6 PUSH2 0x3E22 JUMP JUMPDEST POP SWAP4 SWAP3 POP POP POP JUMP JUMPDEST PUSH1 0x0 DUP3 PUSH1 0x1F DUP4 ADD SLT PUSH2 0x4116 JUMPI PUSH2 0x4115 PUSH2 0x3B18 JUMP JUMPDEST JUMPDEST DUP2 CALLDATALOAD PUSH2 0x4126 DUP5 DUP3 PUSH1 0x20 DUP7 ADD PUSH2 0x40BF JUMP JUMPDEST SWAP2 POP POP SWAP3 SWAP2 POP POP JUMP JUMPDEST PUSH1 0x0 DUP1 PUSH1 0x0 DUP1 PUSH1 0x80 DUP6 DUP8 SUB SLT ISZERO PUSH2 0x4149 JUMPI PUSH2 0x4148 PUSH2 0x347F JUMP JUMPDEST JUMPDEST PUSH1 0x0 PUSH2 0x4157 DUP8 DUP3 DUP9 ADD PUSH2 0x36CC JUMP JUMPDEST SWAP5 POP POP PUSH1 0x20 PUSH2 0x4168 DUP8 DUP3 DUP9 ADD PUSH2 0x36CC JUMP JUMPDEST SWAP4 POP POP PUSH1 0x40 PUSH2 0x4179 DUP8 DUP3 DUP9 ADD PUSH2 0x3617 JUMP JUMPDEST SWAP3 POP POP PUSH1 0x60 DUP6 ADD CALLDATALOAD PUSH8 0xFFFFFFFFFFFFFFFF DUP2 GT ISZERO PUSH2 0x419A JUMPI PUSH2 0x4199 PUSH2 0x3484 JUMP JUMPDEST JUMPDEST PUSH2 0x41A6 DUP8 DUP3 DUP9 ADD PUSH2 0x4101 JUMP JUMPDEST SWAP2 POP POP SWAP3 SWAP6 SWAP2 SWAP5 POP SWAP3 POP JUMP JUMPDEST PUSH2 0x41BB DUP2 PUSH2 0x3968 JUMP JUMPDEST DUP3 MSTORE POP POP JUMP JUMPDEST PUSH1 0x0 PUSH1 0x20 DUP3 ADD SWAP1 POP PUSH2 0x41D6 PUSH1 0x0 DUP4 ADD DUP5 PUSH2 0x41B2 JUMP JUMPDEST SWAP3 SWAP2 POP POP JUMP JUMPDEST PUSH1 0x3 DUP2 LT PUSH2 0x41E9 JUMPI PUSH1 0x0 DUP1 REVERT JUMPDEST POP JUMP JUMPDEST PUSH1 0x0 DUP2 CALLDATALOAD SWAP1 POP PUSH2 0x41FB DUP2 PUSH2 0x41DC JUMP JUMPDEST SWAP3 SWAP2 POP POP JUMP JUMPDEST PUSH1 0x0 DUP1 PUSH1 0x0 DUP1 PUSH1 0x0 DUP1 PUSH1 0x0 DUP1 PUSH1 0x0 DUP1 PUSH1 0x0 PUSH1 0xE0 DUP13 DUP15 SUB SLT ISZERO PUSH2 0x4226 JUMPI PUSH2 0x4225 PUSH2 0x347F JUMP JUMPDEST JUMPDEST PUSH1 0x0 DUP13 ADD CALLDATALOAD PUSH8 0xFFFFFFFFFFFFFFFF DUP2 GT ISZERO PUSH2 0x4244 JUMPI PUSH2 0x4243 PUSH2 0x3484 JUMP JUMPDEST JUMPDEST PUSH2 0x4250 DUP15 DUP3 DUP16 ADD PUSH2 0x3CA7 JUMP JUMPDEST SWAP12 POP SWAP12 POP POP PUSH1 0x20 PUSH2 0x4263 DUP15 DUP3 DUP16 ADD PUSH2 0x41EC JUMP JUMPDEST SWAP10 POP POP PUSH1 0x40 PUSH2 0x4274 DUP15 DUP3 DUP16 ADD PUSH2 0x3B03 JUMP JUMPDEST SWAP9 POP POP PUSH1 0x60 DUP13 ADD CALLDATALOAD PUSH8 0xFFFFFFFFFFFFFFFF DUP2 GT ISZERO PUSH2 0x4295 JUMPI PUSH2 0x4294 PUSH2 0x3484 JUMP JUMPDEST JUMPDEST PUSH2 0x42A1 DUP15 DUP3 DUP16 ADD PUSH2 0x3B27 JUMP JUMPDEST SWAP8 POP SWAP8 POP POP PUSH1 0x80 DUP13 ADD CALLDATALOAD PUSH8 0xFFFFFFFFFFFFFFFF DUP2 GT ISZERO PUSH2 0x42C4 JUMPI PUSH2 0x42C3 PUSH2 0x3484 JUMP JUMPDEST JUMPDEST PUSH2 0x42D0 DUP15 DUP3 DUP16 ADD PUSH2 0x3CA7 JUMP JUMPDEST SWAP6 POP SWAP6 POP POP PUSH1 0xA0 PUSH2 0x42E3 DUP15 DUP3 DUP16 ADD PUSH2 0x3C92 JUMP JUMPDEST SWAP4 POP POP PUSH1 0xC0 DUP13 ADD CALLDATALOAD PUSH8 0xFFFFFFFFFFFFFFFF DUP2 GT ISZERO PUSH2 0x4304 JUMPI PUSH2 0x4303 PUSH2 0x3484 JUMP JUMPDEST JUMPDEST PUSH2 0x4310 DUP15 DUP3 DUP16 ADD PUSH2 0x3CA7 JUMP JUMPDEST SWAP3 POP SWAP3 POP POP SWAP3 SWAP6 SWAP9 SWAP12 POP SWAP3 SWAP6 SWAP9 SWAP12 SWAP1 SWAP4 SWAP7 SWAP10 POP JUMP JUMPDEST PUSH1 0x0 DUP2 SWAP1 POP SWAP2 SWAP1 POP JUMP JUMPDEST PUSH1 0x0 PUSH2 0x434A PUSH2 0x4345 PUSH2 0x4340 DUP5 PUSH2 0x3659 JUMP JUMPDEST PUSH2 0x4325 JUMP JUMPDEST PUSH2 0x3659 JUMP JUMPDEST SWAP1 POP SWAP2 SWAP1 POP JUMP JUMPDEST PUSH1 0x0 PUSH2 0x435C DUP3 PUSH2 0x432F JUMP JUMPDEST SWAP1 POP SWAP2 SWAP1 POP JUMP JUMPDEST PUSH1 0x0 PUSH2 0x436E DUP3 PUSH2 0x4351 JUMP JUMPDEST SWAP1 POP SWAP2 SWAP1 POP JUMP JUMPDEST PUSH2 0x437E DUP2 PUSH2 0x4363 JUMP JUMPDEST DUP3 MSTORE POP POP JUMP JUMPDEST PUSH1 0x0 PUSH1 0x20 DUP3 ADD SWAP1 POP PUSH2 0x4399 PUSH1 0x0 DUP4 ADD DUP5 PUSH2 0x4375 JUMP JUMPDEST SWAP3 SWAP2 POP POP JUMP JUMPDEST PUSH1 0x0 DUP1 PUSH1 0x40 DUP4 DUP6 SUB SLT ISZERO PUSH2 0x43B6 JUMPI PUSH2 0x43B5 PUSH2 0x347F JUMP JUMPDEST JUMPDEST PUSH1 0x0 PUSH2 0x43C4 DUP6 DUP3 DUP7 ADD PUSH2 0x36CC JUMP JUMPDEST SWAP3 POP POP PUSH1 0x20 PUSH2 0x43D5 DUP6 DUP3 DUP7 ADD PUSH2 0x36CC JUMP JUMPDEST SWAP2 POP POP SWAP3 POP SWAP3 SWAP1 POP JUMP JUMPDEST PUSH32 0x4E487B7100000000000000000000000000000000000000000000000000000000 PUSH1 0x0 MSTORE PUSH1 0x22 PUSH1 0x4 MSTORE PUSH1 0x24 PUSH1 0x0 REVERT JUMPDEST PUSH1 0x0 PUSH1 0x2 DUP3 DIV SWAP1 POP PUSH1 0x1 DUP3 AND DUP1 PUSH2 0x4426 JUMPI PUSH1 0x7F DUP3 AND SWAP2 POP JUMPDEST PUSH1 0x20 DUP3 LT DUP2 SUB PUSH2 0x4439 JUMPI PUSH2 0x4438 PUSH2 0x43DF JUMP JUMPDEST JUMPDEST POP SWAP2 SWAP1 POP JUMP JUMPDEST PUSH32 0x4552433732313A20617070726F76616C20746F2063757272656E74206F776E65 PUSH1 0x0 DUP3 ADD MSTORE PUSH32 0x7200000000000000000000000000000000000000000000000000000000000000 PUSH1 0x20 DUP3 ADD MSTORE POP JUMP JUMPDEST PUSH1 0x0 PUSH2 0x449B PUSH1 0x21 DUP4 PUSH2 0x354F JUMP JUMPDEST SWAP2 POP PUSH2 0x44A6 DUP3 PUSH2 0x443F JUMP JUMPDEST PUSH1 0x40 DUP3 ADD SWAP1 POP SWAP2 SWAP1 POP JUMP JUMPDEST PUSH1 0x0 PUSH1 0x20 DUP3 ADD SWAP1 POP DUP2 DUP2 SUB PUSH1 0x0 DUP4 ADD MSTORE PUSH2 0x44CA DUP2 PUSH2 0x448E JUMP JUMPDEST SWAP1 POP SWAP2 SWAP1 POP JUMP JUMPDEST PUSH32 0x4552433732313A20617070726F76652063616C6C6572206973206E6F7420746F PUSH1 0x0 DUP3 ADD MSTORE PUSH32 0x6B656E206F776E6572206F7220617070726F76656420666F7220616C6C000000 PUSH1 0x20 DUP3 ADD MSTORE POP JUMP JUMPDEST PUSH1 0x0 PUSH2 0x452D PUSH1 0x3D DUP4 PUSH2 0x354F JUMP JUMPDEST SWAP2 POP PUSH2 0x4538 DUP3 PUSH2 0x44D1 JUMP JUMPDEST PUSH1 0x40 DUP3 ADD SWAP1 POP SWAP2 SWAP1 POP JUMP JUMPDEST PUSH1 0x0 PUSH1 0x20 DUP3 ADD SWAP1 POP DUP2 DUP2 SUB PUSH1 0x0 DUP4 ADD MSTORE PUSH2 0x455C DUP2 PUSH2 0x4520 JUMP JUMPDEST SWAP1 POP SWAP2 SWAP1 POP JUMP JUMPDEST PUSH32 0x4552433732313A2063616C6C6572206973206E6F7420746F6B656E206F776E65 PUSH1 0x0 DUP3 ADD MSTORE PUSH32 0x72206F7220617070726F76656400000000000000000000000000000000000000 PUSH1 0x20 DUP3 ADD MSTORE POP JUMP JUMPDEST PUSH1 0x0 PUSH2 0x45BF PUSH1 0x2D DUP4 PUSH2 0x354F JUMP JUMPDEST SWAP2 POP PUSH2 0x45CA DUP3 PUSH2 0x4563 JUMP JUMPDEST PUSH1 0x40 DUP3 ADD SWAP1 POP SWAP2 SWAP1 POP JUMP JUMPDEST PUSH1 0x0 PUSH1 0x20 DUP3 ADD SWAP1 POP DUP2 DUP2 SUB PUSH1 0x0 DUP4 ADD MSTORE PUSH2 0x45EE DUP2 PUSH2 0x45B2 JUMP JUMPDEST SWAP1 POP SWAP2 SWAP1 POP JUMP JUMPDEST PUSH1 0x0 DUP1 REVERT JUMPDEST PUSH1 0x0 DUP1 REVERT JUMPDEST PUSH1 0x0 DUP1 REVERT JUMPDEST PUSH1 0x0 DUP3 CALLDATALOAD PUSH1 0x1 PUSH1 0x40 SUB DUP4 CALLDATASIZE SUB SUB DUP2 SLT PUSH2 0x4620 JUMPI PUSH2 0x461F PUSH2 0x45F5 JUMP JUMPDEST JUMPDEST DUP1 DUP4 ADD SWAP2 POP POP SWAP3 SWAP2 POP POP JUMP JUMPDEST PUSH1 0x0 DUP1 DUP4 CALLDATALOAD PUSH1 0x1 PUSH1 0x20 SUB DUP5 CALLDATASIZE SUB SUB DUP2 SLT PUSH2 0x4649 JUMPI PUSH2 0x4648 PUSH2 0x45F5 JUMP JUMPDEST JUMPDEST DUP1 DUP5 ADD SWAP3 POP DUP3 CALLDATALOAD SWAP2 POP PUSH8 0xFFFFFFFFFFFFFFFF DUP3 GT ISZERO PUSH2 0x466B JUMPI PUSH2 0x466A PUSH2 0x45FA JUMP JUMPDEST JUMPDEST PUSH1 0x20 DUP4 ADD SWAP3 POP PUSH1 0x1 DUP3 MUL CALLDATASIZE SUB DUP4 SGT ISZERO PUSH2 0x4687 JUMPI PUSH2 0x4686 PUSH2 0x45FF JUMP JUMPDEST JUMPDEST POP SWAP3 POP SWAP3 SWAP1 POP JUMP JUMPDEST PUSH1 0x0 DUP3 SWAP1 POP SWAP3 SWAP2 POP POP JUMP JUMPDEST PUSH1 0x0 DUP2 SWAP1 POP DUP2 PUSH1 0x0 MSTORE PUSH1 0x20 PUSH1 0x0 KECCAK256 SWAP1 POP SWAP2 SWAP1 POP JUMP JUMPDEST PUSH1 0x0 PUSH1 0x20 PUSH1 0x1F DUP4 ADD DIV SWAP1 POP SWAP2 SWAP1 POP JUMP JUMPDEST PUSH1 0x0 DUP3 DUP3 SHL SWAP1 POP SWAP3 SWAP2 POP POP JUMP JUMPDEST PUSH1 0x0 PUSH1 0x8 DUP4 MUL PUSH2 0x46FC PUSH32 0xFFFFFFFFFFFFFFFFFFFFFFFFFFFFFFFFFFFFFFFFFFFFFFFFFFFFFFFFFFFFFFFF DUP3 PUSH2 0x46BF JUMP JUMPDEST PUSH2 0x4706 DUP7 DUP4 PUSH2 0x46BF JUMP JUMPDEST SWAP6 POP DUP1 NOT DUP5 AND SWAP4 POP DUP1 DUP7 AND DUP5 OR SWAP3 POP POP POP SWAP4 SWAP3 POP POP POP JUMP JUMPDEST PUSH1 0x0 PUSH2 0x4739 PUSH2 0x4734 PUSH2 0x472F DUP5 PUSH2 0x35F6 JUMP JUMPDEST PUSH2 0x4325 JUMP JUMPDEST PUSH2 0x35F6 JUMP JUMPDEST SWAP1 POP SWAP2 SWAP1 POP JUMP JUMPDEST PUSH1 0x0 DUP2 SWAP1 POP SWAP2 SWAP1 POP JUMP JUMPDEST PUSH2 0x4753 DUP4 PUSH2 0x471E JUMP JUMPDEST PUSH2 0x4767 PUSH2 0x475F DUP3 PUSH2 0x4740 JUMP JUMPDEST DUP5 DUP5 SLOAD PUSH2 0x46CC JUMP JUMPDEST DUP3 SSTORE POP POP POP POP JUMP JUMPDEST PUSH1 0x0 SWAP1 JUMP JUMPDEST PUSH2 0x477C PUSH2 0x476F JUMP JUMPDEST PUSH2 0x4787 DUP2 DUP5 DUP5 PUSH2 0x474A JUMP JUMPDEST POP POP POP JUMP JUMPDEST JUMPDEST DUP2 DUP2 LT ISZERO PUSH2 0x47AB JUMPI PUSH2 0x47A0 PUSH1 0x0 DUP3 PUSH2 0x4774 JUMP JUMPDEST PUSH1 0x1 DUP2 ADD SWAP1 POP PUSH2 0x478D JUMP JUMPDEST POP POP JUMP JUMPDEST PUSH1 0x1F DUP3 GT ISZERO PUSH2 0x47F0 JUMPI PUSH2 0x47C1 DUP2 PUSH2 0x469A JUMP JUMPDEST PUSH2 0x47CA DUP5 PUSH2 0x46AF JUMP JUMPDEST DUP2 ADD PUSH1 0x20 DUP6 LT ISZERO PUSH2 0x47D9 JUMPI DUP2 SWAP1 POP JUMPDEST PUSH2 0x47ED PUSH2 0x47E5 DUP6 PUSH2 0x46AF JUMP JUMPDEST DUP4 ADD DUP3 PUSH2 0x478C JUMP JUMPDEST POP POP JUMPDEST POP POP POP JUMP JUMPDEST PUSH1 0x0 DUP3 DUP3 SHR SWAP1 POP SWAP3 SWAP2 POP POP JUMP JUMPDEST PUSH1 0x0 PUSH2 0x4813 PUSH1 0x0 NOT DUP5 PUSH1 0x8 MUL PUSH2 0x47F5 JUMP JUMPDEST NOT DUP1 DUP4 AND SWAP2 POP POP SWAP3 SWAP2 POP POP JUMP JUMPDEST PUSH1 0x0 PUSH2 0x482C DUP4 DUP4 PUSH2 0x4802 JUMP JUMPDEST SWAP2 POP DUP3 PUSH1 0x2 MUL DUP3 OR SWAP1 POP SWAP3 SWAP2 POP POP JUMP JUMPDEST PUSH2 0x4846 DUP4 DUP4 PUSH2 0x468F JUMP JUMPDEST PUSH8 0xFFFFFFFFFFFFFFFF DUP2 GT ISZERO PUSH2 0x485F JUMPI PUSH2 0x485E PUSH2 0x3D76 JUMP JUMPDEST JUMPDEST PUSH2 0x4869 DUP3 SLOAD PUSH2 0x440E JUMP JUMPDEST PUSH2 0x4874 DUP3 DUP3 DUP6 PUSH2 0x47AF JUMP JUMPDEST PUSH1 0x0 PUSH1 0x1F DUP4 GT PUSH1 0x1 DUP2 EQ PUSH2 0x48A3 JUMPI PUSH1 0x0 DUP5 ISZERO PUSH2 0x4891 JUMPI DUP3 DUP8 ADD CALLDATALOAD SWAP1 POP JUMPDEST PUSH2 0x489B DUP6 DUP3 PUSH2 0x4820 JUMP JUMPDEST DUP7 SSTORE POP PUSH2 0x4903 JUMP JUMPDEST PUSH1 0x1F NOT DUP5 AND PUSH2 0x48B1 DUP7 PUSH2 0x469A JUMP JUMPDEST PUSH1 0x0 JUMPDEST DUP3 DUP2 LT ISZERO PUSH2 0x48D9 JUMPI DUP5 DUP10 ADD CALLDATALOAD DUP3 SSTORE PUSH1 0x1 DUP3 ADD SWAP2 POP PUSH1 0x20 DUP6 ADD SWAP5 POP PUSH1 0x20 DUP2 ADD SWAP1 POP PUSH2 0x48B4 JUMP JUMPDEST DUP7 DUP4 LT ISZERO PUSH2 0x48F6 JUMPI DUP5 DUP10 ADD CALLDATALOAD PUSH2 0x48F2 PUSH1 0x1F DUP10 AND DUP3 PUSH2 0x4802 JUMP JUMPDEST DUP4 SSTORE POP JUMPDEST PUSH1 0x1 PUSH1 0x2 DUP9 MUL ADD DUP9 SSTORE POP POP POP JUMPDEST POP POP POP POP POP POP POP JUMP JUMPDEST PUSH2 0x4917 DUP4 DUP4 DUP4 PUSH2 0x483C JUMP JUMPDEST POP POP POP JUMP JUMPDEST PUSH1 0x0 DUP2 CALLDATALOAD PUSH2 0x4929 DUP2 PUSH2 0x3C7B JUMP JUMPDEST DUP1 SWAP2 POP POP SWAP2 SWAP1 POP JUMP JUMPDEST PUSH1 0x0 DUP2 PUSH1 0x0 SHL SWAP1 POP SWAP2 SWAP1 POP JUMP JUMPDEST PUSH1 0x0 PUSH32 0xFFFFFFFFFFFFFFFFFFFFFFFFFFFFFFFFFFFFFFFFFFFFFFFFFFFFFFFFFFFFFFFF PUSH2 0x496B DUP5 PUSH2 0x4932 JUMP JUMPDEST SWAP4 POP DUP1 NOT DUP4 AND SWAP3 POP DUP1 DUP5 AND DUP4 OR SWAP2 POP POP SWAP3 SWAP2 POP POP JUMP JUMPDEST PUSH1 0x0 PUSH2 0x498C DUP3 PUSH2 0x3968 JUMP JUMPDEST SWAP1 POP SWAP2 SWAP1 POP JUMP JUMPDEST PUSH1 0x0 DUP2 PUSH1 0x0 SHR SWAP1 POP SWAP2 SWAP1 POP JUMP JUMPDEST PUSH1 0x0 PUSH2 0x49AB DUP3 PUSH2 0x4993 JUMP JUMPDEST SWAP1 POP SWAP2 SWAP1 POP JUMP JUMPDEST PUSH2 0x49BB DUP3 PUSH2 0x4981 JUMP JUMPDEST PUSH2 0x49CE PUSH2 0x49C7 DUP3 PUSH2 0x49A0 JUMP JUMPDEST DUP4 SLOAD PUSH2 0x493F JUMP JUMPDEST DUP3 SSTORE POP POP POP JUMP JUMPDEST PUSH1 0x0 DUP2 ADD PUSH1 0x0 DUP4 ADD PUSH2 0x49E7 DUP2 DUP6 PUSH2 0x462C JUMP JUMPDEST PUSH2 0x49F2 DUP2 DUP4 DUP7 PUSH2 0x490C JUMP JUMPDEST POP POP POP POP PUSH1 0x1 DUP2 ADD PUSH1 0x20 DUP4 ADD DUP1 PUSH2 0x4A08 DUP2 PUSH2 0x491C JUMP JUMPDEST SWAP1 POP PUSH2 0x4A14 DUP2 DUP5 PUSH2 0x49B2 JUMP JUMPDEST POP POP POP POP POP JUMP JUMPDEST PUSH2 0x4A25 DUP3 DUP3 PUSH2 0x49D5 JUMP JUMPDEST POP POP JUMP JUMPDEST PUSH2 0x4A32 DUP2 PUSH2 0x39BE JUMP JUMPDEST DUP2 EQ PUSH2 0x4A3D JUMPI PUSH1 0x0 DUP1 REVERT JUMPDEST POP JUMP JUMPDEST PUSH1 0x0 DUP2 CALLDATALOAD PUSH2 0x4A4D DUP2 PUSH2 0x4A29 JUMP JUMPDEST DUP1 SWAP2 POP POP SWAP2 SWAP1 POP JUMP JUMPDEST PUSH1 0x0 PUSH8 0xFFFFFFFFFFFFFFFF PUSH2 0x4A6A DUP5 PUSH2 0x4932 JUMP JUMPDEST SWAP4 POP DUP1 NOT DUP4 AND SWAP3 POP DUP1 DUP5 AND DUP4 OR SWAP2 POP POP SWAP3 SWAP2 POP POP JUMP JUMPDEST PUSH1 0x0 PUSH2 0x4A9B PUSH2 0x4A96 PUSH2 0x4A91 DUP5 PUSH2 0x39BE JUMP JUMPDEST PUSH2 0x4325 JUMP JUMPDEST PUSH2 0x39BE JUMP JUMPDEST SWAP1 POP SWAP2 SWAP1 POP JUMP JUMPDEST PUSH1 0x0 DUP2 SWAP1 POP SWAP2 SWAP1 POP JUMP JUMPDEST PUSH2 0x4AB5 DUP3 PUSH2 0x4A80 JUMP JUMPDEST PUSH2 0x4AC8 PUSH2 0x4AC1 DUP3 PUSH2 0x4AA2 JUMP JUMPDEST DUP4 SLOAD PUSH2 0x4A56 JUMP JUMPDEST DUP3 SSTORE POP POP POP JUMP JUMPDEST PUSH1 0x0 DUP1 DUP4 CALLDATALOAD PUSH1 0x1 PUSH1 0x20 SUB DUP5 CALLDATASIZE SUB SUB DUP2 SLT PUSH2 0x4AEC JUMPI PUSH2 0x4AEB PUSH2 0x45F5 JUMP JUMPDEST JUMPDEST DUP1 DUP5 ADD SWAP3 POP DUP3 CALLDATALOAD SWAP2 POP PUSH8 0xFFFFFFFFFFFFFFFF DUP3 GT ISZERO PUSH2 0x4B0E JUMPI PUSH2 0x4B0D PUSH2 0x45FA JUMP JUMPDEST JUMPDEST PUSH1 0x20 DUP4 ADD SWAP3 POP PUSH1 0x1 DUP3 MUL CALLDATASIZE SUB DUP4 SGT ISZERO PUSH2 0x4B2A JUMPI PUSH2 0x4B29 PUSH2 0x45FF JUMP JUMPDEST JUMPDEST POP SWAP3 POP SWAP3 SWAP1 POP JUMP JUMPDEST PUSH1 0x0 DUP3 SWAP1 POP SWAP3 SWAP2 POP POP JUMP JUMPDEST PUSH1 0x0 DUP2 SWAP1 POP DUP2 PUSH1 0x0 MSTORE PUSH1 0x20 PUSH1 0x0 KECCAK256 SWAP1 POP SWAP2 SWAP1 POP JUMP JUMPDEST PUSH1 0x1F DUP3 GT ISZERO PUSH2 0x4B93 JUMPI PUSH2 0x4B64 DUP2 PUSH2 0x4B3D JUMP JUMPDEST PUSH2 0x4B6D DUP5 PUSH2 0x46AF JUMP JUMPDEST DUP2 ADD PUSH1 0x20 DUP6 LT ISZERO PUSH2 0x4B7C JUMPI DUP2 SWAP1 POP JUMPDEST PUSH2 0x4B90 PUSH2 0x4B88 DUP6 PUSH2 0x46AF JUMP JUMPDEST DUP4 ADD DUP3 PUSH2 0x478C JUMP JUMPDEST POP POP JUMPDEST POP POP POP JUMP JUMPDEST PUSH2 0x4BA2 DUP4 DUP4 PUSH2 0x4B32 JUMP JUMPDEST PUSH8 0xFFFFFFFFFFFFFFFF DUP2 GT ISZERO PUSH2 0x4BBB JUMPI PUSH2 0x4BBA PUSH2 0x3D76 JUMP JUMPDEST JUMPDEST PUSH2 0x4BC5 DUP3 SLOAD PUSH2 0x440E JUMP JUMPDEST PUSH2 0x4BD0 DUP3 DUP3 DUP6 PUSH2 0x4B52 JUMP JUMPDEST PUSH1 0x0 PUSH1 0x1F DUP4 GT PUSH1 0x1 DUP2 EQ PUSH2 0x4BFF JUMPI PUSH1 0x0 DUP5 ISZERO PUSH2 0x4BED JUMPI DUP3 DUP8 ADD CALLDATALOAD SWAP1 POP JUMPDEST PUSH2 0x4BF7 DUP6 DUP3 PUSH2 0x4820 JUMP JUMPDEST DUP7 SSTORE POP PUSH2 0x4C5F JUMP JUMPDEST PUSH1 0x1F NOT DUP5 AND PUSH2 0x4C0D DUP7 PUSH2 0x4B3D JUMP JUMPDEST PUSH1 0x0 JUMPDEST DUP3 DUP2 LT ISZERO PUSH2 0x4C35 JUMPI DUP5 DUP10 ADD CALLDATALOAD DUP3 SSTORE PUSH1 0x1 DUP3 ADD SWAP2 POP PUSH1 0x20 DUP6 ADD SWAP5 POP PUSH1 0x20 DUP2 ADD SWAP1 POP PUSH2 0x4C10 JUMP JUMPDEST DUP7 DUP4 LT ISZERO PUSH2 0x4C52 JUMPI DUP5 DUP10 ADD CALLDATALOAD PUSH2 0x4C4E PUSH1 0x1F DUP10 AND DUP3 PUSH2 0x4802 JUMP JUMPDEST DUP4 SSTORE POP JUMPDEST PUSH1 0x1 PUSH1 0x2 DUP9 MUL ADD DUP9 SSTORE POP POP POP JUMPDEST POP POP POP POP POP POP POP JUMP JUMPDEST PUSH2 0x4C73 DUP4 DUP4 DUP4 PUSH2 0x4B98 JUMP JUMPDEST POP POP POP JUMP JUMPDEST PUSH1 0x0 DUP2 PUSH1 0x40 SHL SWAP1 POP SWAP2 SWAP1 POP JUMP JUMPDEST PUSH1 0x0 PUSH16 0xFFFFFFFFFFFFFFFF0000000000000000 PUSH2 0x4CA1 DUP5 PUSH2 0x4C78 JUMP JUMPDEST SWAP4 POP DUP1 NOT DUP4 AND SWAP3 POP DUP1 DUP5 AND DUP4 OR SWAP2 POP POP SWAP3 SWAP2 POP POP JUMP JUMPDEST PUSH2 0x4CC0 DUP3 PUSH2 0x4A80 JUMP JUMPDEST PUSH2 0x4CD3 PUSH2 0x4CCC DUP3 PUSH2 0x4AA2 JUMP JUMPDEST DUP4 SLOAD PUSH2 0x4C85 JUMP JUMPDEST DUP3 SSTORE POP POP POP JUMP JUMPDEST PUSH1 0x0 DUP2 ADD PUSH1 0x0 DUP4 ADD DUP1 PUSH2 0x4CEC DUP2 PUSH2 0x4A40 JUMP JUMPDEST SWAP1 POP PUSH2 0x4CF8 DUP2 DUP5 PUSH2 0x4AAC JUMP JUMPDEST POP POP POP PUSH1 0x0 DUP2 ADD PUSH1 0x20 DUP4 ADD DUP1 PUSH2 0x4D0D DUP2 PUSH2 0x4A40 JUMP JUMPDEST SWAP1 POP PUSH2 0x4D19 DUP2 DUP5 PUSH2 0x4CB7 JUMP JUMPDEST POP POP POP POP POP JUMP JUMPDEST PUSH2 0x4D2A DUP3 DUP3 PUSH2 0x4CDA JUMP JUMPDEST POP POP JUMP JUMPDEST PUSH1 0x0 DUP2 ADD PUSH1 0x0 DUP4 ADD PUSH2 0x4D40 DUP2 DUP6 PUSH2 0x4604 JUMP JUMPDEST PUSH2 0x4D4A DUP2 DUP5 PUSH2 0x4A1B JUMP JUMPDEST POP POP POP PUSH1 0x2 DUP2 ADD PUSH1 0x20 DUP4 ADD PUSH2 0x4D5F DUP2 DUP6 PUSH2 0x4604 JUMP JUMPDEST PUSH2 0x4D69 DUP2 DUP5 PUSH2 0x4A1B JUMP JUMPDEST POP POP POP PUSH1 0x4 DUP2 ADD PUSH1 0x40 DUP4 ADD DUP1 PUSH2 0x4D7E DUP2 PUSH2 0x4A40 JUMP JUMPDEST SWAP1 POP PUSH2 0x4D8A DUP2 DUP5 PUSH2 0x4AAC JUMP JUMPDEST POP POP POP PUSH1 0x5 DUP2 ADD PUSH1 0x60 DUP4 ADD PUSH2 0x4D9F DUP2 DUP6 PUSH2 0x4ACF JUMP JUMPDEST PUSH2 0x4DAA DUP2 DUP4 DUP7 PUSH2 0x4C68 JUMP JUMPDEST POP POP POP POP PUSH1 0x6 DUP2 ADD PUSH1 0x80 DUP4 ADD DUP1 PUSH2 0x4DC1 DUP2 DUP5 PUSH2 0x4D20 JUMP JUMPDEST POP POP POP PUSH1 0x7 DUP2 ADD PUSH1 0xC0 DUP4 ADD DUP1 PUSH2 0x4DD6 DUP2 PUSH2 0x4A40 JUMP JUMPDEST SWAP1 POP PUSH2 0x4DE2 DUP2 DUP5 PUSH2 0x4AAC JUMP JUMPDEST POP POP POP POP POP JUMP JUMPDEST PUSH2 0x4DF3 DUP3 DUP3 PUSH2 0x4D2E JUMP JUMPDEST POP POP JUMP JUMPDEST PUSH1 0x0 DUP1 REVERT JUMPDEST PUSH1 0x0 DUP1 REVERT JUMPDEST PUSH1 0x0 PUSH8 0xFFFFFFFFFFFFFFFF DUP3 GT ISZERO PUSH2 0x4E1C JUMPI PUSH2 0x4E1B PUSH2 0x3D76 JUMP JUMPDEST JUMPDEST PUSH1 0x20 DUP3 MUL SWAP1 POP PUSH1 0x20 DUP2 ADD SWAP1 POP SWAP2 SWAP1 POP JUMP JUMPDEST PUSH1 0x0 PUSH2 0x4E40 PUSH2 0x4E3B DUP5 PUSH2 0x4E01 JUMP JUMPDEST PUSH2 0x3DD6 JUMP JUMPDEST SWAP1 POP DUP1 DUP4 DUP3 MSTORE PUSH1 0x20 DUP3 ADD SWAP1 POP PUSH1 0x20 DUP5 MUL DUP4 ADD DUP6 DUP2 GT ISZERO PUSH2 0x4E63 JUMPI PUSH2 0x4E62 PUSH2 0x3B22 JUMP JUMPDEST JUMPDEST DUP4 JUMPDEST DUP2 DUP2 LT ISZERO PUSH2 0x4EAA JUMPI DUP1 CALLDATALOAD PUSH8 0xFFFFFFFFFFFFFFFF DUP2 GT ISZERO PUSH2 0x4E88 JUMPI PUSH2 0x4E87 PUSH2 0x3B18 JUMP JUMPDEST JUMPDEST DUP1 DUP7 ADD PUSH2 0x4E95 DUP10 DUP3 PUSH2 0x3E73 JUMP JUMPDEST DUP6 MSTORE PUSH1 0x20 DUP6 ADD SWAP5 POP POP POP PUSH1 0x20 DUP2 ADD SWAP1 POP PUSH2 0x4E65 JUMP JUMPDEST POP POP POP SWAP4 SWAP3 POP POP POP JUMP JUMPDEST PUSH1 0x0 DUP3 PUSH1 0x1F DUP4 ADD SLT PUSH2 0x4EC9 JUMPI PUSH2 0x4EC8 PUSH2 0x3B18 JUMP JUMPDEST JUMPDEST DUP2 CALLDATALOAD PUSH2 0x4ED9 DUP5 DUP3 PUSH1 0x20 DUP7 ADD PUSH2 0x4E2D JUMP JUMPDEST SWAP2 POP POP SWAP3 SWAP2 POP POP JUMP JUMPDEST PUSH1 0x0 PUSH2 0x120 DUP3 DUP5 SUB SLT ISZERO PUSH2 0x4EF9 JUMPI PUSH2 0x4EF8 PUSH2 0x4DF7 JUMP JUMPDEST JUMPDEST PUSH2 0x4F04 PUSH2 0x120 PUSH2 0x3DD6 JUMP JUMPDEST SWAP1 POP PUSH1 0x0 DUP3 ADD CALLDATALOAD PUSH8 0xFFFFFFFFFFFFFFFF DUP2 GT ISZERO PUSH2 0x4F24 JUMPI PUSH2 0x4F23 PUSH2 0x4DFC JUMP JUMPDEST JUMPDEST PUSH2 0x4F30 DUP5 DUP3 DUP6 ADD PUSH2 0x3E73 JUMP JUMPDEST PUSH1 0x0 DUP4 ADD MSTORE POP PUSH1 0x20 DUP3 ADD CALLDATALOAD PUSH8 0xFFFFFFFFFFFFFFFF DUP2 GT ISZERO PUSH2 0x4F54 JUMPI PUSH2 0x4F53 PUSH2 0x4DFC JUMP JUMPDEST JUMPDEST PUSH2 0x4F60 DUP5 DUP3 DUP6 ADD PUSH2 0x3E73 JUMP JUMPDEST PUSH1 0x20 DUP4 ADD MSTORE POP PUSH1 0x40 DUP3 ADD CALLDATALOAD PUSH8 0xFFFFFFFFFFFFFFFF DUP2 GT ISZERO PUSH2 0x4F84 JUMPI PUSH2 0x4F83 PUSH2 0x4DFC JUMP JUMPDEST JUMPDEST PUSH2 0x4F90 DUP5 DUP3 DUP6 ADD PUSH2 0x3E73 JUMP JUMPDEST PUSH1 0x40 DUP4 ADD MSTORE POP PUSH1 0x60 DUP3 ADD CALLDATALOAD PUSH8 0xFFFFFFFFFFFFFFFF DUP2 GT ISZERO PUSH2 0x4FB4 JUMPI PUSH2 0x4FB3 PUSH2 0x4DFC JUMP JUMPDEST JUMPDEST PUSH2 0x4FC0 DUP5 DUP3 DUP6 ADD PUSH2 0x4EB4 JUMP JUMPDEST PUSH1 0x60 DUP4 ADD MSTORE POP PUSH1 0x80 DUP3 ADD CALLDATALOAD PUSH8 0xFFFFFFFFFFFFFFFF DUP2 GT ISZERO PUSH2 0x4FE4 JUMPI PUSH2 0x4FE3 PUSH2 0x4DFC JUMP JUMPDEST JUMPDEST PUSH2 0x4FF0 DUP5 DUP3 DUP6 ADD PUSH2 0x4EB4 JUMP JUMPDEST PUSH1 0x80 DUP4 ADD MSTORE POP PUSH1 0xA0 DUP3 ADD CALLDATALOAD PUSH8 0xFFFFFFFFFFFFFFFF DUP2 GT ISZERO PUSH2 0x5014 JUMPI PUSH2 0x5013 PUSH2 0x4DFC JUMP JUMPDEST JUMPDEST PUSH2 0x5020 DUP5 DUP3 DUP6 ADD PUSH2 0x4EB4 JUMP JUMPDEST PUSH1 0xA0 DUP4 ADD MSTORE POP PUSH1 0xC0 PUSH2 0x5034 DUP5 DUP3 DUP6 ADD PUSH2 0x36CC JUMP JUMPDEST PUSH1 0xC0 DUP4 ADD MSTORE POP PUSH1 0xE0 PUSH2 0x5048 DUP5 DUP3 DUP6 ADD PUSH2 0x36CC JUMP JUMPDEST PUSH1 0xE0 DUP4 ADD MSTORE POP PUSH2 0x100 DUP3 ADD CALLDATALOAD PUSH8 0xFFFFFFFFFFFFFFFF DUP2 GT ISZERO PUSH2 0x506D JUMPI PUSH2 0x506C PUSH2 0x4DFC JUMP JUMPDEST JUMPDEST PUSH2 0x5079 DUP5 DUP3 DUP6 ADD PUSH2 0x3E73 JUMP JUMPDEST PUSH2 0x100 DUP4 ADD MSTORE POP SWAP3 SWAP2 POP POP JUMP JUMPDEST PUSH1 0x0 PUSH1 0x20 DUP3 DUP5 SUB SLT ISZERO PUSH2 0x509C JUMPI PUSH2 0x509B PUSH2 0x347F JUMP JUMPDEST JUMPDEST PUSH1 0x0 DUP3 ADD CALLDATALOAD PUSH8 0xFFFFFFFFFFFFFFFF DUP2 GT ISZERO PUSH2 0x50BA JUMPI PUSH2 0x50B9 PUSH2 0x3484 JUMP JUMPDEST JUMPDEST PUSH2 0x50C6 DUP5 DUP3 DUP6 ADD PUSH2 0x4EE2 JUMP JUMPDEST SWAP2 POP POP SWAP3 SWAP2 POP POP JUMP JUMPDEST PUSH32 0x4E487B7100000000000000000000000000000000000000000000000000000000 PUSH1 0x0 MSTORE PUSH1 0x32 PUSH1 0x4 MSTORE PUSH1 0x24 PUSH1 0x0 REVERT JUMPDEST PUSH1 0x0 PUSH1 0x40 DUP3 ADD SWAP1 POP PUSH2 0x5113 PUSH1 0x0 DUP4 ADD DUP6 PUSH2 0x368B JUMP JUMPDEST DUP2 DUP2 SUB PUSH1 0x20 DUP4 ADD MSTORE PUSH2 0x5125 DUP2 DUP5 PUSH2 0x359B JUMP JUMPDEST SWAP1 POP SWAP4 SWAP3 POP POP POP JUMP JUMPDEST PUSH1 0x0 PUSH2 0x5139 DUP3 PUSH2 0x4351 JUMP JUMPDEST SWAP1 POP SWAP2 SWAP1 POP JUMP JUMPDEST PUSH2 0x5149 DUP2 PUSH2 0x512E JUMP JUMPDEST DUP3 MSTORE POP POP JUMP JUMPDEST PUSH1 0x0 DUP2 SLOAD PUSH2 0x515C DUP2 PUSH2 0x440E JUMP JUMPDEST PUSH2 0x5166 DUP2 DUP7 PUSH2 0x354F JUMP JUMPDEST SWAP5 POP PUSH1 0x1 DUP3 AND PUSH1 0x0 DUP2 EQ PUSH2 0x5181 JUMPI PUSH1 0x1 DUP2 EQ PUSH2 0x5197 JUMPI PUSH2 0x51CA JUMP JUMPDEST PUSH1 0xFF NOT DUP4 AND DUP7 MSTORE DUP2 ISZERO ISZERO PUSH1 0x20 MUL DUP7 ADD SWAP4 POP PUSH2 0x51CA JUMP JUMPDEST PUSH2 0x51A0 DUP6 PUSH2 0x469A JUMP JUMPDEST PUSH1 0x0 JUMPDEST DUP4 DUP2 LT ISZERO PUSH2 0x51C2 JUMPI DUP2 SLOAD DUP2 DUP10 ADD MSTORE PUSH1 0x1 DUP3 ADD SWAP2 POP PUSH1 0x20 DUP2 ADD SWAP1 POP PUSH2 0x51A3 JUMP JUMPDEST DUP1 DUP9 ADD SWAP6 POP POP POP JUMPDEST POP POP POP SWAP3 SWAP2 POP POP JUMP JUMPDEST PUSH32 0x4E487B7100000000000000000000000000000000000000000000000000000000 PUSH1 0x0 MSTORE PUSH1 0x21 PUSH1 0x4 MSTORE PUSH1 0x24 PUSH1 0x0 REVERT JUMPDEST PUSH1 0x3 DUP2 LT PUSH2 0x5213 JUMPI PUSH2 0x5212 PUSH2 0x51D3 JUMP JUMPDEST JUMPDEST POP JUMP JUMPDEST PUSH1 0x0 DUP2 SWAP1 POP PUSH2 0x5224 DUP3 PUSH2 0x5202 JUMP JUMPDEST SWAP2 SWAP1 POP JUMP JUMPDEST PUSH1 0x0 PUSH2 0x5234 DUP3 PUSH2 0x5216 JUMP JUMPDEST SWAP1 POP SWAP2 SWAP1 POP JUMP JUMPDEST PUSH2 0x5244 DUP2 PUSH2 0x5229 JUMP JUMPDEST DUP3 MSTORE POP POP JUMP JUMPDEST PUSH1 0x0 DUP3 DUP3 MSTORE PUSH1 0x20 DUP3 ADD SWAP1 POP SWAP3 SWAP2 POP POP JUMP JUMPDEST PUSH1 0x0 DUP2 SWAP1 POP SWAP2 SWAP1 POP JUMP JUMPDEST PUSH1 0x0 PUSH2 0x5271 DUP4 DUP6 PUSH2 0x391E JUMP JUMPDEST SWAP4 POP PUSH2 0x527E DUP4 DUP6 DUP5 PUSH2 0x3E22 JUMP JUMPDEST PUSH2 0x5287 DUP4 PUSH2 0x358A JUMP JUMPDEST DUP5 ADD SWAP1 POP SWAP4 SWAP3 POP POP POP JUMP JUMPDEST PUSH1 0x0 PUSH2 0x529F DUP5 DUP5 DUP5 PUSH2 0x5265 JUMP JUMPDEST SWAP1 POP SWAP4 SWAP3 POP POP POP JUMP JUMPDEST PUSH1 0x0 DUP1 REVERT JUMPDEST PUSH1 0x0 DUP1 REVERT JUMPDEST PUSH1 0x0 DUP1 REVERT JUMPDEST PUSH1 0x0 DUP1 DUP4 CALLDATALOAD PUSH1 0x1 PUSH1 0x20 SUB DUP5 CALLDATASIZE SUB SUB DUP2 SLT PUSH2 0x52D4 JUMPI PUSH2 0x52D3 PUSH2 0x52B2 JUMP JUMPDEST JUMPDEST DUP4 DUP2 ADD SWAP3 POP DUP3 CALLDATALOAD SWAP2 POP PUSH1 0x20 DUP4 ADD SWAP3 POP PUSH8 0xFFFFFFFFFFFFFFFF DUP3 GT ISZERO PUSH2 0x52FC JUMPI PUSH2 0x52FB PUSH2 0x52A8 JUMP JUMPDEST JUMPDEST PUSH1 0x1 DUP3 MUL CALLDATASIZE SUB DUP4 SGT ISZERO PUSH2 0x5312 JUMPI PUSH2 0x5311 PUSH2 0x52AD JUMP JUMPDEST JUMPDEST POP SWAP3 POP SWAP3 SWAP1 POP JUMP JUMPDEST PUSH1 0x0 PUSH1 0x20 DUP3 ADD SWAP1 POP SWAP2 SWAP1 POP JUMP JUMPDEST PUSH1 0x0 PUSH2 0x5333 DUP4 DUP6 PUSH2 0x524A JUMP JUMPDEST SWAP4 POP DUP4 PUSH1 0x20 DUP5 MUL DUP6 ADD PUSH2 0x5345 DUP5 PUSH2 0x525B JUMP JUMPDEST DUP1 PUSH1 0x0 JUMPDEST DUP8 DUP2 LT ISZERO PUSH2 0x538B JUMPI DUP5 DUP5 SUB DUP10 MSTORE PUSH2 0x5360 DUP3 DUP5 PUSH2 0x52B7 JUMP JUMPDEST PUSH2 0x536B DUP7 DUP3 DUP5 PUSH2 0x5292 JUMP JUMPDEST SWAP6 POP PUSH2 0x5376 DUP5 PUSH2 0x531A JUMP JUMPDEST SWAP4 POP PUSH1 0x20 DUP12 ADD SWAP11 POP POP POP PUSH1 0x1 DUP2 ADD SWAP1 POP PUSH2 0x5349 JUMP JUMPDEST POP DUP3 SWAP8 POP DUP8 SWAP5 POP POP POP POP POP SWAP4 SWAP3 POP POP POP JUMP JUMPDEST PUSH1 0x0 PUSH2 0x53AC PUSH1 0x20 DUP5 ADD DUP5 PUSH2 0x3C92 JUMP JUMPDEST SWAP1 POP SWAP3 SWAP2 POP POP JUMP JUMPDEST PUSH1 0x0 PUSH1 0x60 DUP4 ADD PUSH2 0x53C7 PUSH1 0x0 DUP5 ADD DUP5 PUSH2 0x52B7 JUMP JUMPDEST DUP6 DUP4 SUB PUSH1 0x0 DUP8 ADD MSTORE PUSH2 0x53DA DUP4 DUP3 DUP5 PUSH2 0x5265 JUMP JUMPDEST SWAP3 POP POP POP PUSH2 0x53EB PUSH1 0x20 DUP5 ADD DUP5 PUSH2 0x539D JUMP JUMPDEST PUSH2 0x53F8 PUSH1 0x20 DUP7 ADD DUP3 PUSH2 0x3972 JUMP JUMPDEST POP PUSH2 0x5406 PUSH1 0x40 DUP5 ADD DUP5 PUSH2 0x52B7 JUMP JUMPDEST DUP6 DUP4 SUB PUSH1 0x40 DUP8 ADD MSTORE PUSH2 0x5419 DUP4 DUP3 DUP5 PUSH2 0x5265 JUMP JUMPDEST SWAP3 POP POP POP DUP1 SWAP2 POP POP SWAP3 SWAP2 POP POP JUMP JUMPDEST PUSH1 0x0 DUP3 SWAP1 POP SWAP3 SWAP2 POP POP JUMP JUMPDEST PUSH1 0x0 DUP2 CALLDATALOAD SWAP1 POP PUSH2 0x5441 DUP2 PUSH2 0x4A29 JUMP JUMPDEST SWAP3 SWAP2 POP POP JUMP JUMPDEST PUSH1 0x0 PUSH2 0x5456 PUSH1 0x20 DUP5 ADD DUP5 PUSH2 0x5432 JUMP JUMPDEST SWAP1 POP SWAP3 SWAP2 POP POP JUMP JUMPDEST PUSH1 0x40 DUP3 ADD PUSH2 0x546F PUSH1 0x0 DUP4 ADD DUP4 PUSH2 0x5447 JUMP JUMPDEST PUSH2 0x547C PUSH1 0x0 DUP6 ADD DUP3 PUSH2 0x39E1 JUMP JUMPDEST POP PUSH2 0x548A PUSH1 0x20 DUP4 ADD DUP4 PUSH2 0x5447 JUMP JUMPDEST PUSH2 0x5497 PUSH1 0x20 DUP6 ADD DUP3 PUSH2 0x39E1 JUMP JUMPDEST POP POP POP POP JUMP JUMPDEST PUSH1 0x0 DUP1 DUP4 CALLDATALOAD PUSH1 0x1 PUSH1 0x20 SUB DUP5 CALLDATASIZE SUB SUB DUP2 SLT PUSH2 0x54BA JUMPI PUSH2 0x54B9 PUSH2 0x52B2 JUMP JUMPDEST JUMPDEST DUP4 DUP2 ADD SWAP3 POP DUP3 CALLDATALOAD SWAP2 POP PUSH1 0x20 DUP4 ADD SWAP3 POP PUSH8 0xFFFFFFFFFFFFFFFF DUP3 GT ISZERO PUSH2 0x54E2 JUMPI PUSH2 0x54E1 PUSH2 0x52A8 JUMP JUMPDEST JUMPDEST PUSH1 0x1 DUP3 MUL CALLDATASIZE SUB DUP4 SGT ISZERO PUSH2 0x54F8 JUMPI PUSH2 0x54F7 PUSH2 0x52AD JUMP JUMPDEST JUMPDEST POP SWAP3 POP SWAP3 SWAP1 POP JUMP JUMPDEST PUSH1 0x0 PUSH2 0x550C DUP4 DUP6 PUSH2 0x3875 JUMP JUMPDEST SWAP4 POP PUSH2 0x5519 DUP4 DUP6 DUP5 PUSH2 0x3E22 JUMP JUMPDEST PUSH2 0x5522 DUP4 PUSH2 0x358A JUMP JUMPDEST DUP5 ADD SWAP1 POP SWAP4 SWAP3 POP POP POP JUMP JUMPDEST PUSH1 0x0 PUSH1 0x60 DUP4 ADD PUSH2 0x5540 PUSH1 0x0 DUP5 ADD DUP5 PUSH2 0x5427 JUMP JUMPDEST PUSH2 0x554D PUSH1 0x0 DUP7 ADD DUP3 PUSH2 0x545E JUMP JUMPDEST POP PUSH2 0x555B PUSH1 0x40 DUP5 ADD DUP5 PUSH2 0x549D JUMP JUMPDEST DUP6 DUP4 SUB PUSH1 0x40 DUP8 ADD MSTORE PUSH2 0x556E DUP4 DUP3 DUP5 PUSH2 0x5500 JUMP JUMPDEST SWAP3 POP POP POP DUP1 SWAP2 POP POP SWAP3 SWAP2 POP POP JUMP JUMPDEST PUSH1 0x0 PUSH1 0xE0 DUP3 ADD SWAP1 POP PUSH2 0x5591 PUSH1 0x0 DUP4 ADD DUP12 PUSH2 0x5140 JUMP JUMPDEST DUP2 DUP2 SUB PUSH1 0x20 DUP4 ADD MSTORE PUSH2 0x55A3 DUP2 DUP11 PUSH2 0x514F JUMP JUMPDEST SWAP1 POP PUSH2 0x55B2 PUSH1 0x40 DUP4 ADD DUP10 PUSH2 0x523B JUMP JUMPDEST PUSH2 0x55BF PUSH1 0x60 DUP4 ADD DUP9 PUSH2 0x351A JUMP JUMPDEST DUP2 DUP2 SUB PUSH1 0x80 DUP4 ADD MSTORE PUSH2 0x55D2 DUP2 DUP7 DUP9 PUSH2 0x5327 JUMP JUMPDEST SWAP1 POP DUP2 DUP2 SUB PUSH1 0xA0 DUP4 ADD MSTORE PUSH2 0x55E6 DUP2 DUP6 PUSH2 0x53B4 JUMP JUMPDEST SWAP1 POP DUP2 DUP2 SUB PUSH1 0xC0 DUP4 ADD MSTORE PUSH2 0x55FA DUP2 DUP5 PUSH2 0x552D JUMP JUMPDEST SWAP1 POP SWAP10 SWAP9 POP POP POP POP POP POP POP POP POP JUMP JUMPDEST PUSH32 0x4E487B7100000000000000000000000000000000000000000000000000000000 PUSH1 0x0 MSTORE PUSH1 0x11 PUSH1 0x4 MSTORE PUSH1 0x24 PUSH1 0x0 REVERT JUMPDEST PUSH1 0x0 PUSH2 0x5643 DUP3 PUSH2 0x35F6 JUMP JUMPDEST SWAP2 POP PUSH32 0xFFFFFFFFFFFFFFFFFFFFFFFFFFFFFFFFFFFFFFFFFFFFFFFFFFFFFFFFFFFFFFFF DUP3 SUB PUSH2 0x5675 JUMPI PUSH2 0x5674 PUSH2 0x5609 JUMP JUMPDEST JUMPDEST PUSH1 0x1 DUP3 ADD SWAP1 POP SWAP2 SWAP1 POP JUMP JUMPDEST PUSH32 0x4368616E6E656C206E6F7420666F756E64000000000000000000000000000000 PUSH1 0x0 DUP3 ADD MSTORE POP JUMP JUMPDEST PUSH1 0x0 PUSH2 0x56B6 PUSH1 0x11 DUP4 PUSH2 0x354F JUMP JUMPDEST SWAP2 POP PUSH2 0x56C1 DUP3 PUSH2 0x5680 JUMP JUMPDEST PUSH1 0x20 DUP3 ADD SWAP1 POP SWAP2 SWAP1 POP JUMP JUMPDEST PUSH1 0x0 PUSH1 0x20 DUP3 ADD SWAP1 POP DUP2 DUP2 SUB PUSH1 0x0 DUP4 ADD MSTORE PUSH2 0x56E5 DUP2 PUSH2 0x56A9 JUMP JUMPDEST SWAP1 POP SWAP2 SWAP1 POP JUMP JUMPDEST PUSH32 0x4552433732313A20696E76616C696420746F6B656E2049440000000000000000 PUSH1 0x0 DUP3 ADD MSTORE POP JUMP JUMPDEST PUSH1 0x0 PUSH2 0x5722 PUSH1 0x18 DUP4 PUSH2 0x354F JUMP JUMPDEST SWAP2 POP PUSH2 0x572D DUP3 PUSH2 0x56EC JUMP JUMPDEST PUSH1 0x20 DUP3 ADD SWAP1 POP SWAP2 SWAP1 POP JUMP JUMPDEST PUSH1 0x0 PUSH1 0x20 DUP3 ADD SWAP1 POP DUP2 DUP2 SUB PUSH1 0x0 DUP4 ADD MSTORE PUSH2 0x5751 DUP2 PUSH2 0x5715 JUMP JUMPDEST SWAP1 POP SWAP2 SWAP1 POP JUMP JUMPDEST PUSH32 0x4552433732313A2061646472657373207A65726F206973206E6F742061207661 PUSH1 0x0 DUP3 ADD MSTORE PUSH32 0x6C6964206F776E65720000000000000000000000000000000000000000000000 PUSH1 0x20 DUP3 ADD MSTORE POP JUMP JUMPDEST PUSH1 0x0 PUSH2 0x57B4 PUSH1 0x29 DUP4 PUSH2 0x354F JUMP JUMPDEST SWAP2 POP PUSH2 0x57BF DUP3 PUSH2 0x5758 JUMP JUMPDEST PUSH1 0x40 DUP3 ADD SWAP1 POP SWAP2 SWAP1 POP JUMP JUMPDEST PUSH1 0x0 PUSH1 0x20 DUP3 ADD SWAP1 POP DUP2 DUP2 SUB PUSH1 0x0 DUP4 ADD MSTORE PUSH2 0x57E3 DUP2 PUSH2 0x57A7 JUMP JUMPDEST SWAP1 POP SWAP2 SWAP1 POP JUMP JUMPDEST PUSH32 0x596F7520617265206E6F7420746865206F776E6572206F66207468697320746F PUSH1 0x0 DUP3 ADD MSTORE PUSH32 0x6B656E0000000000000000000000000000000000000000000000000000000000 PUSH1 0x20 DUP3 ADD MSTORE POP JUMP JUMPDEST PUSH1 0x0 PUSH2 0x5846 PUSH1 0x23 DUP4 PUSH2 0x354F JUMP JUMPDEST SWAP2 POP PUSH2 0x5851 DUP3 PUSH2 0x57EA JUMP JUMPDEST PUSH1 0x40 DUP3 ADD SWAP1 POP SWAP2 SWAP1 POP JUMP JUMPDEST PUSH1 0x0 PUSH1 0x20 DUP3 ADD SWAP1 POP DUP2 DUP2 SUB PUSH1 0x0 DUP4 ADD MSTORE PUSH2 0x5875 DUP2 PUSH2 0x5839 JUMP JUMPDEST SWAP1 POP SWAP2 SWAP1 POP JUMP JUMPDEST PUSH1 0x0 DUP2 CALLDATALOAD PUSH2 0x5889 DUP2 PUSH2 0x3AEC JUMP JUMPDEST DUP1 SWAP2 POP POP SWAP2 SWAP1 POP JUMP JUMPDEST PUSH1 0x0 PUSH1 0xFF PUSH2 0x589F DUP5 PUSH2 0x4932 JUMP JUMPDEST SWAP4 POP DUP1 NOT DUP4 AND SWAP3 POP DUP1 DUP5 AND DUP4 OR SWAP2 POP POP SWAP3 SWAP2 POP POP JUMP JUMPDEST PUSH1 0x0 PUSH2 0x58C0 DUP3 PUSH2 0x350E JUMP JUMPDEST SWAP1 POP SWAP2 SWAP1 POP JUMP JUMPDEST PUSH1 0x0 DUP2 SWAP1 POP SWAP2 SWAP1 POP JUMP JUMPDEST PUSH2 0x58DA DUP3 PUSH2 0x58B5 JUMP JUMPDEST PUSH2 0x58ED PUSH2 0x58E6 DUP3 PUSH2 0x58C7 JUMP JUMPDEST DUP4 SLOAD PUSH2 0x5892 JUMP JUMPDEST DUP3 SSTORE POP POP POP JUMP JUMPDEST PUSH1 0x0 DUP2 ADD PUSH1 0x0 DUP4 ADD DUP1 PUSH2 0x5906 DUP2 PUSH2 0x587C JUMP JUMPDEST SWAP1 POP PUSH2 0x5912 DUP2 DUP5 PUSH2 0x58D1 JUMP JUMPDEST POP POP POP PUSH1 0x1 DUP2 ADD PUSH1 0x20 DUP4 ADD PUSH2 0x5927 DUP2 DUP6 PUSH2 0x4ACF JUMP JUMPDEST PUSH2 0x5932 DUP2 DUP4 DUP7 PUSH2 0x4C68 JUMP JUMPDEST POP POP POP POP POP POP JUMP JUMPDEST PUSH2 0x5944 DUP3 DUP3 PUSH2 0x58F4 JUMP JUMPDEST POP POP JUMP JUMPDEST PUSH32 0x4552433732314D657461646174613A2055524920717565727920666F72206E6F PUSH1 0x0 DUP3 ADD MSTORE PUSH32 0x6E6578697374656E7420746F6B656E0000000000000000000000000000000000 PUSH1 0x20 DUP3 ADD MSTORE POP JUMP JUMPDEST PUSH1 0x0 PUSH2 0x59A4 PUSH1 0x2F DUP4 PUSH2 0x354F JUMP JUMPDEST SWAP2 POP PUSH2 0x59AF DUP3 PUSH2 0x5948 JUMP JUMPDEST PUSH1 0x40 DUP3 ADD SWAP1 POP SWAP2 SWAP1 POP JUMP JUMPDEST PUSH1 0x0 PUSH1 0x20 DUP3 ADD SWAP1 POP DUP2 DUP2 SUB PUSH1 0x0 DUP4 ADD MSTORE PUSH2 0x59D3 DUP2 PUSH2 0x5997 JUMP JUMPDEST SWAP1 POP SWAP2 SWAP1 POP JUMP JUMPDEST PUSH1 0x0 DUP2 SWAP1 POP SWAP3 SWAP2 POP POP JUMP JUMPDEST PUSH1 0x0 DUP2 SLOAD PUSH2 0x59F2 DUP2 PUSH2 0x440E JUMP JUMPDEST PUSH2 0x59FC DUP2 DUP7 PUSH2 0x59DA JUMP JUMPDEST SWAP5 POP PUSH1 0x1 DUP3 AND PUSH1 0x0 DUP2 EQ PUSH2 0x5A17 JUMPI PUSH1 0x1 DUP2 EQ PUSH2 0x5A2C JUMPI PUSH2 0x5A5F JUMP JUMPDEST PUSH1 0xFF NOT DUP4 AND DUP7 MSTORE DUP2 ISZERO ISZERO DUP3 MUL DUP7 ADD SWAP4 POP PUSH2 0x5A5F JUMP JUMPDEST PUSH2 0x5A35 DUP6 PUSH2 0x469A JUMP JUMPDEST PUSH1 0x0 JUMPDEST DUP4 DUP2 LT ISZERO PUSH2 0x5A57 JUMPI DUP2 SLOAD DUP2 DUP10 ADD MSTORE PUSH1 0x1 DUP3 ADD SWAP2 POP PUSH1 0x20 DUP2 ADD SWAP1 POP PUSH2 0x5A38 JUMP JUMPDEST DUP4 DUP9 ADD SWAP6 POP POP POP JUMPDEST POP POP POP SWAP3 SWAP2 POP POP JUMP JUMPDEST PUSH1 0x0 PUSH2 0x5A74 DUP3 DUP5 PUSH2 0x59E5 JUMP JUMPDEST SWAP2 POP DUP2 SWAP1 POP SWAP3 SWAP2 POP POP JUMP JUMPDEST PUSH1 0x0 PUSH2 0x5A8B DUP4 DUP6 PUSH2 0x59DA JUMP JUMPDEST SWAP4 POP PUSH2 0x5A98 DUP4 DUP6 DUP5 PUSH2 0x3E22 JUMP JUMPDEST DUP3 DUP5 ADD SWAP1 POP SWAP4 SWAP3 POP POP POP JUMP JUMPDEST PUSH1 0x0 PUSH2 0x5AB1 DUP3 DUP5 DUP7 PUSH2 0x5A7F JUMP JUMPDEST SWAP2 POP DUP2 SWAP1 POP SWAP4 SWAP3 POP POP POP JUMP JUMPDEST PUSH32 0x556E737570706F727465642076657273696F6E00000000000000000000000000 PUSH1 0x0 DUP3 ADD MSTORE POP JUMP JUMPDEST PUSH1 0x0 PUSH2 0x5AF3 PUSH1 0x13 DUP4 PUSH2 0x354F JUMP JUMPDEST SWAP2 POP PUSH2 0x5AFE DUP3 PUSH2 0x5ABD JUMP JUMPDEST PUSH1 0x20 DUP3 ADD SWAP1 POP SWAP2 SWAP1 POP JUMP JUMPDEST PUSH1 0x0 PUSH1 0x20 DUP3 ADD SWAP1 POP DUP2 DUP2 SUB PUSH1 0x0 DUP4 ADD MSTORE PUSH2 0x5B22 DUP2 PUSH2 0x5AE6 JUMP JUMPDEST SWAP1 POP SWAP2 SWAP1 POP JUMP JUMPDEST POP JUMP JUMPDEST PUSH1 0x0 PUSH2 0x5B39 PUSH1 0x0 DUP4 PUSH2 0x59DA JUMP JUMPDEST SWAP2 POP PUSH2 0x5B44 DUP3 PUSH2 0x5B29 JUMP JUMPDEST PUSH1 0x0 DUP3 ADD SWAP1 POP SWAP2 SWAP1 POP JUMP JUMPDEST PUSH1 0x0 PUSH2 0x5B5A DUP3 PUSH2 0x5B2C JUMP JUMPDEST SWAP2 POP DUP2 SWAP1 POP SWAP2 SWAP1 POP JUMP JUMPDEST PUSH1 0x0 PUSH2 0x5B6F DUP3 PUSH2 0x3544 JUMP JUMPDEST PUSH2 0x5B79 DUP2 DUP6 PUSH2 0x59DA JUMP JUMPDEST SWAP4 POP PUSH2 0x5B89 DUP2 DUP6 PUSH1 0x20 DUP7 ADD PUSH2 0x3560 JUMP JUMPDEST DUP1 DUP5 ADD SWAP2 POP POP SWAP3 SWAP2 POP POP JUMP JUMPDEST PUSH1 0x0 PUSH2 0x5BA1 DUP3 DUP5 PUSH2 0x5B64 JUMP JUMPDEST SWAP2 POP DUP2 SWAP1 POP SWAP3 SWAP2 POP POP JUMP JUMPDEST PUSH32 0x4F776E61626C653A206E6577206F776E657220697320746865207A65726F2061 PUSH1 0x0 DUP3 ADD MSTORE PUSH32 0x6464726573730000000000000000000000000000000000000000000000000000 PUSH1 0x20 DUP3 ADD MSTORE POP JUMP JUMPDEST PUSH1 0x0 PUSH2 0x5C08 PUSH1 0x26 DUP4 PUSH2 0x354F JUMP JUMPDEST SWAP2 POP PUSH2 0x5C13 DUP3 PUSH2 0x5BAC JUMP JUMPDEST PUSH1 0x40 DUP3 ADD SWAP1 POP SWAP2 SWAP1 POP JUMP JUMPDEST PUSH1 0x0 PUSH1 0x20 DUP3 ADD SWAP1 POP DUP2 DUP2 SUB PUSH1 0x0 DUP4 ADD MSTORE PUSH2 0x5C37 DUP2 PUSH2 0x5BFB JUMP JUMPDEST SWAP1 POP SWAP2 SWAP1 POP JUMP JUMPDEST PUSH32 0x4552433732313A207472616E736665722066726F6D20696E636F727265637420 PUSH1 0x0 DUP3 ADD MSTORE PUSH32 0x6F776E6572000000000000000000000000000000000000000000000000000000 PUSH1 0x20 DUP3 ADD MSTORE POP JUMP JUMPDEST PUSH1 0x0 PUSH2 0x5C9A PUSH1 0x25 DUP4 PUSH2 0x354F JUMP JUMPDEST SWAP2 POP PUSH2 0x5CA5 DUP3 PUSH2 0x5C3E JUMP JUMPDEST PUSH1 0x40 DUP3 ADD SWAP1 POP SWAP2 SWAP1 POP JUMP JUMPDEST PUSH1 0x0 PUSH1 0x20 DUP3 ADD SWAP1 POP DUP2 DUP2 SUB PUSH1 0x0 DUP4 ADD MSTORE PUSH2 0x5CC9 DUP2 PUSH2 0x5C8D JUMP JUMPDEST SWAP1 POP SWAP2 SWAP1 POP JUMP JUMPDEST PUSH32 0x4552433732313A207472616E7366657220746F20746865207A65726F20616464 PUSH1 0x0 DUP3 ADD MSTORE PUSH32 0x7265737300000000000000000000000000000000000000000000000000000000 PUSH1 0x20 DUP3 ADD MSTORE POP JUMP JUMPDEST PUSH1 0x0 PUSH2 0x5D2C PUSH1 0x24 DUP4 PUSH2 0x354F JUMP JUMPDEST SWAP2 POP PUSH2 0x5D37 DUP3 PUSH2 0x5CD0 JUMP JUMPDEST PUSH1 0x40 DUP3 ADD SWAP1 POP SWAP2 SWAP1 POP JUMP JUMPDEST PUSH1 0x0 PUSH1 0x20 DUP3 ADD SWAP1 POP DUP2 DUP2 SUB PUSH1 0x0 DUP4 ADD MSTORE PUSH2 0x5D5B DUP2 PUSH2 0x5D1F JUMP JUMPDEST SWAP1 POP SWAP2 SWAP1 POP JUMP JUMPDEST PUSH1 0x0 PUSH2 0x5D6D DUP3 PUSH2 0x35F6 JUMP JUMPDEST SWAP2 POP PUSH2 0x5D78 DUP4 PUSH2 0x35F6 JUMP JUMPDEST SWAP3 POP DUP3 DUP3 SUB SWAP1 POP DUP2 DUP2 GT ISZERO PUSH2 0x5D90 JUMPI PUSH2 0x5D8F PUSH2 0x5609 JUMP JUMPDEST JUMPDEST SWAP3 SWAP2 POP POP JUMP JUMPDEST PUSH1 0x0 PUSH2 0x5DA1 DUP3 PUSH2 0x35F6 JUMP JUMPDEST SWAP2 POP PUSH2 0x5DAC DUP4 PUSH2 0x35F6 JUMP JUMPDEST SWAP3 POP DUP3 DUP3 MUL PUSH2 0x5DBA DUP2 PUSH2 0x35F6 JUMP JUMPDEST SWAP2 POP DUP3 DUP3 DIV DUP5 EQ DUP4 ISZERO OR PUSH2 0x5DD1 JUMPI PUSH2 0x5DD0 PUSH2 0x5609 JUMP JUMPDEST JUMPDEST POP SWAP3 SWAP2 POP POP JUMP JUMPDEST PUSH1 0x0 PUSH2 0x5DE3 DUP3 PUSH2 0x35F6 JUMP JUMPDEST SWAP2 POP PUSH2 0x5DEE DUP4 PUSH2 0x35F6 JUMP JUMPDEST SWAP3 POP DUP3 DUP3 ADD SWAP1 POP DUP1 DUP3 GT ISZERO PUSH2 0x5E06 JUMPI PUSH2 0x5E05 PUSH2 0x5609 JUMP JUMPDEST JUMPDEST SWAP3 SWAP2 POP POP JUMP JUMPDEST PUSH32 0x537472696E6720636F6E7461696E73206E6F6E2D6E756D657269632063686172 PUSH1 0x0 DUP3 ADD MSTORE PUSH32 0x6163746572730000000000000000000000000000000000000000000000000000 PUSH1 0x20 DUP3 ADD MSTORE POP JUMP JUMPDEST PUSH1 0x0 PUSH2 0x5E68 PUSH1 0x26 DUP4 PUSH2 0x354F JUMP JUMPDEST SWAP2 POP PUSH2 0x5E73 DUP3 PUSH2 0x5E0C JUMP JUMPDEST PUSH1 0x40 DUP3 ADD SWAP1 POP SWAP2 SWAP1 POP JUMP JUMPDEST PUSH1 0x0 PUSH1 0x20 DUP3 ADD SWAP1 POP DUP2 DUP2 SUB PUSH1 0x0 DUP4 ADD MSTORE PUSH2 0x5E97 DUP2 PUSH2 0x5E5B JUMP JUMPDEST SWAP1 POP SWAP2 SWAP1 POP JUMP JUMPDEST PUSH32 0x4F776E61626C653A2063616C6C6572206973206E6F7420746865206F776E6572 PUSH1 0x0 DUP3 ADD MSTORE POP JUMP JUMPDEST PUSH1 0x0 PUSH2 0x5ED4 PUSH1 0x20 DUP4 PUSH2 0x354F JUMP JUMPDEST SWAP2 POP PUSH2 0x5EDF DUP3 PUSH2 0x5E9E JUMP JUMPDEST PUSH1 0x20 DUP3 ADD SWAP1 POP SWAP2 SWAP1 POP JUMP JUMPDEST PUSH1 0x0 PUSH1 0x20 DUP3 ADD SWAP1 POP DUP2 DUP2 SUB PUSH1 0x0 DUP4 ADD MSTORE PUSH2 0x5F03 DUP2 PUSH2 0x5EC7 JUMP JUMPDEST SWAP1 POP SWAP2 SWAP1 POP JUMP JUMPDEST PUSH32 0x5468697320746F6B656E206973206E6F74206C6F636B65640000000000000000 PUSH1 0x0 DUP3 ADD MSTORE POP JUMP JUMPDEST PUSH1 0x0 PUSH2 0x5F40 PUSH1 0x18 DUP4 PUSH2 0x354F JUMP JUMPDEST SWAP2 POP PUSH2 0x5F4B DUP3 PUSH2 0x5F0A JUMP JUMPDEST PUSH1 0x20 DUP3 ADD SWAP1 POP SWAP2 SWAP1 POP JUMP JUMPDEST PUSH1 0x0 PUSH1 0x20 DUP3 ADD SWAP1 POP DUP2 DUP2 SUB PUSH1 0x0 DUP4 ADD MSTORE PUSH2 0x5F6F DUP2 PUSH2 0x5F33 JUMP JUMPDEST SWAP1 POP SWAP2 SWAP1 POP JUMP JUMPDEST PUSH1 0x0 DUP2 MLOAD SWAP1 POP SWAP2 SWAP1 POP JUMP JUMPDEST PUSH1 0x0 DUP3 DUP3 MSTORE PUSH1 0x20 DUP3 ADD SWAP1 POP SWAP3 SWAP2 POP POP JUMP JUMPDEST PUSH1 0x0 DUP2 SWAP1 POP PUSH1 0x20 DUP3 ADD SWAP1 POP SWAP2 SWAP1 POP JUMP JUMPDEST PUSH1 0x0 PUSH2 0x5FAE DUP4 DUP4 PUSH2 0x392F JUMP JUMPDEST SWAP1 POP SWAP3 SWAP2 POP POP JUMP JUMPDEST PUSH1 0x0 PUSH1 0x20 DUP3 ADD SWAP1 POP SWAP2 SWAP1 POP JUMP JUMPDEST PUSH1 0x0 PUSH2 0x5FCE DUP3 PUSH2 0x5F76 JUMP JUMPDEST PUSH2 0x5FD8 DUP2 DUP6 PUSH2 0x5F81 JUMP JUMPDEST SWAP4 POP DUP4 PUSH1 0x20 DUP3 MUL DUP6 ADD PUSH2 0x5FEA DUP6 PUSH2 0x5F92 JUMP JUMPDEST DUP1 PUSH1 0x0 JUMPDEST DUP6 DUP2 LT ISZERO PUSH2 0x6026 JUMPI DUP5 DUP5 SUB DUP10 MSTORE DUP2 MLOAD PUSH2 0x6007 DUP6 DUP3 PUSH2 0x5FA2 JUMP JUMPDEST SWAP5 POP PUSH2 0x6012 DUP4 PUSH2 0x5FB6 JUMP JUMPDEST SWAP3 POP PUSH1 0x20 DUP11 ADD SWAP10 POP POP PUSH1 0x1 DUP2 ADD SWAP1 POP PUSH2 0x5FEE JUMP JUMPDEST POP DUP3 SWAP8 POP DUP8 SWAP6 POP POP POP POP POP POP SWAP3 SWAP2 POP POP JUMP JUMPDEST PUSH2 0x6041 DUP2 PUSH2 0x3679 JUMP JUMPDEST DUP3 MSTORE POP POP JUMP JUMPDEST PUSH1 0x0 PUSH2 0x120 DUP4 ADD PUSH1 0x0 DUP4 ADD MLOAD DUP5 DUP3 SUB PUSH1 0x0 DUP7 ADD MSTORE PUSH2 0x6065 DUP3 DUP3 PUSH2 0x392F JUMP JUMPDEST SWAP2 POP POP PUSH1 0x20 DUP4 ADD MLOAD DUP5 DUP3 SUB PUSH1 0x20 DUP7 ADD MSTORE PUSH2 0x607F DUP3 DUP3 PUSH2 0x392F JUMP JUMPDEST SWAP2 POP POP PUSH1 0x40 DUP4 ADD MLOAD DUP5 DUP3 SUB PUSH1 0x40 DUP7 ADD MSTORE PUSH2 0x6099 DUP3 DUP3 PUSH2 0x392F JUMP JUMPDEST SWAP2 POP POP PUSH1 0x60 DUP4 ADD MLOAD DUP5 DUP3 SUB PUSH1 0x60 DUP7 ADD MSTORE PUSH2 0x60B3 DUP3 DUP3 PUSH2 0x5FC3 JUMP JUMPDEST SWAP2 POP POP PUSH1 0x80 DUP4 ADD MLOAD DUP5 DUP3 SUB PUSH1 0x80 DUP7 ADD MSTORE PUSH2 0x60CD DUP3 DUP3 PUSH2 0x5FC3 JUMP JUMPDEST SWAP2 POP POP PUSH1 0xA0 DUP4 ADD MLOAD DUP5 DUP3 SUB PUSH1 0xA0 DUP7 ADD MSTORE PUSH2 0x60E7 DUP3 DUP3 PUSH2 0x5FC3 JUMP JUMPDEST SWAP2 POP POP PUSH1 0xC0 DUP4 ADD MLOAD PUSH2 0x60FC PUSH1 0xC0 DUP7 ADD DUP3 PUSH2 0x6038 JUMP JUMPDEST POP PUSH1 0xE0 DUP4 ADD MLOAD PUSH2 0x610F PUSH1 0xE0 DUP7 ADD DUP3 PUSH2 0x6038 JUMP JUMPDEST POP PUSH2 0x100 DUP4 ADD MLOAD DUP5 DUP3 SUB PUSH2 0x100 DUP7 ADD MSTORE PUSH2 0x6129 DUP3 DUP3 PUSH2 0x392F JUMP JUMPDEST SWAP2 POP POP DUP1 SWAP2 POP POP SWAP3 SWAP2 POP POP JUMP JUMPDEST PUSH1 0x0 PUSH1 0x20 DUP3 ADD SWAP1 POP DUP2 DUP2 SUB PUSH1 0x0 DUP4 ADD MSTORE PUSH2 0x6150 DUP2 DUP5 PUSH2 0x6047 JUMP JUMPDEST SWAP1 POP SWAP3 SWAP2 POP POP JUMP JUMPDEST PUSH1 0x0 PUSH1 0x60 DUP3 DUP5 SUB SLT ISZERO PUSH2 0x616E JUMPI PUSH2 0x616D PUSH2 0x4DF7 JUMP JUMPDEST JUMPDEST PUSH2 0x6178 PUSH1 0x60 PUSH2 0x3DD6 JUMP JUMPDEST SWAP1 POP PUSH1 0x0 PUSH2 0x6188 DUP5 DUP3 DUP6 ADD PUSH2 0x3617 JUMP JUMPDEST PUSH1 0x0 DUP4 ADD MSTORE POP PUSH1 0x20 PUSH2 0x619C DUP5 DUP3 DUP6 ADD PUSH2 0x3617 JUMP JUMPDEST PUSH1 0x20 DUP4 ADD MSTORE POP PUSH1 0x40 PUSH2 0x61B0 DUP5 DUP3 DUP6 ADD PUSH2 0x3617 JUMP JUMPDEST PUSH1 0x40 DUP4 ADD MSTORE POP SWAP3 SWAP2 POP POP JUMP JUMPDEST PUSH1 0x0 PUSH1 0x60 DUP3 DUP5 SUB SLT ISZERO PUSH2 0x61D2 JUMPI PUSH2 0x61D1 PUSH2 0x347F JUMP JUMPDEST JUMPDEST PUSH1 0x0 PUSH2 0x61E0 DUP5 DUP3 DUP6 ADD PUSH2 0x6158 JUMP JUMPDEST SWAP2 POP POP SWAP3 SWAP2 POP POP JUMP JUMPDEST PUSH1 0x0 PUSH2 0x61F8 PUSH1 0x20 DUP5 ADD DUP5 PUSH2 0x3617 JUMP JUMPDEST SWAP1 POP SWAP3 SWAP2 POP POP JUMP JUMPDEST PUSH2 0x6209 DUP2 PUSH2 0x35F6 JUMP JUMPDEST DUP3 MSTORE POP POP JUMP JUMPDEST PUSH1 0x60 DUP3 ADD PUSH2 0x6220 PUSH1 0x0 DUP4 ADD DUP4 PUSH2 0x61E9 JUMP JUMPDEST PUSH2 0x622D PUSH1 0x0 DUP6 ADD DUP3 PUSH2 0x6200 JUMP JUMPDEST POP PUSH2 0x623B PUSH1 0x20 DUP4 ADD DUP4 PUSH2 0x61E9 JUMP JUMPDEST PUSH2 0x6248 PUSH1 0x20 DUP6 ADD DUP3 PUSH2 0x6200 JUMP JUMPDEST POP PUSH2 0x6256 PUSH1 0x40 DUP4 ADD DUP4 PUSH2 0x61E9 JUMP JUMPDEST PUSH2 0x6263 PUSH1 0x40 DUP6 ADD DUP3 PUSH2 0x6200 JUMP JUMPDEST POP POP POP POP JUMP JUMPDEST PUSH1 0x0 PUSH1 0xC0 DUP3 ADD SWAP1 POP PUSH2 0x627E PUSH1 0x0 DUP4 ADD DUP8 PUSH2 0x41B2 JUMP JUMPDEST DUP2 DUP2 SUB PUSH1 0x20 DUP4 ADD MSTORE PUSH2 0x6290 DUP2 DUP7 PUSH2 0x3790 JUMP JUMPDEST SWAP1 POP PUSH2 0x629F PUSH1 0x40 DUP4 ADD DUP6 PUSH2 0x39D2 JUMP JUMPDEST PUSH2 0x62AC PUSH1 0x60 DUP4 ADD DUP5 PUSH2 0x620F JUMP JUMPDEST SWAP6 SWAP5 POP POP POP POP POP JUMP JUMPDEST PUSH1 0x0 PUSH2 0x62C0 DUP3 PUSH2 0x35F6 JUMP JUMPDEST SWAP2 POP PUSH1 0x0 DUP3 SUB PUSH2 0x62D3 JUMPI PUSH2 0x62D2 PUSH2 0x5609 JUMP JUMPDEST JUMPDEST PUSH1 0x1 DUP3 SUB SWAP1 POP SWAP2 SWAP1 POP JUMP JUMPDEST PUSH32 0x537472696E67733A20686578206C656E67746820696E73756666696369656E74 PUSH1 0x0 DUP3 ADD MSTORE POP JUMP JUMPDEST PUSH1 0x0 PUSH2 0x6314 PUSH1 0x20 DUP4 PUSH2 0x354F JUMP JUMPDEST SWAP2 POP PUSH2 0x631F DUP3 PUSH2 0x62DE JUMP JUMPDEST PUSH1 0x20 DUP3 ADD SWAP1 POP SWAP2 SWAP1 POP JUMP JUMPDEST PUSH1 0x0 PUSH1 0x20 DUP3 ADD SWAP1 POP DUP2 DUP2 SUB PUSH1 0x0 DUP4 ADD MSTORE PUSH2 0x6343 DUP2 PUSH2 0x6307 JUMP JUMPDEST SWAP1 POP SWAP2 SWAP1 POP JUMP JUMPDEST PUSH32 0x4552433732313A20617070726F766520746F2063616C6C657200000000000000 PUSH1 0x0 DUP3 ADD MSTORE POP JUMP JUMPDEST PUSH1 0x0 PUSH2 0x6380 PUSH1 0x19 DUP4 PUSH2 0x354F JUMP JUMPDEST SWAP2 POP PUSH2 0x638B DUP3 PUSH2 0x634A JUMP JUMPDEST PUSH1 0x20 DUP3 ADD SWAP1 POP SWAP2 SWAP1 POP JUMP JUMPDEST PUSH1 0x0 PUSH1 0x20 DUP3 ADD SWAP1 POP DUP2 DUP2 SUB PUSH1 0x0 DUP4 ADD MSTORE PUSH2 0x63AF DUP2 PUSH2 0x6373 JUMP JUMPDEST SWAP1 POP SWAP2 SWAP1 POP JUMP JUMPDEST PUSH32 0x4552433732313A207472616E7366657220746F206E6F6E204552433732315265 PUSH1 0x0 DUP3 ADD MSTORE PUSH32 0x63656976657220696D706C656D656E7465720000000000000000000000000000 PUSH1 0x20 DUP3 ADD MSTORE POP JUMP JUMPDEST PUSH1 0x0 PUSH2 0x6412 PUSH1 0x32 DUP4 PUSH2 0x354F JUMP JUMPDEST SWAP2 POP PUSH2 0x641D DUP3 PUSH2 0x63B6 JUMP JUMPDEST PUSH1 0x40 DUP3 ADD SWAP1 POP SWAP2 SWAP1 POP JUMP JUMPDEST PUSH1 0x0 PUSH1 0x20 DUP3 ADD SWAP1 POP DUP2 DUP2 SUB PUSH1 0x0 DUP4 ADD MSTORE PUSH2 0x6441 DUP2 PUSH2 0x6405 JUMP JUMPDEST SWAP1 POP SWAP2 SWAP1 POP JUMP JUMPDEST PUSH32 0x4E487B7100000000000000000000000000000000000000000000000000000000 PUSH1 0x0 MSTORE PUSH1 0x12 PUSH1 0x4 MSTORE PUSH1 0x24 PUSH1 0x0 REVERT JUMPDEST PUSH1 0x0 PUSH1 0x80 DUP3 ADD SWAP1 POP PUSH2 0x648C PUSH1 0x0 DUP4 ADD DUP8 PUSH2 0x368B JUMP JUMPDEST PUSH2 0x6499 PUSH1 0x20 DUP4 ADD DUP7 PUSH2 0x368B JUMP JUMPDEST PUSH2 0x64A6 PUSH1 0x40 DUP4 ADD DUP6 PUSH2 0x3AC2 JUMP JUMPDEST DUP2 DUP2 SUB PUSH1 0x60 DUP4 ADD MSTORE PUSH2 0x64B8 DUP2 DUP5 PUSH2 0x3790 JUMP JUMPDEST SWAP1 POP SWAP6 SWAP5 POP POP POP POP POP JUMP JUMPDEST PUSH1 0x0 DUP2 MLOAD SWAP1 POP PUSH2 0x64D2 DUP2 PUSH2 0x34B5 JUMP JUMPDEST SWAP3 SWAP2 POP POP JUMP JUMPDEST PUSH1 0x0 PUSH1 0x20 DUP3 DUP5 SUB SLT ISZERO PUSH2 0x64EE JUMPI PUSH2 0x64ED PUSH2 0x347F JUMP JUMPDEST JUMPDEST PUSH1 0x0 PUSH2 0x64FC DUP5 DUP3 DUP6 ADD PUSH2 0x64C3 JUMP JUMPDEST SWAP2 POP POP SWAP3 SWAP2 POP POP JUMP JUMPDEST PUSH32 0x4552433732313A206D696E7420746F20746865207A65726F2061646472657373 PUSH1 0x0 DUP3 ADD MSTORE POP JUMP JUMPDEST PUSH1 0x0 PUSH2 0x653B PUSH1 0x20 DUP4 PUSH2 0x354F JUMP JUMPDEST SWAP2 POP PUSH2 0x6546 DUP3 PUSH2 0x6505 JUMP JUMPDEST PUSH1 0x20 DUP3 ADD SWAP1 POP SWAP2 SWAP1 POP JUMP JUMPDEST PUSH1 0x0 PUSH1 0x20 DUP3 ADD SWAP1 POP DUP2 DUP2 SUB PUSH1 0x0 DUP4 ADD MSTORE PUSH2 0x656A DUP2 PUSH2 0x652E JUMP JUMPDEST SWAP1 POP SWAP2 SWAP1 POP JUMP JUMPDEST PUSH32 0x4552433732313A20746F6B656E20616C7265616479206D696E74656400000000 PUSH1 0x0 DUP3 ADD MSTORE POP JUMP JUMPDEST PUSH1 0x0 PUSH2 0x65A7 PUSH1 0x1C DUP4 PUSH2 0x354F JUMP JUMPDEST SWAP2 POP PUSH2 0x65B2 DUP3 PUSH2 0x6571 JUMP JUMPDEST PUSH1 0x20 DUP3 ADD SWAP1 POP SWAP2 SWAP1 POP JUMP JUMPDEST PUSH1 0x0 PUSH1 0x20 DUP3 ADD SWAP1 POP DUP2 DUP2 SUB PUSH1 0x0 DUP4 ADD MSTORE PUSH2 0x65D6 DUP2 PUSH2 0x659A JUMP JUMPDEST SWAP1 POP SWAP2 SWAP1 POP JUMP INVALID PUSH9 0x747470733A2F2F7261 PUSH24 0x2E67697468756275736572636F6E74656E742E636F6D2F62 PUSH3 0x656872 PUSH14 0x616E31302F73616D706C654E4654 0x4D PUSH6 0x746144617461 0x2F PUSH14 0x61696E2F6D657461646174612E6A PUSH20 0x6F6EA26469706673582212206B4CA68610488434 ADDRESS DUP5 0xB9 PUSH27 0x4F806D71FB438EF0A5335FB0262D34E7A5B7C0A664736F6C634300 ADDMOD EQ STOP CALLER "},"methodIdentifiers":{"ackPackets(uint256)":"4252ae9b","approve(address,uint256)":"095ea7b3","balanceOf(address)":"70a08231","connectedChannels(uint256)":"bb3f9f8d","createChannel(bool,string[],(string,bytes32,string),((uint64,uint64),bytes))":"59565fdb","getApproved(uint256)":"081812fc","getClassId(uint256)":"8a8e1730","initiateNFTTransfer(uint256,address,string,(uint256,uint256,uint256))":"7476c43a","isApprovedForAll(address,address)":"e985e9c5","mintNFT(address)":"54ba0f27","name()":"06fdde03","onAcknowledgementPacket(((string,bytes32),(string,bytes32),uint64,bytes,(uint64,uint64),uint64),(bool,bytes))":"7e1d42b5","onCloseIbcChannel(bytes32,string,bytes32)":"5fe39e0d","onConnectIbcChannel(bytes32,bytes32,string)":"a6c50b4d","onOpenIbcChannel(string,uint8,bool,string[],string,bytes32,string)":"d39b59c8","onRecvPacket(((string,bytes32),(string,bytes32),uint64,bytes,(uint64,uint64),uint64))":"4dcc0aa6","onTimeoutPacket(((string,bytes32),(string,bytes32),uint64,bytes,(uint64,uint64),uint64))":"602f9834","owner()":"8da5cb5b","ownerOf(uint256)":"6352211e","recvedPackets(uint256)":"f12b758a","renounceOwnership()":"715018a6","safeTransferFrom(address,address,uint256)":"42842e0e","safeTransferFrom(address,address,uint256,bytes)":"b88d4fde","setApprovalForAll(address,bool)":"a22cb465","supportedVersions(uint256)":"7d622184","supportsInterface(bytes4)":"01ffc9a7","symbol()":"95d89b41","timeoutPackets(uint256)":"4eeb7391","tokenURI(uint256)":"c87b56dd","transferFrom(address,address,uint256)":"23b872dd","transferOwnership(address)":"f2fde38b","vibcDispatcher()":"da96e10c"}}}}}