{"contracts/bidrectionalNFT_A.sol":{"bidirectionalNFT_A":{"abi":[{"inputs":[{"internalType":"string","name":"_name","type":"string"},{"internalType":"string","name":"_symbol","type":"string"}],"stateMutability":"nonpayable","type":"constructor"},{"inputs":[],"name":"invalidCounterPartyPortId","type":"error"},{"anonymous":false,"inputs":[{"indexed":true,"internalType":"address","name":"owner","type":"address"},{"indexed":true,"internalType":"address","name":"approved","type":"address"},{"indexed":true,"internalType":"uint256","name":"tokenId","type":"uint256"}],"name":"Approval","type":"event"},{"anonymous":false,"inputs":[{"indexed":true,"internalType":"address","name":"owner","type":"address"},{"indexed":true,"internalType":"address","name":"operator","type":"address"},{"indexed":false,"internalType":"bool","name":"approved","type":"bool"}],"name":"ApprovalForAll","type":"event"},{"anonymous":false,"inputs":[{"indexed":true,"internalType":"address","name":"owner","type":"address"},{"indexed":true,"internalType":"uint256","name":"tokenId","type":"uint256"}],"name":"NFTLocked","type":"event"},{"anonymous":false,"inputs":[{"indexed":true,"internalType":"address","name":"owner","type":"address"},{"indexed":true,"internalType":"uint256","name":"tokenId","type":"uint256"},{"indexed":false,"internalType":"address","name":"destinationAddress","type":"address"}],"name":"NFTTransferred","type":"event"},{"anonymous":false,"inputs":[{"indexed":true,"internalType":"address","name":"owner","type":"address"},{"indexed":true,"internalType":"uint256","name":"tokenId","type":"uint256"}],"name":"NFTUnlocked","type":"event"},{"anonymous":false,"inputs":[{"indexed":true,"internalType":"address","name":"previousOwner","type":"address"},{"indexed":true,"internalType":"address","name":"newOwner","type":"address"}],"name":"OwnershipTransferred","type":"event"},{"anonymous":false,"inputs":[{"indexed":true,"internalType":"address","name":"from","type":"address"},{"indexed":true,"internalType":"address","name":"to","type":"address"},{"indexed":true,"internalType":"uint256","name":"tokenId","type":"uint256"}],"name":"Transfer","type":"event"},{"inputs":[{"internalType":"uint256","name":"","type":"uint256"}],"name":"ackPackets","outputs":[{"internalType":"bool","name":"success","type":"bool"},{"internalType":"bytes","name":"data","type":"bytes"}],"stateMutability":"view","type":"function"},{"inputs":[{"internalType":"address","name":"to","type":"address"},{"internalType":"uint256","name":"tokenId","type":"uint256"}],"name":"approve","outputs":[],"stateMutability":"nonpayable","type":"function"},{"inputs":[{"internalType":"address","name":"owner","type":"address"}],"name":"balanceOf","outputs":[{"internalType":"uint256","name":"","type":"uint256"}],"stateMutability":"view","type":"function"},{"inputs":[{"internalType":"uint256","name":"","type":"uint256"}],"name":"connectedChannels","outputs":[{"internalType":"bytes32","name":"","type":"bytes32"}],"stateMutability":"view","type":"function"},{"inputs":[{"internalType":"bool","name":"feeEnabled","type":"bool"},{"internalType":"string[]","name":"connectionHops","type":"string[]"},{"components":[{"internalType":"string","name":"portId","type":"string"},{"internalType":"bytes32","name":"channelId","type":"bytes32"},{"internalType":"string","name":"version","type":"string"}],"internalType":"struct CounterParty","name":"counterparty","type":"tuple"},{"components":[{"components":[{"internalType":"uint64","name":"revision_number","type":"uint64"},{"internalType":"uint64","name":"revision_height","type":"uint64"}],"internalType":"struct Height","name":"proofHeight","type":"tuple"},{"internalType":"bytes","name":"proof","type":"bytes"}],"internalType":"struct Proof","name":"proof","type":"tuple"}],"name":"createChannel","outputs":[],"stateMutability":"nonpayable","type":"function"},{"inputs":[{"internalType":"uint256","name":"tokenId","type":"uint256"}],"name":"getApproved","outputs":[{"internalType":"address","name":"","type":"address"}],"stateMutability":"view","type":"function"},{"inputs":[{"internalType":"uint256","name":"tokenId","type":"uint256"},{"internalType":"address","name":"destinationAddress","type":"address"},{"internalType":"string","name":"memo","type":"string"},{"components":[{"internalType":"uint256","name":"recvFee","type":"uint256"},{"internalType":"uint256","name":"ackFee","type":"uint256"},{"internalType":"uint256","name":"timeoutFee","type":"uint256"}],"internalType":"struct PacketFee","name":"fee","type":"tuple"}],"name":"initiateNFTTransfer","outputs":[],"stateMutability":"nonpayable","type":"function"},{"inputs":[{"internalType":"address","name":"owner","type":"address"},{"internalType":"address","name":"operator","type":"address"}],"name":"isApprovedForAll","outputs":[{"internalType":"bool","name":"","type":"bool"}],"stateMutability":"view","type":"function"},{"inputs":[{"internalType":"address","name":"recipient","type":"address"}],"name":"mintNFT","outputs":[{"internalType":"uint256","name":"","type":"uint256"}],"stateMutability":"nonpayable","type":"function"},{"inputs":[],"name":"name","outputs":[{"internalType":"string","name":"","type":"string"}],"stateMutability":"view","type":"function"},{"inputs":[{"components":[{"components":[{"internalType":"string","name":"portId","type":"string"},{"internalType":"bytes32","name":"channelId","type":"bytes32"}],"internalType":"struct IbcEndpoint","name":"src","type":"tuple"},{"components":[{"internalType":"string","name":"portId","type":"string"},{"internalType":"bytes32","name":"channelId","type":"bytes32"}],"internalType":"struct IbcEndpoint","name":"dest","type":"tuple"},{"internalType":"uint64","name":"sequence","type":"uint64"},{"internalType":"bytes","name":"data","type":"bytes"},{"components":[{"internalType":"uint64","name":"revision_number","type":"uint64"},{"internalType":"uint64","name":"revision_height","type":"uint64"}],"internalType":"struct Height","name":"timeoutHeight","type":"tuple"},{"internalType":"uint64","name":"timeoutTimestamp","type":"uint64"}],"internalType":"struct IbcPacket","name":"packet","type":"tuple"},{"components":[{"internalType":"bool","name":"success","type":"bool"},{"internalType":"bytes","name":"data","type":"bytes"}],"internalType":"struct AckPacket","name":"ack","type":"tuple"}],"name":"onAcknowledgementPacket","outputs":[],"stateMutability":"nonpayable","type":"function"},{"inputs":[{"internalType":"bytes32","name":"channelId","type":"bytes32"},{"internalType":"string","name":"counterpartyPortId","type":"string"},{"internalType":"bytes32","name":"counterpartyChannelId","type":"bytes32"}],"name":"onCloseIbcChannel","outputs":[],"stateMutability":"nonpayable","type":"function"},{"inputs":[{"internalType":"bytes32","name":"channelId","type":"bytes32"},{"internalType":"bytes32","name":"counterpartyChannelId","type":"bytes32"},{"internalType":"string","name":"counterpartyVersion","type":"string"}],"name":"onConnectIbcChannel","outputs":[],"stateMutability":"nonpayable","type":"function"},{"inputs":[{"internalType":"string","name":"version","type":"string"},{"internalType":"enum ChannelOrder","name":"ordering","type":"uint8"},{"internalType":"bool","name":"feeEnabled","type":"bool"},{"internalType":"string[]","name":"connectionHops","type":"string[]"},{"internalType":"string","name":"counterpartyPortId","type":"string"},{"internalType":"bytes32","name":"counterpartyChannelId","type":"bytes32"},{"internalType":"string","name":"counterpartyVersion","type":"string"}],"name":"onOpenIbcChannel","outputs":[{"internalType":"string","name":"selectedVersion","type":"string"}],"stateMutability":"nonpayable","type":"function"},{"inputs":[{"components":[{"components":[{"internalType":"string","name":"portId","type":"string"},{"internalType":"bytes32","name":"channelId","type":"bytes32"}],"internalType":"struct IbcEndpoint","name":"src","type":"tuple"},{"components":[{"internalType":"string","name":"portId","type":"string"},{"internalType":"bytes32","name":"channelId","type":"bytes32"}],"internalType":"struct IbcEndpoint","name":"dest","type":"tuple"},{"internalType":"uint64","name":"sequence","type":"uint64"},{"internalType":"bytes","name":"data","type":"bytes"},{"components":[{"internalType":"uint64","name":"revision_number","type":"uint64"},{"internalType":"uint64","name":"revision_height","type":"uint64"}],"internalType":"struct Height","name":"timeoutHeight","type":"tuple"},{"internalType":"uint64","name":"timeoutTimestamp","type":"uint64"}],"internalType":"struct IbcPacket","name":"packet","type":"tuple"}],"name":"onRecvPacket","outputs":[{"components":[{"internalType":"bool","name":"success","type":"bool"},{"internalType":"bytes","name":"data","type":"bytes"}],"internalType":"struct AckPacket","name":"ackPacket","type":"tuple"}],"stateMutability":"nonpayable","type":"function"},{"inputs":[{"components":[{"components":[{"internalType":"string","name":"portId","type":"string"},{"internalType":"bytes32","name":"channelId","type":"bytes32"}],"internalType":"struct IbcEndpoint","name":"src","type":"tuple"},{"components":[{"internalType":"string","name":"portId","type":"string"},{"internalType":"bytes32","name":"channelId","type":"bytes32"}],"internalType":"struct IbcEndpoint","name":"dest","type":"tuple"},{"internalType":"uint64","name":"sequence","type":"uint64"},{"internalType":"bytes","name":"data","type":"bytes"},{"components":[{"internalType":"uint64","name":"revision_number","type":"uint64"},{"internalType":"uint64","name":"revision_height","type":"uint64"}],"internalType":"struct Height","name":"timeoutHeight","type":"tuple"},{"internalType":"uint64","name":"timeoutTimestamp","type":"uint64"}],"internalType":"struct IbcPacket","name":"packet","type":"tuple"}],"name":"onTimeoutPacket","outputs":[],"stateMutability":"nonpayable","type":"function"},{"inputs":[],"name":"owner","outputs":[{"internalType":"address","name":"","type":"address"}],"stateMutability":"view","type":"function"},{"inputs":[{"internalType":"uint256","name":"tokenId","type":"uint256"}],"name":"ownerOf","outputs":[{"internalType":"address","name":"","type":"address"}],"stateMutability":"view","type":"function"},{"inputs":[{"internalType":"uint256","name":"","type":"uint256"}],"name":"recvedPackets","outputs":[{"components":[{"internalType":"string","name":"portId","type":"string"},{"internalType":"bytes32","name":"channelId","type":"bytes32"}],"internalType":"struct IbcEndpoint","name":"src","type":"tuple"},{"components":[{"internalType":"string","name":"portId","type":"string"},{"internalType":"bytes32","name":"channelId","type":"bytes32"}],"internalType":"struct IbcEndpoint","name":"dest","type":"tuple"},{"internalType":"uint64","name":"sequence","type":"uint64"},{"internalType":"bytes","name":"data","type":"bytes"},{"components":[{"internalType":"uint64","name":"revision_number","type":"uint64"},{"internalType":"uint64","name":"revision_height","type":"uint64"}],"internalType":"struct Height","name":"timeoutHeight","type":"tuple"},{"internalType":"uint64","name":"timeoutTimestamp","type":"uint64"}],"stateMutability":"view","type":"function"},{"inputs":[],"name":"renounceOwnership","outputs":[],"stateMutability":"nonpayable","type":"function"},{"inputs":[{"internalType":"address","name":"from","type":"address"},{"internalType":"address","name":"to","type":"address"},{"internalType":"uint256","name":"tokenId","type":"uint256"}],"name":"safeTransferFrom","outputs":[],"stateMutability":"nonpayable","type":"function"},{"inputs":[{"internalType":"address","name":"from","type":"address"},{"internalType":"address","name":"to","type":"address"},{"internalType":"uint256","name":"tokenId","type":"uint256"},{"internalType":"bytes","name":"data","type":"bytes"}],"name":"safeTransferFrom","outputs":[],"stateMutability":"nonpayable","type":"function"},{"inputs":[{"internalType":"address","name":"operator","type":"address"},{"internalType":"bool","name":"approved","type":"bool"}],"name":"setApprovalForAll","outputs":[],"stateMutability":"nonpayable","type":"function"},{"inputs":[{"internalType":"uint256","name":"","type":"uint256"}],"name":"supportedVersions","outputs":[{"internalType":"string","name":"","type":"string"}],"stateMutability":"view","type":"function"},{"inputs":[{"internalType":"bytes4","name":"interfaceId","type":"bytes4"}],"name":"supportsInterface","outputs":[{"internalType":"bool","name":"","type":"bool"}],"stateMutability":"view","type":"function"},{"inputs":[],"name":"symbol","outputs":[{"internalType":"string","name":"","type":"string"}],"stateMutability":"view","type":"function"},{"inputs":[{"internalType":"uint256","name":"","type":"uint256"}],"name":"timeoutPackets","outputs":[{"components":[{"internalType":"string","name":"portId","type":"string"},{"internalType":"bytes32","name":"channelId","type":"bytes32"}],"internalType":"struct IbcEndpoint","name":"src","type":"tuple"},{"components":[{"internalType":"string","name":"portId","type":"string"},{"internalType":"bytes32","name":"channelId","type":"bytes32"}],"internalType":"struct IbcEndpoint","name":"dest","type":"tuple"},{"internalType":"uint64","name":"sequence","type":"uint64"},{"internalType":"bytes","name":"data","type":"bytes"},{"components":[{"internalType":"uint64","name":"revision_number","type":"uint64"},{"internalType":"uint64","name":"revision_height","type":"uint64"}],"internalType":"struct Height","name":"timeoutHeight","type":"tuple"},{"internalType":"uint64","name":"timeoutTimestamp","type":"uint64"}],"stateMutability":"view","type":"function"},{"inputs":[{"internalType":"uint256","name":"tokenId","type":"uint256"}],"name":"tokenURI","outputs":[{"internalType":"string","name":"","type":"string"}],"stateMutability":"view","type":"function"},{"inputs":[{"internalType":"address","name":"from","type":"address"},{"internalType":"address","name":"to","type":"address"},{"internalType":"uint256","name":"tokenId","type":"uint256"}],"name":"transferFrom","outputs":[],"stateMutability":"nonpayable","type":"function"},{"inputs":[{"internalType":"address","name":"newOwner","type":"address"}],"name":"transferOwnership","outputs":[],"stateMutability":"nonpayable","type":"function"},{"inputs":[],"name":"vibcDispatcher","outputs":[{"internalType":"contract IbcDispatcher","name":"","type":"address"}],"stateMutability":"view","type":"function"}],"evm":{"bytecode":{"linkReferences":{},"object":"60806040523480156200001157600080fd5b50604051620076ee380380620076ee833981810160405281019062000037919062000969565b8181620000596200004d6200009960201b60201c565b620000a160201b60201c565b81600190816200006a919062000c39565b5080600290816200007c919062000c39565b50505062000090336200016560201b60201c565b505050620010b5565b600033905090565b60008060009054906101000a900473ffffffffffffffffffffffffffffffffffffffff169050816000806101000a81548173ffffffffffffffffffffffffffffffffffffffff021916908373ffffffffffffffffffffffffffffffffffffffff1602179055508173ffffffffffffffffffffffffffffffffffffffff168173ffffffffffffffffffffffffffffffffffffffff167f8be0079c531659141344cd1fd0a4f28419497f9722a3daafe3b4186f6b6457e060405160405180910390a35050565b600062000177620001c560201b60201c565b6200018960076200025660201b60201c565b620001ac82620001a060076200026c60201b60201c565b6200027a60201b60201c565b620001be60076200026c60201b60201c565b9050919050565b620001d56200009960201b60201c565b73ffffffffffffffffffffffffffffffffffffffff16620001fb620002a060201b60201c565b73ffffffffffffffffffffffffffffffffffffffff161462000254576040517f08c379a00000000000000000000000000000000000000000000000000000000081526004016200024b9062000d81565b60405180910390fd5b565b6001816000016000828254019250508190555050565b600081600001549050919050565b6200029c828260405180602001604052806000815250620002c960201b60201c565b5050565b60008060009054906101000a900473ffffffffffffffffffffffffffffffffffffffff16905090565b620002db83836200033760201b60201c565b620002f060008484846200057d60201b60201c565b62000332576040517f08c379a0000000000000000000000000000000000000000000000000000000008152600401620003299062000e19565b60405180910390fd5b505050565b600073ffffffffffffffffffffffffffffffffffffffff168273ffffffffffffffffffffffffffffffffffffffff1603620003a9576040517f08c379a0000000000000000000000000000000000000000000000000000000008152600401620003a09062000e8b565b60405180910390fd5b620003ba816200072160201b60201c565b15620003fd576040517f08c379a0000000000000000000000000000000000000000000000000000000008152600401620003f49062000efd565b60405180910390fd5b620004136000838360016200076a60201b60201c565b62000424816200072160201b60201c565b1562000467576040517f08c379a00000000000000000000000000000000000000000000000000000000081526004016200045e9062000efd565b60405180910390fd5b6001600460008473ffffffffffffffffffffffffffffffffffffffff1673ffffffffffffffffffffffffffffffffffffffff16815260200190815260200160002060008282540192505081905550816003600083815260200190815260200160002060006101000a81548173ffffffffffffffffffffffffffffffffffffffff021916908373ffffffffffffffffffffffffffffffffffffffff160217905550808273ffffffffffffffffffffffffffffffffffffffff16600073ffffffffffffffffffffffffffffffffffffffff167fddf252ad1be2c89b69c2b068fc378daa952ba7f163c4a11628f55a4df523b3ef60405160405180910390a4620005796000838360016200077060201b60201c565b5050565b6000620005a68473ffffffffffffffffffffffffffffffffffffffff166200077660201b60201c565b1562000714578373ffffffffffffffffffffffffffffffffffffffff1663150b7a02620005d86200009960201b60201c565b8786866040518563ffffffff1660e01b8152600401620005fc949392919062000fd2565b6020604051808303816000875af19250505080156200063b57506040513d601f19601f8201168201806040525081019062000638919062001083565b60015b620006c3573d80600081146200066e576040519150601f19603f3d011682016040523d82523d6000602084013e62000673565b606091505b506000815103620006bb576040517f08c379a0000000000000000000000000000000000000000000000000000000008152600401620006b29062000e19565b60405180910390fd5b805181602001fd5b63150b7a0260e01b7bffffffffffffffffffffffffffffffffffffffffffffffffffffffff1916817bffffffffffffffffffffffffffffffffffffffffffffffffffffffff19161491505062000719565b600190505b949350505050565b60008073ffffffffffffffffffffffffffffffffffffffff166200074b836200079960201b60201c565b73ffffffffffffffffffffffffffffffffffffffff1614159050919050565b50505050565b50505050565b6000808273ffffffffffffffffffffffffffffffffffffffff163b119050919050565b60006003600083815260200190815260200160002060009054906101000a900473ffffffffffffffffffffffffffffffffffffffff169050919050565b6000604051905090565b600080fd5b600080fd5b600080fd5b600080fd5b6000601f19601f8301169050919050565b7f4e487b7100000000000000000000000000000000000000000000000000000000600052604160045260246000fd5b6200083f82620007f4565b810181811067ffffffffffffffff8211171562000861576200086062000805565b5b80604052505050565b600062000876620007d6565b905062000884828262000834565b919050565b600067ffffffffffffffff821115620008a757620008a662000805565b5b620008b282620007f4565b9050602081019050919050565b60005b83811015620008df578082015181840152602081019050620008c2565b60008484015250505050565b600062000902620008fc8462000889565b6200086a565b905082815260208101848484011115620009215762000920620007ef565b5b6200092e848285620008bf565b509392505050565b600082601f8301126200094e576200094d620007ea565b5b815162000960848260208601620008eb565b91505092915050565b60008060408385031215620009835762000982620007e0565b5b600083015167ffffffffffffffff811115620009a457620009a3620007e5565b5b620009b28582860162000936565b925050602083015167ffffffffffffffff811115620009d657620009d5620007e5565b5b620009e48582860162000936565b9150509250929050565b600081519050919050565b7f4e487b7100000000000000000000000000000000000000000000000000000000600052602260045260246000fd5b6000600282049050600182168062000a4157607f821691505b60208210810362000a575762000a56620009f9565b5b50919050565b60008190508160005260206000209050919050565b60006020601f8301049050919050565b600082821b905092915050565b60006008830262000ac17fffffffffffffffffffffffffffffffffffffffffffffffffffffffffffffffff8262000a82565b62000acd868362000a82565b95508019841693508086168417925050509392505050565b6000819050919050565b6000819050919050565b600062000b1a62000b1462000b0e8462000ae5565b62000aef565b62000ae5565b9050919050565b6000819050919050565b62000b368362000af9565b62000b4e62000b458262000b21565b84845462000a8f565b825550505050565b600090565b62000b6562000b56565b62000b7281848462000b2b565b505050565b5b8181101562000b9a5762000b8e60008262000b5b565b60018101905062000b78565b5050565b601f82111562000be95762000bb38162000a5d565b62000bbe8462000a72565b8101602085101562000bce578190505b62000be662000bdd8562000a72565b83018262000b77565b50505b505050565b600082821c905092915050565b600062000c0e6000198460080262000bee565b1980831691505092915050565b600062000c29838362000bfb565b9150826002028217905092915050565b62000c4482620009ee565b67ffffffffffffffff81111562000c605762000c5f62000805565b5b62000c6c825462000a28565b62000c7982828562000b9e565b600060209050601f83116001811462000cb1576000841562000c9c578287015190505b62000ca8858262000c1b565b86555062000d18565b601f19841662000cc18662000a5d565b60005b8281101562000ceb5784890151825560018201915060208501945060208101905062000cc4565b8683101562000d0b578489015162000d07601f89168262000bfb565b8355505b6001600288020188555050505b505050505050565b600082825260208201905092915050565b7f4f776e61626c653a2063616c6c6572206973206e6f7420746865206f776e6572600082015250565b600062000d6960208362000d20565b915062000d768262000d31565b602082019050919050565b6000602082019050818103600083015262000d9c8162000d5a565b9050919050565b7f4552433732313a207472616e7366657220746f206e6f6e20455243373231526560008201527f63656976657220696d706c656d656e7465720000000000000000000000000000602082015250565b600062000e0160328362000d20565b915062000e0e8262000da3565b604082019050919050565b6000602082019050818103600083015262000e348162000df2565b9050919050565b7f4552433732313a206d696e7420746f20746865207a65726f2061646472657373600082015250565b600062000e7360208362000d20565b915062000e808262000e3b565b602082019050919050565b6000602082019050818103600083015262000ea68162000e64565b9050919050565b7f4552433732313a20746f6b656e20616c7265616479206d696e74656400000000600082015250565b600062000ee5601c8362000d20565b915062000ef28262000ead565b602082019050919050565b6000602082019050818103600083015262000f188162000ed6565b9050919050565b600073ffffffffffffffffffffffffffffffffffffffff82169050919050565b600062000f4c8262000f1f565b9050919050565b62000f5e8162000f3f565b82525050565b62000f6f8162000ae5565b82525050565b600081519050919050565b600082825260208201905092915050565b600062000f9e8262000f75565b62000faa818562000f80565b935062000fbc818560208601620008bf565b62000fc781620007f4565b840191505092915050565b600060808201905062000fe9600083018762000f53565b62000ff8602083018662000f53565b62001007604083018562000f64565b81810360608301526200101b818462000f91565b905095945050505050565b60007fffffffff0000000000000000000000000000000000000000000000000000000082169050919050565b6200105d8162001026565b81146200106957600080fd5b50565b6000815190506200107d8162001052565b92915050565b6000602082840312156200109c576200109b620007e0565b5b6000620010ac848285016200106c565b91505092915050565b61662980620010c56000396000f3fe608060405234801561001057600080fd5b50600436106101e55760003560e01c8063715018a61161010f578063b88d4fde116100a2578063da96e10c11610071578063da96e10c146105c8578063e985e9c5146105e6578063f12b758a14610616578063f2fde38b1461064b576101e5565b8063b88d4fde1461051c578063bb3f9f8d14610538578063c87b56dd14610568578063d39b59c814610598576101e5565b80638da5cb5b116100de5780638da5cb5b146104a857806395d89b41146104c6578063a22cb465146104e4578063a6c50b4d14610500576101e5565b8063715018a6146104365780637476c43a146104405780637d6221841461045c5780637e1d42b51461048c576101e5565b80634dcc0aa6116101875780635fe39e0d116101565780635fe39e0d1461039e578063602f9834146103ba5780636352211e146103d657806370a0823114610406576101e5565b80634dcc0aa6146102ed5780634eeb73911461031d57806354ba0f271461035257806359565fdb14610382576101e5565b8063095ea7b3116101c3578063095ea7b31461026857806323b872dd146102845780634252ae9b146102a057806342842e0e146102d1576101e5565b806301ffc9a7146101ea57806306fdde031461021a578063081812fc14610238575b600080fd5b61020460048036038101906101ff91906134a6565b610667565b60405161021191906134ee565b60405180910390f35b610222610749565b60405161022f9190613599565b60405180910390f35b610252600480360381019061024d91906135f1565b6107db565b60405161025f919061365f565b60405180910390f35b610282600480360381019061027d91906136a6565b610821565b005b61029e600480360381019061029991906136e6565b610938565b005b6102ba60048036038101906102b591906135f1565b610998565b6040516102c892919061378e565b60405180910390f35b6102eb60048036038101906102e691906136e6565b610a61565b005b610307600480360381019061030291906137e2565b610a81565b60405161031491906138c1565b60405180910390f35b610337600480360381019061033291906135f1565b610bbe565b604051610349969594939291906139e4565b60405180910390f35b61036c60048036038101906103679190613a5a565b610e74565b6040516103799190613a96565b60405180910390f35b61039c60048036038101906103979190613b80565b610eac565b005b6103b860048036038101906103b39190613cc2565b610f6d565b005b6103d460048036038101906103cf91906137e2565b611029565b005b6103f060048036038101906103eb91906135f1565b611066565b6040516103fd919061365f565b60405180910390f35b610420600480360381019061041b9190613a5a565b6110ec565b60405161042d9190613a96565b60405180910390f35b61043e6111a3565b005b61045a60048036038101906104559190613e85565b6111b7565b005b610476600480360381019061047191906135f1565b611298565b6040516104839190613599565b60405180910390f35b6104a660048036038101906104a19190613f27565b611344565b005b6104b0611382565b6040516104bd919061365f565b60405180910390f35b6104ce6113ab565b6040516104db9190613599565b60405180910390f35b6104fe60048036038101906104f99190613f9f565b61143d565b005b61051a60048036038101906105159190613fdf565b611453565b005b610536600480360381019061053191906140f4565b611563565b005b610552600480360381019061054d91906135f1565b6115c5565b60405161055f9190614186565b60405180910390f35b610582600480360381019061057d91906135f1565b6115e9565b60405161058f9190613599565b60405180910390f35b6105b260048036038101906105ad91906141c6565b611653565b6040516105bf9190613599565b60405180910390f35b6105d0611823565b6040516105dd9190614349565b60405180910390f35b61060060048036038101906105fb9190614364565b611849565b60405161060d91906134ee565b60405180910390f35b610630600480360381019061062b91906135f1565b6118dd565b604051610642969594939291906139e4565b60405180910390f35b61066560048036038101906106609190613a5a565b611b93565b005b60007f80ac58cd000000000000000000000000000000000000000000000000000000007bffffffffffffffffffffffffffffffffffffffffffffffffffffffff1916827bffffffffffffffffffffffffffffffffffffffffffffffffffffffff1916148061073257507f5b5e139f000000000000000000000000000000000000000000000000000000007bffffffffffffffffffffffffffffffffffffffffffffffffffffffff1916827bffffffffffffffffffffffffffffffffffffffffffffffffffffffff1916145b80610742575061074182611c16565b5b9050919050565b606060018054610758906143d3565b80601f0160208091040260200160405190810160405280929190818152602001828054610784906143d3565b80156107d15780601f106107a6576101008083540402835291602001916107d1565b820191906000526020600020905b8154815290600101906020018083116107b457829003601f168201915b5050505050905090565b60006107e682611c80565b6005600083815260200190815260200160002060009054906101000a900473ffffffffffffffffffffffffffffffffffffffff169050919050565b600061082c82611066565b90508073ffffffffffffffffffffffffffffffffffffffff168373ffffffffffffffffffffffffffffffffffffffff160361089c576040517f08c379a000000000000000000000000000000000000000000000000000000000815260040161089390614476565b60405180910390fd5b8073ffffffffffffffffffffffffffffffffffffffff166108bb611ccb565b73ffffffffffffffffffffffffffffffffffffffff1614806108ea57506108e9816108e4611ccb565b611849565b5b610929576040517f08c379a000000000000000000000000000000000000000000000000000000000815260040161092090614508565b60405180910390fd5b6109338383611cd3565b505050565b610949610943611ccb565b82611d8c565b610988576040517f08c379a000000000000000000000000000000000000000000000000000000000815260040161097f9061459a565b60405180910390fd5b610993838383611e21565b505050565b600981815481106109a857600080fd5b90600052602060002090600202016000915090508060000160009054906101000a900460ff16908060010180546109de906143d3565b80601f0160208091040260200160405190810160405280929190818152602001828054610a0a906143d3565b8015610a575780601f10610a2c57610100808354040283529160200191610a57565b820191906000526020600020905b815481529060010190602001808311610a3a57829003601f168201915b5050505050905082565b610a7c83838360405180602001604052806000815250611563565b505050565b610a8961341e565b600b8290806001815401808255809150506001900390600052602060002090600802016000909190919091508181610ac19190614dae565b50506000828060600190610ad59190614a94565b810190610ae2919061504b565b90506000610b0e8260600151600081518110610b0157610b00615094565b5b602002602001015161211a565b90506008600082815260200190815260200160002060009054906101000a900460ff1615610b4457610b3f81612274565b610b53565b610b518260e00151610e74565b505b60008260e001518360600151600081518110610b7257610b71615094565b5b6020026020010151604051602001610b8b9291906150c3565b60405160208183030381529060405290506040518060400160405280600115158152602001828152509350505050919050565b600a8181548110610bce57600080fd5b906000526020600020906008020160009150905080600001604051806040016040529081600082018054610c01906143d3565b80601f0160208091040260200160405190810160405280929190818152602001828054610c2d906143d3565b8015610c7a5780601f10610c4f57610100808354040283529160200191610c7a565b820191906000526020600020905b815481529060010190602001808311610c5d57829003601f168201915b505050505081526020016001820154815250509080600201604051806040016040529081600082018054610cad906143d3565b80601f0160208091040260200160405190810160405280929190818152602001828054610cd9906143d3565b8015610d265780601f10610cfb57610100808354040283529160200191610d26565b820191906000526020600020905b815481529060010190602001808311610d0957829003601f168201915b50505050508152602001600182015481525050908060040160009054906101000a900467ffffffffffffffff1690806005018054610d63906143d3565b80601f0160208091040260200160405190810160405280929190818152602001828054610d8f906143d3565b8015610ddc5780601f10610db157610100808354040283529160200191610ddc565b820191906000526020600020905b815481529060010190602001808311610dbf57829003601f168201915b505050505090806006016040518060400160405290816000820160009054906101000a900467ffffffffffffffff1667ffffffffffffffff1667ffffffffffffffff1681526020016000820160089054906101000a900467ffffffffffffffff1667ffffffffffffffff1667ffffffffffffffff1681525050908060070160009054906101000a900467ffffffffffffffff16905086565b6000610e7e6122ef565b610e88600761236d565b610e9b82610e966007612383565b612391565b610ea56007612383565b9050919050565b600e60009054906101000a900473ffffffffffffffffffffffffffffffffffffffff1673ffffffffffffffffffffffffffffffffffffffff16637e9077b030600d600081548110610f0057610eff615094565b5b90600052602060002001600189898989896040518963ffffffff1660e01b8152600401610f34989796959493929190615541565b600060405180830381600087803b158015610f4e57600080fd5b505af1158015610f62573d6000803e3d6000fd5b505050505050505050565b6000805b600c80549050811015610fe15785600c8281548110610f9357610f92615094565b5b906000526020600020015403610fce57600c8181548110610fb757610fb6615094565b5b906000526020600020016000905560019150610fe1565b8080610fd9906155fd565b915050610f71565b5080611022576040517f08c379a000000000000000000000000000000000000000000000000000000000815260040161101990615691565b60405180910390fd5b5050505050565b600a81908060018154018082558091505060019003906000526020600020906008020160009091909190915081816110619190614dae565b505050565b600080611072836123af565b9050600073ffffffffffffffffffffffffffffffffffffffff168173ffffffffffffffffffffffffffffffffffffffff16036110e3576040517f08c379a00000000000000000000000000000000000000000000000000000000081526004016110da906156fd565b60405180910390fd5b80915050919050565b60008073ffffffffffffffffffffffffffffffffffffffff168273ffffffffffffffffffffffffffffffffffffffff160361115c576040517f08c379a00000000000000000000000000000000000000000000000000000000081526004016111539061578f565b60405180910390fd5b600460008373ffffffffffffffffffffffffffffffffffffffff1673ffffffffffffffffffffffffffffffffffffffff168152602001908152602001600020549050919050565b6111ab6122ef565b6111b560006123ec565b565b3373ffffffffffffffffffffffffffffffffffffffff166111d785611066565b73ffffffffffffffffffffffffffffffffffffffff161461122d576040517f08c379a000000000000000000000000000000000000000000000000000000000815260040161122490615821565b60405180910390fd5b611236846124b0565b611243843385858561252b565b833373ffffffffffffffffffffffffffffffffffffffff167fb7076e58f35e6669b2f089716c3fe1955d72ff0150ad8a5f90475c77fa43bf998560405161128a919061365f565b60405180910390a350505050565b600d81815481106112a857600080fd5b9060005260206000200160009150905080546112c3906143d3565b80601f01602080910402602001604051908101604052809291908181526020018280546112ef906143d3565b801561133c5780601f106113115761010080835404028352916020019161133c565b820191906000526020600020905b81548152906001019060200180831161131f57829003601f168201915b505050505081565b6009819080600181540180825580915050600190039060005260206000209060020201600090919091909150818161137c91906158ff565b50505050565b60008060009054906101000a900473ffffffffffffffffffffffffffffffffffffffff16905090565b6060600280546113ba906143d3565b80601f01602080910402602001604051908101604052809291908181526020018280546113e6906143d3565b80156114335780601f1061140857610100808354040283529160200191611433565b820191906000526020600020905b81548152906001019060200180831161141657829003601f168201915b5050505050905090565b61144f611448611ccb565b83836128ec565b5050565b6000805b600d805490508110156114f257600d818154811061147857611477615094565b5b90600052602060002001604051602001611492919061599b565b6040516020818303038152906040528051906020012084846040516020016114bb9291906159d7565b60405160208183030381529060405280519060200120036114df57600191506114f2565b80806114ea906155fd565b915050611457565b5080611533576040517f08c379a000000000000000000000000000000000000000000000000000000000815260040161152a90615a3c565b60405180910390fd5b600c8590806001815401808255809150506001900390600052602060002001600090919091909150555050505050565b61157461156e611ccb565b83611d8c565b6115b3576040517f08c379a00000000000000000000000000000000000000000000000000000000081526004016115aa9061459a565b60405180910390fd5b6115bf84848484612a58565b50505050565b600c81815481106115d557600080fd5b906000526020600020016000915090505481565b60606115f482612ab4565b611633576040517f08c379a000000000000000000000000000000000000000000000000000000000815260040161162a90615ace565b60405180910390fd5b6040518060800160405280605181526020016165a3605191399050919050565b606060088686905011611692576040517f41cd6a4700000000000000000000000000000000000000000000000000000000815260040160405180910390fd5b60006040516020016116a390615b14565b604051602081830303815290604052805190602001208d8d6040516020016116cc9291906159d7565b60405160208183030381529060405280519060200120146116ee578c8c6116f1565b83835b8080601f016020809104026020016040519081016040528093929190818152602001838380828437600081840152601f19601f82011690508083019250505050505050915060005b600d805490508110156117d257600d818154811061175a57611759615094565b5b90600052602060002001604051602001611774919061599b565b604051602081830303815290604052805190602001208360405160200161179b9190615b5a565b60405160208183030381529060405280519060200120036117bf57600191506117d2565b80806117ca906155fd565b915050611739565b5080611813576040517f08c379a000000000000000000000000000000000000000000000000000000000815260040161180a90615a3c565b60405180910390fd5b509b9a5050505050505050505050565b600e60009054906101000a900473ffffffffffffffffffffffffffffffffffffffff1681565b6000600660008473ffffffffffffffffffffffffffffffffffffffff1673ffffffffffffffffffffffffffffffffffffffff16815260200190815260200160002060008373ffffffffffffffffffffffffffffffffffffffff1673ffffffffffffffffffffffffffffffffffffffff16815260200190815260200160002060009054906101000a900460ff16905092915050565b600b81815481106118ed57600080fd5b906000526020600020906008020160009150905080600001604051806040016040529081600082018054611920906143d3565b80601f016020809104026020016040519081016040528092919081815260200182805461194c906143d3565b80156119995780601f1061196e57610100808354040283529160200191611999565b820191906000526020600020905b81548152906001019060200180831161197c57829003601f168201915b5050505050815260200160018201548152505090806002016040518060400160405290816000820180546119cc906143d3565b80601f01602080910402602001604051908101604052809291908181526020018280546119f8906143d3565b8015611a455780601f10611a1a57610100808354040283529160200191611a45565b820191906000526020600020905b815481529060010190602001808311611a2857829003601f168201915b50505050508152602001600182015481525050908060040160009054906101000a900467ffffffffffffffff1690806005018054611a82906143d3565b80601f0160208091040260200160405190810160405280929190818152602001828054611aae906143d3565b8015611afb5780601f10611ad057610100808354040283529160200191611afb565b820191906000526020600020905b815481529060010190602001808311611ade57829003601f168201915b505050505090806006016040518060400160405290816000820160009054906101000a900467ffffffffffffffff1667ffffffffffffffff1667ffffffffffffffff1681526020016000820160089054906101000a900467ffffffffffffffff1667ffffffffffffffff1667ffffffffffffffff1681525050908060070160009054906101000a900467ffffffffffffffff16905086565b611b9b6122ef565b600073ffffffffffffffffffffffffffffffffffffffff168173ffffffffffffffffffffffffffffffffffffffff1603611c0a576040517f08c379a0000000000000000000000000000000000000000000000000000000008152600401611c0190615be3565b60405180910390fd5b611c13816123ec565b50565b60007f01ffc9a7000000000000000000000000000000000000000000000000000000007bffffffffffffffffffffffffffffffffffffffffffffffffffffffff1916827bffffffffffffffffffffffffffffffffffffffffffffffffffffffff1916149050919050565b611c8981612ab4565b611cc8576040517f08c379a0000000000000000000000000000000000000000000000000000000008152600401611cbf906156fd565b60405180910390fd5b50565b600033905090565b816005600083815260200190815260200160002060006101000a81548173ffffffffffffffffffffffffffffffffffffffff021916908373ffffffffffffffffffffffffffffffffffffffff160217905550808273ffffffffffffffffffffffffffffffffffffffff16611d4683611066565b73ffffffffffffffffffffffffffffffffffffffff167f8c5be1e5ebec7d5bd14f71427d1e84f3dd0314c0f7b2291e5b200ac8c7c3b92560405160405180910390a45050565b600080611d9883611066565b90508073ffffffffffffffffffffffffffffffffffffffff168473ffffffffffffffffffffffffffffffffffffffff161480611dda5750611dd98185611849565b5b80611e1857508373ffffffffffffffffffffffffffffffffffffffff16611e00846107db565b73ffffffffffffffffffffffffffffffffffffffff16145b91505092915050565b8273ffffffffffffffffffffffffffffffffffffffff16611e4182611066565b73ffffffffffffffffffffffffffffffffffffffff1614611e97576040517f08c379a0000000000000000000000000000000000000000000000000000000008152600401611e8e90615c75565b60405180910390fd5b600073ffffffffffffffffffffffffffffffffffffffff168273ffffffffffffffffffffffffffffffffffffffff1603611f06576040517f08c379a0000000000000000000000000000000000000000000000000000000008152600401611efd90615d07565b60405180910390fd5b611f138383836001612af5565b8273ffffffffffffffffffffffffffffffffffffffff16611f3382611066565b73ffffffffffffffffffffffffffffffffffffffff1614611f89576040517f08c379a0000000000000000000000000000000000000000000000000000000008152600401611f8090615c75565b60405180910390fd5b6005600082815260200190815260200160002060006101000a81549073ffffffffffffffffffffffffffffffffffffffff02191690556001600460008573ffffffffffffffffffffffffffffffffffffffff1673ffffffffffffffffffffffffffffffffffffffff168152602001908152602001600020600082825403925050819055506001600460008473ffffffffffffffffffffffffffffffffffffffff1673ffffffffffffffffffffffffffffffffffffffff16815260200190815260200160002060008282540192505081905550816003600083815260200190815260200160002060006101000a81548173ffffffffffffffffffffffffffffffffffffffff021916908373ffffffffffffffffffffffffffffffffffffffff160217905550808273ffffffffffffffffffffffffffffffffffffffff168473ffffffffffffffffffffffffffffffffffffffff167fddf252ad1be2c89b69c2b068fc378daa952ba7f163c4a11628f55a4df523b3ef60405160405180910390a46121158383836001612afb565b505050565b60008060009050600083905060005b815181101561226957603060f81b82828151811061214a57612149615094565b5b602001015160f81c60f81b7effffffffffffffffffffffffffffffffffffffffffffffffffffffffffffff1916101580156121c85750603960f81b82828151811061219857612197615094565b5b602001015160f81c60f81b7effffffffffffffffffffffffffffffffffffffffffffffffffffffffffffff191611155b1561221b5760308282815181106121e2576121e1615094565b5b602001015160f81c60f81b60f81c60ff166121fd9190615d27565b600a8461220a9190615d5b565b6122149190615d9d565b9250612256565b6040517f08c379a000000000000000000000000000000000000000000000000000000000815260040161224d90615e43565b60405180910390fd5b8080612261906155fd565b915050612129565b508192505050919050565b60006008600083815260200190815260200160002060006101000a81548160ff021916908315150217905550806122aa82611066565b73ffffffffffffffffffffffffffffffffffffffff167ff15274e1fe5043a963d7d1dfdb31b4c69407f0c6f0fc77ddf03f605961cfe28460405160405180910390a350565b6122f7611ccb565b73ffffffffffffffffffffffffffffffffffffffff16612315611382565b73ffffffffffffffffffffffffffffffffffffffff161461236b576040517f08c379a000000000000000000000000000000000000000000000000000000000815260040161236290615eaf565b60405180910390fd5b565b6001816000016000828254019250508190555050565b600081600001549050919050565b6123ab828260405180602001604052806000815250612b01565b5050565b60006003600083815260200190815260200160002060009054906101000a900473ffffffffffffffffffffffffffffffffffffffff169050919050565b60008060009054906101000a900473ffffffffffffffffffffffffffffffffffffffff169050816000806101000a81548173ffffffffffffffffffffffffffffffffffffffff021916908373ffffffffffffffffffffffffffffffffffffffff1602179055508173ffffffffffffffffffffffffffffffffffffffff168173ffffffffffffffffffffffffffffffffffffffff167f8be0079c531659141344cd1fd0a4f28419497f9722a3daafe3b4186f6b6457e060405160405180910390a35050565b60016008600083815260200190815260200160002060006101000a81548160ff021916908315150217905550806124e682611066565b73ffffffffffffffffffffffffffffffffffffffff167fa9262575db5f22d8b54192efce38602ac59d04bcdbcba1962fc351473de5614660405160405180910390a350565b600115156008600087815260200190815260200160002060009054906101000a900460ff16151514612592576040517f08c379a000000000000000000000000000000000000000000000000000000000815260040161258990615f1b565b60405180910390fd5b60006040518061012001604052806125a988612b5c565b81526020016040518060800160405280605181526020016165a3605191398152602001604051806020016040528060008152508152602001600167ffffffffffffffff8111156125fc576125fb613d3b565b5b60405190808252806020026020018201604052801561262f57816020015b606081526020019060019003908161261a5790505b508152602001600167ffffffffffffffff8111156126505761264f613d3b565b5b60405190808252806020026020018201604052801561268357816020015b606081526020019060019003908161266e5790505b508152602001600167ffffffffffffffff8111156126a4576126a3613d3b565b5b6040519080825280602002602001820160405280156126d757816020015b60608152602001906001900390816126c25790505b5081526020018673ffffffffffffffffffffffffffffffffffffffff1681526020018573ffffffffffffffffffffffffffffffffffffffff16815260200184815250905061272486612bc2565b816060015160008151811061273c5761273b615094565b5b6020026020010181905250612750866115e9565b816080015160008151811061276857612767615094565b5b60200260200101819052506040518060400160405280601481526020017f6164646974696f6e616c206461746120686572650000000000000000000000008152508160a001516000815181106127c1576127c0615094565b5b60200260200101819052506000816040516020016127df91906160fb565b60405160208183030381529060405290506000633b9aca00618ca0426128059190615d9d565b61280f9190615d5b565b90506000600c60008154811061282857612827615094565b5b90600052602060002001549050600e60009054906101000a900473ffffffffffffffffffffffffffffffffffffffff1673ffffffffffffffffffffffffffffffffffffffff1663ca034bff61288c878036038101906128879190616181565b612c90565b8386868a6040518663ffffffff1660e01b81526004016128af949392919061622e565b6000604051808303818588803b1580156128c857600080fd5b505af11580156128dc573d6000803e3d6000fd5b5050505050505050505050505050565b8173ffffffffffffffffffffffffffffffffffffffff168373ffffffffffffffffffffffffffffffffffffffff160361295a576040517f08c379a0000000000000000000000000000000000000000000000000000000008152600401612951906162c6565b60405180910390fd5b80600660008573ffffffffffffffffffffffffffffffffffffffff1673ffffffffffffffffffffffffffffffffffffffff16815260200190815260200160002060008473ffffffffffffffffffffffffffffffffffffffff1673ffffffffffffffffffffffffffffffffffffffff16815260200190815260200160002060006101000a81548160ff0219169083151502179055508173ffffffffffffffffffffffffffffffffffffffff168373ffffffffffffffffffffffffffffffffffffffff167f17307eab39ab6107e8899845ad3d59bd9653f200f220920489ca2b5937696c3183604051612a4b91906134ee565b60405180910390a3505050565b612a63848484611e21565b612a6f84848484612cc8565b612aae576040517f08c379a0000000000000000000000000000000000000000000000000000000008152600401612aa590616358565b60405180910390fd5b50505050565b60008073ffffffffffffffffffffffffffffffffffffffff16612ad6836123af565b73ffffffffffffffffffffffffffffffffffffffff1614159050919050565b50505050565b50505050565b612b0b8383612e4f565b612b186000848484612cc8565b612b57576040517f08c379a0000000000000000000000000000000000000000000000000000000008152600401612b4e90616358565b60405180910390fd5b505050565b6060612b6782612ab4565b612ba6576040517f08c379a0000000000000000000000000000000000000000000000000000000008152600401612b9d90615ace565b60405180910390fd5b6000608083901c9050612bba81602061306c565b915050919050565b606060006001612bd1846132a8565b01905060008167ffffffffffffffff811115612bf057612bef613d3b565b5b6040519080825280601f01601f191660200182016040528015612c225781602001600182028036833780820191505090505b509050600082602001820190505b600115612c85578080600190039150507f3031323334353637383961626364656600000000000000000000000000000000600a86061a8153600a8581612c7957612c78616378565b5b04945060008503612c30575b819350505050919050565b60008082602001518360000151612ca79190615d9d565b905080836040015111612cba5780612cc0565b82604001515b915050919050565b6000612ce98473ffffffffffffffffffffffffffffffffffffffff166133fb565b15612e42578373ffffffffffffffffffffffffffffffffffffffff1663150b7a02612d12611ccb565b8786866040518563ffffffff1660e01b8152600401612d3494939291906163a7565b6020604051808303816000875af1925050508015612d7057506040513d601f19601f82011682018060405250810190612d6d9190616408565b60015b612df2573d8060008114612da0576040519150601f19603f3d011682016040523d82523d6000602084013e612da5565b606091505b506000815103612dea576040517f08c379a0000000000000000000000000000000000000000000000000000000008152600401612de190616358565b60405180910390fd5b805181602001fd5b63150b7a0260e01b7bffffffffffffffffffffffffffffffffffffffffffffffffffffffff1916817bffffffffffffffffffffffffffffffffffffffffffffffffffffffff191614915050612e47565b600190505b949350505050565b600073ffffffffffffffffffffffffffffffffffffffff168273ffffffffffffffffffffffffffffffffffffffff1603612ebe576040517f08c379a0000000000000000000000000000000000000000000000000000000008152600401612eb590616481565b60405180910390fd5b612ec781612ab4565b15612f07576040517f08c379a0000000000000000000000000000000000000000000000000000000008152600401612efe906164ed565b60405180910390fd5b612f15600083836001612af5565b612f1e81612ab4565b15612f5e576040517f08c379a0000000000000000000000000000000000000000000000000000000008152600401612f55906164ed565b60405180910390fd5b6001600460008473ffffffffffffffffffffffffffffffffffffffff1673ffffffffffffffffffffffffffffffffffffffff16815260200190815260200160002060008282540192505081905550816003600083815260200190815260200160002060006101000a81548173ffffffffffffffffffffffffffffffffffffffff021916908373ffffffffffffffffffffffffffffffffffffffff160217905550808273ffffffffffffffffffffffffffffffffffffffff16600073ffffffffffffffffffffffffffffffffffffffff167fddf252ad1be2c89b69c2b068fc378daa952ba7f163c4a11628f55a4df523b3ef60405160405180910390a4613068600083836001612afb565b5050565b60606000600283600261307f9190615d5b565b6130899190615d9d565b67ffffffffffffffff8111156130a2576130a1613d3b565b5b6040519080825280601f01601f1916602001820160405280156130d45781602001600182028036833780820191505090505b5090507f30000000000000000000000000000000000000000000000000000000000000008160008151811061310c5761310b615094565b5b60200101907effffffffffffffffffffffffffffffffffffffffffffffffffffffffffffff1916908160001a9053507f7800000000000000000000000000000000000000000000000000000000000000816001815181106131705761316f615094565b5b60200101907effffffffffffffffffffffffffffffffffffffffffffffffffffffffffffff1916908160001a905350600060018460026131b09190615d5b565b6131ba9190615d9d565b90505b600181111561325a577f3031323334353637383961626364656600000000000000000000000000000000600f8616601081106131fc576131fb615094565b5b1a60f81b82828151811061321357613212615094565b5b60200101907effffffffffffffffffffffffffffffffffffffffffffffffffffffffffffff1916908160001a905350600485901c9450806132539061650d565b90506131bd565b506000841461329e576040517f08c379a000000000000000000000000000000000000000000000000000000000815260040161329590616582565b60405180910390fd5b8091505092915050565b600080600090507a184f03e93ff9f4daa797ed6e38ed64bf6a1f0100000000000000008310613306577a184f03e93ff9f4daa797ed6e38ed64bf6a1f01000000000000000083816132fc576132fb616378565b5b0492506040810190505b6d04ee2d6d415b85acef81000000008310613343576d04ee2d6d415b85acef8100000000838161333957613338616378565b5b0492506020810190505b662386f26fc10000831061337257662386f26fc10000838161336857613367616378565b5b0492506010810190505b6305f5e100831061339b576305f5e100838161339157613390616378565b5b0492506008810190505b61271083106133c05761271083816133b6576133b5616378565b5b0492506004810190505b606483106133e357606483816133d9576133d8616378565b5b0492506002810190505b600a83106133f2576001810190505b80915050919050565b6000808273ffffffffffffffffffffffffffffffffffffffff163b119050919050565b6040518060400160405280600015158152602001606081525090565b6000604051905090565b600080fd5b600080fd5b60007fffffffff0000000000000000000000000000000000000000000000000000000082169050919050565b6134838161344e565b811461348e57600080fd5b50565b6000813590506134a08161347a565b92915050565b6000602082840312156134bc576134bb613444565b5b60006134ca84828501613491565b91505092915050565b60008115159050919050565b6134e8816134d3565b82525050565b600060208201905061350360008301846134df565b92915050565b600081519050919050565b600082825260208201905092915050565b60005b83811015613543578082015181840152602081019050613528565b60008484015250505050565b6000601f19601f8301169050919050565b600061356b82613509565b6135758185613514565b9350613585818560208601613525565b61358e8161354f565b840191505092915050565b600060208201905081810360008301526135b38184613560565b905092915050565b6000819050919050565b6135ce816135bb565b81146135d957600080fd5b50565b6000813590506135eb816135c5565b92915050565b60006020828403121561360757613606613444565b5b6000613615848285016135dc565b91505092915050565b600073ffffffffffffffffffffffffffffffffffffffff82169050919050565b60006136498261361e565b9050919050565b6136598161363e565b82525050565b60006020820190506136746000830184613650565b92915050565b6136838161363e565b811461368e57600080fd5b50565b6000813590506136a08161367a565b92915050565b600080604083850312156136bd576136bc613444565b5b60006136cb85828601613691565b92505060206136dc858286016135dc565b9150509250929050565b6000806000606084860312156136ff576136fe613444565b5b600061370d86828701613691565b935050602061371e86828701613691565b925050604061372f868287016135dc565b9150509250925092565b600081519050919050565b600082825260208201905092915050565b600061376082613739565b61376a8185613744565b935061377a818560208601613525565b6137838161354f565b840191505092915050565b60006040820190506137a360008301856134df565b81810360208301526137b58184613755565b90509392505050565b600080fd5b600060e082840312156137d9576137d86137be565b5b81905092915050565b6000602082840312156137f8576137f7613444565b5b600082013567ffffffffffffffff81111561381657613815613449565b5b613822848285016137c3565b91505092915050565b613834816134d3565b82525050565b600082825260208201905092915050565b600061385682613739565b613860818561383a565b9350613870818560208601613525565b6138798161354f565b840191505092915050565b600060408301600083015161389c600086018261382b565b50602083015184820360208601526138b4828261384b565b9150508091505092915050565b600060208201905081810360008301526138db8184613884565b905092915050565b600082825260208201905092915050565b60006138ff82613509565b61390981856138e3565b9350613919818560208601613525565b6139228161354f565b840191505092915050565b6000819050919050565b6139408161392d565b82525050565b6000604083016000830151848203600086015261396382826138f4565b91505060208301516139786020860182613937565b508091505092915050565b600067ffffffffffffffff82169050919050565b6139a081613983565b82525050565b6139af81613983565b82525050565b6040820160008201516139cb60008501826139a6565b5060208201516139de60208501826139a6565b50505050565b600060e08201905081810360008301526139fe8189613946565b90508181036020830152613a128188613946565b9050613a216040830187613997565b8181036060830152613a338186613755565b9050613a4260808301856139b5565b613a4f60c0830184613997565b979650505050505050565b600060208284031215613a7057613a6f613444565b5b6000613a7e84828501613691565b91505092915050565b613a90816135bb565b82525050565b6000602082019050613aab6000830184613a87565b92915050565b613aba816134d3565b8114613ac557600080fd5b50565b600081359050613ad781613ab1565b92915050565b600080fd5b600080fd5b600080fd5b60008083601f840112613b0257613b01613add565b5b8235905067ffffffffffffffff811115613b1f57613b1e613ae2565b5b602083019150836020820283011115613b3b57613b3a613ae7565b5b9250929050565b600060608284031215613b5857613b576137be565b5b81905092915050565b600060608284031215613b7757613b766137be565b5b81905092915050565b600080600080600060808688031215613b9c57613b9b613444565b5b6000613baa88828901613ac8565b955050602086013567ffffffffffffffff811115613bcb57613bca613449565b5b613bd788828901613aec565b9450945050604086013567ffffffffffffffff811115613bfa57613bf9613449565b5b613c0688828901613b42565b925050606086013567ffffffffffffffff811115613c2757613c26613449565b5b613c3388828901613b61565b9150509295509295909350565b613c498161392d565b8114613c5457600080fd5b50565b600081359050613c6681613c40565b92915050565b60008083601f840112613c8257613c81613add565b5b8235905067ffffffffffffffff811115613c9f57613c9e613ae2565b5b602083019150836001820283011115613cbb57613cba613ae7565b5b9250929050565b60008060008060608587031215613cdc57613cdb613444565b5b6000613cea87828801613c57565b945050602085013567ffffffffffffffff811115613d0b57613d0a613449565b5b613d1787828801613c6c565b93509350506040613d2a87828801613c57565b91505092959194509250565b600080fd5b7f4e487b7100000000000000000000000000000000000000000000000000000000600052604160045260246000fd5b613d738261354f565b810181811067ffffffffffffffff82111715613d9257613d91613d3b565b5b80604052505050565b6000613da561343a565b9050613db18282613d6a565b919050565b600067ffffffffffffffff821115613dd157613dd0613d3b565b5b613dda8261354f565b9050602081019050919050565b82818337600083830152505050565b6000613e09613e0484613db6565b613d9b565b905082815260208101848484011115613e2557613e24613d36565b5b613e30848285613de7565b509392505050565b600082601f830112613e4d57613e4c613add565b5b8135613e5d848260208601613df6565b91505092915050565b600060608284031215613e7c57613e7b6137be565b5b81905092915050565b60008060008060c08587031215613e9f57613e9e613444565b5b6000613ead878288016135dc565b9450506020613ebe87828801613691565b935050604085013567ffffffffffffffff811115613edf57613ede613449565b5b613eeb87828801613e38565b9250506060613efc87828801613e66565b91505092959194509250565b600060408284031215613f1e57613f1d6137be565b5b81905092915050565b60008060408385031215613f3e57613f3d613444565b5b600083013567ffffffffffffffff811115613f5c57613f5b613449565b5b613f68858286016137c3565b925050602083013567ffffffffffffffff811115613f8957613f88613449565b5b613f9585828601613f08565b9150509250929050565b60008060408385031215613fb657613fb5613444565b5b6000613fc485828601613691565b9250506020613fd585828601613ac8565b9150509250929050565b60008060008060608587031215613ff957613ff8613444565b5b600061400787828801613c57565b945050602061401887828801613c57565b935050604085013567ffffffffffffffff81111561403957614038613449565b5b61404587828801613c6c565b925092505092959194509250565b600067ffffffffffffffff82111561406e5761406d613d3b565b5b6140778261354f565b9050602081019050919050565b600061409761409284614053565b613d9b565b9050828152602081018484840111156140b3576140b2613d36565b5b6140be848285613de7565b509392505050565b600082601f8301126140db576140da613add565b5b81356140eb848260208601614084565b91505092915050565b6000806000806080858703121561410e5761410d613444565b5b600061411c87828801613691565b945050602061412d87828801613691565b935050604061413e878288016135dc565b925050606085013567ffffffffffffffff81111561415f5761415e613449565b5b61416b878288016140c6565b91505092959194509250565b6141808161392d565b82525050565b600060208201905061419b6000830184614177565b92915050565b600381106141ae57600080fd5b50565b6000813590506141c0816141a1565b92915050565b600080600080600080600080600080600060e08c8e0312156141eb576141ea613444565b5b60008c013567ffffffffffffffff81111561420957614208613449565b5b6142158e828f01613c6c565b9b509b505060206142288e828f016141b1565b99505060406142398e828f01613ac8565b98505060608c013567ffffffffffffffff81111561425a57614259613449565b5b6142668e828f01613aec565b975097505060808c013567ffffffffffffffff81111561428957614288613449565b5b6142958e828f01613c6c565b955095505060a06142a88e828f01613c57565b93505060c08c013567ffffffffffffffff8111156142c9576142c8613449565b5b6142d58e828f01613c6c565b92509250509295989b509295989b9093969950565b6000819050919050565b600061430f61430a6143058461361e565b6142ea565b61361e565b9050919050565b6000614321826142f4565b9050919050565b600061433382614316565b9050919050565b61434381614328565b82525050565b600060208201905061435e600083018461433a565b92915050565b6000806040838503121561437b5761437a613444565b5b600061438985828601613691565b925050602061439a85828601613691565b9150509250929050565b7f4e487b7100000000000000000000000000000000000000000000000000000000600052602260045260246000fd5b600060028204905060018216806143eb57607f821691505b6020821081036143fe576143fd6143a4565b5b50919050565b7f4552433732313a20617070726f76616c20746f2063757272656e74206f776e6560008201527f7200000000000000000000000000000000000000000000000000000000000000602082015250565b6000614460602183613514565b915061446b82614404565b604082019050919050565b6000602082019050818103600083015261448f81614453565b9050919050565b7f4552433732313a20617070726f76652063616c6c6572206973206e6f7420746f60008201527f6b656e206f776e6572206f7220617070726f76656420666f7220616c6c000000602082015250565b60006144f2603d83613514565b91506144fd82614496565b604082019050919050565b60006020820190508181036000830152614521816144e5565b9050919050565b7f4552433732313a2063616c6c6572206973206e6f7420746f6b656e206f776e6560008201527f72206f7220617070726f76656400000000000000000000000000000000000000602082015250565b6000614584602d83613514565b915061458f82614528565b604082019050919050565b600060208201905081810360008301526145b381614577565b9050919050565b600080fd5b600080fd5b600080fd5b6000823560016040038336030381126145e5576145e46145ba565b5b80830191505092915050565b6000808335600160200384360303811261460e5761460d6145ba565b5b80840192508235915067ffffffffffffffff8211156146305761462f6145bf565b5b60208301925060018202360383131561464c5761464b6145c4565b5b509250929050565b600082905092915050565b60008190508160005260206000209050919050565b60006020601f8301049050919050565b600082821b905092915050565b6000600883026146c17fffffffffffffffffffffffffffffffffffffffffffffffffffffffffffffffff82614684565b6146cb8683614684565b95508019841693508086168417925050509392505050565b60006146fe6146f96146f4846135bb565b6142ea565b6135bb565b9050919050565b6000819050919050565b614718836146e3565b61472c61472482614705565b848454614691565b825550505050565b600090565b614741614734565b61474c81848461470f565b505050565b5b8181101561477057614765600082614739565b600181019050614752565b5050565b601f8211156147b5576147868161465f565b61478f84614674565b8101602085101561479e578190505b6147b26147aa85614674565b830182614751565b50505b505050565b600082821c905092915050565b60006147d8600019846008026147ba565b1980831691505092915050565b60006147f183836147c7565b9150826002028217905092915050565b61480b8383614654565b67ffffffffffffffff81111561482457614823613d3b565b5b61482e82546143d3565b614839828285614774565b6000601f8311600181146148685760008415614856578287013590505b61486085826147e5565b8655506148c8565b601f1984166148768661465f565b60005b8281101561489e57848901358255600182019150602085019450602081019050614879565b868310156148bb57848901356148b7601f8916826147c7565b8355505b6001600288020188555050505b50505050505050565b6148dc838383614801565b505050565b600081356148ee81613c40565b80915050919050565b60008160001b9050919050565b60007fffffffffffffffffffffffffffffffffffffffffffffffffffffffffffffffff614930846148f7565b9350801983169250808416831791505092915050565b60006149518261392d565b9050919050565b60008160001c9050919050565b600061497082614958565b9050919050565b61498082614946565b61499361498c82614965565b8354614904565b8255505050565b60008101600083016149ac81856145f1565b6149b78183866148d1565b505050506001810160208301806149cd816148e1565b90506149d98184614977565b5050505050565b6149ea828261499a565b5050565b6149f781613983565b8114614a0257600080fd5b50565b60008135614a12816149ee565b80915050919050565b600067ffffffffffffffff614a2f846148f7565b9350801983169250808416831791505092915050565b6000614a60614a5b614a5684613983565b6142ea565b613983565b9050919050565b6000819050919050565b614a7a82614a45565b614a8d614a8682614a67565b8354614a1b565b8255505050565b60008083356001602003843603038112614ab157614ab06145ba565b5b80840192508235915067ffffffffffffffff821115614ad357614ad26145bf565b5b602083019250600182023603831315614aef57614aee6145c4565b5b509250929050565b600082905092915050565b60008190508160005260206000209050919050565b601f821115614b5857614b2981614b02565b614b3284614674565b81016020851015614b41578190505b614b55614b4d85614674565b830182614751565b50505b505050565b614b678383614af7565b67ffffffffffffffff811115614b8057614b7f613d3b565b5b614b8a82546143d3565b614b95828285614b17565b6000601f831160018114614bc45760008415614bb2578287013590505b614bbc85826147e5565b865550614c24565b601f198416614bd286614b02565b60005b82811015614bfa57848901358255600182019150602085019450602081019050614bd5565b86831015614c175784890135614c13601f8916826147c7565b8355505b6001600288020188555050505b50505050505050565b614c38838383614b5d565b505050565b60008160401b9050919050565b60006fffffffffffffffff0000000000000000614c6684614c3d565b9350801983169250808416831791505092915050565b614c8582614a45565b614c98614c9182614a67565b8354614c4a565b8255505050565b600081016000830180614cb181614a05565b9050614cbd8184614a71565b505050600081016020830180614cd281614a05565b9050614cde8184614c7c565b5050505050565b614cef8282614c9f565b5050565b6000810160008301614d0581856145c9565b614d0f81846149e0565b5050506002810160208301614d2481856145c9565b614d2e81846149e0565b505050600481016040830180614d4381614a05565b9050614d4f8184614a71565b5050506005810160608301614d648185614a94565b614d6f818386614c2d565b50505050600681016080830180614d868184614ce5565b5050506007810160c0830180614d9b81614a05565b9050614da78184614a71565b5050505050565b614db88282614cf3565b5050565b600080fd5b600080fd5b600067ffffffffffffffff821115614de157614de0613d3b565b5b602082029050602081019050919050565b6000614e05614e0084614dc6565b613d9b565b90508083825260208201905060208402830185811115614e2857614e27613ae7565b5b835b81811015614e6f57803567ffffffffffffffff811115614e4d57614e4c613add565b5b808601614e5a8982613e38565b85526020850194505050602081019050614e2a565b5050509392505050565b600082601f830112614e8e57614e8d613add565b5b8135614e9e848260208601614df2565b91505092915050565b60006101208284031215614ebe57614ebd614dbc565b5b614ec9610120613d9b565b9050600082013567ffffffffffffffff811115614ee957614ee8614dc1565b5b614ef584828501613e38565b600083015250602082013567ffffffffffffffff811115614f1957614f18614dc1565b5b614f2584828501613e38565b602083015250604082013567ffffffffffffffff811115614f4957614f48614dc1565b5b614f5584828501613e38565b604083015250606082013567ffffffffffffffff811115614f7957614f78614dc1565b5b614f8584828501614e79565b606083015250608082013567ffffffffffffffff811115614fa957614fa8614dc1565b5b614fb584828501614e79565b60808301525060a082013567ffffffffffffffff811115614fd957614fd8614dc1565b5b614fe584828501614e79565b60a08301525060c0614ff984828501613691565b60c08301525060e061500d84828501613691565b60e08301525061010082013567ffffffffffffffff81111561503257615031614dc1565b5b61503e84828501613e38565b6101008301525092915050565b60006020828403121561506157615060613444565b5b600082013567ffffffffffffffff81111561507f5761507e613449565b5b61508b84828501614ea7565b91505092915050565b7f4e487b7100000000000000000000000000000000000000000000000000000000600052603260045260246000fd5b60006040820190506150d86000830185613650565b81810360208301526150ea8184613560565b90509392505050565b60006150fe82614316565b9050919050565b61510e816150f3565b82525050565b60008154615121816143d3565b61512b8186613514565b94506001821660008114615146576001811461515c5761518f565b60ff19831686528115156020028601935061518f565b6151658561465f565b60005b8381101561518757815481890152600182019150602081019050615168565b808801955050505b50505092915050565b7f4e487b7100000000000000000000000000000000000000000000000000000000600052602160045260246000fd5b600381106151d8576151d7615198565b5b50565b60008190506151e9826151c7565b919050565b60006151f9826151db565b9050919050565b615209816151ee565b82525050565b600082825260208201905092915050565b6000819050919050565b600061523683856138e3565b9350615243838584613de7565b61524c8361354f565b840190509392505050565b600061526484848461522a565b90509392505050565b600080fd5b600080fd5b600080fd5b6000808335600160200384360303811261529957615298615277565b5b83810192508235915060208301925067ffffffffffffffff8211156152c1576152c061526d565b5b6001820236038313156152d7576152d6615272565b5b509250929050565b6000602082019050919050565b60006152f8838561520f565b93508360208402850161530a84615220565b8060005b87811015615350578484038952615325828461527c565b615330868284615257565b955061533b846152df565b935060208b019a50505060018101905061530e565b50829750879450505050509392505050565b60006153716020840184613c57565b905092915050565b60006060830161538c600084018461527c565b858303600087015261539f83828461522a565b925050506153b06020840184615362565b6153bd6020860182613937565b506153cb604084018461527c565b85830360408701526153de83828461522a565b925050508091505092915050565b600082905092915050565b600081359050615406816149ee565b92915050565b600061541b60208401846153f7565b905092915050565b60408201615434600083018361540c565b61544160008501826139a6565b5061544f602083018361540c565b61545c60208501826139a6565b50505050565b6000808335600160200384360303811261547f5761547e615277565b5b83810192508235915060208301925067ffffffffffffffff8211156154a7576154a661526d565b5b6001820236038313156154bd576154bc615272565b5b509250929050565b60006154d1838561383a565b93506154de838584613de7565b6154e78361354f565b840190509392505050565b60006060830161550560008401846153ec565b6155126000860182615423565b506155206040840184615462565b85830360408701526155338382846154c5565b925050508091505092915050565b600060e082019050615556600083018b615105565b8181036020830152615568818a615114565b90506155776040830189615200565b61558460608301886134df565b81810360808301526155978186886152ec565b905081810360a08301526155ab8185615379565b905081810360c08301526155bf81846154f2565b90509998505050505050505050565b7f4e487b7100000000000000000000000000000000000000000000000000000000600052601160045260246000fd5b6000615608826135bb565b91507fffffffffffffffffffffffffffffffffffffffffffffffffffffffffffffffff820361563a576156396155ce565b5b600182019050919050565b7f4368616e6e656c206e6f7420666f756e64000000000000000000000000000000600082015250565b600061567b601183613514565b915061568682615645565b602082019050919050565b600060208201905081810360008301526156aa8161566e565b9050919050565b7f4552433732313a20696e76616c696420746f6b656e2049440000000000000000600082015250565b60006156e7601883613514565b91506156f2826156b1565b602082019050919050565b60006020820190508181036000830152615716816156da565b9050919050565b7f4552433732313a2061646472657373207a65726f206973206e6f74206120766160008201527f6c6964206f776e65720000000000000000000000000000000000000000000000602082015250565b6000615779602983613514565b91506157848261571d565b604082019050919050565b600060208201905081810360008301526157a88161576c565b9050919050565b7f596f7520617265206e6f7420746865206f776e6572206f66207468697320746f60008201527f6b656e0000000000000000000000000000000000000000000000000000000000602082015250565b600061580b602383613514565b9150615816826157af565b604082019050919050565b6000602082019050818103600083015261583a816157fe565b9050919050565b6000813561584e81613ab1565b80915050919050565b600060ff615864846148f7565b9350801983169250808416831791505092915050565b6000615885826134d3565b9050919050565b6000819050919050565b61589f8261587a565b6158b26158ab8261588c565b8354615857565b8255505050565b6000810160008301806158cb81615841565b90506158d78184615896565b50505060018101602083016158ec8185614a94565b6158f7818386614c2d565b505050505050565b61590982826158b9565b5050565b600081905092915050565b60008154615925816143d3565b61592f818661590d565b9450600182166000811461594a576001811461595f57615992565b60ff1983168652811515820286019350615992565b6159688561465f565b60005b8381101561598a5781548189015260018201915060208101905061596b565b838801955050505b50505092915050565b60006159a78284615918565b915081905092915050565b60006159be838561590d565b93506159cb838584613de7565b82840190509392505050565b60006159e48284866159b2565b91508190509392505050565b7f556e737570706f727465642076657273696f6e00000000000000000000000000600082015250565b6000615a26601383613514565b9150615a31826159f0565b602082019050919050565b60006020820190508181036000830152615a5581615a19565b9050919050565b7f4552433732314d657461646174613a2055524920717565727920666f72206e6f60008201527f6e6578697374656e7420746f6b656e0000000000000000000000000000000000602082015250565b6000615ab8602f83613514565b9150615ac382615a5c565b604082019050919050565b60006020820190508181036000830152615ae781615aab565b9050919050565b50565b6000615afe60008361590d565b9150615b0982615aee565b600082019050919050565b6000615b1f82615af1565b9150819050919050565b6000615b3482613509565b615b3e818561590d565b9350615b4e818560208601613525565b80840191505092915050565b6000615b668284615b29565b915081905092915050565b7f4f776e61626c653a206e6577206f776e657220697320746865207a65726f206160008201527f6464726573730000000000000000000000000000000000000000000000000000602082015250565b6000615bcd602683613514565b9150615bd882615b71565b604082019050919050565b60006020820190508181036000830152615bfc81615bc0565b9050919050565b7f4552433732313a207472616e736665722066726f6d20696e636f72726563742060008201527f6f776e6572000000000000000000000000000000000000000000000000000000602082015250565b6000615c5f602583613514565b9150615c6a82615c03565b604082019050919050565b60006020820190508181036000830152615c8e81615c52565b9050919050565b7f4552433732313a207472616e7366657220746f20746865207a65726f2061646460008201527f7265737300000000000000000000000000000000000000000000000000000000602082015250565b6000615cf1602483613514565b9150615cfc82615c95565b604082019050919050565b60006020820190508181036000830152615d2081615ce4565b9050919050565b6000615d32826135bb565b9150615d3d836135bb565b9250828203905081811115615d5557615d546155ce565b5b92915050565b6000615d66826135bb565b9150615d71836135bb565b9250828202615d7f816135bb565b91508282048414831517615d9657615d956155ce565b5b5092915050565b6000615da8826135bb565b9150615db3836135bb565b9250828201905080821115615dcb57615dca6155ce565b5b92915050565b7f537472696e6720636f6e7461696e73206e6f6e2d6e756d65726963206368617260008201527f6163746572730000000000000000000000000000000000000000000000000000602082015250565b6000615e2d602683613514565b9150615e3882615dd1565b604082019050919050565b60006020820190508181036000830152615e5c81615e20565b9050919050565b7f4f776e61626c653a2063616c6c6572206973206e6f7420746865206f776e6572600082015250565b6000615e99602083613514565b9150615ea482615e63565b602082019050919050565b60006020820190508181036000830152615ec881615e8c565b9050919050565b7f5468697320746f6b656e206973206e6f74206c6f636b65640000000000000000600082015250565b6000615f05601883613514565b9150615f1082615ecf565b602082019050919050565b60006020820190508181036000830152615f3481615ef8565b9050919050565b600081519050919050565b600082825260208201905092915050565b6000819050602082019050919050565b6000615f7383836138f4565b905092915050565b6000602082019050919050565b6000615f9382615f3b565b615f9d8185615f46565b935083602082028501615faf85615f57565b8060005b85811015615feb5784840389528151615fcc8582615f67565b9450615fd783615f7b565b925060208a01995050600181019050615fb3565b50829750879550505050505092915050565b6160068161363e565b82525050565b600061012083016000830151848203600086015261602a82826138f4565b9150506020830151848203602086015261604482826138f4565b9150506040830151848203604086015261605e82826138f4565b915050606083015184820360608601526160788282615f88565b915050608083015184820360808601526160928282615f88565b91505060a083015184820360a08601526160ac8282615f88565b91505060c08301516160c160c0860182615ffd565b5060e08301516160d460e0860182615ffd565b506101008301518482036101008601526160ee82826138f4565b9150508091505092915050565b60006020820190508181036000830152616115818461600c565b905092915050565b60006060828403121561613357616132614dbc565b5b61613d6060613d9b565b9050600061614d848285016135dc565b6000830152506020616161848285016135dc565b6020830152506040616175848285016135dc565b60408301525092915050565b60006060828403121561619757616196613444565b5b60006161a58482850161611d565b91505092915050565b60006161bd60208401846135dc565b905092915050565b6161ce816135bb565b82525050565b606082016161e560008301836161ae565b6161f260008501826161c5565b5061620060208301836161ae565b61620d60208501826161c5565b5061621b60408301836161ae565b61622860408501826161c5565b50505050565b600060c0820190506162436000830187614177565b81810360208301526162558186613755565b90506162646040830185613997565b61627160608301846161d4565b95945050505050565b7f4552433732313a20617070726f766520746f2063616c6c657200000000000000600082015250565b60006162b0601983613514565b91506162bb8261627a565b602082019050919050565b600060208201905081810360008301526162df816162a3565b9050919050565b7f4552433732313a207472616e7366657220746f206e6f6e20455243373231526560008201527f63656976657220696d706c656d656e7465720000000000000000000000000000602082015250565b6000616342603283613514565b915061634d826162e6565b604082019050919050565b6000602082019050818103600083015261637181616335565b9050919050565b7f4e487b7100000000000000000000000000000000000000000000000000000000600052601260045260246000fd5b60006080820190506163bc6000830187613650565b6163c96020830186613650565b6163d66040830185613a87565b81810360608301526163e88184613755565b905095945050505050565b6000815190506164028161347a565b92915050565b60006020828403121561641e5761641d613444565b5b600061642c848285016163f3565b91505092915050565b7f4552433732313a206d696e7420746f20746865207a65726f2061646472657373600082015250565b600061646b602083613514565b915061647682616435565b602082019050919050565b6000602082019050818103600083015261649a8161645e565b9050919050565b7f4552433732313a20746f6b656e20616c7265616479206d696e74656400000000600082015250565b60006164d7601c83613514565b91506164e2826164a1565b602082019050919050565b60006020820190508181036000830152616506816164ca565b9050919050565b6000616518826135bb565b91506000820361652b5761652a6155ce565b5b600182039050919050565b7f537472696e67733a20686578206c656e67746820696e73756666696369656e74600082015250565b600061656c602083613514565b915061657782616536565b602082019050919050565b6000602082019050818103600083015261659b8161655f565b905091905056fe68747470733a2f2f7261772e67697468756275736572636f6e74656e742e636f6d2f62626568726d616e31302f73616d706c654e46544d657461446174612f6d61696e2f6d657461646174612e6a736f6ea2646970667358221220de35dbb94491d5dca834cddf0e50368253253533e0e870354b00d5dd1ecf29d764736f6c63430008140033","opcodes":"PUSH1 0x80 PUSH1 0x40 MSTORE CALLVALUE DUP1 ISZERO PUSH3 0x11 JUMPI PUSH1 0x0 DUP1 REVERT JUMPDEST POP PUSH1 0x40 MLOAD PUSH3 0x76EE CODESIZE SUB DUP1 PUSH3 0x76EE DUP4 CODECOPY DUP2 DUP2 ADD PUSH1 0x40 MSTORE DUP2 ADD SWAP1 PUSH3 0x37 SWAP2 SWAP1 PUSH3 0x969 JUMP JUMPDEST DUP2 DUP2 PUSH3 0x59 PUSH3 0x4D PUSH3 0x99 PUSH1 0x20 SHL PUSH1 0x20 SHR JUMP JUMPDEST PUSH3 0xA1 PUSH1 0x20 SHL PUSH1 0x20 SHR JUMP JUMPDEST DUP2 PUSH1 0x1 SWAP1 DUP2 PUSH3 0x6A SWAP2 SWAP1 PUSH3 0xC39 JUMP JUMPDEST POP DUP1 PUSH1 0x2 SWAP1 DUP2 PUSH3 0x7C SWAP2 SWAP1 PUSH3 0xC39 JUMP JUMPDEST POP POP POP PUSH3 0x90 CALLER PUSH3 0x165 PUSH1 0x20 SHL PUSH1 0x20 SHR JUMP JUMPDEST POP POP POP PUSH3 0x10B5 JUMP JUMPDEST PUSH1 0x0 CALLER SWAP1 POP SWAP1 JUMP JUMPDEST PUSH1 0x0 DUP1 PUSH1 0x0 SWAP1 SLOAD SWAP1 PUSH2 0x100 EXP SWAP1 DIV PUSH20 0xFFFFFFFFFFFFFFFFFFFFFFFFFFFFFFFFFFFFFFFF AND SWAP1 POP DUP2 PUSH1 0x0 DUP1 PUSH2 0x100 EXP DUP2 SLOAD DUP2 PUSH20 0xFFFFFFFFFFFFFFFFFFFFFFFFFFFFFFFFFFFFFFFF MUL NOT AND SWAP1 DUP4 PUSH20 0xFFFFFFFFFFFFFFFFFFFFFFFFFFFFFFFFFFFFFFFF AND MUL OR SWAP1 SSTORE POP DUP2 PUSH20 0xFFFFFFFFFFFFFFFFFFFFFFFFFFFFFFFFFFFFFFFF AND DUP2 PUSH20 0xFFFFFFFFFFFFFFFFFFFFFFFFFFFFFFFFFFFFFFFF AND PUSH32 0x8BE0079C531659141344CD1FD0A4F28419497F9722A3DAAFE3B4186F6B6457E0 PUSH1 0x40 MLOAD PUSH1 0x40 MLOAD DUP1 SWAP2 SUB SWAP1 LOG3 POP POP JUMP JUMPDEST PUSH1 0x0 PUSH3 0x177 PUSH3 0x1C5 PUSH1 0x20 SHL PUSH1 0x20 SHR JUMP JUMPDEST PUSH3 0x189 PUSH1 0x7 PUSH3 0x256 PUSH1 0x20 SHL PUSH1 0x20 SHR JUMP JUMPDEST PUSH3 0x1AC DUP3 PUSH3 0x1A0 PUSH1 0x7 PUSH3 0x26C PUSH1 0x20 SHL PUSH1 0x20 SHR JUMP JUMPDEST PUSH3 0x27A PUSH1 0x20 SHL PUSH1 0x20 SHR JUMP JUMPDEST PUSH3 0x1BE PUSH1 0x7 PUSH3 0x26C PUSH1 0x20 SHL PUSH1 0x20 SHR JUMP JUMPDEST SWAP1 POP SWAP2 SWAP1 POP JUMP JUMPDEST PUSH3 0x1D5 PUSH3 0x99 PUSH1 0x20 SHL PUSH1 0x20 SHR JUMP JUMPDEST PUSH20 0xFFFFFFFFFFFFFFFFFFFFFFFFFFFFFFFFFFFFFFFF AND PUSH3 0x1FB PUSH3 0x2A0 PUSH1 0x20 SHL PUSH1 0x20 SHR JUMP JUMPDEST PUSH20 0xFFFFFFFFFFFFFFFFFFFFFFFFFFFFFFFFFFFFFFFF AND EQ PUSH3 0x254 JUMPI PUSH1 0x40 MLOAD PUSH32 0x8C379A000000000000000000000000000000000000000000000000000000000 DUP2 MSTORE PUSH1 0x4 ADD PUSH3 0x24B SWAP1 PUSH3 0xD81 JUMP JUMPDEST PUSH1 0x40 MLOAD DUP1 SWAP2 SUB SWAP1 REVERT JUMPDEST JUMP JUMPDEST PUSH1 0x1 DUP2 PUSH1 0x0 ADD PUSH1 0x0 DUP3 DUP3 SLOAD ADD SWAP3 POP POP DUP2 SWAP1 SSTORE POP POP JUMP JUMPDEST PUSH1 0x0 DUP2 PUSH1 0x0 ADD SLOAD SWAP1 POP SWAP2 SWAP1 POP JUMP JUMPDEST PUSH3 0x29C DUP3 DUP3 PUSH1 0x40 MLOAD DUP1 PUSH1 0x20 ADD PUSH1 0x40 MSTORE DUP1 PUSH1 0x0 DUP2 MSTORE POP PUSH3 0x2C9 PUSH1 0x20 SHL PUSH1 0x20 SHR JUMP JUMPDEST POP POP JUMP JUMPDEST PUSH1 0x0 DUP1 PUSH1 0x0 SWAP1 SLOAD SWAP1 PUSH2 0x100 EXP SWAP1 DIV PUSH20 0xFFFFFFFFFFFFFFFFFFFFFFFFFFFFFFFFFFFFFFFF AND SWAP1 POP SWAP1 JUMP JUMPDEST PUSH3 0x2DB DUP4 DUP4 PUSH3 0x337 PUSH1 0x20 SHL PUSH1 0x20 SHR JUMP JUMPDEST PUSH3 0x2F0 PUSH1 0x0 DUP5 DUP5 DUP5 PUSH3 0x57D PUSH1 0x20 SHL PUSH1 0x20 SHR JUMP JUMPDEST PUSH3 0x332 JUMPI PUSH1 0x40 MLOAD PUSH32 0x8C379A000000000000000000000000000000000000000000000000000000000 DUP2 MSTORE PUSH1 0x4 ADD PUSH3 0x329 SWAP1 PUSH3 0xE19 JUMP JUMPDEST PUSH1 0x40 MLOAD DUP1 SWAP2 SUB SWAP1 REVERT JUMPDEST POP POP POP JUMP JUMPDEST PUSH1 0x0 PUSH20 0xFFFFFFFFFFFFFFFFFFFFFFFFFFFFFFFFFFFFFFFF AND DUP3 PUSH20 0xFFFFFFFFFFFFFFFFFFFFFFFFFFFFFFFFFFFFFFFF AND SUB PUSH3 0x3A9 JUMPI PUSH1 0x40 MLOAD PUSH32 0x8C379A000000000000000000000000000000000000000000000000000000000 DUP2 MSTORE PUSH1 0x4 ADD PUSH3 0x3A0 SWAP1 PUSH3 0xE8B JUMP JUMPDEST PUSH1 0x40 MLOAD DUP1 SWAP2 SUB SWAP1 REVERT JUMPDEST PUSH3 0x3BA DUP2 PUSH3 0x721 PUSH1 0x20 SHL PUSH1 0x20 SHR JUMP JUMPDEST ISZERO PUSH3 0x3FD JUMPI PUSH1 0x40 MLOAD PUSH32 0x8C379A000000000000000000000000000000000000000000000000000000000 DUP2 MSTORE PUSH1 0x4 ADD PUSH3 0x3F4 SWAP1 PUSH3 0xEFD JUMP JUMPDEST PUSH1 0x40 MLOAD DUP1 SWAP2 SUB SWAP1 REVERT JUMPDEST PUSH3 0x413 PUSH1 0x0 DUP4 DUP4 PUSH1 0x1 PUSH3 0x76A PUSH1 0x20 SHL PUSH1 0x20 SHR JUMP JUMPDEST PUSH3 0x424 DUP2 PUSH3 0x721 PUSH1 0x20 SHL PUSH1 0x20 SHR JUMP JUMPDEST ISZERO PUSH3 0x467 JUMPI PUSH1 0x40 MLOAD PUSH32 0x8C379A000000000000000000000000000000000000000000000000000000000 DUP2 MSTORE PUSH1 0x4 ADD PUSH3 0x45E SWAP1 PUSH3 0xEFD JUMP JUMPDEST PUSH1 0x40 MLOAD DUP1 SWAP2 SUB SWAP1 REVERT JUMPDEST PUSH1 0x1 PUSH1 0x4 PUSH1 0x0 DUP5 PUSH20 0xFFFFFFFFFFFFFFFFFFFFFFFFFFFFFFFFFFFFFFFF AND PUSH20 0xFFFFFFFFFFFFFFFFFFFFFFFFFFFFFFFFFFFFFFFF AND DUP2 MSTORE PUSH1 0x20 ADD SWAP1 DUP2 MSTORE PUSH1 0x20 ADD PUSH1 0x0 KECCAK256 PUSH1 0x0 DUP3 DUP3 SLOAD ADD SWAP3 POP POP DUP2 SWAP1 SSTORE POP DUP2 PUSH1 0x3 PUSH1 0x0 DUP4 DUP2 MSTORE PUSH1 0x20 ADD SWAP1 DUP2 MSTORE PUSH1 0x20 ADD PUSH1 0x0 KECCAK256 PUSH1 0x0 PUSH2 0x100 EXP DUP2 SLOAD DUP2 PUSH20 0xFFFFFFFFFFFFFFFFFFFFFFFFFFFFFFFFFFFFFFFF MUL NOT AND SWAP1 DUP4 PUSH20 0xFFFFFFFFFFFFFFFFFFFFFFFFFFFFFFFFFFFFFFFF AND MUL OR SWAP1 SSTORE POP DUP1 DUP3 PUSH20 0xFFFFFFFFFFFFFFFFFFFFFFFFFFFFFFFFFFFFFFFF AND PUSH1 0x0 PUSH20 0xFFFFFFFFFFFFFFFFFFFFFFFFFFFFFFFFFFFFFFFF AND PUSH32 0xDDF252AD1BE2C89B69C2B068FC378DAA952BA7F163C4A11628F55A4DF523B3EF PUSH1 0x40 MLOAD PUSH1 0x40 MLOAD DUP1 SWAP2 SUB SWAP1 LOG4 PUSH3 0x579 PUSH1 0x0 DUP4 DUP4 PUSH1 0x1 PUSH3 0x770 PUSH1 0x20 SHL PUSH1 0x20 SHR JUMP JUMPDEST POP POP JUMP JUMPDEST PUSH1 0x0 PUSH3 0x5A6 DUP5 PUSH20 0xFFFFFFFFFFFFFFFFFFFFFFFFFFFFFFFFFFFFFFFF AND PUSH3 0x776 PUSH1 0x20 SHL PUSH1 0x20 SHR JUMP JUMPDEST ISZERO PUSH3 0x714 JUMPI DUP4 PUSH20 0xFFFFFFFFFFFFFFFFFFFFFFFFFFFFFFFFFFFFFFFF AND PUSH4 0x150B7A02 PUSH3 0x5D8 PUSH3 0x99 PUSH1 0x20 SHL PUSH1 0x20 SHR JUMP JUMPDEST DUP8 DUP7 DUP7 PUSH1 0x40 MLOAD DUP6 PUSH4 0xFFFFFFFF AND PUSH1 0xE0 SHL DUP2 MSTORE PUSH1 0x4 ADD PUSH3 0x5FC SWAP5 SWAP4 SWAP3 SWAP2 SWAP1 PUSH3 0xFD2 JUMP JUMPDEST PUSH1 0x20 PUSH1 0x40 MLOAD DUP1 DUP4 SUB DUP2 PUSH1 0x0 DUP8 GAS CALL SWAP3 POP POP POP DUP1 ISZERO PUSH3 0x63B JUMPI POP PUSH1 0x40 MLOAD RETURNDATASIZE PUSH1 0x1F NOT PUSH1 0x1F DUP3 ADD AND DUP3 ADD DUP1 PUSH1 0x40 MSTORE POP DUP2 ADD SWAP1 PUSH3 0x638 SWAP2 SWAP1 PUSH3 0x1083 JUMP JUMPDEST PUSH1 0x1 JUMPDEST PUSH3 0x6C3 JUMPI RETURNDATASIZE DUP1 PUSH1 0x0 DUP2 EQ PUSH3 0x66E JUMPI PUSH1 0x40 MLOAD SWAP2 POP PUSH1 0x1F NOT PUSH1 0x3F RETURNDATASIZE ADD AND DUP3 ADD PUSH1 0x40 MSTORE RETURNDATASIZE DUP3 MSTORE RETURNDATASIZE PUSH1 0x0 PUSH1 0x20 DUP5 ADD RETURNDATACOPY PUSH3 0x673 JUMP JUMPDEST PUSH1 0x60 SWAP2 POP JUMPDEST POP PUSH1 0x0 DUP2 MLOAD SUB PUSH3 0x6BB JUMPI PUSH1 0x40 MLOAD PUSH32 0x8C379A000000000000000000000000000000000000000000000000000000000 DUP2 MSTORE PUSH1 0x4 ADD PUSH3 0x6B2 SWAP1 PUSH3 0xE19 JUMP JUMPDEST PUSH1 0x40 MLOAD DUP1 SWAP2 SUB SWAP1 REVERT JUMPDEST DUP1 MLOAD DUP2 PUSH1 0x20 ADD REVERT JUMPDEST PUSH4 0x150B7A02 PUSH1 0xE0 SHL PUSH28 0xFFFFFFFFFFFFFFFFFFFFFFFFFFFFFFFFFFFFFFFFFFFFFFFFFFFFFFFF NOT AND DUP2 PUSH28 0xFFFFFFFFFFFFFFFFFFFFFFFFFFFFFFFFFFFFFFFFFFFFFFFFFFFFFFFF NOT AND EQ SWAP2 POP POP PUSH3 0x719 JUMP JUMPDEST PUSH1 0x1 SWAP1 POP JUMPDEST SWAP5 SWAP4 POP POP POP POP JUMP JUMPDEST PUSH1 0x0 DUP1 PUSH20 0xFFFFFFFFFFFFFFFFFFFFFFFFFFFFFFFFFFFFFFFF AND PUSH3 0x74B DUP4 PUSH3 0x799 PUSH1 0x20 SHL PUSH1 0x20 SHR JUMP JUMPDEST PUSH20 0xFFFFFFFFFFFFFFFFFFFFFFFFFFFFFFFFFFFFFFFF AND EQ ISZERO SWAP1 POP SWAP2 SWAP1 POP JUMP JUMPDEST POP POP POP POP JUMP JUMPDEST POP POP POP POP JUMP JUMPDEST PUSH1 0x0 DUP1 DUP3 PUSH20 0xFFFFFFFFFFFFFFFFFFFFFFFFFFFFFFFFFFFFFFFF AND EXTCODESIZE GT SWAP1 POP SWAP2 SWAP1 POP JUMP JUMPDEST PUSH1 0x0 PUSH1 0x3 PUSH1 0x0 DUP4 DUP2 MSTORE PUSH1 0x20 ADD SWAP1 DUP2 MSTORE PUSH1 0x20 ADD PUSH1 0x0 KECCAK256 PUSH1 0x0 SWAP1 SLOAD SWAP1 PUSH2 0x100 EXP SWAP1 DIV PUSH20 0xFFFFFFFFFFFFFFFFFFFFFFFFFFFFFFFFFFFFFFFF AND SWAP1 POP SWAP2 SWAP1 POP JUMP JUMPDEST PUSH1 0x0 PUSH1 0x40 MLOAD SWAP1 POP SWAP1 JUMP JUMPDEST PUSH1 0x0 DUP1 REVERT JUMPDEST PUSH1 0x0 DUP1 REVERT JUMPDEST PUSH1 0x0 DUP1 REVERT JUMPDEST PUSH1 0x0 DUP1 REVERT JUMPDEST PUSH1 0x0 PUSH1 0x1F NOT PUSH1 0x1F DUP4 ADD AND SWAP1 POP SWAP2 SWAP1 POP JUMP JUMPDEST PUSH32 0x4E487B7100000000000000000000000000000000000000000000000000000000 PUSH1 0x0 MSTORE PUSH1 0x41 PUSH1 0x4 MSTORE PUSH1 0x24 PUSH1 0x0 REVERT JUMPDEST PUSH3 0x83F DUP3 PUSH3 0x7F4 JUMP JUMPDEST DUP2 ADD DUP2 DUP2 LT PUSH8 0xFFFFFFFFFFFFFFFF DUP3 GT OR ISZERO PUSH3 0x861 JUMPI PUSH3 0x860 PUSH3 0x805 JUMP JUMPDEST JUMPDEST DUP1 PUSH1 0x40 MSTORE POP POP POP JUMP JUMPDEST PUSH1 0x0 PUSH3 0x876 PUSH3 0x7D6 JUMP JUMPDEST SWAP1 POP PUSH3 0x884 DUP3 DUP3 PUSH3 0x834 JUMP JUMPDEST SWAP2 SWAP1 POP JUMP JUMPDEST PUSH1 0x0 PUSH8 0xFFFFFFFFFFFFFFFF DUP3 GT ISZERO PUSH3 0x8A7 JUMPI PUSH3 0x8A6 PUSH3 0x805 JUMP JUMPDEST JUMPDEST PUSH3 0x8B2 DUP3 PUSH3 0x7F4 JUMP JUMPDEST SWAP1 POP PUSH1 0x20 DUP2 ADD SWAP1 POP SWAP2 SWAP1 POP JUMP JUMPDEST PUSH1 0x0 JUMPDEST DUP4 DUP2 LT ISZERO PUSH3 0x8DF JUMPI DUP1 DUP3 ADD MLOAD DUP2 DUP5 ADD MSTORE PUSH1 0x20 DUP2 ADD SWAP1 POP PUSH3 0x8C2 JUMP JUMPDEST PUSH1 0x0 DUP5 DUP5 ADD MSTORE POP POP POP POP JUMP JUMPDEST PUSH1 0x0 PUSH3 0x902 PUSH3 0x8FC DUP5 PUSH3 0x889 JUMP JUMPDEST PUSH3 0x86A JUMP JUMPDEST SWAP1 POP DUP3 DUP2 MSTORE PUSH1 0x20 DUP2 ADD DUP5 DUP5 DUP5 ADD GT ISZERO PUSH3 0x921 JUMPI PUSH3 0x920 PUSH3 0x7EF JUMP JUMPDEST JUMPDEST PUSH3 0x92E DUP5 DUP3 DUP6 PUSH3 0x8BF JUMP JUMPDEST POP SWAP4 SWAP3 POP POP POP JUMP JUMPDEST PUSH1 0x0 DUP3 PUSH1 0x1F DUP4 ADD SLT PUSH3 0x94E JUMPI PUSH3 0x94D PUSH3 0x7EA JUMP JUMPDEST JUMPDEST DUP2 MLOAD PUSH3 0x960 DUP5 DUP3 PUSH1 0x20 DUP7 ADD PUSH3 0x8EB JUMP JUMPDEST SWAP2 POP POP SWAP3 SWAP2 POP POP JUMP JUMPDEST PUSH1 0x0 DUP1 PUSH1 0x40 DUP4 DUP6 SUB SLT ISZERO PUSH3 0x983 JUMPI PUSH3 0x982 PUSH3 0x7E0 JUMP JUMPDEST JUMPDEST PUSH1 0x0 DUP4 ADD MLOAD PUSH8 0xFFFFFFFFFFFFFFFF DUP2 GT ISZERO PUSH3 0x9A4 JUMPI PUSH3 0x9A3 PUSH3 0x7E5 JUMP JUMPDEST JUMPDEST PUSH3 0x9B2 DUP6 DUP3 DUP7 ADD PUSH3 0x936 JUMP JUMPDEST SWAP3 POP POP PUSH1 0x20 DUP4 ADD MLOAD PUSH8 0xFFFFFFFFFFFFFFFF DUP2 GT ISZERO PUSH3 0x9D6 JUMPI PUSH3 0x9D5 PUSH3 0x7E5 JUMP JUMPDEST JUMPDEST PUSH3 0x9E4 DUP6 DUP3 DUP7 ADD PUSH3 0x936 JUMP JUMPDEST SWAP2 POP POP SWAP3 POP SWAP3 SWAP1 POP JUMP JUMPDEST PUSH1 0x0 DUP2 MLOAD SWAP1 POP SWAP2 SWAP1 POP JUMP JUMPDEST PUSH32 0x4E487B7100000000000000000000000000000000000000000000000000000000 PUSH1 0x0 MSTORE PUSH1 0x22 PUSH1 0x4 MSTORE PUSH1 0x24 PUSH1 0x0 REVERT JUMPDEST PUSH1 0x0 PUSH1 0x2 DUP3 DIV SWAP1 POP PUSH1 0x1 DUP3 AND DUP1 PUSH3 0xA41 JUMPI PUSH1 0x7F DUP3 AND SWAP2 POP JUMPDEST PUSH1 0x20 DUP3 LT DUP2 SUB PUSH3 0xA57 JUMPI PUSH3 0xA56 PUSH3 0x9F9 JUMP JUMPDEST JUMPDEST POP SWAP2 SWAP1 POP JUMP JUMPDEST PUSH1 0x0 DUP2 SWAP1 POP DUP2 PUSH1 0x0 MSTORE PUSH1 0x20 PUSH1 0x0 KECCAK256 SWAP1 POP SWAP2 SWAP1 POP JUMP JUMPDEST PUSH1 0x0 PUSH1 0x20 PUSH1 0x1F DUP4 ADD DIV SWAP1 POP SWAP2 SWAP1 POP JUMP JUMPDEST PUSH1 0x0 DUP3 DUP3 SHL SWAP1 POP SWAP3 SWAP2 POP POP JUMP JUMPDEST PUSH1 0x0 PUSH1 0x8 DUP4 MUL PUSH3 0xAC1 PUSH32 0xFFFFFFFFFFFFFFFFFFFFFFFFFFFFFFFFFFFFFFFFFFFFFFFFFFFFFFFFFFFFFFFF DUP3 PUSH3 0xA82 JUMP JUMPDEST PUSH3 0xACD DUP7 DUP4 PUSH3 0xA82 JUMP JUMPDEST SWAP6 POP DUP1 NOT DUP5 AND SWAP4 POP DUP1 DUP7 AND DUP5 OR SWAP3 POP POP POP SWAP4 SWAP3 POP POP POP JUMP JUMPDEST PUSH1 0x0 DUP2 SWAP1 POP SWAP2 SWAP1 POP JUMP JUMPDEST PUSH1 0x0 DUP2 SWAP1 POP SWAP2 SWAP1 POP JUMP JUMPDEST PUSH1 0x0 PUSH3 0xB1A PUSH3 0xB14 PUSH3 0xB0E DUP5 PUSH3 0xAE5 JUMP JUMPDEST PUSH3 0xAEF JUMP JUMPDEST PUSH3 0xAE5 JUMP JUMPDEST SWAP1 POP SWAP2 SWAP1 POP JUMP JUMPDEST PUSH1 0x0 DUP2 SWAP1 POP SWAP2 SWAP1 POP JUMP JUMPDEST PUSH3 0xB36 DUP4 PUSH3 0xAF9 JUMP JUMPDEST PUSH3 0xB4E PUSH3 0xB45 DUP3 PUSH3 0xB21 JUMP JUMPDEST DUP5 DUP5 SLOAD PUSH3 0xA8F JUMP JUMPDEST DUP3 SSTORE POP POP POP POP JUMP JUMPDEST PUSH1 0x0 SWAP1 JUMP JUMPDEST PUSH3 0xB65 PUSH3 0xB56 JUMP JUMPDEST PUSH3 0xB72 DUP2 DUP5 DUP5 PUSH3 0xB2B JUMP JUMPDEST POP POP POP JUMP JUMPDEST JUMPDEST DUP2 DUP2 LT ISZERO PUSH3 0xB9A JUMPI PUSH3 0xB8E PUSH1 0x0 DUP3 PUSH3 0xB5B JUMP JUMPDEST PUSH1 0x1 DUP2 ADD SWAP1 POP PUSH3 0xB78 JUMP JUMPDEST POP POP JUMP JUMPDEST PUSH1 0x1F DUP3 GT ISZERO PUSH3 0xBE9 JUMPI PUSH3 0xBB3 DUP2 PUSH3 0xA5D JUMP JUMPDEST PUSH3 0xBBE DUP5 PUSH3 0xA72 JUMP JUMPDEST DUP2 ADD PUSH1 0x20 DUP6 LT ISZERO PUSH3 0xBCE JUMPI DUP2 SWAP1 POP JUMPDEST PUSH3 0xBE6 PUSH3 0xBDD DUP6 PUSH3 0xA72 JUMP JUMPDEST DUP4 ADD DUP3 PUSH3 0xB77 JUMP JUMPDEST POP POP JUMPDEST POP POP POP JUMP JUMPDEST PUSH1 0x0 DUP3 DUP3 SHR SWAP1 POP SWAP3 SWAP2 POP POP JUMP JUMPDEST PUSH1 0x0 PUSH3 0xC0E PUSH1 0x0 NOT DUP5 PUSH1 0x8 MUL PUSH3 0xBEE JUMP JUMPDEST NOT DUP1 DUP4 AND SWAP2 POP POP SWAP3 SWAP2 POP POP JUMP JUMPDEST PUSH1 0x0 PUSH3 0xC29 DUP4 DUP4 PUSH3 0xBFB JUMP JUMPDEST SWAP2 POP DUP3 PUSH1 0x2 MUL DUP3 OR SWAP1 POP SWAP3 SWAP2 POP POP JUMP JUMPDEST PUSH3 0xC44 DUP3 PUSH3 0x9EE JUMP JUMPDEST PUSH8 0xFFFFFFFFFFFFFFFF DUP2 GT ISZERO PUSH3 0xC60 JUMPI PUSH3 0xC5F PUSH3 0x805 JUMP JUMPDEST JUMPDEST PUSH3 0xC6C DUP3 SLOAD PUSH3 0xA28 JUMP JUMPDEST PUSH3 0xC79 DUP3 DUP3 DUP6 PUSH3 0xB9E JUMP JUMPDEST PUSH1 0x0 PUSH1 0x20 SWAP1 POP PUSH1 0x1F DUP4 GT PUSH1 0x1 DUP2 EQ PUSH3 0xCB1 JUMPI PUSH1 0x0 DUP5 ISZERO PUSH3 0xC9C JUMPI DUP3 DUP8 ADD MLOAD SWAP1 POP JUMPDEST PUSH3 0xCA8 DUP6 DUP3 PUSH3 0xC1B JUMP JUMPDEST DUP7 SSTORE POP PUSH3 0xD18 JUMP JUMPDEST PUSH1 0x1F NOT DUP5 AND PUSH3 0xCC1 DUP7 PUSH3 0xA5D JUMP JUMPDEST PUSH1 0x0 JUMPDEST DUP3 DUP2 LT ISZERO PUSH3 0xCEB JUMPI DUP5 DUP10 ADD MLOAD DUP3 SSTORE PUSH1 0x1 DUP3 ADD SWAP2 POP PUSH1 0x20 DUP6 ADD SWAP5 POP PUSH1 0x20 DUP2 ADD SWAP1 POP PUSH3 0xCC4 JUMP JUMPDEST DUP7 DUP4 LT ISZERO PUSH3 0xD0B JUMPI DUP5 DUP10 ADD MLOAD PUSH3 0xD07 PUSH1 0x1F DUP10 AND DUP3 PUSH3 0xBFB JUMP JUMPDEST DUP4 SSTORE POP JUMPDEST PUSH1 0x1 PUSH1 0x2 DUP9 MUL ADD DUP9 SSTORE POP POP POP JUMPDEST POP POP POP POP POP POP JUMP JUMPDEST PUSH1 0x0 DUP3 DUP3 MSTORE PUSH1 0x20 DUP3 ADD SWAP1 POP SWAP3 SWAP2 POP POP JUMP JUMPDEST PUSH32 0x4F776E61626C653A2063616C6C6572206973206E6F7420746865206F776E6572 PUSH1 0x0 DUP3 ADD MSTORE POP JUMP JUMPDEST PUSH1 0x0 PUSH3 0xD69 PUSH1 0x20 DUP4 PUSH3 0xD20 JUMP JUMPDEST SWAP2 POP PUSH3 0xD76 DUP3 PUSH3 0xD31 JUMP JUMPDEST PUSH1 0x20 DUP3 ADD SWAP1 POP SWAP2 SWAP1 POP JUMP JUMPDEST PUSH1 0x0 PUSH1 0x20 DUP3 ADD SWAP1 POP DUP2 DUP2 SUB PUSH1 0x0 DUP4 ADD MSTORE PUSH3 0xD9C DUP2 PUSH3 0xD5A JUMP JUMPDEST SWAP1 POP SWAP2 SWAP1 POP JUMP JUMPDEST PUSH32 0x4552433732313A207472616E7366657220746F206E6F6E204552433732315265 PUSH1 0x0 DUP3 ADD MSTORE PUSH32 0x63656976657220696D706C656D656E7465720000000000000000000000000000 PUSH1 0x20 DUP3 ADD MSTORE POP JUMP JUMPDEST PUSH1 0x0 PUSH3 0xE01 PUSH1 0x32 DUP4 PUSH3 0xD20 JUMP JUMPDEST SWAP2 POP PUSH3 0xE0E DUP3 PUSH3 0xDA3 JUMP JUMPDEST PUSH1 0x40 DUP3 ADD SWAP1 POP SWAP2 SWAP1 POP JUMP JUMPDEST PUSH1 0x0 PUSH1 0x20 DUP3 ADD SWAP1 POP DUP2 DUP2 SUB PUSH1 0x0 DUP4 ADD MSTORE PUSH3 0xE34 DUP2 PUSH3 0xDF2 JUMP JUMPDEST SWAP1 POP SWAP2 SWAP1 POP JUMP JUMPDEST PUSH32 0x4552433732313A206D696E7420746F20746865207A65726F2061646472657373 PUSH1 0x0 DUP3 ADD MSTORE POP JUMP JUMPDEST PUSH1 0x0 PUSH3 0xE73 PUSH1 0x20 DUP4 PUSH3 0xD20 JUMP JUMPDEST SWAP2 POP PUSH3 0xE80 DUP3 PUSH3 0xE3B JUMP JUMPDEST PUSH1 0x20 DUP3 ADD SWAP1 POP SWAP2 SWAP1 POP JUMP JUMPDEST PUSH1 0x0 PUSH1 0x20 DUP3 ADD SWAP1 POP DUP2 DUP2 SUB PUSH1 0x0 DUP4 ADD MSTORE PUSH3 0xEA6 DUP2 PUSH3 0xE64 JUMP JUMPDEST SWAP1 POP SWAP2 SWAP1 POP JUMP JUMPDEST PUSH32 0x4552433732313A20746F6B656E20616C7265616479206D696E74656400000000 PUSH1 0x0 DUP3 ADD MSTORE POP JUMP JUMPDEST PUSH1 0x0 PUSH3 0xEE5 PUSH1 0x1C DUP4 PUSH3 0xD20 JUMP JUMPDEST SWAP2 POP PUSH3 0xEF2 DUP3 PUSH3 0xEAD JUMP JUMPDEST PUSH1 0x20 DUP3 ADD SWAP1 POP SWAP2 SWAP1 POP JUMP JUMPDEST PUSH1 0x0 PUSH1 0x20 DUP3 ADD SWAP1 POP DUP2 DUP2 SUB PUSH1 0x0 DUP4 ADD MSTORE PUSH3 0xF18 DUP2 PUSH3 0xED6 JUMP JUMPDEST SWAP1 POP SWAP2 SWAP1 POP JUMP JUMPDEST PUSH1 0x0 PUSH20 0xFFFFFFFFFFFFFFFFFFFFFFFFFFFFFFFFFFFFFFFF DUP3 AND SWAP1 POP SWAP2 SWAP1 POP JUMP JUMPDEST PUSH1 0x0 PUSH3 0xF4C DUP3 PUSH3 0xF1F JUMP JUMPDEST SWAP1 POP SWAP2 SWAP1 POP JUMP JUMPDEST PUSH3 0xF5E DUP2 PUSH3 0xF3F JUMP JUMPDEST DUP3 MSTORE POP POP JUMP JUMPDEST PUSH3 0xF6F DUP2 PUSH3 0xAE5 JUMP JUMPDEST DUP3 MSTORE POP POP JUMP JUMPDEST PUSH1 0x0 DUP2 MLOAD SWAP1 POP SWAP2 SWAP1 POP JUMP JUMPDEST PUSH1 0x0 DUP3 DUP3 MSTORE PUSH1 0x20 DUP3 ADD SWAP1 POP SWAP3 SWAP2 POP POP JUMP JUMPDEST PUSH1 0x0 PUSH3 0xF9E DUP3 PUSH3 0xF75 JUMP JUMPDEST PUSH3 0xFAA DUP2 DUP6 PUSH3 0xF80 JUMP JUMPDEST SWAP4 POP PUSH3 0xFBC DUP2 DUP6 PUSH1 0x20 DUP7 ADD PUSH3 0x8BF JUMP JUMPDEST PUSH3 0xFC7 DUP2 PUSH3 0x7F4 JUMP JUMPDEST DUP5 ADD SWAP2 POP POP SWAP3 SWAP2 POP POP JUMP JUMPDEST PUSH1 0x0 PUSH1 0x80 DUP3 ADD SWAP1 POP PUSH3 0xFE9 PUSH1 0x0 DUP4 ADD DUP8 PUSH3 0xF53 JUMP JUMPDEST PUSH3 0xFF8 PUSH1 0x20 DUP4 ADD DUP7 PUSH3 0xF53 JUMP JUMPDEST PUSH3 0x1007 PUSH1 0x40 DUP4 ADD DUP6 PUSH3 0xF64 JUMP JUMPDEST DUP2 DUP2 SUB PUSH1 0x60 DUP4 ADD MSTORE PUSH3 0x101B DUP2 DUP5 PUSH3 0xF91 JUMP JUMPDEST SWAP1 POP SWAP6 SWAP5 POP POP POP POP POP JUMP JUMPDEST PUSH1 0x0 PUSH32 0xFFFFFFFF00000000000000000000000000000000000000000000000000000000 DUP3 AND SWAP1 POP SWAP2 SWAP1 POP JUMP JUMPDEST PUSH3 0x105D DUP2 PUSH3 0x1026 JUMP JUMPDEST DUP2 EQ PUSH3 0x1069 JUMPI PUSH1 0x0 DUP1 REVERT JUMPDEST POP JUMP JUMPDEST PUSH1 0x0 DUP2 MLOAD SWAP1 POP PUSH3 0x107D DUP2 PUSH3 0x1052 JUMP JUMPDEST SWAP3 SWAP2 POP POP JUMP JUMPDEST PUSH1 0x0 PUSH1 0x20 DUP3 DUP5 SUB SLT ISZERO PUSH3 0x109C JUMPI PUSH3 0x109B PUSH3 0x7E0 JUMP JUMPDEST JUMPDEST PUSH1 0x0 PUSH3 0x10AC DUP5 DUP3 DUP6 ADD PUSH3 0x106C JUMP JUMPDEST SWAP2 POP POP SWAP3 SWAP2 POP POP JUMP JUMPDEST PUSH2 0x6629 DUP1 PUSH3 0x10C5 PUSH1 0x0 CODECOPY PUSH1 0x0 RETURN INVALID PUSH1 0x80 PUSH1 0x40 MSTORE CALLVALUE DUP1 ISZERO PUSH2 0x10 JUMPI PUSH1 0x0 DUP1 REVERT JUMPDEST POP PUSH1 0x4 CALLDATASIZE LT PUSH2 0x1E5 JUMPI PUSH1 0x0 CALLDATALOAD PUSH1 0xE0 SHR DUP1 PUSH4 0x715018A6 GT PUSH2 0x10F JUMPI DUP1 PUSH4 0xB88D4FDE GT PUSH2 0xA2 JUMPI DUP1 PUSH4 0xDA96E10C GT PUSH2 0x71 JUMPI DUP1 PUSH4 0xDA96E10C EQ PUSH2 0x5C8 JUMPI DUP1 PUSH4 0xE985E9C5 EQ PUSH2 0x5E6 JUMPI DUP1 PUSH4 0xF12B758A EQ PUSH2 0x616 JUMPI DUP1 PUSH4 0xF2FDE38B EQ PUSH2 0x64B JUMPI PUSH2 0x1E5 JUMP JUMPDEST DUP1 PUSH4 0xB88D4FDE EQ PUSH2 0x51C JUMPI DUP1 PUSH4 0xBB3F9F8D EQ PUSH2 0x538 JUMPI DUP1 PUSH4 0xC87B56DD EQ PUSH2 0x568 JUMPI DUP1 PUSH4 0xD39B59C8 EQ PUSH2 0x598 JUMPI PUSH2 0x1E5 JUMP JUMPDEST DUP1 PUSH4 0x8DA5CB5B GT PUSH2 0xDE JUMPI DUP1 PUSH4 0x8DA5CB5B EQ PUSH2 0x4A8 JUMPI DUP1 PUSH4 0x95D89B41 EQ PUSH2 0x4C6 JUMPI DUP1 PUSH4 0xA22CB465 EQ PUSH2 0x4E4 JUMPI DUP1 PUSH4 0xA6C50B4D EQ PUSH2 0x500 JUMPI PUSH2 0x1E5 JUMP JUMPDEST DUP1 PUSH4 0x715018A6 EQ PUSH2 0x436 JUMPI DUP1 PUSH4 0x7476C43A EQ PUSH2 0x440 JUMPI DUP1 PUSH4 0x7D622184 EQ PUSH2 0x45C JUMPI DUP1 PUSH4 0x7E1D42B5 EQ PUSH2 0x48C JUMPI PUSH2 0x1E5 JUMP JUMPDEST DUP1 PUSH4 0x4DCC0AA6 GT PUSH2 0x187 JUMPI DUP1 PUSH4 0x5FE39E0D GT PUSH2 0x156 JUMPI DUP1 PUSH4 0x5FE39E0D EQ PUSH2 0x39E JUMPI DUP1 PUSH4 0x602F9834 EQ PUSH2 0x3BA JUMPI DUP1 PUSH4 0x6352211E EQ PUSH2 0x3D6 JUMPI DUP1 PUSH4 0x70A08231 EQ PUSH2 0x406 JUMPI PUSH2 0x1E5 JUMP JUMPDEST DUP1 PUSH4 0x4DCC0AA6 EQ PUSH2 0x2ED JUMPI DUP1 PUSH4 0x4EEB7391 EQ PUSH2 0x31D JUMPI DUP1 PUSH4 0x54BA0F27 EQ PUSH2 0x352 JUMPI DUP1 PUSH4 0x59565FDB EQ PUSH2 0x382 JUMPI PUSH2 0x1E5 JUMP JUMPDEST DUP1 PUSH4 0x95EA7B3 GT PUSH2 0x1C3 JUMPI DUP1 PUSH4 0x95EA7B3 EQ PUSH2 0x268 JUMPI DUP1 PUSH4 0x23B872DD EQ PUSH2 0x284 JUMPI DUP1 PUSH4 0x4252AE9B EQ PUSH2 0x2A0 JUMPI DUP1 PUSH4 0x42842E0E EQ PUSH2 0x2D1 JUMPI PUSH2 0x1E5 JUMP JUMPDEST DUP1 PUSH4 0x1FFC9A7 EQ PUSH2 0x1EA JUMPI DUP1 PUSH4 0x6FDDE03 EQ PUSH2 0x21A JUMPI DUP1 PUSH4 0x81812FC EQ PUSH2 0x238 JUMPI JUMPDEST PUSH1 0x0 DUP1 REVERT JUMPDEST PUSH2 0x204 PUSH1 0x4 DUP1 CALLDATASIZE SUB DUP2 ADD SWAP1 PUSH2 0x1FF SWAP2 SWAP1 PUSH2 0x34A6 JUMP JUMPDEST PUSH2 0x667 JUMP JUMPDEST PUSH1 0x40 MLOAD PUSH2 0x211 SWAP2 SWAP1 PUSH2 0x34EE JUMP JUMPDEST PUSH1 0x40 MLOAD DUP1 SWAP2 SUB SWAP1 RETURN JUMPDEST PUSH2 0x222 PUSH2 0x749 JUMP JUMPDEST PUSH1 0x40 MLOAD PUSH2 0x22F SWAP2 SWAP1 PUSH2 0x3599 JUMP JUMPDEST PUSH1 0x40 MLOAD DUP1 SWAP2 SUB SWAP1 RETURN JUMPDEST PUSH2 0x252 PUSH1 0x4 DUP1 CALLDATASIZE SUB DUP2 ADD SWAP1 PUSH2 0x24D SWAP2 SWAP1 PUSH2 0x35F1 JUMP JUMPDEST PUSH2 0x7DB JUMP JUMPDEST PUSH1 0x40 MLOAD PUSH2 0x25F SWAP2 SWAP1 PUSH2 0x365F JUMP JUMPDEST PUSH1 0x40 MLOAD DUP1 SWAP2 SUB SWAP1 RETURN JUMPDEST PUSH2 0x282 PUSH1 0x4 DUP1 CALLDATASIZE SUB DUP2 ADD SWAP1 PUSH2 0x27D SWAP2 SWAP1 PUSH2 0x36A6 JUMP JUMPDEST PUSH2 0x821 JUMP JUMPDEST STOP JUMPDEST PUSH2 0x29E PUSH1 0x4 DUP1 CALLDATASIZE SUB DUP2 ADD SWAP1 PUSH2 0x299 SWAP2 SWAP1 PUSH2 0x36E6 JUMP JUMPDEST PUSH2 0x938 JUMP JUMPDEST STOP JUMPDEST PUSH2 0x2BA PUSH1 0x4 DUP1 CALLDATASIZE SUB DUP2 ADD SWAP1 PUSH2 0x2B5 SWAP2 SWAP1 PUSH2 0x35F1 JUMP JUMPDEST PUSH2 0x998 JUMP JUMPDEST PUSH1 0x40 MLOAD PUSH2 0x2C8 SWAP3 SWAP2 SWAP1 PUSH2 0x378E JUMP JUMPDEST PUSH1 0x40 MLOAD DUP1 SWAP2 SUB SWAP1 RETURN JUMPDEST PUSH2 0x2EB PUSH1 0x4 DUP1 CALLDATASIZE SUB DUP2 ADD SWAP1 PUSH2 0x2E6 SWAP2 SWAP1 PUSH2 0x36E6 JUMP JUMPDEST PUSH2 0xA61 JUMP JUMPDEST STOP JUMPDEST PUSH2 0x307 PUSH1 0x4 DUP1 CALLDATASIZE SUB DUP2 ADD SWAP1 PUSH2 0x302 SWAP2 SWAP1 PUSH2 0x37E2 JUMP JUMPDEST PUSH2 0xA81 JUMP JUMPDEST PUSH1 0x40 MLOAD PUSH2 0x314 SWAP2 SWAP1 PUSH2 0x38C1 JUMP JUMPDEST PUSH1 0x40 MLOAD DUP1 SWAP2 SUB SWAP1 RETURN JUMPDEST PUSH2 0x337 PUSH1 0x4 DUP1 CALLDATASIZE SUB DUP2 ADD SWAP1 PUSH2 0x332 SWAP2 SWAP1 PUSH2 0x35F1 JUMP JUMPDEST PUSH2 0xBBE JUMP JUMPDEST PUSH1 0x40 MLOAD PUSH2 0x349 SWAP7 SWAP6 SWAP5 SWAP4 SWAP3 SWAP2 SWAP1 PUSH2 0x39E4 JUMP JUMPDEST PUSH1 0x40 MLOAD DUP1 SWAP2 SUB SWAP1 RETURN JUMPDEST PUSH2 0x36C PUSH1 0x4 DUP1 CALLDATASIZE SUB DUP2 ADD SWAP1 PUSH2 0x367 SWAP2 SWAP1 PUSH2 0x3A5A JUMP JUMPDEST PUSH2 0xE74 JUMP JUMPDEST PUSH1 0x40 MLOAD PUSH2 0x379 SWAP2 SWAP1 PUSH2 0x3A96 JUMP JUMPDEST PUSH1 0x40 MLOAD DUP1 SWAP2 SUB SWAP1 RETURN JUMPDEST PUSH2 0x39C PUSH1 0x4 DUP1 CALLDATASIZE SUB DUP2 ADD SWAP1 PUSH2 0x397 SWAP2 SWAP1 PUSH2 0x3B80 JUMP JUMPDEST PUSH2 0xEAC JUMP JUMPDEST STOP JUMPDEST PUSH2 0x3B8 PUSH1 0x4 DUP1 CALLDATASIZE SUB DUP2 ADD SWAP1 PUSH2 0x3B3 SWAP2 SWAP1 PUSH2 0x3CC2 JUMP JUMPDEST PUSH2 0xF6D JUMP JUMPDEST STOP JUMPDEST PUSH2 0x3D4 PUSH1 0x4 DUP1 CALLDATASIZE SUB DUP2 ADD SWAP1 PUSH2 0x3CF SWAP2 SWAP1 PUSH2 0x37E2 JUMP JUMPDEST PUSH2 0x1029 JUMP JUMPDEST STOP JUMPDEST PUSH2 0x3F0 PUSH1 0x4 DUP1 CALLDATASIZE SUB DUP2 ADD SWAP1 PUSH2 0x3EB SWAP2 SWAP1 PUSH2 0x35F1 JUMP JUMPDEST PUSH2 0x1066 JUMP JUMPDEST PUSH1 0x40 MLOAD PUSH2 0x3FD SWAP2 SWAP1 PUSH2 0x365F JUMP JUMPDEST PUSH1 0x40 MLOAD DUP1 SWAP2 SUB SWAP1 RETURN JUMPDEST PUSH2 0x420 PUSH1 0x4 DUP1 CALLDATASIZE SUB DUP2 ADD SWAP1 PUSH2 0x41B SWAP2 SWAP1 PUSH2 0x3A5A JUMP JUMPDEST PUSH2 0x10EC JUMP JUMPDEST PUSH1 0x40 MLOAD PUSH2 0x42D SWAP2 SWAP1 PUSH2 0x3A96 JUMP JUMPDEST PUSH1 0x40 MLOAD DUP1 SWAP2 SUB SWAP1 RETURN JUMPDEST PUSH2 0x43E PUSH2 0x11A3 JUMP JUMPDEST STOP JUMPDEST PUSH2 0x45A PUSH1 0x4 DUP1 CALLDATASIZE SUB DUP2 ADD SWAP1 PUSH2 0x455 SWAP2 SWAP1 PUSH2 0x3E85 JUMP JUMPDEST PUSH2 0x11B7 JUMP JUMPDEST STOP JUMPDEST PUSH2 0x476 PUSH1 0x4 DUP1 CALLDATASIZE SUB DUP2 ADD SWAP1 PUSH2 0x471 SWAP2 SWAP1 PUSH2 0x35F1 JUMP JUMPDEST PUSH2 0x1298 JUMP JUMPDEST PUSH1 0x40 MLOAD PUSH2 0x483 SWAP2 SWAP1 PUSH2 0x3599 JUMP JUMPDEST PUSH1 0x40 MLOAD DUP1 SWAP2 SUB SWAP1 RETURN JUMPDEST PUSH2 0x4A6 PUSH1 0x4 DUP1 CALLDATASIZE SUB DUP2 ADD SWAP1 PUSH2 0x4A1 SWAP2 SWAP1 PUSH2 0x3F27 JUMP JUMPDEST PUSH2 0x1344 JUMP JUMPDEST STOP JUMPDEST PUSH2 0x4B0 PUSH2 0x1382 JUMP JUMPDEST PUSH1 0x40 MLOAD PUSH2 0x4BD SWAP2 SWAP1 PUSH2 0x365F JUMP JUMPDEST PUSH1 0x40 MLOAD DUP1 SWAP2 SUB SWAP1 RETURN JUMPDEST PUSH2 0x4CE PUSH2 0x13AB JUMP JUMPDEST PUSH1 0x40 MLOAD PUSH2 0x4DB SWAP2 SWAP1 PUSH2 0x3599 JUMP JUMPDEST PUSH1 0x40 MLOAD DUP1 SWAP2 SUB SWAP1 RETURN JUMPDEST PUSH2 0x4FE PUSH1 0x4 DUP1 CALLDATASIZE SUB DUP2 ADD SWAP1 PUSH2 0x4F9 SWAP2 SWAP1 PUSH2 0x3F9F JUMP JUMPDEST PUSH2 0x143D JUMP JUMPDEST STOP JUMPDEST PUSH2 0x51A PUSH1 0x4 DUP1 CALLDATASIZE SUB DUP2 ADD SWAP1 PUSH2 0x515 SWAP2 SWAP1 PUSH2 0x3FDF JUMP JUMPDEST PUSH2 0x1453 JUMP JUMPDEST STOP JUMPDEST PUSH2 0x536 PUSH1 0x4 DUP1 CALLDATASIZE SUB DUP2 ADD SWAP1 PUSH2 0x531 SWAP2 SWAP1 PUSH2 0x40F4 JUMP JUMPDEST PUSH2 0x1563 JUMP JUMPDEST STOP JUMPDEST PUSH2 0x552 PUSH1 0x4 DUP1 CALLDATASIZE SUB DUP2 ADD SWAP1 PUSH2 0x54D SWAP2 SWAP1 PUSH2 0x35F1 JUMP JUMPDEST PUSH2 0x15C5 JUMP JUMPDEST PUSH1 0x40 MLOAD PUSH2 0x55F SWAP2 SWAP1 PUSH2 0x4186 JUMP JUMPDEST PUSH1 0x40 MLOAD DUP1 SWAP2 SUB SWAP1 RETURN JUMPDEST PUSH2 0x582 PUSH1 0x4 DUP1 CALLDATASIZE SUB DUP2 ADD SWAP1 PUSH2 0x57D SWAP2 SWAP1 PUSH2 0x35F1 JUMP JUMPDEST PUSH2 0x15E9 JUMP JUMPDEST PUSH1 0x40 MLOAD PUSH2 0x58F SWAP2 SWAP1 PUSH2 0x3599 JUMP JUMPDEST PUSH1 0x40 MLOAD DUP1 SWAP2 SUB SWAP1 RETURN JUMPDEST PUSH2 0x5B2 PUSH1 0x4 DUP1 CALLDATASIZE SUB DUP2 ADD SWAP1 PUSH2 0x5AD SWAP2 SWAP1 PUSH2 0x41C6 JUMP JUMPDEST PUSH2 0x1653 JUMP JUMPDEST PUSH1 0x40 MLOAD PUSH2 0x5BF SWAP2 SWAP1 PUSH2 0x3599 JUMP JUMPDEST PUSH1 0x40 MLOAD DUP1 SWAP2 SUB SWAP1 RETURN JUMPDEST PUSH2 0x5D0 PUSH2 0x1823 JUMP JUMPDEST PUSH1 0x40 MLOAD PUSH2 0x5DD SWAP2 SWAP1 PUSH2 0x4349 JUMP JUMPDEST PUSH1 0x40 MLOAD DUP1 SWAP2 SUB SWAP1 RETURN JUMPDEST PUSH2 0x600 PUSH1 0x4 DUP1 CALLDATASIZE SUB DUP2 ADD SWAP1 PUSH2 0x5FB SWAP2 SWAP1 PUSH2 0x4364 JUMP JUMPDEST PUSH2 0x1849 JUMP JUMPDEST PUSH1 0x40 MLOAD PUSH2 0x60D SWAP2 SWAP1 PUSH2 0x34EE JUMP JUMPDEST PUSH1 0x40 MLOAD DUP1 SWAP2 SUB SWAP1 RETURN JUMPDEST PUSH2 0x630 PUSH1 0x4 DUP1 CALLDATASIZE SUB DUP2 ADD SWAP1 PUSH2 0x62B SWAP2 SWAP1 PUSH2 0x35F1 JUMP JUMPDEST PUSH2 0x18DD JUMP JUMPDEST PUSH1 0x40 MLOAD PUSH2 0x642 SWAP7 SWAP6 SWAP5 SWAP4 SWAP3 SWAP2 SWAP1 PUSH2 0x39E4 JUMP JUMPDEST PUSH1 0x40 MLOAD DUP1 SWAP2 SUB SWAP1 RETURN JUMPDEST PUSH2 0x665 PUSH1 0x4 DUP1 CALLDATASIZE SUB DUP2 ADD SWAP1 PUSH2 0x660 SWAP2 SWAP1 PUSH2 0x3A5A JUMP JUMPDEST PUSH2 0x1B93 JUMP JUMPDEST STOP JUMPDEST PUSH1 0x0 PUSH32 0x80AC58CD00000000000000000000000000000000000000000000000000000000 PUSH28 0xFFFFFFFFFFFFFFFFFFFFFFFFFFFFFFFFFFFFFFFFFFFFFFFFFFFFFFFF NOT AND DUP3 PUSH28 0xFFFFFFFFFFFFFFFFFFFFFFFFFFFFFFFFFFFFFFFFFFFFFFFFFFFFFFFF NOT AND EQ DUP1 PUSH2 0x732 JUMPI POP PUSH32 0x5B5E139F00000000000000000000000000000000000000000000000000000000 PUSH28 0xFFFFFFFFFFFFFFFFFFFFFFFFFFFFFFFFFFFFFFFFFFFFFFFFFFFFFFFF NOT AND DUP3 PUSH28 0xFFFFFFFFFFFFFFFFFFFFFFFFFFFFFFFFFFFFFFFFFFFFFFFFFFFFFFFF NOT AND EQ JUMPDEST DUP1 PUSH2 0x742 JUMPI POP PUSH2 0x741 DUP3 PUSH2 0x1C16 JUMP JUMPDEST JUMPDEST SWAP1 POP SWAP2 SWAP1 POP JUMP JUMPDEST PUSH1 0x60 PUSH1 0x1 DUP1 SLOAD PUSH2 0x758 SWAP1 PUSH2 0x43D3 JUMP JUMPDEST DUP1 PUSH1 0x1F ADD PUSH1 0x20 DUP1 SWAP2 DIV MUL PUSH1 0x20 ADD PUSH1 0x40 MLOAD SWAP1 DUP2 ADD PUSH1 0x40 MSTORE DUP1 SWAP3 SWAP2 SWAP1 DUP2 DUP2 MSTORE PUSH1 0x20 ADD DUP3 DUP1 SLOAD PUSH2 0x784 SWAP1 PUSH2 0x43D3 JUMP JUMPDEST DUP1 ISZERO PUSH2 0x7D1 JUMPI DUP1 PUSH1 0x1F LT PUSH2 0x7A6 JUMPI PUSH2 0x100 DUP1 DUP4 SLOAD DIV MUL DUP4 MSTORE SWAP2 PUSH1 0x20 ADD SWAP2 PUSH2 0x7D1 JUMP JUMPDEST DUP3 ADD SWAP2 SWAP1 PUSH1 0x0 MSTORE PUSH1 0x20 PUSH1 0x0 KECCAK256 SWAP1 JUMPDEST DUP2 SLOAD DUP2 MSTORE SWAP1 PUSH1 0x1 ADD SWAP1 PUSH1 0x20 ADD DUP1 DUP4 GT PUSH2 0x7B4 JUMPI DUP3 SWAP1 SUB PUSH1 0x1F AND DUP3 ADD SWAP2 JUMPDEST POP POP POP POP POP SWAP1 POP SWAP1 JUMP JUMPDEST PUSH1 0x0 PUSH2 0x7E6 DUP3 PUSH2 0x1C80 JUMP JUMPDEST PUSH1 0x5 PUSH1 0x0 DUP4 DUP2 MSTORE PUSH1 0x20 ADD SWAP1 DUP2 MSTORE PUSH1 0x20 ADD PUSH1 0x0 KECCAK256 PUSH1 0x0 SWAP1 SLOAD SWAP1 PUSH2 0x100 EXP SWAP1 DIV PUSH20 0xFFFFFFFFFFFFFFFFFFFFFFFFFFFFFFFFFFFFFFFF AND SWAP1 POP SWAP2 SWAP1 POP JUMP JUMPDEST PUSH1 0x0 PUSH2 0x82C DUP3 PUSH2 0x1066 JUMP JUMPDEST SWAP1 POP DUP1 PUSH20 0xFFFFFFFFFFFFFFFFFFFFFFFFFFFFFFFFFFFFFFFF AND DUP4 PUSH20 0xFFFFFFFFFFFFFFFFFFFFFFFFFFFFFFFFFFFFFFFF AND SUB PUSH2 0x89C JUMPI PUSH1 0x40 MLOAD PUSH32 0x8C379A000000000000000000000000000000000000000000000000000000000 DUP2 MSTORE PUSH1 0x4 ADD PUSH2 0x893 SWAP1 PUSH2 0x4476 JUMP JUMPDEST PUSH1 0x40 MLOAD DUP1 SWAP2 SUB SWAP1 REVERT JUMPDEST DUP1 PUSH20 0xFFFFFFFFFFFFFFFFFFFFFFFFFFFFFFFFFFFFFFFF AND PUSH2 0x8BB PUSH2 0x1CCB JUMP JUMPDEST PUSH20 0xFFFFFFFFFFFFFFFFFFFFFFFFFFFFFFFFFFFFFFFF AND EQ DUP1 PUSH2 0x8EA JUMPI POP PUSH2 0x8E9 DUP2 PUSH2 0x8E4 PUSH2 0x1CCB JUMP JUMPDEST PUSH2 0x1849 JUMP JUMPDEST JUMPDEST PUSH2 0x929 JUMPI PUSH1 0x40 MLOAD PUSH32 0x8C379A000000000000000000000000000000000000000000000000000000000 DUP2 MSTORE PUSH1 0x4 ADD PUSH2 0x920 SWAP1 PUSH2 0x4508 JUMP JUMPDEST PUSH1 0x40 MLOAD DUP1 SWAP2 SUB SWAP1 REVERT JUMPDEST PUSH2 0x933 DUP4 DUP4 PUSH2 0x1CD3 JUMP JUMPDEST POP POP POP JUMP JUMPDEST PUSH2 0x949 PUSH2 0x943 PUSH2 0x1CCB JUMP JUMPDEST DUP3 PUSH2 0x1D8C JUMP JUMPDEST PUSH2 0x988 JUMPI PUSH1 0x40 MLOAD PUSH32 0x8C379A000000000000000000000000000000000000000000000000000000000 DUP2 MSTORE PUSH1 0x4 ADD PUSH2 0x97F SWAP1 PUSH2 0x459A JUMP JUMPDEST PUSH1 0x40 MLOAD DUP1 SWAP2 SUB SWAP1 REVERT JUMPDEST PUSH2 0x993 DUP4 DUP4 DUP4 PUSH2 0x1E21 JUMP JUMPDEST POP POP POP JUMP JUMPDEST PUSH1 0x9 DUP2 DUP2 SLOAD DUP2 LT PUSH2 0x9A8 JUMPI PUSH1 0x0 DUP1 REVERT JUMPDEST SWAP1 PUSH1 0x0 MSTORE PUSH1 0x20 PUSH1 0x0 KECCAK256 SWAP1 PUSH1 0x2 MUL ADD PUSH1 0x0 SWAP2 POP SWAP1 POP DUP1 PUSH1 0x0 ADD PUSH1 0x0 SWAP1 SLOAD SWAP1 PUSH2 0x100 EXP SWAP1 DIV PUSH1 0xFF AND SWAP1 DUP1 PUSH1 0x1 ADD DUP1 SLOAD PUSH2 0x9DE SWAP1 PUSH2 0x43D3 JUMP JUMPDEST DUP1 PUSH1 0x1F ADD PUSH1 0x20 DUP1 SWAP2 DIV MUL PUSH1 0x20 ADD PUSH1 0x40 MLOAD SWAP1 DUP2 ADD PUSH1 0x40 MSTORE DUP1 SWAP3 SWAP2 SWAP1 DUP2 DUP2 MSTORE PUSH1 0x20 ADD DUP3 DUP1 SLOAD PUSH2 0xA0A SWAP1 PUSH2 0x43D3 JUMP JUMPDEST DUP1 ISZERO PUSH2 0xA57 JUMPI DUP1 PUSH1 0x1F LT PUSH2 0xA2C JUMPI PUSH2 0x100 DUP1 DUP4 SLOAD DIV MUL DUP4 MSTORE SWAP2 PUSH1 0x20 ADD SWAP2 PUSH2 0xA57 JUMP JUMPDEST DUP3 ADD SWAP2 SWAP1 PUSH1 0x0 MSTORE PUSH1 0x20 PUSH1 0x0 KECCAK256 SWAP1 JUMPDEST DUP2 SLOAD DUP2 MSTORE SWAP1 PUSH1 0x1 ADD SWAP1 PUSH1 0x20 ADD DUP1 DUP4 GT PUSH2 0xA3A JUMPI DUP3 SWAP1 SUB PUSH1 0x1F AND DUP3 ADD SWAP2 JUMPDEST POP POP POP POP POP SWAP1 POP DUP3 JUMP JUMPDEST PUSH2 0xA7C DUP4 DUP4 DUP4 PUSH1 0x40 MLOAD DUP1 PUSH1 0x20 ADD PUSH1 0x40 MSTORE DUP1 PUSH1 0x0 DUP2 MSTORE POP PUSH2 0x1563 JUMP JUMPDEST POP POP POP JUMP JUMPDEST PUSH2 0xA89 PUSH2 0x341E JUMP JUMPDEST PUSH1 0xB DUP3 SWAP1 DUP1 PUSH1 0x1 DUP2 SLOAD ADD DUP1 DUP3 SSTORE DUP1 SWAP2 POP POP PUSH1 0x1 SWAP1 SUB SWAP1 PUSH1 0x0 MSTORE PUSH1 0x20 PUSH1 0x0 KECCAK256 SWAP1 PUSH1 0x8 MUL ADD PUSH1 0x0 SWAP1 SWAP2 SWAP1 SWAP2 SWAP1 SWAP2 POP DUP2 DUP2 PUSH2 0xAC1 SWAP2 SWAP1 PUSH2 0x4DAE JUMP JUMPDEST POP POP PUSH1 0x0 DUP3 DUP1 PUSH1 0x60 ADD SWAP1 PUSH2 0xAD5 SWAP2 SWAP1 PUSH2 0x4A94 JUMP JUMPDEST DUP2 ADD SWAP1 PUSH2 0xAE2 SWAP2 SWAP1 PUSH2 0x504B JUMP JUMPDEST SWAP1 POP PUSH1 0x0 PUSH2 0xB0E DUP3 PUSH1 0x60 ADD MLOAD PUSH1 0x0 DUP2 MLOAD DUP2 LT PUSH2 0xB01 JUMPI PUSH2 0xB00 PUSH2 0x5094 JUMP JUMPDEST JUMPDEST PUSH1 0x20 MUL PUSH1 0x20 ADD ADD MLOAD PUSH2 0x211A JUMP JUMPDEST SWAP1 POP PUSH1 0x8 PUSH1 0x0 DUP3 DUP2 MSTORE PUSH1 0x20 ADD SWAP1 DUP2 MSTORE PUSH1 0x20 ADD PUSH1 0x0 KECCAK256 PUSH1 0x0 SWAP1 SLOAD SWAP1 PUSH2 0x100 EXP SWAP1 DIV PUSH1 0xFF AND ISZERO PUSH2 0xB44 JUMPI PUSH2 0xB3F DUP2 PUSH2 0x2274 JUMP JUMPDEST PUSH2 0xB53 JUMP JUMPDEST PUSH2 0xB51 DUP3 PUSH1 0xE0 ADD MLOAD PUSH2 0xE74 JUMP JUMPDEST POP JUMPDEST PUSH1 0x0 DUP3 PUSH1 0xE0 ADD MLOAD DUP4 PUSH1 0x60 ADD MLOAD PUSH1 0x0 DUP2 MLOAD DUP2 LT PUSH2 0xB72 JUMPI PUSH2 0xB71 PUSH2 0x5094 JUMP JUMPDEST JUMPDEST PUSH1 0x20 MUL PUSH1 0x20 ADD ADD MLOAD PUSH1 0x40 MLOAD PUSH1 0x20 ADD PUSH2 0xB8B SWAP3 SWAP2 SWAP1 PUSH2 0x50C3 JUMP JUMPDEST PUSH1 0x40 MLOAD PUSH1 0x20 DUP2 DUP4 SUB SUB DUP2 MSTORE SWAP1 PUSH1 0x40 MSTORE SWAP1 POP PUSH1 0x40 MLOAD DUP1 PUSH1 0x40 ADD PUSH1 0x40 MSTORE DUP1 PUSH1 0x1 ISZERO ISZERO DUP2 MSTORE PUSH1 0x20 ADD DUP3 DUP2 MSTORE POP SWAP4 POP POP POP POP SWAP2 SWAP1 POP JUMP JUMPDEST PUSH1 0xA DUP2 DUP2 SLOAD DUP2 LT PUSH2 0xBCE JUMPI PUSH1 0x0 DUP1 REVERT JUMPDEST SWAP1 PUSH1 0x0 MSTORE PUSH1 0x20 PUSH1 0x0 KECCAK256 SWAP1 PUSH1 0x8 MUL ADD PUSH1 0x0 SWAP2 POP SWAP1 POP DUP1 PUSH1 0x0 ADD PUSH1 0x40 MLOAD DUP1 PUSH1 0x40 ADD PUSH1 0x40 MSTORE SWAP1 DUP2 PUSH1 0x0 DUP3 ADD DUP1 SLOAD PUSH2 0xC01 SWAP1 PUSH2 0x43D3 JUMP JUMPDEST DUP1 PUSH1 0x1F ADD PUSH1 0x20 DUP1 SWAP2 DIV MUL PUSH1 0x20 ADD PUSH1 0x40 MLOAD SWAP1 DUP2 ADD PUSH1 0x40 MSTORE DUP1 SWAP3 SWAP2 SWAP1 DUP2 DUP2 MSTORE PUSH1 0x20 ADD DUP3 DUP1 SLOAD PUSH2 0xC2D SWAP1 PUSH2 0x43D3 JUMP JUMPDEST DUP1 ISZERO PUSH2 0xC7A JUMPI DUP1 PUSH1 0x1F LT PUSH2 0xC4F JUMPI PUSH2 0x100 DUP1 DUP4 SLOAD DIV MUL DUP4 MSTORE SWAP2 PUSH1 0x20 ADD SWAP2 PUSH2 0xC7A JUMP JUMPDEST DUP3 ADD SWAP2 SWAP1 PUSH1 0x0 MSTORE PUSH1 0x20 PUSH1 0x0 KECCAK256 SWAP1 JUMPDEST DUP2 SLOAD DUP2 MSTORE SWAP1 PUSH1 0x1 ADD SWAP1 PUSH1 0x20 ADD DUP1 DUP4 GT PUSH2 0xC5D JUMPI DUP3 SWAP1 SUB PUSH1 0x1F AND DUP3 ADD SWAP2 JUMPDEST POP POP POP POP POP DUP2 MSTORE PUSH1 0x20 ADD PUSH1 0x1 DUP3 ADD SLOAD DUP2 MSTORE POP POP SWAP1 DUP1 PUSH1 0x2 ADD PUSH1 0x40 MLOAD DUP1 PUSH1 0x40 ADD PUSH1 0x40 MSTORE SWAP1 DUP2 PUSH1 0x0 DUP3 ADD DUP1 SLOAD PUSH2 0xCAD SWAP1 PUSH2 0x43D3 JUMP JUMPDEST DUP1 PUSH1 0x1F ADD PUSH1 0x20 DUP1 SWAP2 DIV MUL PUSH1 0x20 ADD PUSH1 0x40 MLOAD SWAP1 DUP2 ADD PUSH1 0x40 MSTORE DUP1 SWAP3 SWAP2 SWAP1 DUP2 DUP2 MSTORE PUSH1 0x20 ADD DUP3 DUP1 SLOAD PUSH2 0xCD9 SWAP1 PUSH2 0x43D3 JUMP JUMPDEST DUP1 ISZERO PUSH2 0xD26 JUMPI DUP1 PUSH1 0x1F LT PUSH2 0xCFB JUMPI PUSH2 0x100 DUP1 DUP4 SLOAD DIV MUL DUP4 MSTORE SWAP2 PUSH1 0x20 ADD SWAP2 PUSH2 0xD26 JUMP JUMPDEST DUP3 ADD SWAP2 SWAP1 PUSH1 0x0 MSTORE PUSH1 0x20 PUSH1 0x0 KECCAK256 SWAP1 JUMPDEST DUP2 SLOAD DUP2 MSTORE SWAP1 PUSH1 0x1 ADD SWAP1 PUSH1 0x20 ADD DUP1 DUP4 GT PUSH2 0xD09 JUMPI DUP3 SWAP1 SUB PUSH1 0x1F AND DUP3 ADD SWAP2 JUMPDEST POP POP POP POP POP DUP2 MSTORE PUSH1 0x20 ADD PUSH1 0x1 DUP3 ADD SLOAD DUP2 MSTORE POP POP SWAP1 DUP1 PUSH1 0x4 ADD PUSH1 0x0 SWAP1 SLOAD SWAP1 PUSH2 0x100 EXP SWAP1 DIV PUSH8 0xFFFFFFFFFFFFFFFF AND SWAP1 DUP1 PUSH1 0x5 ADD DUP1 SLOAD PUSH2 0xD63 SWAP1 PUSH2 0x43D3 JUMP JUMPDEST DUP1 PUSH1 0x1F ADD PUSH1 0x20 DUP1 SWAP2 DIV MUL PUSH1 0x20 ADD PUSH1 0x40 MLOAD SWAP1 DUP2 ADD PUSH1 0x40 MSTORE DUP1 SWAP3 SWAP2 SWAP1 DUP2 DUP2 MSTORE PUSH1 0x20 ADD DUP3 DUP1 SLOAD PUSH2 0xD8F SWAP1 PUSH2 0x43D3 JUMP JUMPDEST DUP1 ISZERO PUSH2 0xDDC JUMPI DUP1 PUSH1 0x1F LT PUSH2 0xDB1 JUMPI PUSH2 0x100 DUP1 DUP4 SLOAD DIV MUL DUP4 MSTORE SWAP2 PUSH1 0x20 ADD SWAP2 PUSH2 0xDDC JUMP JUMPDEST DUP3 ADD SWAP2 SWAP1 PUSH1 0x0 MSTORE PUSH1 0x20 PUSH1 0x0 KECCAK256 SWAP1 JUMPDEST DUP2 SLOAD DUP2 MSTORE SWAP1 PUSH1 0x1 ADD SWAP1 PUSH1 0x20 ADD DUP1 DUP4 GT PUSH2 0xDBF JUMPI DUP3 SWAP1 SUB PUSH1 0x1F AND DUP3 ADD SWAP2 JUMPDEST POP POP POP POP POP SWAP1 DUP1 PUSH1 0x6 ADD PUSH1 0x40 MLOAD DUP1 PUSH1 0x40 ADD PUSH1 0x40 MSTORE SWAP1 DUP2 PUSH1 0x0 DUP3 ADD PUSH1 0x0 SWAP1 SLOAD SWAP1 PUSH2 0x100 EXP SWAP1 DIV PUSH8 0xFFFFFFFFFFFFFFFF AND PUSH8 0xFFFFFFFFFFFFFFFF AND PUSH8 0xFFFFFFFFFFFFFFFF AND DUP2 MSTORE PUSH1 0x20 ADD PUSH1 0x0 DUP3 ADD PUSH1 0x8 SWAP1 SLOAD SWAP1 PUSH2 0x100 EXP SWAP1 DIV PUSH8 0xFFFFFFFFFFFFFFFF AND PUSH8 0xFFFFFFFFFFFFFFFF AND PUSH8 0xFFFFFFFFFFFFFFFF AND DUP2 MSTORE POP POP SWAP1 DUP1 PUSH1 0x7 ADD PUSH1 0x0 SWAP1 SLOAD SWAP1 PUSH2 0x100 EXP SWAP1 DIV PUSH8 0xFFFFFFFFFFFFFFFF AND SWAP1 POP DUP7 JUMP JUMPDEST PUSH1 0x0 PUSH2 0xE7E PUSH2 0x22EF JUMP JUMPDEST PUSH2 0xE88 PUSH1 0x7 PUSH2 0x236D JUMP JUMPDEST PUSH2 0xE9B DUP3 PUSH2 0xE96 PUSH1 0x7 PUSH2 0x2383 JUMP JUMPDEST PUSH2 0x2391 JUMP JUMPDEST PUSH2 0xEA5 PUSH1 0x7 PUSH2 0x2383 JUMP JUMPDEST SWAP1 POP SWAP2 SWAP1 POP JUMP JUMPDEST PUSH1 0xE PUSH1 0x0 SWAP1 SLOAD SWAP1 PUSH2 0x100 EXP SWAP1 DIV PUSH20 0xFFFFFFFFFFFFFFFFFFFFFFFFFFFFFFFFFFFFFFFF AND PUSH20 0xFFFFFFFFFFFFFFFFFFFFFFFFFFFFFFFFFFFFFFFF AND PUSH4 0x7E9077B0 ADDRESS PUSH1 0xD PUSH1 0x0 DUP2 SLOAD DUP2 LT PUSH2 0xF00 JUMPI PUSH2 0xEFF PUSH2 0x5094 JUMP JUMPDEST JUMPDEST SWAP1 PUSH1 0x0 MSTORE PUSH1 0x20 PUSH1 0x0 KECCAK256 ADD PUSH1 0x1 DUP10 DUP10 DUP10 DUP10 DUP10 PUSH1 0x40 MLOAD DUP10 PUSH4 0xFFFFFFFF AND PUSH1 0xE0 SHL DUP2 MSTORE PUSH1 0x4 ADD PUSH2 0xF34 SWAP9 SWAP8 SWAP7 SWAP6 SWAP5 SWAP4 SWAP3 SWAP2 SWAP1 PUSH2 0x5541 JUMP JUMPDEST PUSH1 0x0 PUSH1 0x40 MLOAD DUP1 DUP4 SUB DUP2 PUSH1 0x0 DUP8 DUP1 EXTCODESIZE ISZERO DUP1 ISZERO PUSH2 0xF4E JUMPI PUSH1 0x0 DUP1 REVERT JUMPDEST POP GAS CALL ISZERO DUP1 ISZERO PUSH2 0xF62 JUMPI RETURNDATASIZE PUSH1 0x0 DUP1 RETURNDATACOPY RETURNDATASIZE PUSH1 0x0 REVERT JUMPDEST POP POP POP POP POP POP POP POP POP JUMP JUMPDEST PUSH1 0x0 DUP1 JUMPDEST PUSH1 0xC DUP1 SLOAD SWAP1 POP DUP2 LT ISZERO PUSH2 0xFE1 JUMPI DUP6 PUSH1 0xC DUP3 DUP2 SLOAD DUP2 LT PUSH2 0xF93 JUMPI PUSH2 0xF92 PUSH2 0x5094 JUMP JUMPDEST JUMPDEST SWAP1 PUSH1 0x0 MSTORE PUSH1 0x20 PUSH1 0x0 KECCAK256 ADD SLOAD SUB PUSH2 0xFCE JUMPI PUSH1 0xC DUP2 DUP2 SLOAD DUP2 LT PUSH2 0xFB7 JUMPI PUSH2 0xFB6 PUSH2 0x5094 JUMP JUMPDEST JUMPDEST SWAP1 PUSH1 0x0 MSTORE PUSH1 0x20 PUSH1 0x0 KECCAK256 ADD PUSH1 0x0 SWAP1 SSTORE PUSH1 0x1 SWAP2 POP PUSH2 0xFE1 JUMP JUMPDEST DUP1 DUP1 PUSH2 0xFD9 SWAP1 PUSH2 0x55FD JUMP JUMPDEST SWAP2 POP POP PUSH2 0xF71 JUMP JUMPDEST POP DUP1 PUSH2 0x1022 JUMPI PUSH1 0x40 MLOAD PUSH32 0x8C379A000000000000000000000000000000000000000000000000000000000 DUP2 MSTORE PUSH1 0x4 ADD PUSH2 0x1019 SWAP1 PUSH2 0x5691 JUMP JUMPDEST PUSH1 0x40 MLOAD DUP1 SWAP2 SUB SWAP1 REVERT JUMPDEST POP POP POP POP POP JUMP JUMPDEST PUSH1 0xA DUP2 SWAP1 DUP1 PUSH1 0x1 DUP2 SLOAD ADD DUP1 DUP3 SSTORE DUP1 SWAP2 POP POP PUSH1 0x1 SWAP1 SUB SWAP1 PUSH1 0x0 MSTORE PUSH1 0x20 PUSH1 0x0 KECCAK256 SWAP1 PUSH1 0x8 MUL ADD PUSH1 0x0 SWAP1 SWAP2 SWAP1 SWAP2 SWAP1 SWAP2 POP DUP2 DUP2 PUSH2 0x1061 SWAP2 SWAP1 PUSH2 0x4DAE JUMP JUMPDEST POP POP POP JUMP JUMPDEST PUSH1 0x0 DUP1 PUSH2 0x1072 DUP4 PUSH2 0x23AF JUMP JUMPDEST SWAP1 POP PUSH1 0x0 PUSH20 0xFFFFFFFFFFFFFFFFFFFFFFFFFFFFFFFFFFFFFFFF AND DUP2 PUSH20 0xFFFFFFFFFFFFFFFFFFFFFFFFFFFFFFFFFFFFFFFF AND SUB PUSH2 0x10E3 JUMPI PUSH1 0x40 MLOAD PUSH32 0x8C379A000000000000000000000000000000000000000000000000000000000 DUP2 MSTORE PUSH1 0x4 ADD PUSH2 0x10DA SWAP1 PUSH2 0x56FD JUMP JUMPDEST PUSH1 0x40 MLOAD DUP1 SWAP2 SUB SWAP1 REVERT JUMPDEST DUP1 SWAP2 POP POP SWAP2 SWAP1 POP JUMP JUMPDEST PUSH1 0x0 DUP1 PUSH20 0xFFFFFFFFFFFFFFFFFFFFFFFFFFFFFFFFFFFFFFFF AND DUP3 PUSH20 0xFFFFFFFFFFFFFFFFFFFFFFFFFFFFFFFFFFFFFFFF AND SUB PUSH2 0x115C JUMPI PUSH1 0x40 MLOAD PUSH32 0x8C379A000000000000000000000000000000000000000000000000000000000 DUP2 MSTORE PUSH1 0x4 ADD PUSH2 0x1153 SWAP1 PUSH2 0x578F JUMP JUMPDEST PUSH1 0x40 MLOAD DUP1 SWAP2 SUB SWAP1 REVERT JUMPDEST PUSH1 0x4 PUSH1 0x0 DUP4 PUSH20 0xFFFFFFFFFFFFFFFFFFFFFFFFFFFFFFFFFFFFFFFF AND PUSH20 0xFFFFFFFFFFFFFFFFFFFFFFFFFFFFFFFFFFFFFFFF AND DUP2 MSTORE PUSH1 0x20 ADD SWAP1 DUP2 MSTORE PUSH1 0x20 ADD PUSH1 0x0 KECCAK256 SLOAD SWAP1 POP SWAP2 SWAP1 POP JUMP JUMPDEST PUSH2 0x11AB PUSH2 0x22EF JUMP JUMPDEST PUSH2 0x11B5 PUSH1 0x0 PUSH2 0x23EC JUMP JUMPDEST JUMP JUMPDEST CALLER PUSH20 0xFFFFFFFFFFFFFFFFFFFFFFFFFFFFFFFFFFFFFFFF AND PUSH2 0x11D7 DUP6 PUSH2 0x1066 JUMP JUMPDEST PUSH20 0xFFFFFFFFFFFFFFFFFFFFFFFFFFFFFFFFFFFFFFFF AND EQ PUSH2 0x122D JUMPI PUSH1 0x40 MLOAD PUSH32 0x8C379A000000000000000000000000000000000000000000000000000000000 DUP2 MSTORE PUSH1 0x4 ADD PUSH2 0x1224 SWAP1 PUSH2 0x5821 JUMP JUMPDEST PUSH1 0x40 MLOAD DUP1 SWAP2 SUB SWAP1 REVERT JUMPDEST PUSH2 0x1236 DUP5 PUSH2 0x24B0 JUMP JUMPDEST PUSH2 0x1243 DUP5 CALLER DUP6 DUP6 DUP6 PUSH2 0x252B JUMP JUMPDEST DUP4 CALLER PUSH20 0xFFFFFFFFFFFFFFFFFFFFFFFFFFFFFFFFFFFFFFFF AND PUSH32 0xB7076E58F35E6669B2F089716C3FE1955D72FF0150AD8A5F90475C77FA43BF99 DUP6 PUSH1 0x40 MLOAD PUSH2 0x128A SWAP2 SWAP1 PUSH2 0x365F JUMP JUMPDEST PUSH1 0x40 MLOAD DUP1 SWAP2 SUB SWAP1 LOG3 POP POP POP POP JUMP JUMPDEST PUSH1 0xD DUP2 DUP2 SLOAD DUP2 LT PUSH2 0x12A8 JUMPI PUSH1 0x0 DUP1 REVERT JUMPDEST SWAP1 PUSH1 0x0 MSTORE PUSH1 0x20 PUSH1 0x0 KECCAK256 ADD PUSH1 0x0 SWAP2 POP SWAP1 POP DUP1 SLOAD PUSH2 0x12C3 SWAP1 PUSH2 0x43D3 JUMP JUMPDEST DUP1 PUSH1 0x1F ADD PUSH1 0x20 DUP1 SWAP2 DIV MUL PUSH1 0x20 ADD PUSH1 0x40 MLOAD SWAP1 DUP2 ADD PUSH1 0x40 MSTORE DUP1 SWAP3 SWAP2 SWAP1 DUP2 DUP2 MSTORE PUSH1 0x20 ADD DUP3 DUP1 SLOAD PUSH2 0x12EF SWAP1 PUSH2 0x43D3 JUMP JUMPDEST DUP1 ISZERO PUSH2 0x133C JUMPI DUP1 PUSH1 0x1F LT PUSH2 0x1311 JUMPI PUSH2 0x100 DUP1 DUP4 SLOAD DIV MUL DUP4 MSTORE SWAP2 PUSH1 0x20 ADD SWAP2 PUSH2 0x133C JUMP JUMPDEST DUP3 ADD SWAP2 SWAP1 PUSH1 0x0 MSTORE PUSH1 0x20 PUSH1 0x0 KECCAK256 SWAP1 JUMPDEST DUP2 SLOAD DUP2 MSTORE SWAP1 PUSH1 0x1 ADD SWAP1 PUSH1 0x20 ADD DUP1 DUP4 GT PUSH2 0x131F JUMPI DUP3 SWAP1 SUB PUSH1 0x1F AND DUP3 ADD SWAP2 JUMPDEST POP POP POP POP POP DUP2 JUMP JUMPDEST PUSH1 0x9 DUP2 SWAP1 DUP1 PUSH1 0x1 DUP2 SLOAD ADD DUP1 DUP3 SSTORE DUP1 SWAP2 POP POP PUSH1 0x1 SWAP1 SUB SWAP1 PUSH1 0x0 MSTORE PUSH1 0x20 PUSH1 0x0 KECCAK256 SWAP1 PUSH1 0x2 MUL ADD PUSH1 0x0 SWAP1 SWAP2 SWAP1 SWAP2 SWAP1 SWAP2 POP DUP2 DUP2 PUSH2 0x137C SWAP2 SWAP1 PUSH2 0x58FF JUMP JUMPDEST POP POP POP POP JUMP JUMPDEST PUSH1 0x0 DUP1 PUSH1 0x0 SWAP1 SLOAD SWAP1 PUSH2 0x100 EXP SWAP1 DIV PUSH20 0xFFFFFFFFFFFFFFFFFFFFFFFFFFFFFFFFFFFFFFFF AND SWAP1 POP SWAP1 JUMP JUMPDEST PUSH1 0x60 PUSH1 0x2 DUP1 SLOAD PUSH2 0x13BA SWAP1 PUSH2 0x43D3 JUMP JUMPDEST DUP1 PUSH1 0x1F ADD PUSH1 0x20 DUP1 SWAP2 DIV MUL PUSH1 0x20 ADD PUSH1 0x40 MLOAD SWAP1 DUP2 ADD PUSH1 0x40 MSTORE DUP1 SWAP3 SWAP2 SWAP1 DUP2 DUP2 MSTORE PUSH1 0x20 ADD DUP3 DUP1 SLOAD PUSH2 0x13E6 SWAP1 PUSH2 0x43D3 JUMP JUMPDEST DUP1 ISZERO PUSH2 0x1433 JUMPI DUP1 PUSH1 0x1F LT PUSH2 0x1408 JUMPI PUSH2 0x100 DUP1 DUP4 SLOAD DIV MUL DUP4 MSTORE SWAP2 PUSH1 0x20 ADD SWAP2 PUSH2 0x1433 JUMP JUMPDEST DUP3 ADD SWAP2 SWAP1 PUSH1 0x0 MSTORE PUSH1 0x20 PUSH1 0x0 KECCAK256 SWAP1 JUMPDEST DUP2 SLOAD DUP2 MSTORE SWAP1 PUSH1 0x1 ADD SWAP1 PUSH1 0x20 ADD DUP1 DUP4 GT PUSH2 0x1416 JUMPI DUP3 SWAP1 SUB PUSH1 0x1F AND DUP3 ADD SWAP2 JUMPDEST POP POP POP POP POP SWAP1 POP SWAP1 JUMP JUMPDEST PUSH2 0x144F PUSH2 0x1448 PUSH2 0x1CCB JUMP JUMPDEST DUP4 DUP4 PUSH2 0x28EC JUMP JUMPDEST POP POP JUMP JUMPDEST PUSH1 0x0 DUP1 JUMPDEST PUSH1 0xD DUP1 SLOAD SWAP1 POP DUP2 LT ISZERO PUSH2 0x14F2 JUMPI PUSH1 0xD DUP2 DUP2 SLOAD DUP2 LT PUSH2 0x1478 JUMPI PUSH2 0x1477 PUSH2 0x5094 JUMP JUMPDEST JUMPDEST SWAP1 PUSH1 0x0 MSTORE PUSH1 0x20 PUSH1 0x0 KECCAK256 ADD PUSH1 0x40 MLOAD PUSH1 0x20 ADD PUSH2 0x1492 SWAP2 SWAP1 PUSH2 0x599B JUMP JUMPDEST PUSH1 0x40 MLOAD PUSH1 0x20 DUP2 DUP4 SUB SUB DUP2 MSTORE SWAP1 PUSH1 0x40 MSTORE DUP1 MLOAD SWAP1 PUSH1 0x20 ADD KECCAK256 DUP5 DUP5 PUSH1 0x40 MLOAD PUSH1 0x20 ADD PUSH2 0x14BB SWAP3 SWAP2 SWAP1 PUSH2 0x59D7 JUMP JUMPDEST PUSH1 0x40 MLOAD PUSH1 0x20 DUP2 DUP4 SUB SUB DUP2 MSTORE SWAP1 PUSH1 0x40 MSTORE DUP1 MLOAD SWAP1 PUSH1 0x20 ADD KECCAK256 SUB PUSH2 0x14DF JUMPI PUSH1 0x1 SWAP2 POP PUSH2 0x14F2 JUMP JUMPDEST DUP1 DUP1 PUSH2 0x14EA SWAP1 PUSH2 0x55FD JUMP JUMPDEST SWAP2 POP POP PUSH2 0x1457 JUMP JUMPDEST POP DUP1 PUSH2 0x1533 JUMPI PUSH1 0x40 MLOAD PUSH32 0x8C379A000000000000000000000000000000000000000000000000000000000 DUP2 MSTORE PUSH1 0x4 ADD PUSH2 0x152A SWAP1 PUSH2 0x5A3C JUMP JUMPDEST PUSH1 0x40 MLOAD DUP1 SWAP2 SUB SWAP1 REVERT JUMPDEST PUSH1 0xC DUP6 SWAP1 DUP1 PUSH1 0x1 DUP2 SLOAD ADD DUP1 DUP3 SSTORE DUP1 SWAP2 POP POP PUSH1 0x1 SWAP1 SUB SWAP1 PUSH1 0x0 MSTORE PUSH1 0x20 PUSH1 0x0 KECCAK256 ADD PUSH1 0x0 SWAP1 SWAP2 SWAP1 SWAP2 SWAP1 SWAP2 POP SSTORE POP POP POP POP POP JUMP JUMPDEST PUSH2 0x1574 PUSH2 0x156E PUSH2 0x1CCB JUMP JUMPDEST DUP4 PUSH2 0x1D8C JUMP JUMPDEST PUSH2 0x15B3 JUMPI PUSH1 0x40 MLOAD PUSH32 0x8C379A000000000000000000000000000000000000000000000000000000000 DUP2 MSTORE PUSH1 0x4 ADD PUSH2 0x15AA SWAP1 PUSH2 0x459A JUMP JUMPDEST PUSH1 0x40 MLOAD DUP1 SWAP2 SUB SWAP1 REVERT JUMPDEST PUSH2 0x15BF DUP5 DUP5 DUP5 DUP5 PUSH2 0x2A58 JUMP JUMPDEST POP POP POP POP JUMP JUMPDEST PUSH1 0xC DUP2 DUP2 SLOAD DUP2 LT PUSH2 0x15D5 JUMPI PUSH1 0x0 DUP1 REVERT JUMPDEST SWAP1 PUSH1 0x0 MSTORE PUSH1 0x20 PUSH1 0x0 KECCAK256 ADD PUSH1 0x0 SWAP2 POP SWAP1 POP SLOAD DUP2 JUMP JUMPDEST PUSH1 0x60 PUSH2 0x15F4 DUP3 PUSH2 0x2AB4 JUMP JUMPDEST PUSH2 0x1633 JUMPI PUSH1 0x40 MLOAD PUSH32 0x8C379A000000000000000000000000000000000000000000000000000000000 DUP2 MSTORE PUSH1 0x4 ADD PUSH2 0x162A SWAP1 PUSH2 0x5ACE JUMP JUMPDEST PUSH1 0x40 MLOAD DUP1 SWAP2 SUB SWAP1 REVERT JUMPDEST PUSH1 0x40 MLOAD DUP1 PUSH1 0x80 ADD PUSH1 0x40 MSTORE DUP1 PUSH1 0x51 DUP2 MSTORE PUSH1 0x20 ADD PUSH2 0x65A3 PUSH1 0x51 SWAP2 CODECOPY SWAP1 POP SWAP2 SWAP1 POP JUMP JUMPDEST PUSH1 0x60 PUSH1 0x8 DUP7 DUP7 SWAP1 POP GT PUSH2 0x1692 JUMPI PUSH1 0x40 MLOAD PUSH32 0x41CD6A4700000000000000000000000000000000000000000000000000000000 DUP2 MSTORE PUSH1 0x4 ADD PUSH1 0x40 MLOAD DUP1 SWAP2 SUB SWAP1 REVERT JUMPDEST PUSH1 0x0 PUSH1 0x40 MLOAD PUSH1 0x20 ADD PUSH2 0x16A3 SWAP1 PUSH2 0x5B14 JUMP JUMPDEST PUSH1 0x40 MLOAD PUSH1 0x20 DUP2 DUP4 SUB SUB DUP2 MSTORE SWAP1 PUSH1 0x40 MSTORE DUP1 MLOAD SWAP1 PUSH1 0x20 ADD KECCAK256 DUP14 DUP14 PUSH1 0x40 MLOAD PUSH1 0x20 ADD PUSH2 0x16CC SWAP3 SWAP2 SWAP1 PUSH2 0x59D7 JUMP JUMPDEST PUSH1 0x40 MLOAD PUSH1 0x20 DUP2 DUP4 SUB SUB DUP2 MSTORE SWAP1 PUSH1 0x40 MSTORE DUP1 MLOAD SWAP1 PUSH1 0x20 ADD KECCAK256 EQ PUSH2 0x16EE JUMPI DUP13 DUP13 PUSH2 0x16F1 JUMP JUMPDEST DUP4 DUP4 JUMPDEST DUP1 DUP1 PUSH1 0x1F ADD PUSH1 0x20 DUP1 SWAP2 DIV MUL PUSH1 0x20 ADD PUSH1 0x40 MLOAD SWAP1 DUP2 ADD PUSH1 0x40 MSTORE DUP1 SWAP4 SWAP3 SWAP2 SWAP1 DUP2 DUP2 MSTORE PUSH1 0x20 ADD DUP4 DUP4 DUP1 DUP3 DUP5 CALLDATACOPY PUSH1 0x0 DUP2 DUP5 ADD MSTORE PUSH1 0x1F NOT PUSH1 0x1F DUP3 ADD AND SWAP1 POP DUP1 DUP4 ADD SWAP3 POP POP POP POP POP POP POP SWAP2 POP PUSH1 0x0 JUMPDEST PUSH1 0xD DUP1 SLOAD SWAP1 POP DUP2 LT ISZERO PUSH2 0x17D2 JUMPI PUSH1 0xD DUP2 DUP2 SLOAD DUP2 LT PUSH2 0x175A JUMPI PUSH2 0x1759 PUSH2 0x5094 JUMP JUMPDEST JUMPDEST SWAP1 PUSH1 0x0 MSTORE PUSH1 0x20 PUSH1 0x0 KECCAK256 ADD PUSH1 0x40 MLOAD PUSH1 0x20 ADD PUSH2 0x1774 SWAP2 SWAP1 PUSH2 0x599B JUMP JUMPDEST PUSH1 0x40 MLOAD PUSH1 0x20 DUP2 DUP4 SUB SUB DUP2 MSTORE SWAP1 PUSH1 0x40 MSTORE DUP1 MLOAD SWAP1 PUSH1 0x20 ADD KECCAK256 DUP4 PUSH1 0x40 MLOAD PUSH1 0x20 ADD PUSH2 0x179B SWAP2 SWAP1 PUSH2 0x5B5A JUMP JUMPDEST PUSH1 0x40 MLOAD PUSH1 0x20 DUP2 DUP4 SUB SUB DUP2 MSTORE SWAP1 PUSH1 0x40 MSTORE DUP1 MLOAD SWAP1 PUSH1 0x20 ADD KECCAK256 SUB PUSH2 0x17BF JUMPI PUSH1 0x1 SWAP2 POP PUSH2 0x17D2 JUMP JUMPDEST DUP1 DUP1 PUSH2 0x17CA SWAP1 PUSH2 0x55FD JUMP JUMPDEST SWAP2 POP POP PUSH2 0x1739 JUMP JUMPDEST POP DUP1 PUSH2 0x1813 JUMPI PUSH1 0x40 MLOAD PUSH32 0x8C379A000000000000000000000000000000000000000000000000000000000 DUP2 MSTORE PUSH1 0x4 ADD PUSH2 0x180A SWAP1 PUSH2 0x5A3C JUMP JUMPDEST PUSH1 0x40 MLOAD DUP1 SWAP2 SUB SWAP1 REVERT JUMPDEST POP SWAP12 SWAP11 POP POP POP POP POP POP POP POP POP POP POP JUMP JUMPDEST PUSH1 0xE PUSH1 0x0 SWAP1 SLOAD SWAP1 PUSH2 0x100 EXP SWAP1 DIV PUSH20 0xFFFFFFFFFFFFFFFFFFFFFFFFFFFFFFFFFFFFFFFF AND DUP2 JUMP JUMPDEST PUSH1 0x0 PUSH1 0x6 PUSH1 0x0 DUP5 PUSH20 0xFFFFFFFFFFFFFFFFFFFFFFFFFFFFFFFFFFFFFFFF AND PUSH20 0xFFFFFFFFFFFFFFFFFFFFFFFFFFFFFFFFFFFFFFFF AND DUP2 MSTORE PUSH1 0x20 ADD SWAP1 DUP2 MSTORE PUSH1 0x20 ADD PUSH1 0x0 KECCAK256 PUSH1 0x0 DUP4 PUSH20 0xFFFFFFFFFFFFFFFFFFFFFFFFFFFFFFFFFFFFFFFF AND PUSH20 0xFFFFFFFFFFFFFFFFFFFFFFFFFFFFFFFFFFFFFFFF AND DUP2 MSTORE PUSH1 0x20 ADD SWAP1 DUP2 MSTORE PUSH1 0x20 ADD PUSH1 0x0 KECCAK256 PUSH1 0x0 SWAP1 SLOAD SWAP1 PUSH2 0x100 EXP SWAP1 DIV PUSH1 0xFF AND SWAP1 POP SWAP3 SWAP2 POP POP JUMP JUMPDEST PUSH1 0xB DUP2 DUP2 SLOAD DUP2 LT PUSH2 0x18ED JUMPI PUSH1 0x0 DUP1 REVERT JUMPDEST SWAP1 PUSH1 0x0 MSTORE PUSH1 0x20 PUSH1 0x0 KECCAK256 SWAP1 PUSH1 0x8 MUL ADD PUSH1 0x0 SWAP2 POP SWAP1 POP DUP1 PUSH1 0x0 ADD PUSH1 0x40 MLOAD DUP1 PUSH1 0x40 ADD PUSH1 0x40 MSTORE SWAP1 DUP2 PUSH1 0x0 DUP3 ADD DUP1 SLOAD PUSH2 0x1920 SWAP1 PUSH2 0x43D3 JUMP JUMPDEST DUP1 PUSH1 0x1F ADD PUSH1 0x20 DUP1 SWAP2 DIV MUL PUSH1 0x20 ADD PUSH1 0x40 MLOAD SWAP1 DUP2 ADD PUSH1 0x40 MSTORE DUP1 SWAP3 SWAP2 SWAP1 DUP2 DUP2 MSTORE PUSH1 0x20 ADD DUP3 DUP1 SLOAD PUSH2 0x194C SWAP1 PUSH2 0x43D3 JUMP JUMPDEST DUP1 ISZERO PUSH2 0x1999 JUMPI DUP1 PUSH1 0x1F LT PUSH2 0x196E JUMPI PUSH2 0x100 DUP1 DUP4 SLOAD DIV MUL DUP4 MSTORE SWAP2 PUSH1 0x20 ADD SWAP2 PUSH2 0x1999 JUMP JUMPDEST DUP3 ADD SWAP2 SWAP1 PUSH1 0x0 MSTORE PUSH1 0x20 PUSH1 0x0 KECCAK256 SWAP1 JUMPDEST DUP2 SLOAD DUP2 MSTORE SWAP1 PUSH1 0x1 ADD SWAP1 PUSH1 0x20 ADD DUP1 DUP4 GT PUSH2 0x197C JUMPI DUP3 SWAP1 SUB PUSH1 0x1F AND DUP3 ADD SWAP2 JUMPDEST POP POP POP POP POP DUP2 MSTORE PUSH1 0x20 ADD PUSH1 0x1 DUP3 ADD SLOAD DUP2 MSTORE POP POP SWAP1 DUP1 PUSH1 0x2 ADD PUSH1 0x40 MLOAD DUP1 PUSH1 0x40 ADD PUSH1 0x40 MSTORE SWAP1 DUP2 PUSH1 0x0 DUP3 ADD DUP1 SLOAD PUSH2 0x19CC SWAP1 PUSH2 0x43D3 JUMP JUMPDEST DUP1 PUSH1 0x1F ADD PUSH1 0x20 DUP1 SWAP2 DIV MUL PUSH1 0x20 ADD PUSH1 0x40 MLOAD SWAP1 DUP2 ADD PUSH1 0x40 MSTORE DUP1 SWAP3 SWAP2 SWAP1 DUP2 DUP2 MSTORE PUSH1 0x20 ADD DUP3 DUP1 SLOAD PUSH2 0x19F8 SWAP1 PUSH2 0x43D3 JUMP JUMPDEST DUP1 ISZERO PUSH2 0x1A45 JUMPI DUP1 PUSH1 0x1F LT PUSH2 0x1A1A JUMPI PUSH2 0x100 DUP1 DUP4 SLOAD DIV MUL DUP4 MSTORE SWAP2 PUSH1 0x20 ADD SWAP2 PUSH2 0x1A45 JUMP JUMPDEST DUP3 ADD SWAP2 SWAP1 PUSH1 0x0 MSTORE PUSH1 0x20 PUSH1 0x0 KECCAK256 SWAP1 JUMPDEST DUP2 SLOAD DUP2 MSTORE SWAP1 PUSH1 0x1 ADD SWAP1 PUSH1 0x20 ADD DUP1 DUP4 GT PUSH2 0x1A28 JUMPI DUP3 SWAP1 SUB PUSH1 0x1F AND DUP3 ADD SWAP2 JUMPDEST POP POP POP POP POP DUP2 MSTORE PUSH1 0x20 ADD PUSH1 0x1 DUP3 ADD SLOAD DUP2 MSTORE POP POP SWAP1 DUP1 PUSH1 0x4 ADD PUSH1 0x0 SWAP1 SLOAD SWAP1 PUSH2 0x100 EXP SWAP1 DIV PUSH8 0xFFFFFFFFFFFFFFFF AND SWAP1 DUP1 PUSH1 0x5 ADD DUP1 SLOAD PUSH2 0x1A82 SWAP1 PUSH2 0x43D3 JUMP JUMPDEST DUP1 PUSH1 0x1F ADD PUSH1 0x20 DUP1 SWAP2 DIV MUL PUSH1 0x20 ADD PUSH1 0x40 MLOAD SWAP1 DUP2 ADD PUSH1 0x40 MSTORE DUP1 SWAP3 SWAP2 SWAP1 DUP2 DUP2 MSTORE PUSH1 0x20 ADD DUP3 DUP1 SLOAD PUSH2 0x1AAE SWAP1 PUSH2 0x43D3 JUMP JUMPDEST DUP1 ISZERO PUSH2 0x1AFB JUMPI DUP1 PUSH1 0x1F LT PUSH2 0x1AD0 JUMPI PUSH2 0x100 DUP1 DUP4 SLOAD DIV MUL DUP4 MSTORE SWAP2 PUSH1 0x20 ADD SWAP2 PUSH2 0x1AFB JUMP JUMPDEST DUP3 ADD SWAP2 SWAP1 PUSH1 0x0 MSTORE PUSH1 0x20 PUSH1 0x0 KECCAK256 SWAP1 JUMPDEST DUP2 SLOAD DUP2 MSTORE SWAP1 PUSH1 0x1 ADD SWAP1 PUSH1 0x20 ADD DUP1 DUP4 GT PUSH2 0x1ADE JUMPI DUP3 SWAP1 SUB PUSH1 0x1F AND DUP3 ADD SWAP2 JUMPDEST POP POP POP POP POP SWAP1 DUP1 PUSH1 0x6 ADD PUSH1 0x40 MLOAD DUP1 PUSH1 0x40 ADD PUSH1 0x40 MSTORE SWAP1 DUP2 PUSH1 0x0 DUP3 ADD PUSH1 0x0 SWAP1 SLOAD SWAP1 PUSH2 0x100 EXP SWAP1 DIV PUSH8 0xFFFFFFFFFFFFFFFF AND PUSH8 0xFFFFFFFFFFFFFFFF AND PUSH8 0xFFFFFFFFFFFFFFFF AND DUP2 MSTORE PUSH1 0x20 ADD PUSH1 0x0 DUP3 ADD PUSH1 0x8 SWAP1 SLOAD SWAP1 PUSH2 0x100 EXP SWAP1 DIV PUSH8 0xFFFFFFFFFFFFFFFF AND PUSH8 0xFFFFFFFFFFFFFFFF AND PUSH8 0xFFFFFFFFFFFFFFFF AND DUP2 MSTORE POP POP SWAP1 DUP1 PUSH1 0x7 ADD PUSH1 0x0 SWAP1 SLOAD SWAP1 PUSH2 0x100 EXP SWAP1 DIV PUSH8 0xFFFFFFFFFFFFFFFF AND SWAP1 POP DUP7 JUMP JUMPDEST PUSH2 0x1B9B PUSH2 0x22EF JUMP JUMPDEST PUSH1 0x0 PUSH20 0xFFFFFFFFFFFFFFFFFFFFFFFFFFFFFFFFFFFFFFFF AND DUP2 PUSH20 0xFFFFFFFFFFFFFFFFFFFFFFFFFFFFFFFFFFFFFFFF AND SUB PUSH2 0x1C0A JUMPI PUSH1 0x40 MLOAD PUSH32 0x8C379A000000000000000000000000000000000000000000000000000000000 DUP2 MSTORE PUSH1 0x4 ADD PUSH2 0x1C01 SWAP1 PUSH2 0x5BE3 JUMP JUMPDEST PUSH1 0x40 MLOAD DUP1 SWAP2 SUB SWAP1 REVERT JUMPDEST PUSH2 0x1C13 DUP2 PUSH2 0x23EC JUMP JUMPDEST POP JUMP JUMPDEST PUSH1 0x0 PUSH32 0x1FFC9A700000000000000000000000000000000000000000000000000000000 PUSH28 0xFFFFFFFFFFFFFFFFFFFFFFFFFFFFFFFFFFFFFFFFFFFFFFFFFFFFFFFF NOT AND DUP3 PUSH28 0xFFFFFFFFFFFFFFFFFFFFFFFFFFFFFFFFFFFFFFFFFFFFFFFFFFFFFFFF NOT AND EQ SWAP1 POP SWAP2 SWAP1 POP JUMP JUMPDEST PUSH2 0x1C89 DUP2 PUSH2 0x2AB4 JUMP JUMPDEST PUSH2 0x1CC8 JUMPI PUSH1 0x40 MLOAD PUSH32 0x8C379A000000000000000000000000000000000000000000000000000000000 DUP2 MSTORE PUSH1 0x4 ADD PUSH2 0x1CBF SWAP1 PUSH2 0x56FD JUMP JUMPDEST PUSH1 0x40 MLOAD DUP1 SWAP2 SUB SWAP1 REVERT JUMPDEST POP JUMP JUMPDEST PUSH1 0x0 CALLER SWAP1 POP SWAP1 JUMP JUMPDEST DUP2 PUSH1 0x5 PUSH1 0x0 DUP4 DUP2 MSTORE PUSH1 0x20 ADD SWAP1 DUP2 MSTORE PUSH1 0x20 ADD PUSH1 0x0 KECCAK256 PUSH1 0x0 PUSH2 0x100 EXP DUP2 SLOAD DUP2 PUSH20 0xFFFFFFFFFFFFFFFFFFFFFFFFFFFFFFFFFFFFFFFF MUL NOT AND SWAP1 DUP4 PUSH20 0xFFFFFFFFFFFFFFFFFFFFFFFFFFFFFFFFFFFFFFFF AND MUL OR SWAP1 SSTORE POP DUP1 DUP3 PUSH20 0xFFFFFFFFFFFFFFFFFFFFFFFFFFFFFFFFFFFFFFFF AND PUSH2 0x1D46 DUP4 PUSH2 0x1066 JUMP JUMPDEST PUSH20 0xFFFFFFFFFFFFFFFFFFFFFFFFFFFFFFFFFFFFFFFF AND PUSH32 0x8C5BE1E5EBEC7D5BD14F71427D1E84F3DD0314C0F7B2291E5B200AC8C7C3B925 PUSH1 0x40 MLOAD PUSH1 0x40 MLOAD DUP1 SWAP2 SUB SWAP1 LOG4 POP POP JUMP JUMPDEST PUSH1 0x0 DUP1 PUSH2 0x1D98 DUP4 PUSH2 0x1066 JUMP JUMPDEST SWAP1 POP DUP1 PUSH20 0xFFFFFFFFFFFFFFFFFFFFFFFFFFFFFFFFFFFFFFFF AND DUP5 PUSH20 0xFFFFFFFFFFFFFFFFFFFFFFFFFFFFFFFFFFFFFFFF AND EQ DUP1 PUSH2 0x1DDA JUMPI POP PUSH2 0x1DD9 DUP2 DUP6 PUSH2 0x1849 JUMP JUMPDEST JUMPDEST DUP1 PUSH2 0x1E18 JUMPI POP DUP4 PUSH20 0xFFFFFFFFFFFFFFFFFFFFFFFFFFFFFFFFFFFFFFFF AND PUSH2 0x1E00 DUP5 PUSH2 0x7DB JUMP JUMPDEST PUSH20 0xFFFFFFFFFFFFFFFFFFFFFFFFFFFFFFFFFFFFFFFF AND EQ JUMPDEST SWAP2 POP POP SWAP3 SWAP2 POP POP JUMP JUMPDEST DUP3 PUSH20 0xFFFFFFFFFFFFFFFFFFFFFFFFFFFFFFFFFFFFFFFF AND PUSH2 0x1E41 DUP3 PUSH2 0x1066 JUMP JUMPDEST PUSH20 0xFFFFFFFFFFFFFFFFFFFFFFFFFFFFFFFFFFFFFFFF AND EQ PUSH2 0x1E97 JUMPI PUSH1 0x40 MLOAD PUSH32 0x8C379A000000000000000000000000000000000000000000000000000000000 DUP2 MSTORE PUSH1 0x4 ADD PUSH2 0x1E8E SWAP1 PUSH2 0x5C75 JUMP JUMPDEST PUSH1 0x40 MLOAD DUP1 SWAP2 SUB SWAP1 REVERT JUMPDEST PUSH1 0x0 PUSH20 0xFFFFFFFFFFFFFFFFFFFFFFFFFFFFFFFFFFFFFFFF AND DUP3 PUSH20 0xFFFFFFFFFFFFFFFFFFFFFFFFFFFFFFFFFFFFFFFF AND SUB PUSH2 0x1F06 JUMPI PUSH1 0x40 MLOAD PUSH32 0x8C379A000000000000000000000000000000000000000000000000000000000 DUP2 MSTORE PUSH1 0x4 ADD PUSH2 0x1EFD SWAP1 PUSH2 0x5D07 JUMP JUMPDEST PUSH1 0x40 MLOAD DUP1 SWAP2 SUB SWAP1 REVERT JUMPDEST PUSH2 0x1F13 DUP4 DUP4 DUP4 PUSH1 0x1 PUSH2 0x2AF5 JUMP JUMPDEST DUP3 PUSH20 0xFFFFFFFFFFFFFFFFFFFFFFFFFFFFFFFFFFFFFFFF AND PUSH2 0x1F33 DUP3 PUSH2 0x1066 JUMP JUMPDEST PUSH20 0xFFFFFFFFFFFFFFFFFFFFFFFFFFFFFFFFFFFFFFFF AND EQ PUSH2 0x1F89 JUMPI PUSH1 0x40 MLOAD PUSH32 0x8C379A000000000000000000000000000000000000000000000000000000000 DUP2 MSTORE PUSH1 0x4 ADD PUSH2 0x1F80 SWAP1 PUSH2 0x5C75 JUMP JUMPDEST PUSH1 0x40 MLOAD DUP1 SWAP2 SUB SWAP1 REVERT JUMPDEST PUSH1 0x5 PUSH1 0x0 DUP3 DUP2 MSTORE PUSH1 0x20 ADD SWAP1 DUP2 MSTORE PUSH1 0x20 ADD PUSH1 0x0 KECCAK256 PUSH1 0x0 PUSH2 0x100 EXP DUP2 SLOAD SWAP1 PUSH20 0xFFFFFFFFFFFFFFFFFFFFFFFFFFFFFFFFFFFFFFFF MUL NOT AND SWAP1 SSTORE PUSH1 0x1 PUSH1 0x4 PUSH1 0x0 DUP6 PUSH20 0xFFFFFFFFFFFFFFFFFFFFFFFFFFFFFFFFFFFFFFFF AND PUSH20 0xFFFFFFFFFFFFFFFFFFFFFFFFFFFFFFFFFFFFFFFF AND DUP2 MSTORE PUSH1 0x20 ADD SWAP1 DUP2 MSTORE PUSH1 0x20 ADD PUSH1 0x0 KECCAK256 PUSH1 0x0 DUP3 DUP3 SLOAD SUB SWAP3 POP POP DUP2 SWAP1 SSTORE POP PUSH1 0x1 PUSH1 0x4 PUSH1 0x0 DUP5 PUSH20 0xFFFFFFFFFFFFFFFFFFFFFFFFFFFFFFFFFFFFFFFF AND PUSH20 0xFFFFFFFFFFFFFFFFFFFFFFFFFFFFFFFFFFFFFFFF AND DUP2 MSTORE PUSH1 0x20 ADD SWAP1 DUP2 MSTORE PUSH1 0x20 ADD PUSH1 0x0 KECCAK256 PUSH1 0x0 DUP3 DUP3 SLOAD ADD SWAP3 POP POP DUP2 SWAP1 SSTORE POP DUP2 PUSH1 0x3 PUSH1 0x0 DUP4 DUP2 MSTORE PUSH1 0x20 ADD SWAP1 DUP2 MSTORE PUSH1 0x20 ADD PUSH1 0x0 KECCAK256 PUSH1 0x0 PUSH2 0x100 EXP DUP2 SLOAD DUP2 PUSH20 0xFFFFFFFFFFFFFFFFFFFFFFFFFFFFFFFFFFFFFFFF MUL NOT AND SWAP1 DUP4 PUSH20 0xFFFFFFFFFFFFFFFFFFFFFFFFFFFFFFFFFFFFFFFF AND MUL OR SWAP1 SSTORE POP DUP1 DUP3 PUSH20 0xFFFFFFFFFFFFFFFFFFFFFFFFFFFFFFFFFFFFFFFF AND DUP5 PUSH20 0xFFFFFFFFFFFFFFFFFFFFFFFFFFFFFFFFFFFFFFFF AND PUSH32 0xDDF252AD1BE2C89B69C2B068FC378DAA952BA7F163C4A11628F55A4DF523B3EF PUSH1 0x40 MLOAD PUSH1 0x40 MLOAD DUP1 SWAP2 SUB SWAP1 LOG4 PUSH2 0x2115 DUP4 DUP4 DUP4 PUSH1 0x1 PUSH2 0x2AFB JUMP JUMPDEST POP POP POP JUMP JUMPDEST PUSH1 0x0 DUP1 PUSH1 0x0 SWAP1 POP PUSH1 0x0 DUP4 SWAP1 POP PUSH1 0x0 JUMPDEST DUP2 MLOAD DUP2 LT ISZERO PUSH2 0x2269 JUMPI PUSH1 0x30 PUSH1 0xF8 SHL DUP3 DUP3 DUP2 MLOAD DUP2 LT PUSH2 0x214A JUMPI PUSH2 0x2149 PUSH2 0x5094 JUMP JUMPDEST JUMPDEST PUSH1 0x20 ADD ADD MLOAD PUSH1 0xF8 SHR PUSH1 0xF8 SHL PUSH31 0xFFFFFFFFFFFFFFFFFFFFFFFFFFFFFFFFFFFFFFFFFFFFFFFFFFFFFFFFFFFFFF NOT AND LT ISZERO DUP1 ISZERO PUSH2 0x21C8 JUMPI POP PUSH1 0x39 PUSH1 0xF8 SHL DUP3 DUP3 DUP2 MLOAD DUP2 LT PUSH2 0x2198 JUMPI PUSH2 0x2197 PUSH2 0x5094 JUMP JUMPDEST JUMPDEST PUSH1 0x20 ADD ADD MLOAD PUSH1 0xF8 SHR PUSH1 0xF8 SHL PUSH31 0xFFFFFFFFFFFFFFFFFFFFFFFFFFFFFFFFFFFFFFFFFFFFFFFFFFFFFFFFFFFFFF NOT AND GT ISZERO JUMPDEST ISZERO PUSH2 0x221B JUMPI PUSH1 0x30 DUP3 DUP3 DUP2 MLOAD DUP2 LT PUSH2 0x21E2 JUMPI PUSH2 0x21E1 PUSH2 0x5094 JUMP JUMPDEST JUMPDEST PUSH1 0x20 ADD ADD MLOAD PUSH1 0xF8 SHR PUSH1 0xF8 SHL PUSH1 0xF8 SHR PUSH1 0xFF AND PUSH2 0x21FD SWAP2 SWAP1 PUSH2 0x5D27 JUMP JUMPDEST PUSH1 0xA DUP5 PUSH2 0x220A SWAP2 SWAP1 PUSH2 0x5D5B JUMP JUMPDEST PUSH2 0x2214 SWAP2 SWAP1 PUSH2 0x5D9D JUMP JUMPDEST SWAP3 POP PUSH2 0x2256 JUMP JUMPDEST PUSH1 0x40 MLOAD PUSH32 0x8C379A000000000000000000000000000000000000000000000000000000000 DUP2 MSTORE PUSH1 0x4 ADD PUSH2 0x224D SWAP1 PUSH2 0x5E43 JUMP JUMPDEST PUSH1 0x40 MLOAD DUP1 SWAP2 SUB SWAP1 REVERT JUMPDEST DUP1 DUP1 PUSH2 0x2261 SWAP1 PUSH2 0x55FD JUMP JUMPDEST SWAP2 POP POP PUSH2 0x2129 JUMP JUMPDEST POP DUP2 SWAP3 POP POP POP SWAP2 SWAP1 POP JUMP JUMPDEST PUSH1 0x0 PUSH1 0x8 PUSH1 0x0 DUP4 DUP2 MSTORE PUSH1 0x20 ADD SWAP1 DUP2 MSTORE PUSH1 0x20 ADD PUSH1 0x0 KECCAK256 PUSH1 0x0 PUSH2 0x100 EXP DUP2 SLOAD DUP2 PUSH1 0xFF MUL NOT AND SWAP1 DUP4 ISZERO ISZERO MUL OR SWAP1 SSTORE POP DUP1 PUSH2 0x22AA DUP3 PUSH2 0x1066 JUMP JUMPDEST PUSH20 0xFFFFFFFFFFFFFFFFFFFFFFFFFFFFFFFFFFFFFFFF AND PUSH32 0xF15274E1FE5043A963D7D1DFDB31B4C69407F0C6F0FC77DDF03F605961CFE284 PUSH1 0x40 MLOAD PUSH1 0x40 MLOAD DUP1 SWAP2 SUB SWAP1 LOG3 POP JUMP JUMPDEST PUSH2 0x22F7 PUSH2 0x1CCB JUMP JUMPDEST PUSH20 0xFFFFFFFFFFFFFFFFFFFFFFFFFFFFFFFFFFFFFFFF AND PUSH2 0x2315 PUSH2 0x1382 JUMP JUMPDEST PUSH20 0xFFFFFFFFFFFFFFFFFFFFFFFFFFFFFFFFFFFFFFFF AND EQ PUSH2 0x236B JUMPI PUSH1 0x40 MLOAD PUSH32 0x8C379A000000000000000000000000000000000000000000000000000000000 DUP2 MSTORE PUSH1 0x4 ADD PUSH2 0x2362 SWAP1 PUSH2 0x5EAF JUMP JUMPDEST PUSH1 0x40 MLOAD DUP1 SWAP2 SUB SWAP1 REVERT JUMPDEST JUMP JUMPDEST PUSH1 0x1 DUP2 PUSH1 0x0 ADD PUSH1 0x0 DUP3 DUP3 SLOAD ADD SWAP3 POP POP DUP2 SWAP1 SSTORE POP POP JUMP JUMPDEST PUSH1 0x0 DUP2 PUSH1 0x0 ADD SLOAD SWAP1 POP SWAP2 SWAP1 POP JUMP JUMPDEST PUSH2 0x23AB DUP3 DUP3 PUSH1 0x40 MLOAD DUP1 PUSH1 0x20 ADD PUSH1 0x40 MSTORE DUP1 PUSH1 0x0 DUP2 MSTORE POP PUSH2 0x2B01 JUMP JUMPDEST POP POP JUMP JUMPDEST PUSH1 0x0 PUSH1 0x3 PUSH1 0x0 DUP4 DUP2 MSTORE PUSH1 0x20 ADD SWAP1 DUP2 MSTORE PUSH1 0x20 ADD PUSH1 0x0 KECCAK256 PUSH1 0x0 SWAP1 SLOAD SWAP1 PUSH2 0x100 EXP SWAP1 DIV PUSH20 0xFFFFFFFFFFFFFFFFFFFFFFFFFFFFFFFFFFFFFFFF AND SWAP1 POP SWAP2 SWAP1 POP JUMP JUMPDEST PUSH1 0x0 DUP1 PUSH1 0x0 SWAP1 SLOAD SWAP1 PUSH2 0x100 EXP SWAP1 DIV PUSH20 0xFFFFFFFFFFFFFFFFFFFFFFFFFFFFFFFFFFFFFFFF AND SWAP1 POP DUP2 PUSH1 0x0 DUP1 PUSH2 0x100 EXP DUP2 SLOAD DUP2 PUSH20 0xFFFFFFFFFFFFFFFFFFFFFFFFFFFFFFFFFFFFFFFF MUL NOT AND SWAP1 DUP4 PUSH20 0xFFFFFFFFFFFFFFFFFFFFFFFFFFFFFFFFFFFFFFFF AND MUL OR SWAP1 SSTORE POP DUP2 PUSH20 0xFFFFFFFFFFFFFFFFFFFFFFFFFFFFFFFFFFFFFFFF AND DUP2 PUSH20 0xFFFFFFFFFFFFFFFFFFFFFFFFFFFFFFFFFFFFFFFF AND PUSH32 0x8BE0079C531659141344CD1FD0A4F28419497F9722A3DAAFE3B4186F6B6457E0 PUSH1 0x40 MLOAD PUSH1 0x40 MLOAD DUP1 SWAP2 SUB SWAP1 LOG3 POP POP JUMP JUMPDEST PUSH1 0x1 PUSH1 0x8 PUSH1 0x0 DUP4 DUP2 MSTORE PUSH1 0x20 ADD SWAP1 DUP2 MSTORE PUSH1 0x20 ADD PUSH1 0x0 KECCAK256 PUSH1 0x0 PUSH2 0x100 EXP DUP2 SLOAD DUP2 PUSH1 0xFF MUL NOT AND SWAP1 DUP4 ISZERO ISZERO MUL OR SWAP1 SSTORE POP DUP1 PUSH2 0x24E6 DUP3 PUSH2 0x1066 JUMP JUMPDEST PUSH20 0xFFFFFFFFFFFFFFFFFFFFFFFFFFFFFFFFFFFFFFFF AND PUSH32 0xA9262575DB5F22D8B54192EFCE38602AC59D04BCDBCBA1962FC351473DE56146 PUSH1 0x40 MLOAD PUSH1 0x40 MLOAD DUP1 SWAP2 SUB SWAP1 LOG3 POP JUMP JUMPDEST PUSH1 0x1 ISZERO ISZERO PUSH1 0x8 PUSH1 0x0 DUP8 DUP2 MSTORE PUSH1 0x20 ADD SWAP1 DUP2 MSTORE PUSH1 0x20 ADD PUSH1 0x0 KECCAK256 PUSH1 0x0 SWAP1 SLOAD SWAP1 PUSH2 0x100 EXP SWAP1 DIV PUSH1 0xFF AND ISZERO ISZERO EQ PUSH2 0x2592 JUMPI PUSH1 0x40 MLOAD PUSH32 0x8C379A000000000000000000000000000000000000000000000000000000000 DUP2 MSTORE PUSH1 0x4 ADD PUSH2 0x2589 SWAP1 PUSH2 0x5F1B JUMP JUMPDEST PUSH1 0x40 MLOAD DUP1 SWAP2 SUB SWAP1 REVERT JUMPDEST PUSH1 0x0 PUSH1 0x40 MLOAD DUP1 PUSH2 0x120 ADD PUSH1 0x40 MSTORE DUP1 PUSH2 0x25A9 DUP9 PUSH2 0x2B5C JUMP JUMPDEST DUP2 MSTORE PUSH1 0x20 ADD PUSH1 0x40 MLOAD DUP1 PUSH1 0x80 ADD PUSH1 0x40 MSTORE DUP1 PUSH1 0x51 DUP2 MSTORE PUSH1 0x20 ADD PUSH2 0x65A3 PUSH1 0x51 SWAP2 CODECOPY DUP2 MSTORE PUSH1 0x20 ADD PUSH1 0x40 MLOAD DUP1 PUSH1 0x20 ADD PUSH1 0x40 MSTORE DUP1 PUSH1 0x0 DUP2 MSTORE POP DUP2 MSTORE PUSH1 0x20 ADD PUSH1 0x1 PUSH8 0xFFFFFFFFFFFFFFFF DUP2 GT ISZERO PUSH2 0x25FC JUMPI PUSH2 0x25FB PUSH2 0x3D3B JUMP JUMPDEST JUMPDEST PUSH1 0x40 MLOAD SWAP1 DUP1 DUP3 MSTORE DUP1 PUSH1 0x20 MUL PUSH1 0x20 ADD DUP3 ADD PUSH1 0x40 MSTORE DUP1 ISZERO PUSH2 0x262F JUMPI DUP2 PUSH1 0x20 ADD JUMPDEST PUSH1 0x60 DUP2 MSTORE PUSH1 0x20 ADD SWAP1 PUSH1 0x1 SWAP1 SUB SWAP1 DUP2 PUSH2 0x261A JUMPI SWAP1 POP JUMPDEST POP DUP2 MSTORE PUSH1 0x20 ADD PUSH1 0x1 PUSH8 0xFFFFFFFFFFFFFFFF DUP2 GT ISZERO PUSH2 0x2650 JUMPI PUSH2 0x264F PUSH2 0x3D3B JUMP JUMPDEST JUMPDEST PUSH1 0x40 MLOAD SWAP1 DUP1 DUP3 MSTORE DUP1 PUSH1 0x20 MUL PUSH1 0x20 ADD DUP3 ADD PUSH1 0x40 MSTORE DUP1 ISZERO PUSH2 0x2683 JUMPI DUP2 PUSH1 0x20 ADD JUMPDEST PUSH1 0x60 DUP2 MSTORE PUSH1 0x20 ADD SWAP1 PUSH1 0x1 SWAP1 SUB SWAP1 DUP2 PUSH2 0x266E JUMPI SWAP1 POP JUMPDEST POP DUP2 MSTORE PUSH1 0x20 ADD PUSH1 0x1 PUSH8 0xFFFFFFFFFFFFFFFF DUP2 GT ISZERO PUSH2 0x26A4 JUMPI PUSH2 0x26A3 PUSH2 0x3D3B JUMP JUMPDEST JUMPDEST PUSH1 0x40 MLOAD SWAP1 DUP1 DUP3 MSTORE DUP1 PUSH1 0x20 MUL PUSH1 0x20 ADD DUP3 ADD PUSH1 0x40 MSTORE DUP1 ISZERO PUSH2 0x26D7 JUMPI DUP2 PUSH1 0x20 ADD JUMPDEST PUSH1 0x60 DUP2 MSTORE PUSH1 0x20 ADD SWAP1 PUSH1 0x1 SWAP1 SUB SWAP1 DUP2 PUSH2 0x26C2 JUMPI SWAP1 POP JUMPDEST POP DUP2 MSTORE PUSH1 0x20 ADD DUP7 PUSH20 0xFFFFFFFFFFFFFFFFFFFFFFFFFFFFFFFFFFFFFFFF AND DUP2 MSTORE PUSH1 0x20 ADD DUP6 PUSH20 0xFFFFFFFFFFFFFFFFFFFFFFFFFFFFFFFFFFFFFFFF AND DUP2 MSTORE PUSH1 0x20 ADD DUP5 DUP2 MSTORE POP SWAP1 POP PUSH2 0x2724 DUP7 PUSH2 0x2BC2 JUMP JUMPDEST DUP2 PUSH1 0x60 ADD MLOAD PUSH1 0x0 DUP2 MLOAD DUP2 LT PUSH2 0x273C JUMPI PUSH2 0x273B PUSH2 0x5094 JUMP JUMPDEST JUMPDEST PUSH1 0x20 MUL PUSH1 0x20 ADD ADD DUP2 SWAP1 MSTORE POP PUSH2 0x2750 DUP7 PUSH2 0x15E9 JUMP JUMPDEST DUP2 PUSH1 0x80 ADD MLOAD PUSH1 0x0 DUP2 MLOAD DUP2 LT PUSH2 0x2768 JUMPI PUSH2 0x2767 PUSH2 0x5094 JUMP JUMPDEST JUMPDEST PUSH1 0x20 MUL PUSH1 0x20 ADD ADD DUP2 SWAP1 MSTORE POP PUSH1 0x40 MLOAD DUP1 PUSH1 0x40 ADD PUSH1 0x40 MSTORE DUP1 PUSH1 0x14 DUP2 MSTORE PUSH1 0x20 ADD PUSH32 0x6164646974696F6E616C20646174612068657265000000000000000000000000 DUP2 MSTORE POP DUP2 PUSH1 0xA0 ADD MLOAD PUSH1 0x0 DUP2 MLOAD DUP2 LT PUSH2 0x27C1 JUMPI PUSH2 0x27C0 PUSH2 0x5094 JUMP JUMPDEST JUMPDEST PUSH1 0x20 MUL PUSH1 0x20 ADD ADD DUP2 SWAP1 MSTORE POP PUSH1 0x0 DUP2 PUSH1 0x40 MLOAD PUSH1 0x20 ADD PUSH2 0x27DF SWAP2 SWAP1 PUSH2 0x60FB JUMP JUMPDEST PUSH1 0x40 MLOAD PUSH1 0x20 DUP2 DUP4 SUB SUB DUP2 MSTORE SWAP1 PUSH1 0x40 MSTORE SWAP1 POP PUSH1 0x0 PUSH4 0x3B9ACA00 PUSH2 0x8CA0 TIMESTAMP PUSH2 0x2805 SWAP2 SWAP1 PUSH2 0x5D9D JUMP JUMPDEST PUSH2 0x280F SWAP2 SWAP1 PUSH2 0x5D5B JUMP JUMPDEST SWAP1 POP PUSH1 0x0 PUSH1 0xC PUSH1 0x0 DUP2 SLOAD DUP2 LT PUSH2 0x2828 JUMPI PUSH2 0x2827 PUSH2 0x5094 JUMP JUMPDEST JUMPDEST SWAP1 PUSH1 0x0 MSTORE PUSH1 0x20 PUSH1 0x0 KECCAK256 ADD SLOAD SWAP1 POP PUSH1 0xE PUSH1 0x0 SWAP1 SLOAD SWAP1 PUSH2 0x100 EXP SWAP1 DIV PUSH20 0xFFFFFFFFFFFFFFFFFFFFFFFFFFFFFFFFFFFFFFFF AND PUSH20 0xFFFFFFFFFFFFFFFFFFFFFFFFFFFFFFFFFFFFFFFF AND PUSH4 0xCA034BFF PUSH2 0x288C DUP8 DUP1 CALLDATASIZE SUB DUP2 ADD SWAP1 PUSH2 0x2887 SWAP2 SWAP1 PUSH2 0x6181 JUMP JUMPDEST PUSH2 0x2C90 JUMP JUMPDEST DUP4 DUP7 DUP7 DUP11 PUSH1 0x40 MLOAD DUP7 PUSH4 0xFFFFFFFF AND PUSH1 0xE0 SHL DUP2 MSTORE PUSH1 0x4 ADD PUSH2 0x28AF SWAP5 SWAP4 SWAP3 SWAP2 SWAP1 PUSH2 0x622E JUMP JUMPDEST PUSH1 0x0 PUSH1 0x40 MLOAD DUP1 DUP4 SUB DUP2 DUP6 DUP9 DUP1 EXTCODESIZE ISZERO DUP1 ISZERO PUSH2 0x28C8 JUMPI PUSH1 0x0 DUP1 REVERT JUMPDEST POP GAS CALL ISZERO DUP1 ISZERO PUSH2 0x28DC JUMPI RETURNDATASIZE PUSH1 0x0 DUP1 RETURNDATACOPY RETURNDATASIZE PUSH1 0x0 REVERT JUMPDEST POP POP POP POP POP POP POP POP POP POP POP POP POP POP JUMP JUMPDEST DUP2 PUSH20 0xFFFFFFFFFFFFFFFFFFFFFFFFFFFFFFFFFFFFFFFF AND DUP4 PUSH20 0xFFFFFFFFFFFFFFFFFFFFFFFFFFFFFFFFFFFFFFFF AND SUB PUSH2 0x295A JUMPI PUSH1 0x40 MLOAD PUSH32 0x8C379A000000000000000000000000000000000000000000000000000000000 DUP2 MSTORE PUSH1 0x4 ADD PUSH2 0x2951 SWAP1 PUSH2 0x62C6 JUMP JUMPDEST PUSH1 0x40 MLOAD DUP1 SWAP2 SUB SWAP1 REVERT JUMPDEST DUP1 PUSH1 0x6 PUSH1 0x0 DUP6 PUSH20 0xFFFFFFFFFFFFFFFFFFFFFFFFFFFFFFFFFFFFFFFF AND PUSH20 0xFFFFFFFFFFFFFFFFFFFFFFFFFFFFFFFFFFFFFFFF AND DUP2 MSTORE PUSH1 0x20 ADD SWAP1 DUP2 MSTORE PUSH1 0x20 ADD PUSH1 0x0 KECCAK256 PUSH1 0x0 DUP5 PUSH20 0xFFFFFFFFFFFFFFFFFFFFFFFFFFFFFFFFFFFFFFFF AND PUSH20 0xFFFFFFFFFFFFFFFFFFFFFFFFFFFFFFFFFFFFFFFF AND DUP2 MSTORE PUSH1 0x20 ADD SWAP1 DUP2 MSTORE PUSH1 0x20 ADD PUSH1 0x0 KECCAK256 PUSH1 0x0 PUSH2 0x100 EXP DUP2 SLOAD DUP2 PUSH1 0xFF MUL NOT AND SWAP1 DUP4 ISZERO ISZERO MUL OR SWAP1 SSTORE POP DUP2 PUSH20 0xFFFFFFFFFFFFFFFFFFFFFFFFFFFFFFFFFFFFFFFF AND DUP4 PUSH20 0xFFFFFFFFFFFFFFFFFFFFFFFFFFFFFFFFFFFFFFFF AND PUSH32 0x17307EAB39AB6107E8899845AD3D59BD9653F200F220920489CA2B5937696C31 DUP4 PUSH1 0x40 MLOAD PUSH2 0x2A4B SWAP2 SWAP1 PUSH2 0x34EE JUMP JUMPDEST PUSH1 0x40 MLOAD DUP1 SWAP2 SUB SWAP1 LOG3 POP POP POP JUMP JUMPDEST PUSH2 0x2A63 DUP5 DUP5 DUP5 PUSH2 0x1E21 JUMP JUMPDEST PUSH2 0x2A6F DUP5 DUP5 DUP5 DUP5 PUSH2 0x2CC8 JUMP JUMPDEST PUSH2 0x2AAE JUMPI PUSH1 0x40 MLOAD PUSH32 0x8C379A000000000000000000000000000000000000000000000000000000000 DUP2 MSTORE PUSH1 0x4 ADD PUSH2 0x2AA5 SWAP1 PUSH2 0x6358 JUMP JUMPDEST PUSH1 0x40 MLOAD DUP1 SWAP2 SUB SWAP1 REVERT JUMPDEST POP POP POP POP JUMP JUMPDEST PUSH1 0x0 DUP1 PUSH20 0xFFFFFFFFFFFFFFFFFFFFFFFFFFFFFFFFFFFFFFFF AND PUSH2 0x2AD6 DUP4 PUSH2 0x23AF JUMP JUMPDEST PUSH20 0xFFFFFFFFFFFFFFFFFFFFFFFFFFFFFFFFFFFFFFFF AND EQ ISZERO SWAP1 POP SWAP2 SWAP1 POP JUMP JUMPDEST POP POP POP POP JUMP JUMPDEST POP POP POP POP JUMP JUMPDEST PUSH2 0x2B0B DUP4 DUP4 PUSH2 0x2E4F JUMP JUMPDEST PUSH2 0x2B18 PUSH1 0x0 DUP5 DUP5 DUP5 PUSH2 0x2CC8 JUMP JUMPDEST PUSH2 0x2B57 JUMPI PUSH1 0x40 MLOAD PUSH32 0x8C379A000000000000000000000000000000000000000000000000000000000 DUP2 MSTORE PUSH1 0x4 ADD PUSH2 0x2B4E SWAP1 PUSH2 0x6358 JUMP JUMPDEST PUSH1 0x40 MLOAD DUP1 SWAP2 SUB SWAP1 REVERT JUMPDEST POP POP POP JUMP JUMPDEST PUSH1 0x60 PUSH2 0x2B67 DUP3 PUSH2 0x2AB4 JUMP JUMPDEST PUSH2 0x2BA6 JUMPI PUSH1 0x40 MLOAD PUSH32 0x8C379A000000000000000000000000000000000000000000000000000000000 DUP2 MSTORE PUSH1 0x4 ADD PUSH2 0x2B9D SWAP1 PUSH2 0x5ACE JUMP JUMPDEST PUSH1 0x40 MLOAD DUP1 SWAP2 SUB SWAP1 REVERT JUMPDEST PUSH1 0x0 PUSH1 0x80 DUP4 SWAP1 SHR SWAP1 POP PUSH2 0x2BBA DUP2 PUSH1 0x20 PUSH2 0x306C JUMP JUMPDEST SWAP2 POP POP SWAP2 SWAP1 POP JUMP JUMPDEST PUSH1 0x60 PUSH1 0x0 PUSH1 0x1 PUSH2 0x2BD1 DUP5 PUSH2 0x32A8 JUMP JUMPDEST ADD SWAP1 POP PUSH1 0x0 DUP2 PUSH8 0xFFFFFFFFFFFFFFFF DUP2 GT ISZERO PUSH2 0x2BF0 JUMPI PUSH2 0x2BEF PUSH2 0x3D3B JUMP JUMPDEST JUMPDEST PUSH1 0x40 MLOAD SWAP1 DUP1 DUP3 MSTORE DUP1 PUSH1 0x1F ADD PUSH1 0x1F NOT AND PUSH1 0x20 ADD DUP3 ADD PUSH1 0x40 MSTORE DUP1 ISZERO PUSH2 0x2C22 JUMPI DUP2 PUSH1 0x20 ADD PUSH1 0x1 DUP3 MUL DUP1 CALLDATASIZE DUP4 CALLDATACOPY DUP1 DUP3 ADD SWAP2 POP POP SWAP1 POP JUMPDEST POP SWAP1 POP PUSH1 0x0 DUP3 PUSH1 0x20 ADD DUP3 ADD SWAP1 POP JUMPDEST PUSH1 0x1 ISZERO PUSH2 0x2C85 JUMPI DUP1 DUP1 PUSH1 0x1 SWAP1 SUB SWAP2 POP POP PUSH32 0x3031323334353637383961626364656600000000000000000000000000000000 PUSH1 0xA DUP7 MOD BYTE DUP2 MSTORE8 PUSH1 0xA DUP6 DUP2 PUSH2 0x2C79 JUMPI PUSH2 0x2C78 PUSH2 0x6378 JUMP JUMPDEST JUMPDEST DIV SWAP5 POP PUSH1 0x0 DUP6 SUB PUSH2 0x2C30 JUMPI JUMPDEST DUP2 SWAP4 POP POP POP POP SWAP2 SWAP1 POP JUMP JUMPDEST PUSH1 0x0 DUP1 DUP3 PUSH1 0x20 ADD MLOAD DUP4 PUSH1 0x0 ADD MLOAD PUSH2 0x2CA7 SWAP2 SWAP1 PUSH2 0x5D9D JUMP JUMPDEST SWAP1 POP DUP1 DUP4 PUSH1 0x40 ADD MLOAD GT PUSH2 0x2CBA JUMPI DUP1 PUSH2 0x2CC0 JUMP JUMPDEST DUP3 PUSH1 0x40 ADD MLOAD JUMPDEST SWAP2 POP POP SWAP2 SWAP1 POP JUMP JUMPDEST PUSH1 0x0 PUSH2 0x2CE9 DUP5 PUSH20 0xFFFFFFFFFFFFFFFFFFFFFFFFFFFFFFFFFFFFFFFF AND PUSH2 0x33FB JUMP JUMPDEST ISZERO PUSH2 0x2E42 JUMPI DUP4 PUSH20 0xFFFFFFFFFFFFFFFFFFFFFFFFFFFFFFFFFFFFFFFF AND PUSH4 0x150B7A02 PUSH2 0x2D12 PUSH2 0x1CCB JUMP JUMPDEST DUP8 DUP7 DUP7 PUSH1 0x40 MLOAD DUP6 PUSH4 0xFFFFFFFF AND PUSH1 0xE0 SHL DUP2 MSTORE PUSH1 0x4 ADD PUSH2 0x2D34 SWAP5 SWAP4 SWAP3 SWAP2 SWAP1 PUSH2 0x63A7 JUMP JUMPDEST PUSH1 0x20 PUSH1 0x40 MLOAD DUP1 DUP4 SUB DUP2 PUSH1 0x0 DUP8 GAS CALL SWAP3 POP POP POP DUP1 ISZERO PUSH2 0x2D70 JUMPI POP PUSH1 0x40 MLOAD RETURNDATASIZE PUSH1 0x1F NOT PUSH1 0x1F DUP3 ADD AND DUP3 ADD DUP1 PUSH1 0x40 MSTORE POP DUP2 ADD SWAP1 PUSH2 0x2D6D SWAP2 SWAP1 PUSH2 0x6408 JUMP JUMPDEST PUSH1 0x1 JUMPDEST PUSH2 0x2DF2 JUMPI RETURNDATASIZE DUP1 PUSH1 0x0 DUP2 EQ PUSH2 0x2DA0 JUMPI PUSH1 0x40 MLOAD SWAP2 POP PUSH1 0x1F NOT PUSH1 0x3F RETURNDATASIZE ADD AND DUP3 ADD PUSH1 0x40 MSTORE RETURNDATASIZE DUP3 MSTORE RETURNDATASIZE PUSH1 0x0 PUSH1 0x20 DUP5 ADD RETURNDATACOPY PUSH2 0x2DA5 JUMP JUMPDEST PUSH1 0x60 SWAP2 POP JUMPDEST POP PUSH1 0x0 DUP2 MLOAD SUB PUSH2 0x2DEA JUMPI PUSH1 0x40 MLOAD PUSH32 0x8C379A000000000000000000000000000000000000000000000000000000000 DUP2 MSTORE PUSH1 0x4 ADD PUSH2 0x2DE1 SWAP1 PUSH2 0x6358 JUMP JUMPDEST PUSH1 0x40 MLOAD DUP1 SWAP2 SUB SWAP1 REVERT JUMPDEST DUP1 MLOAD DUP2 PUSH1 0x20 ADD REVERT JUMPDEST PUSH4 0x150B7A02 PUSH1 0xE0 SHL PUSH28 0xFFFFFFFFFFFFFFFFFFFFFFFFFFFFFFFFFFFFFFFFFFFFFFFFFFFFFFFF NOT AND DUP2 PUSH28 0xFFFFFFFFFFFFFFFFFFFFFFFFFFFFFFFFFFFFFFFFFFFFFFFFFFFFFFFF NOT AND EQ SWAP2 POP POP PUSH2 0x2E47 JUMP JUMPDEST PUSH1 0x1 SWAP1 POP JUMPDEST SWAP5 SWAP4 POP POP POP POP JUMP JUMPDEST PUSH1 0x0 PUSH20 0xFFFFFFFFFFFFFFFFFFFFFFFFFFFFFFFFFFFFFFFF AND DUP3 PUSH20 0xFFFFFFFFFFFFFFFFFFFFFFFFFFFFFFFFFFFFFFFF AND SUB PUSH2 0x2EBE JUMPI PUSH1 0x40 MLOAD PUSH32 0x8C379A000000000000000000000000000000000000000000000000000000000 DUP2 MSTORE PUSH1 0x4 ADD PUSH2 0x2EB5 SWAP1 PUSH2 0x6481 JUMP JUMPDEST PUSH1 0x40 MLOAD DUP1 SWAP2 SUB SWAP1 REVERT JUMPDEST PUSH2 0x2EC7 DUP2 PUSH2 0x2AB4 JUMP JUMPDEST ISZERO PUSH2 0x2F07 JUMPI PUSH1 0x40 MLOAD PUSH32 0x8C379A000000000000000000000000000000000000000000000000000000000 DUP2 MSTORE PUSH1 0x4 ADD PUSH2 0x2EFE SWAP1 PUSH2 0x64ED JUMP JUMPDEST PUSH1 0x40 MLOAD DUP1 SWAP2 SUB SWAP1 REVERT JUMPDEST PUSH2 0x2F15 PUSH1 0x0 DUP4 DUP4 PUSH1 0x1 PUSH2 0x2AF5 JUMP JUMPDEST PUSH2 0x2F1E DUP2 PUSH2 0x2AB4 JUMP JUMPDEST ISZERO PUSH2 0x2F5E JUMPI PUSH1 0x40 MLOAD PUSH32 0x8C379A000000000000000000000000000000000000000000000000000000000 DUP2 MSTORE PUSH1 0x4 ADD PUSH2 0x2F55 SWAP1 PUSH2 0x64ED JUMP JUMPDEST PUSH1 0x40 MLOAD DUP1 SWAP2 SUB SWAP1 REVERT JUMPDEST PUSH1 0x1 PUSH1 0x4 PUSH1 0x0 DUP5 PUSH20 0xFFFFFFFFFFFFFFFFFFFFFFFFFFFFFFFFFFFFFFFF AND PUSH20 0xFFFFFFFFFFFFFFFFFFFFFFFFFFFFFFFFFFFFFFFF AND DUP2 MSTORE PUSH1 0x20 ADD SWAP1 DUP2 MSTORE PUSH1 0x20 ADD PUSH1 0x0 KECCAK256 PUSH1 0x0 DUP3 DUP3 SLOAD ADD SWAP3 POP POP DUP2 SWAP1 SSTORE POP DUP2 PUSH1 0x3 PUSH1 0x0 DUP4 DUP2 MSTORE PUSH1 0x20 ADD SWAP1 DUP2 MSTORE PUSH1 0x20 ADD PUSH1 0x0 KECCAK256 PUSH1 0x0 PUSH2 0x100 EXP DUP2 SLOAD DUP2 PUSH20 0xFFFFFFFFFFFFFFFFFFFFFFFFFFFFFFFFFFFFFFFF MUL NOT AND SWAP1 DUP4 PUSH20 0xFFFFFFFFFFFFFFFFFFFFFFFFFFFFFFFFFFFFFFFF AND MUL OR SWAP1 SSTORE POP DUP1 DUP3 PUSH20 0xFFFFFFFFFFFFFFFFFFFFFFFFFFFFFFFFFFFFFFFF AND PUSH1 0x0 PUSH20 0xFFFFFFFFFFFFFFFFFFFFFFFFFFFFFFFFFFFFFFFF AND PUSH32 0xDDF252AD1BE2C89B69C2B068FC378DAA952BA7F163C4A11628F55A4DF523B3EF PUSH1 0x40 MLOAD PUSH1 0x40 MLOAD DUP1 SWAP2 SUB SWAP1 LOG4 PUSH2 0x3068 PUSH1 0x0 DUP4 DUP4 PUSH1 0x1 PUSH2 0x2AFB JUMP JUMPDEST POP POP JUMP JUMPDEST PUSH1 0x60 PUSH1 0x0 PUSH1 0x2 DUP4 PUSH1 0x2 PUSH2 0x307F SWAP2 SWAP1 PUSH2 0x5D5B JUMP JUMPDEST PUSH2 0x3089 SWAP2 SWAP1 PUSH2 0x5D9D JUMP JUMPDEST PUSH8 0xFFFFFFFFFFFFFFFF DUP2 GT ISZERO PUSH2 0x30A2 JUMPI PUSH2 0x30A1 PUSH2 0x3D3B JUMP JUMPDEST JUMPDEST PUSH1 0x40 MLOAD SWAP1 DUP1 DUP3 MSTORE DUP1 PUSH1 0x1F ADD PUSH1 0x1F NOT AND PUSH1 0x20 ADD DUP3 ADD PUSH1 0x40 MSTORE DUP1 ISZERO PUSH2 0x30D4 JUMPI DUP2 PUSH1 0x20 ADD PUSH1 0x1 DUP3 MUL DUP1 CALLDATASIZE DUP4 CALLDATACOPY DUP1 DUP3 ADD SWAP2 POP POP SWAP1 POP JUMPDEST POP SWAP1 POP PUSH32 0x3000000000000000000000000000000000000000000000000000000000000000 DUP2 PUSH1 0x0 DUP2 MLOAD DUP2 LT PUSH2 0x310C JUMPI PUSH2 0x310B PUSH2 0x5094 JUMP JUMPDEST JUMPDEST PUSH1 0x20 ADD ADD SWAP1 PUSH31 0xFFFFFFFFFFFFFFFFFFFFFFFFFFFFFFFFFFFFFFFFFFFFFFFFFFFFFFFFFFFFFF NOT AND SWAP1 DUP2 PUSH1 0x0 BYTE SWAP1 MSTORE8 POP PUSH32 0x7800000000000000000000000000000000000000000000000000000000000000 DUP2 PUSH1 0x1 DUP2 MLOAD DUP2 LT PUSH2 0x3170 JUMPI PUSH2 0x316F PUSH2 0x5094 JUMP JUMPDEST JUMPDEST PUSH1 0x20 ADD ADD SWAP1 PUSH31 0xFFFFFFFFFFFFFFFFFFFFFFFFFFFFFFFFFFFFFFFFFFFFFFFFFFFFFFFFFFFFFF NOT AND SWAP1 DUP2 PUSH1 0x0 BYTE SWAP1 MSTORE8 POP PUSH1 0x0 PUSH1 0x1 DUP5 PUSH1 0x2 PUSH2 0x31B0 SWAP2 SWAP1 PUSH2 0x5D5B JUMP JUMPDEST PUSH2 0x31BA SWAP2 SWAP1 PUSH2 0x5D9D JUMP JUMPDEST SWAP1 POP JUMPDEST PUSH1 0x1 DUP2 GT ISZERO PUSH2 0x325A JUMPI PUSH32 0x3031323334353637383961626364656600000000000000000000000000000000 PUSH1 0xF DUP7 AND PUSH1 0x10 DUP2 LT PUSH2 0x31FC JUMPI PUSH2 0x31FB PUSH2 0x5094 JUMP JUMPDEST JUMPDEST BYTE PUSH1 0xF8 SHL DUP3 DUP3 DUP2 MLOAD DUP2 LT PUSH2 0x3213 JUMPI PUSH2 0x3212 PUSH2 0x5094 JUMP JUMPDEST JUMPDEST PUSH1 0x20 ADD ADD SWAP1 PUSH31 0xFFFFFFFFFFFFFFFFFFFFFFFFFFFFFFFFFFFFFFFFFFFFFFFFFFFFFFFFFFFFFF NOT AND SWAP1 DUP2 PUSH1 0x0 BYTE SWAP1 MSTORE8 POP PUSH1 0x4 DUP6 SWAP1 SHR SWAP5 POP DUP1 PUSH2 0x3253 SWAP1 PUSH2 0x650D JUMP JUMPDEST SWAP1 POP PUSH2 0x31BD JUMP JUMPDEST POP PUSH1 0x0 DUP5 EQ PUSH2 0x329E JUMPI PUSH1 0x40 MLOAD PUSH32 0x8C379A000000000000000000000000000000000000000000000000000000000 DUP2 MSTORE PUSH1 0x4 ADD PUSH2 0x3295 SWAP1 PUSH2 0x6582 JUMP JUMPDEST PUSH1 0x40 MLOAD DUP1 SWAP2 SUB SWAP1 REVERT JUMPDEST DUP1 SWAP2 POP POP SWAP3 SWAP2 POP POP JUMP JUMPDEST PUSH1 0x0 DUP1 PUSH1 0x0 SWAP1 POP PUSH27 0x184F03E93FF9F4DAA797ED6E38ED64BF6A1F010000000000000000 DUP4 LT PUSH2 0x3306 JUMPI PUSH27 0x184F03E93FF9F4DAA797ED6E38ED64BF6A1F010000000000000000 DUP4 DUP2 PUSH2 0x32FC JUMPI PUSH2 0x32FB PUSH2 0x6378 JUMP JUMPDEST JUMPDEST DIV SWAP3 POP PUSH1 0x40 DUP2 ADD SWAP1 POP JUMPDEST PUSH14 0x4EE2D6D415B85ACEF8100000000 DUP4 LT PUSH2 0x3343 JUMPI PUSH14 0x4EE2D6D415B85ACEF8100000000 DUP4 DUP2 PUSH2 0x3339 JUMPI PUSH2 0x3338 PUSH2 0x6378 JUMP JUMPDEST JUMPDEST DIV SWAP3 POP PUSH1 0x20 DUP2 ADD SWAP1 POP JUMPDEST PUSH7 0x2386F26FC10000 DUP4 LT PUSH2 0x3372 JUMPI PUSH7 0x2386F26FC10000 DUP4 DUP2 PUSH2 0x3368 JUMPI PUSH2 0x3367 PUSH2 0x6378 JUMP JUMPDEST JUMPDEST DIV SWAP3 POP PUSH1 0x10 DUP2 ADD SWAP1 POP JUMPDEST PUSH4 0x5F5E100 DUP4 LT PUSH2 0x339B JUMPI PUSH4 0x5F5E100 DUP4 DUP2 PUSH2 0x3391 JUMPI PUSH2 0x3390 PUSH2 0x6378 JUMP JUMPDEST JUMPDEST DIV SWAP3 POP PUSH1 0x8 DUP2 ADD SWAP1 POP JUMPDEST PUSH2 0x2710 DUP4 LT PUSH2 0x33C0 JUMPI PUSH2 0x2710 DUP4 DUP2 PUSH2 0x33B6 JUMPI PUSH2 0x33B5 PUSH2 0x6378 JUMP JUMPDEST JUMPDEST DIV SWAP3 POP PUSH1 0x4 DUP2 ADD SWAP1 POP JUMPDEST PUSH1 0x64 DUP4 LT PUSH2 0x33E3 JUMPI PUSH1 0x64 DUP4 DUP2 PUSH2 0x33D9 JUMPI PUSH2 0x33D8 PUSH2 0x6378 JUMP JUMPDEST JUMPDEST DIV SWAP3 POP PUSH1 0x2 DUP2 ADD SWAP1 POP JUMPDEST PUSH1 0xA DUP4 LT PUSH2 0x33F2 JUMPI PUSH1 0x1 DUP2 ADD SWAP1 POP JUMPDEST DUP1 SWAP2 POP POP SWAP2 SWAP1 POP JUMP JUMPDEST PUSH1 0x0 DUP1 DUP3 PUSH20 0xFFFFFFFFFFFFFFFFFFFFFFFFFFFFFFFFFFFFFFFF AND EXTCODESIZE GT SWAP1 POP SWAP2 SWAP1 POP JUMP JUMPDEST PUSH1 0x40 MLOAD DUP1 PUSH1 0x40 ADD PUSH1 0x40 MSTORE DUP1 PUSH1 0x0 ISZERO ISZERO DUP2 MSTORE PUSH1 0x20 ADD PUSH1 0x60 DUP2 MSTORE POP SWAP1 JUMP JUMPDEST PUSH1 0x0 PUSH1 0x40 MLOAD SWAP1 POP SWAP1 JUMP JUMPDEST PUSH1 0x0 DUP1 REVERT JUMPDEST PUSH1 0x0 DUP1 REVERT JUMPDEST PUSH1 0x0 PUSH32 0xFFFFFFFF00000000000000000000000000000000000000000000000000000000 DUP3 AND SWAP1 POP SWAP2 SWAP1 POP JUMP JUMPDEST PUSH2 0x3483 DUP2 PUSH2 0x344E JUMP JUMPDEST DUP2 EQ PUSH2 0x348E JUMPI PUSH1 0x0 DUP1 REVERT JUMPDEST POP JUMP JUMPDEST PUSH1 0x0 DUP2 CALLDATALOAD SWAP1 POP PUSH2 0x34A0 DUP2 PUSH2 0x347A JUMP JUMPDEST SWAP3 SWAP2 POP POP JUMP JUMPDEST PUSH1 0x0 PUSH1 0x20 DUP3 DUP5 SUB SLT ISZERO PUSH2 0x34BC JUMPI PUSH2 0x34BB PUSH2 0x3444 JUMP JUMPDEST JUMPDEST PUSH1 0x0 PUSH2 0x34CA DUP5 DUP3 DUP6 ADD PUSH2 0x3491 JUMP JUMPDEST SWAP2 POP POP SWAP3 SWAP2 POP POP JUMP JUMPDEST PUSH1 0x0 DUP2 ISZERO ISZERO SWAP1 POP SWAP2 SWAP1 POP JUMP JUMPDEST PUSH2 0x34E8 DUP2 PUSH2 0x34D3 JUMP JUMPDEST DUP3 MSTORE POP POP JUMP JUMPDEST PUSH1 0x0 PUSH1 0x20 DUP3 ADD SWAP1 POP PUSH2 0x3503 PUSH1 0x0 DUP4 ADD DUP5 PUSH2 0x34DF JUMP JUMPDEST SWAP3 SWAP2 POP POP JUMP JUMPDEST PUSH1 0x0 DUP2 MLOAD SWAP1 POP SWAP2 SWAP1 POP JUMP JUMPDEST PUSH1 0x0 DUP3 DUP3 MSTORE PUSH1 0x20 DUP3 ADD SWAP1 POP SWAP3 SWAP2 POP POP JUMP JUMPDEST PUSH1 0x0 JUMPDEST DUP4 DUP2 LT ISZERO PUSH2 0x3543 JUMPI DUP1 DUP3 ADD MLOAD DUP2 DUP5 ADD MSTORE PUSH1 0x20 DUP2 ADD SWAP1 POP PUSH2 0x3528 JUMP JUMPDEST PUSH1 0x0 DUP5 DUP5 ADD MSTORE POP POP POP POP JUMP JUMPDEST PUSH1 0x0 PUSH1 0x1F NOT PUSH1 0x1F DUP4 ADD AND SWAP1 POP SWAP2 SWAP1 POP JUMP JUMPDEST PUSH1 0x0 PUSH2 0x356B DUP3 PUSH2 0x3509 JUMP JUMPDEST PUSH2 0x3575 DUP2 DUP6 PUSH2 0x3514 JUMP JUMPDEST SWAP4 POP PUSH2 0x3585 DUP2 DUP6 PUSH1 0x20 DUP7 ADD PUSH2 0x3525 JUMP JUMPDEST PUSH2 0x358E DUP2 PUSH2 0x354F JUMP JUMPDEST DUP5 ADD SWAP2 POP POP SWAP3 SWAP2 POP POP JUMP JUMPDEST PUSH1 0x0 PUSH1 0x20 DUP3 ADD SWAP1 POP DUP2 DUP2 SUB PUSH1 0x0 DUP4 ADD MSTORE PUSH2 0x35B3 DUP2 DUP5 PUSH2 0x3560 JUMP JUMPDEST SWAP1 POP SWAP3 SWAP2 POP POP JUMP JUMPDEST PUSH1 0x0 DUP2 SWAP1 POP SWAP2 SWAP1 POP JUMP JUMPDEST PUSH2 0x35CE DUP2 PUSH2 0x35BB JUMP JUMPDEST DUP2 EQ PUSH2 0x35D9 JUMPI PUSH1 0x0 DUP1 REVERT JUMPDEST POP JUMP JUMPDEST PUSH1 0x0 DUP2 CALLDATALOAD SWAP1 POP PUSH2 0x35EB DUP2 PUSH2 0x35C5 JUMP JUMPDEST SWAP3 SWAP2 POP POP JUMP JUMPDEST PUSH1 0x0 PUSH1 0x20 DUP3 DUP5 SUB SLT ISZERO PUSH2 0x3607 JUMPI PUSH2 0x3606 PUSH2 0x3444 JUMP JUMPDEST JUMPDEST PUSH1 0x0 PUSH2 0x3615 DUP5 DUP3 DUP6 ADD PUSH2 0x35DC JUMP JUMPDEST SWAP2 POP POP SWAP3 SWAP2 POP POP JUMP JUMPDEST PUSH1 0x0 PUSH20 0xFFFFFFFFFFFFFFFFFFFFFFFFFFFFFFFFFFFFFFFF DUP3 AND SWAP1 POP SWAP2 SWAP1 POP JUMP JUMPDEST PUSH1 0x0 PUSH2 0x3649 DUP3 PUSH2 0x361E JUMP JUMPDEST SWAP1 POP SWAP2 SWAP1 POP JUMP JUMPDEST PUSH2 0x3659 DUP2 PUSH2 0x363E JUMP JUMPDEST DUP3 MSTORE POP POP JUMP JUMPDEST PUSH1 0x0 PUSH1 0x20 DUP3 ADD SWAP1 POP PUSH2 0x3674 PUSH1 0x0 DUP4 ADD DUP5 PUSH2 0x3650 JUMP JUMPDEST SWAP3 SWAP2 POP POP JUMP JUMPDEST PUSH2 0x3683 DUP2 PUSH2 0x363E JUMP JUMPDEST DUP2 EQ PUSH2 0x368E JUMPI PUSH1 0x0 DUP1 REVERT JUMPDEST POP JUMP JUMPDEST PUSH1 0x0 DUP2 CALLDATALOAD SWAP1 POP PUSH2 0x36A0 DUP2 PUSH2 0x367A JUMP JUMPDEST SWAP3 SWAP2 POP POP JUMP JUMPDEST PUSH1 0x0 DUP1 PUSH1 0x40 DUP4 DUP6 SUB SLT ISZERO PUSH2 0x36BD JUMPI PUSH2 0x36BC PUSH2 0x3444 JUMP JUMPDEST JUMPDEST PUSH1 0x0 PUSH2 0x36CB DUP6 DUP3 DUP7 ADD PUSH2 0x3691 JUMP JUMPDEST SWAP3 POP POP PUSH1 0x20 PUSH2 0x36DC DUP6 DUP3 DUP7 ADD PUSH2 0x35DC JUMP JUMPDEST SWAP2 POP POP SWAP3 POP SWAP3 SWAP1 POP JUMP JUMPDEST PUSH1 0x0 DUP1 PUSH1 0x0 PUSH1 0x60 DUP5 DUP7 SUB SLT ISZERO PUSH2 0x36FF JUMPI PUSH2 0x36FE PUSH2 0x3444 JUMP JUMPDEST JUMPDEST PUSH1 0x0 PUSH2 0x370D DUP7 DUP3 DUP8 ADD PUSH2 0x3691 JUMP JUMPDEST SWAP4 POP POP PUSH1 0x20 PUSH2 0x371E DUP7 DUP3 DUP8 ADD PUSH2 0x3691 JUMP JUMPDEST SWAP3 POP POP PUSH1 0x40 PUSH2 0x372F DUP7 DUP3 DUP8 ADD PUSH2 0x35DC JUMP JUMPDEST SWAP2 POP POP SWAP3 POP SWAP3 POP SWAP3 JUMP JUMPDEST PUSH1 0x0 DUP2 MLOAD SWAP1 POP SWAP2 SWAP1 POP JUMP JUMPDEST PUSH1 0x0 DUP3 DUP3 MSTORE PUSH1 0x20 DUP3 ADD SWAP1 POP SWAP3 SWAP2 POP POP JUMP JUMPDEST PUSH1 0x0 PUSH2 0x3760 DUP3 PUSH2 0x3739 JUMP JUMPDEST PUSH2 0x376A DUP2 DUP6 PUSH2 0x3744 JUMP JUMPDEST SWAP4 POP PUSH2 0x377A DUP2 DUP6 PUSH1 0x20 DUP7 ADD PUSH2 0x3525 JUMP JUMPDEST PUSH2 0x3783 DUP2 PUSH2 0x354F JUMP JUMPDEST DUP5 ADD SWAP2 POP POP SWAP3 SWAP2 POP POP JUMP JUMPDEST PUSH1 0x0 PUSH1 0x40 DUP3 ADD SWAP1 POP PUSH2 0x37A3 PUSH1 0x0 DUP4 ADD DUP6 PUSH2 0x34DF JUMP JUMPDEST DUP2 DUP2 SUB PUSH1 0x20 DUP4 ADD MSTORE PUSH2 0x37B5 DUP2 DUP5 PUSH2 0x3755 JUMP JUMPDEST SWAP1 POP SWAP4 SWAP3 POP POP POP JUMP JUMPDEST PUSH1 0x0 DUP1 REVERT JUMPDEST PUSH1 0x0 PUSH1 0xE0 DUP3 DUP5 SUB SLT ISZERO PUSH2 0x37D9 JUMPI PUSH2 0x37D8 PUSH2 0x37BE JUMP JUMPDEST JUMPDEST DUP2 SWAP1 POP SWAP3 SWAP2 POP POP JUMP JUMPDEST PUSH1 0x0 PUSH1 0x20 DUP3 DUP5 SUB SLT ISZERO PUSH2 0x37F8 JUMPI PUSH2 0x37F7 PUSH2 0x3444 JUMP JUMPDEST JUMPDEST PUSH1 0x0 DUP3 ADD CALLDATALOAD PUSH8 0xFFFFFFFFFFFFFFFF DUP2 GT ISZERO PUSH2 0x3816 JUMPI PUSH2 0x3815 PUSH2 0x3449 JUMP JUMPDEST JUMPDEST PUSH2 0x3822 DUP5 DUP3 DUP6 ADD PUSH2 0x37C3 JUMP JUMPDEST SWAP2 POP POP SWAP3 SWAP2 POP POP JUMP JUMPDEST PUSH2 0x3834 DUP2 PUSH2 0x34D3 JUMP JUMPDEST DUP3 MSTORE POP POP JUMP JUMPDEST PUSH1 0x0 DUP3 DUP3 MSTORE PUSH1 0x20 DUP3 ADD SWAP1 POP SWAP3 SWAP2 POP POP JUMP JUMPDEST PUSH1 0x0 PUSH2 0x3856 DUP3 PUSH2 0x3739 JUMP JUMPDEST PUSH2 0x3860 DUP2 DUP6 PUSH2 0x383A JUMP JUMPDEST SWAP4 POP PUSH2 0x3870 DUP2 DUP6 PUSH1 0x20 DUP7 ADD PUSH2 0x3525 JUMP JUMPDEST PUSH2 0x3879 DUP2 PUSH2 0x354F JUMP JUMPDEST DUP5 ADD SWAP2 POP POP SWAP3 SWAP2 POP POP JUMP JUMPDEST PUSH1 0x0 PUSH1 0x40 DUP4 ADD PUSH1 0x0 DUP4 ADD MLOAD PUSH2 0x389C PUSH1 0x0 DUP7 ADD DUP3 PUSH2 0x382B JUMP JUMPDEST POP PUSH1 0x20 DUP4 ADD MLOAD DUP5 DUP3 SUB PUSH1 0x20 DUP7 ADD MSTORE PUSH2 0x38B4 DUP3 DUP3 PUSH2 0x384B JUMP JUMPDEST SWAP2 POP POP DUP1 SWAP2 POP POP SWAP3 SWAP2 POP POP JUMP JUMPDEST PUSH1 0x0 PUSH1 0x20 DUP3 ADD SWAP1 POP DUP2 DUP2 SUB PUSH1 0x0 DUP4 ADD MSTORE PUSH2 0x38DB DUP2 DUP5 PUSH2 0x3884 JUMP JUMPDEST SWAP1 POP SWAP3 SWAP2 POP POP JUMP JUMPDEST PUSH1 0x0 DUP3 DUP3 MSTORE PUSH1 0x20 DUP3 ADD SWAP1 POP SWAP3 SWAP2 POP POP JUMP JUMPDEST PUSH1 0x0 PUSH2 0x38FF DUP3 PUSH2 0x3509 JUMP JUMPDEST PUSH2 0x3909 DUP2 DUP6 PUSH2 0x38E3 JUMP JUMPDEST SWAP4 POP PUSH2 0x3919 DUP2 DUP6 PUSH1 0x20 DUP7 ADD PUSH2 0x3525 JUMP JUMPDEST PUSH2 0x3922 DUP2 PUSH2 0x354F JUMP JUMPDEST DUP5 ADD SWAP2 POP POP SWAP3 SWAP2 POP POP JUMP JUMPDEST PUSH1 0x0 DUP2 SWAP1 POP SWAP2 SWAP1 POP JUMP JUMPDEST PUSH2 0x3940 DUP2 PUSH2 0x392D JUMP JUMPDEST DUP3 MSTORE POP POP JUMP JUMPDEST PUSH1 0x0 PUSH1 0x40 DUP4 ADD PUSH1 0x0 DUP4 ADD MLOAD DUP5 DUP3 SUB PUSH1 0x0 DUP7 ADD MSTORE PUSH2 0x3963 DUP3 DUP3 PUSH2 0x38F4 JUMP JUMPDEST SWAP2 POP POP PUSH1 0x20 DUP4 ADD MLOAD PUSH2 0x3978 PUSH1 0x20 DUP7 ADD DUP3 PUSH2 0x3937 JUMP JUMPDEST POP DUP1 SWAP2 POP POP SWAP3 SWAP2 POP POP JUMP JUMPDEST PUSH1 0x0 PUSH8 0xFFFFFFFFFFFFFFFF DUP3 AND SWAP1 POP SWAP2 SWAP1 POP JUMP JUMPDEST PUSH2 0x39A0 DUP2 PUSH2 0x3983 JUMP JUMPDEST DUP3 MSTORE POP POP JUMP JUMPDEST PUSH2 0x39AF DUP2 PUSH2 0x3983 JUMP JUMPDEST DUP3 MSTORE POP POP JUMP JUMPDEST PUSH1 0x40 DUP3 ADD PUSH1 0x0 DUP3 ADD MLOAD PUSH2 0x39CB PUSH1 0x0 DUP6 ADD DUP3 PUSH2 0x39A6 JUMP JUMPDEST POP PUSH1 0x20 DUP3 ADD MLOAD PUSH2 0x39DE PUSH1 0x20 DUP6 ADD DUP3 PUSH2 0x39A6 JUMP JUMPDEST POP POP POP POP JUMP JUMPDEST PUSH1 0x0 PUSH1 0xE0 DUP3 ADD SWAP1 POP DUP2 DUP2 SUB PUSH1 0x0 DUP4 ADD MSTORE PUSH2 0x39FE DUP2 DUP10 PUSH2 0x3946 JUMP JUMPDEST SWAP1 POP DUP2 DUP2 SUB PUSH1 0x20 DUP4 ADD MSTORE PUSH2 0x3A12 DUP2 DUP9 PUSH2 0x3946 JUMP JUMPDEST SWAP1 POP PUSH2 0x3A21 PUSH1 0x40 DUP4 ADD DUP8 PUSH2 0x3997 JUMP JUMPDEST DUP2 DUP2 SUB PUSH1 0x60 DUP4 ADD MSTORE PUSH2 0x3A33 DUP2 DUP7 PUSH2 0x3755 JUMP JUMPDEST SWAP1 POP PUSH2 0x3A42 PUSH1 0x80 DUP4 ADD DUP6 PUSH2 0x39B5 JUMP JUMPDEST PUSH2 0x3A4F PUSH1 0xC0 DUP4 ADD DUP5 PUSH2 0x3997 JUMP JUMPDEST SWAP8 SWAP7 POP POP POP POP POP POP POP JUMP JUMPDEST PUSH1 0x0 PUSH1 0x20 DUP3 DUP5 SUB SLT ISZERO PUSH2 0x3A70 JUMPI PUSH2 0x3A6F PUSH2 0x3444 JUMP JUMPDEST JUMPDEST PUSH1 0x0 PUSH2 0x3A7E DUP5 DUP3 DUP6 ADD PUSH2 0x3691 JUMP JUMPDEST SWAP2 POP POP SWAP3 SWAP2 POP POP JUMP JUMPDEST PUSH2 0x3A90 DUP2 PUSH2 0x35BB JUMP JUMPDEST DUP3 MSTORE POP POP JUMP JUMPDEST PUSH1 0x0 PUSH1 0x20 DUP3 ADD SWAP1 POP PUSH2 0x3AAB PUSH1 0x0 DUP4 ADD DUP5 PUSH2 0x3A87 JUMP JUMPDEST SWAP3 SWAP2 POP POP JUMP JUMPDEST PUSH2 0x3ABA DUP2 PUSH2 0x34D3 JUMP JUMPDEST DUP2 EQ PUSH2 0x3AC5 JUMPI PUSH1 0x0 DUP1 REVERT JUMPDEST POP JUMP JUMPDEST PUSH1 0x0 DUP2 CALLDATALOAD SWAP1 POP PUSH2 0x3AD7 DUP2 PUSH2 0x3AB1 JUMP JUMPDEST SWAP3 SWAP2 POP POP JUMP JUMPDEST PUSH1 0x0 DUP1 REVERT JUMPDEST PUSH1 0x0 DUP1 REVERT JUMPDEST PUSH1 0x0 DUP1 REVERT JUMPDEST PUSH1 0x0 DUP1 DUP4 PUSH1 0x1F DUP5 ADD SLT PUSH2 0x3B02 JUMPI PUSH2 0x3B01 PUSH2 0x3ADD JUMP JUMPDEST JUMPDEST DUP3 CALLDATALOAD SWAP1 POP PUSH8 0xFFFFFFFFFFFFFFFF DUP2 GT ISZERO PUSH2 0x3B1F JUMPI PUSH2 0x3B1E PUSH2 0x3AE2 JUMP JUMPDEST JUMPDEST PUSH1 0x20 DUP4 ADD SWAP2 POP DUP4 PUSH1 0x20 DUP3 MUL DUP4 ADD GT ISZERO PUSH2 0x3B3B JUMPI PUSH2 0x3B3A PUSH2 0x3AE7 JUMP JUMPDEST JUMPDEST SWAP3 POP SWAP3 SWAP1 POP JUMP JUMPDEST PUSH1 0x0 PUSH1 0x60 DUP3 DUP5 SUB SLT ISZERO PUSH2 0x3B58 JUMPI PUSH2 0x3B57 PUSH2 0x37BE JUMP JUMPDEST JUMPDEST DUP2 SWAP1 POP SWAP3 SWAP2 POP POP JUMP JUMPDEST PUSH1 0x0 PUSH1 0x60 DUP3 DUP5 SUB SLT ISZERO PUSH2 0x3B77 JUMPI PUSH2 0x3B76 PUSH2 0x37BE JUMP JUMPDEST JUMPDEST DUP2 SWAP1 POP SWAP3 SWAP2 POP POP JUMP JUMPDEST PUSH1 0x0 DUP1 PUSH1 0x0 DUP1 PUSH1 0x0 PUSH1 0x80 DUP7 DUP9 SUB SLT ISZERO PUSH2 0x3B9C JUMPI PUSH2 0x3B9B PUSH2 0x3444 JUMP JUMPDEST JUMPDEST PUSH1 0x0 PUSH2 0x3BAA DUP9 DUP3 DUP10 ADD PUSH2 0x3AC8 JUMP JUMPDEST SWAP6 POP POP PUSH1 0x20 DUP7 ADD CALLDATALOAD PUSH8 0xFFFFFFFFFFFFFFFF DUP2 GT ISZERO PUSH2 0x3BCB JUMPI PUSH2 0x3BCA PUSH2 0x3449 JUMP JUMPDEST JUMPDEST PUSH2 0x3BD7 DUP9 DUP3 DUP10 ADD PUSH2 0x3AEC JUMP JUMPDEST SWAP5 POP SWAP5 POP POP PUSH1 0x40 DUP7 ADD CALLDATALOAD PUSH8 0xFFFFFFFFFFFFFFFF DUP2 GT ISZERO PUSH2 0x3BFA JUMPI PUSH2 0x3BF9 PUSH2 0x3449 JUMP JUMPDEST JUMPDEST PUSH2 0x3C06 DUP9 DUP3 DUP10 ADD PUSH2 0x3B42 JUMP JUMPDEST SWAP3 POP POP PUSH1 0x60 DUP7 ADD CALLDATALOAD PUSH8 0xFFFFFFFFFFFFFFFF DUP2 GT ISZERO PUSH2 0x3C27 JUMPI PUSH2 0x3C26 PUSH2 0x3449 JUMP JUMPDEST JUMPDEST PUSH2 0x3C33 DUP9 DUP3 DUP10 ADD PUSH2 0x3B61 JUMP JUMPDEST SWAP2 POP POP SWAP3 SWAP6 POP SWAP3 SWAP6 SWAP1 SWAP4 POP JUMP JUMPDEST PUSH2 0x3C49 DUP2 PUSH2 0x392D JUMP JUMPDEST DUP2 EQ PUSH2 0x3C54 JUMPI PUSH1 0x0 DUP1 REVERT JUMPDEST POP JUMP JUMPDEST PUSH1 0x0 DUP2 CALLDATALOAD SWAP1 POP PUSH2 0x3C66 DUP2 PUSH2 0x3C40 JUMP JUMPDEST SWAP3 SWAP2 POP POP JUMP JUMPDEST PUSH1 0x0 DUP1 DUP4 PUSH1 0x1F DUP5 ADD SLT PUSH2 0x3C82 JUMPI PUSH2 0x3C81 PUSH2 0x3ADD JUMP JUMPDEST JUMPDEST DUP3 CALLDATALOAD SWAP1 POP PUSH8 0xFFFFFFFFFFFFFFFF DUP2 GT ISZERO PUSH2 0x3C9F JUMPI PUSH2 0x3C9E PUSH2 0x3AE2 JUMP JUMPDEST JUMPDEST PUSH1 0x20 DUP4 ADD SWAP2 POP DUP4 PUSH1 0x1 DUP3 MUL DUP4 ADD GT ISZERO PUSH2 0x3CBB JUMPI PUSH2 0x3CBA PUSH2 0x3AE7 JUMP JUMPDEST JUMPDEST SWAP3 POP SWAP3 SWAP1 POP JUMP JUMPDEST PUSH1 0x0 DUP1 PUSH1 0x0 DUP1 PUSH1 0x60 DUP6 DUP8 SUB SLT ISZERO PUSH2 0x3CDC JUMPI PUSH2 0x3CDB PUSH2 0x3444 JUMP JUMPDEST JUMPDEST PUSH1 0x0 PUSH2 0x3CEA DUP8 DUP3 DUP9 ADD PUSH2 0x3C57 JUMP JUMPDEST SWAP5 POP POP PUSH1 0x20 DUP6 ADD CALLDATALOAD PUSH8 0xFFFFFFFFFFFFFFFF DUP2 GT ISZERO PUSH2 0x3D0B JUMPI PUSH2 0x3D0A PUSH2 0x3449 JUMP JUMPDEST JUMPDEST PUSH2 0x3D17 DUP8 DUP3 DUP9 ADD PUSH2 0x3C6C JUMP JUMPDEST SWAP4 POP SWAP4 POP POP PUSH1 0x40 PUSH2 0x3D2A DUP8 DUP3 DUP9 ADD PUSH2 0x3C57 JUMP JUMPDEST SWAP2 POP POP SWAP3 SWAP6 SWAP2 SWAP5 POP SWAP3 POP JUMP JUMPDEST PUSH1 0x0 DUP1 REVERT JUMPDEST PUSH32 0x4E487B7100000000000000000000000000000000000000000000000000000000 PUSH1 0x0 MSTORE PUSH1 0x41 PUSH1 0x4 MSTORE PUSH1 0x24 PUSH1 0x0 REVERT JUMPDEST PUSH2 0x3D73 DUP3 PUSH2 0x354F JUMP JUMPDEST DUP2 ADD DUP2 DUP2 LT PUSH8 0xFFFFFFFFFFFFFFFF DUP3 GT OR ISZERO PUSH2 0x3D92 JUMPI PUSH2 0x3D91 PUSH2 0x3D3B JUMP JUMPDEST JUMPDEST DUP1 PUSH1 0x40 MSTORE POP POP POP JUMP JUMPDEST PUSH1 0x0 PUSH2 0x3DA5 PUSH2 0x343A JUMP JUMPDEST SWAP1 POP PUSH2 0x3DB1 DUP3 DUP3 PUSH2 0x3D6A JUMP JUMPDEST SWAP2 SWAP1 POP JUMP JUMPDEST PUSH1 0x0 PUSH8 0xFFFFFFFFFFFFFFFF DUP3 GT ISZERO PUSH2 0x3DD1 JUMPI PUSH2 0x3DD0 PUSH2 0x3D3B JUMP JUMPDEST JUMPDEST PUSH2 0x3DDA DUP3 PUSH2 0x354F JUMP JUMPDEST SWAP1 POP PUSH1 0x20 DUP2 ADD SWAP1 POP SWAP2 SWAP1 POP JUMP JUMPDEST DUP3 DUP2 DUP4 CALLDATACOPY PUSH1 0x0 DUP4 DUP4 ADD MSTORE POP POP POP JUMP JUMPDEST PUSH1 0x0 PUSH2 0x3E09 PUSH2 0x3E04 DUP5 PUSH2 0x3DB6 JUMP JUMPDEST PUSH2 0x3D9B JUMP JUMPDEST SWAP1 POP DUP3 DUP2 MSTORE PUSH1 0x20 DUP2 ADD DUP5 DUP5 DUP5 ADD GT ISZERO PUSH2 0x3E25 JUMPI PUSH2 0x3E24 PUSH2 0x3D36 JUMP JUMPDEST JUMPDEST PUSH2 0x3E30 DUP5 DUP3 DUP6 PUSH2 0x3DE7 JUMP JUMPDEST POP SWAP4 SWAP3 POP POP POP JUMP JUMPDEST PUSH1 0x0 DUP3 PUSH1 0x1F DUP4 ADD SLT PUSH2 0x3E4D JUMPI PUSH2 0x3E4C PUSH2 0x3ADD JUMP JUMPDEST JUMPDEST DUP2 CALLDATALOAD PUSH2 0x3E5D DUP5 DUP3 PUSH1 0x20 DUP7 ADD PUSH2 0x3DF6 JUMP JUMPDEST SWAP2 POP POP SWAP3 SWAP2 POP POP JUMP JUMPDEST PUSH1 0x0 PUSH1 0x60 DUP3 DUP5 SUB SLT ISZERO PUSH2 0x3E7C JUMPI PUSH2 0x3E7B PUSH2 0x37BE JUMP JUMPDEST JUMPDEST DUP2 SWAP1 POP SWAP3 SWAP2 POP POP JUMP JUMPDEST PUSH1 0x0 DUP1 PUSH1 0x0 DUP1 PUSH1 0xC0 DUP6 DUP8 SUB SLT ISZERO PUSH2 0x3E9F JUMPI PUSH2 0x3E9E PUSH2 0x3444 JUMP JUMPDEST JUMPDEST PUSH1 0x0 PUSH2 0x3EAD DUP8 DUP3 DUP9 ADD PUSH2 0x35DC JUMP JUMPDEST SWAP5 POP POP PUSH1 0x20 PUSH2 0x3EBE DUP8 DUP3 DUP9 ADD PUSH2 0x3691 JUMP JUMPDEST SWAP4 POP POP PUSH1 0x40 DUP6 ADD CALLDATALOAD PUSH8 0xFFFFFFFFFFFFFFFF DUP2 GT ISZERO PUSH2 0x3EDF JUMPI PUSH2 0x3EDE PUSH2 0x3449 JUMP JUMPDEST JUMPDEST PUSH2 0x3EEB DUP8 DUP3 DUP9 ADD PUSH2 0x3E38 JUMP JUMPDEST SWAP3 POP POP PUSH1 0x60 PUSH2 0x3EFC DUP8 DUP3 DUP9 ADD PUSH2 0x3E66 JUMP JUMPDEST SWAP2 POP POP SWAP3 SWAP6 SWAP2 SWAP5 POP SWAP3 POP JUMP JUMPDEST PUSH1 0x0 PUSH1 0x40 DUP3 DUP5 SUB SLT ISZERO PUSH2 0x3F1E JUMPI PUSH2 0x3F1D PUSH2 0x37BE JUMP JUMPDEST JUMPDEST DUP2 SWAP1 POP SWAP3 SWAP2 POP POP JUMP JUMPDEST PUSH1 0x0 DUP1 PUSH1 0x40 DUP4 DUP6 SUB SLT ISZERO PUSH2 0x3F3E JUMPI PUSH2 0x3F3D PUSH2 0x3444 JUMP JUMPDEST JUMPDEST PUSH1 0x0 DUP4 ADD CALLDATALOAD PUSH8 0xFFFFFFFFFFFFFFFF DUP2 GT ISZERO PUSH2 0x3F5C JUMPI PUSH2 0x3F5B PUSH2 0x3449 JUMP JUMPDEST JUMPDEST PUSH2 0x3F68 DUP6 DUP3 DUP7 ADD PUSH2 0x37C3 JUMP JUMPDEST SWAP3 POP POP PUSH1 0x20 DUP4 ADD CALLDATALOAD PUSH8 0xFFFFFFFFFFFFFFFF DUP2 GT ISZERO PUSH2 0x3F89 JUMPI PUSH2 0x3F88 PUSH2 0x3449 JUMP JUMPDEST JUMPDEST PUSH2 0x3F95 DUP6 DUP3 DUP7 ADD PUSH2 0x3F08 JUMP JUMPDEST SWAP2 POP POP SWAP3 POP SWAP3 SWAP1 POP JUMP JUMPDEST PUSH1 0x0 DUP1 PUSH1 0x40 DUP4 DUP6 SUB SLT ISZERO PUSH2 0x3FB6 JUMPI PUSH2 0x3FB5 PUSH2 0x3444 JUMP JUMPDEST JUMPDEST PUSH1 0x0 PUSH2 0x3FC4 DUP6 DUP3 DUP7 ADD PUSH2 0x3691 JUMP JUMPDEST SWAP3 POP POP PUSH1 0x20 PUSH2 0x3FD5 DUP6 DUP3 DUP7 ADD PUSH2 0x3AC8 JUMP JUMPDEST SWAP2 POP POP SWAP3 POP SWAP3 SWAP1 POP JUMP JUMPDEST PUSH1 0x0 DUP1 PUSH1 0x0 DUP1 PUSH1 0x60 DUP6 DUP8 SUB SLT ISZERO PUSH2 0x3FF9 JUMPI PUSH2 0x3FF8 PUSH2 0x3444 JUMP JUMPDEST JUMPDEST PUSH1 0x0 PUSH2 0x4007 DUP8 DUP3 DUP9 ADD PUSH2 0x3C57 JUMP JUMPDEST SWAP5 POP POP PUSH1 0x20 PUSH2 0x4018 DUP8 DUP3 DUP9 ADD PUSH2 0x3C57 JUMP JUMPDEST SWAP4 POP POP PUSH1 0x40 DUP6 ADD CALLDATALOAD PUSH8 0xFFFFFFFFFFFFFFFF DUP2 GT ISZERO PUSH2 0x4039 JUMPI PUSH2 0x4038 PUSH2 0x3449 JUMP JUMPDEST JUMPDEST PUSH2 0x4045 DUP8 DUP3 DUP9 ADD PUSH2 0x3C6C JUMP JUMPDEST SWAP3 POP SWAP3 POP POP SWAP3 SWAP6 SWAP2 SWAP5 POP SWAP3 POP JUMP JUMPDEST PUSH1 0x0 PUSH8 0xFFFFFFFFFFFFFFFF DUP3 GT ISZERO PUSH2 0x406E JUMPI PUSH2 0x406D PUSH2 0x3D3B JUMP JUMPDEST JUMPDEST PUSH2 0x4077 DUP3 PUSH2 0x354F JUMP JUMPDEST SWAP1 POP PUSH1 0x20 DUP2 ADD SWAP1 POP SWAP2 SWAP1 POP JUMP JUMPDEST PUSH1 0x0 PUSH2 0x4097 PUSH2 0x4092 DUP5 PUSH2 0x4053 JUMP JUMPDEST PUSH2 0x3D9B JUMP JUMPDEST SWAP1 POP DUP3 DUP2 MSTORE PUSH1 0x20 DUP2 ADD DUP5 DUP5 DUP5 ADD GT ISZERO PUSH2 0x40B3 JUMPI PUSH2 0x40B2 PUSH2 0x3D36 JUMP JUMPDEST JUMPDEST PUSH2 0x40BE DUP5 DUP3 DUP6 PUSH2 0x3DE7 JUMP JUMPDEST POP SWAP4 SWAP3 POP POP POP JUMP JUMPDEST PUSH1 0x0 DUP3 PUSH1 0x1F DUP4 ADD SLT PUSH2 0x40DB JUMPI PUSH2 0x40DA PUSH2 0x3ADD JUMP JUMPDEST JUMPDEST DUP2 CALLDATALOAD PUSH2 0x40EB DUP5 DUP3 PUSH1 0x20 DUP7 ADD PUSH2 0x4084 JUMP JUMPDEST SWAP2 POP POP SWAP3 SWAP2 POP POP JUMP JUMPDEST PUSH1 0x0 DUP1 PUSH1 0x0 DUP1 PUSH1 0x80 DUP6 DUP8 SUB SLT ISZERO PUSH2 0x410E JUMPI PUSH2 0x410D PUSH2 0x3444 JUMP JUMPDEST JUMPDEST PUSH1 0x0 PUSH2 0x411C DUP8 DUP3 DUP9 ADD PUSH2 0x3691 JUMP JUMPDEST SWAP5 POP POP PUSH1 0x20 PUSH2 0x412D DUP8 DUP3 DUP9 ADD PUSH2 0x3691 JUMP JUMPDEST SWAP4 POP POP PUSH1 0x40 PUSH2 0x413E DUP8 DUP3 DUP9 ADD PUSH2 0x35DC JUMP JUMPDEST SWAP3 POP POP PUSH1 0x60 DUP6 ADD CALLDATALOAD PUSH8 0xFFFFFFFFFFFFFFFF DUP2 GT ISZERO PUSH2 0x415F JUMPI PUSH2 0x415E PUSH2 0x3449 JUMP JUMPDEST JUMPDEST PUSH2 0x416B DUP8 DUP3 DUP9 ADD PUSH2 0x40C6 JUMP JUMPDEST SWAP2 POP POP SWAP3 SWAP6 SWAP2 SWAP5 POP SWAP3 POP JUMP JUMPDEST PUSH2 0x4180 DUP2 PUSH2 0x392D JUMP JUMPDEST DUP3 MSTORE POP POP JUMP JUMPDEST PUSH1 0x0 PUSH1 0x20 DUP3 ADD SWAP1 POP PUSH2 0x419B PUSH1 0x0 DUP4 ADD DUP5 PUSH2 0x4177 JUMP JUMPDEST SWAP3 SWAP2 POP POP JUMP JUMPDEST PUSH1 0x3 DUP2 LT PUSH2 0x41AE JUMPI PUSH1 0x0 DUP1 REVERT JUMPDEST POP JUMP JUMPDEST PUSH1 0x0 DUP2 CALLDATALOAD SWAP1 POP PUSH2 0x41C0 DUP2 PUSH2 0x41A1 JUMP JUMPDEST SWAP3 SWAP2 POP POP JUMP JUMPDEST PUSH1 0x0 DUP1 PUSH1 0x0 DUP1 PUSH1 0x0 DUP1 PUSH1 0x0 DUP1 PUSH1 0x0 DUP1 PUSH1 0x0 PUSH1 0xE0 DUP13 DUP15 SUB SLT ISZERO PUSH2 0x41EB JUMPI PUSH2 0x41EA PUSH2 0x3444 JUMP JUMPDEST JUMPDEST PUSH1 0x0 DUP13 ADD CALLDATALOAD PUSH8 0xFFFFFFFFFFFFFFFF DUP2 GT ISZERO PUSH2 0x4209 JUMPI PUSH2 0x4208 PUSH2 0x3449 JUMP JUMPDEST JUMPDEST PUSH2 0x4215 DUP15 DUP3 DUP16 ADD PUSH2 0x3C6C JUMP JUMPDEST SWAP12 POP SWAP12 POP POP PUSH1 0x20 PUSH2 0x4228 DUP15 DUP3 DUP16 ADD PUSH2 0x41B1 JUMP JUMPDEST SWAP10 POP POP PUSH1 0x40 PUSH2 0x4239 DUP15 DUP3 DUP16 ADD PUSH2 0x3AC8 JUMP JUMPDEST SWAP9 POP POP PUSH1 0x60 DUP13 ADD CALLDATALOAD PUSH8 0xFFFFFFFFFFFFFFFF DUP2 GT ISZERO PUSH2 0x425A JUMPI PUSH2 0x4259 PUSH2 0x3449 JUMP JUMPDEST JUMPDEST PUSH2 0x4266 DUP15 DUP3 DUP16 ADD PUSH2 0x3AEC JUMP JUMPDEST SWAP8 POP SWAP8 POP POP PUSH1 0x80 DUP13 ADD CALLDATALOAD PUSH8 0xFFFFFFFFFFFFFFFF DUP2 GT ISZERO PUSH2 0x4289 JUMPI PUSH2 0x4288 PUSH2 0x3449 JUMP JUMPDEST JUMPDEST PUSH2 0x4295 DUP15 DUP3 DUP16 ADD PUSH2 0x3C6C JUMP JUMPDEST SWAP6 POP SWAP6 POP POP PUSH1 0xA0 PUSH2 0x42A8 DUP15 DUP3 DUP16 ADD PUSH2 0x3C57 JUMP JUMPDEST SWAP4 POP POP PUSH1 0xC0 DUP13 ADD CALLDATALOAD PUSH8 0xFFFFFFFFFFFFFFFF DUP2 GT ISZERO PUSH2 0x42C9 JUMPI PUSH2 0x42C8 PUSH2 0x3449 JUMP JUMPDEST JUMPDEST PUSH2 0x42D5 DUP15 DUP3 DUP16 ADD PUSH2 0x3C6C JUMP JUMPDEST SWAP3 POP SWAP3 POP POP SWAP3 SWAP6 SWAP9 SWAP12 POP SWAP3 SWAP6 SWAP9 SWAP12 SWAP1 SWAP4 SWAP7 SWAP10 POP JUMP JUMPDEST PUSH1 0x0 DUP2 SWAP1 POP SWAP2 SWAP1 POP JUMP JUMPDEST PUSH1 0x0 PUSH2 0x430F PUSH2 0x430A PUSH2 0x4305 DUP5 PUSH2 0x361E JUMP JUMPDEST PUSH2 0x42EA JUMP JUMPDEST PUSH2 0x361E JUMP JUMPDEST SWAP1 POP SWAP2 SWAP1 POP JUMP JUMPDEST PUSH1 0x0 PUSH2 0x4321 DUP3 PUSH2 0x42F4 JUMP JUMPDEST SWAP1 POP SWAP2 SWAP1 POP JUMP JUMPDEST PUSH1 0x0 PUSH2 0x4333 DUP3 PUSH2 0x4316 JUMP JUMPDEST SWAP1 POP SWAP2 SWAP1 POP JUMP JUMPDEST PUSH2 0x4343 DUP2 PUSH2 0x4328 JUMP JUMPDEST DUP3 MSTORE POP POP JUMP JUMPDEST PUSH1 0x0 PUSH1 0x20 DUP3 ADD SWAP1 POP PUSH2 0x435E PUSH1 0x0 DUP4 ADD DUP5 PUSH2 0x433A JUMP JUMPDEST SWAP3 SWAP2 POP POP JUMP JUMPDEST PUSH1 0x0 DUP1 PUSH1 0x40 DUP4 DUP6 SUB SLT ISZERO PUSH2 0x437B JUMPI PUSH2 0x437A PUSH2 0x3444 JUMP JUMPDEST JUMPDEST PUSH1 0x0 PUSH2 0x4389 DUP6 DUP3 DUP7 ADD PUSH2 0x3691 JUMP JUMPDEST SWAP3 POP POP PUSH1 0x20 PUSH2 0x439A DUP6 DUP3 DUP7 ADD PUSH2 0x3691 JUMP JUMPDEST SWAP2 POP POP SWAP3 POP SWAP3 SWAP1 POP JUMP JUMPDEST PUSH32 0x4E487B7100000000000000000000000000000000000000000000000000000000 PUSH1 0x0 MSTORE PUSH1 0x22 PUSH1 0x4 MSTORE PUSH1 0x24 PUSH1 0x0 REVERT JUMPDEST PUSH1 0x0 PUSH1 0x2 DUP3 DIV SWAP1 POP PUSH1 0x1 DUP3 AND DUP1 PUSH2 0x43EB JUMPI PUSH1 0x7F DUP3 AND SWAP2 POP JUMPDEST PUSH1 0x20 DUP3 LT DUP2 SUB PUSH2 0x43FE JUMPI PUSH2 0x43FD PUSH2 0x43A4 JUMP JUMPDEST JUMPDEST POP SWAP2 SWAP1 POP JUMP JUMPDEST PUSH32 0x4552433732313A20617070726F76616C20746F2063757272656E74206F776E65 PUSH1 0x0 DUP3 ADD MSTORE PUSH32 0x7200000000000000000000000000000000000000000000000000000000000000 PUSH1 0x20 DUP3 ADD MSTORE POP JUMP JUMPDEST PUSH1 0x0 PUSH2 0x4460 PUSH1 0x21 DUP4 PUSH2 0x3514 JUMP JUMPDEST SWAP2 POP PUSH2 0x446B DUP3 PUSH2 0x4404 JUMP JUMPDEST PUSH1 0x40 DUP3 ADD SWAP1 POP SWAP2 SWAP1 POP JUMP JUMPDEST PUSH1 0x0 PUSH1 0x20 DUP3 ADD SWAP1 POP DUP2 DUP2 SUB PUSH1 0x0 DUP4 ADD MSTORE PUSH2 0x448F DUP2 PUSH2 0x4453 JUMP JUMPDEST SWAP1 POP SWAP2 SWAP1 POP JUMP JUMPDEST PUSH32 0x4552433732313A20617070726F76652063616C6C6572206973206E6F7420746F PUSH1 0x0 DUP3 ADD MSTORE PUSH32 0x6B656E206F776E6572206F7220617070726F76656420666F7220616C6C000000 PUSH1 0x20 DUP3 ADD MSTORE POP JUMP JUMPDEST PUSH1 0x0 PUSH2 0x44F2 PUSH1 0x3D DUP4 PUSH2 0x3514 JUMP JUMPDEST SWAP2 POP PUSH2 0x44FD DUP3 PUSH2 0x4496 JUMP JUMPDEST PUSH1 0x40 DUP3 ADD SWAP1 POP SWAP2 SWAP1 POP JUMP JUMPDEST PUSH1 0x0 PUSH1 0x20 DUP3 ADD SWAP1 POP DUP2 DUP2 SUB PUSH1 0x0 DUP4 ADD MSTORE PUSH2 0x4521 DUP2 PUSH2 0x44E5 JUMP JUMPDEST SWAP1 POP SWAP2 SWAP1 POP JUMP JUMPDEST PUSH32 0x4552433732313A2063616C6C6572206973206E6F7420746F6B656E206F776E65 PUSH1 0x0 DUP3 ADD MSTORE PUSH32 0x72206F7220617070726F76656400000000000000000000000000000000000000 PUSH1 0x20 DUP3 ADD MSTORE POP JUMP JUMPDEST PUSH1 0x0 PUSH2 0x4584 PUSH1 0x2D DUP4 PUSH2 0x3514 JUMP JUMPDEST SWAP2 POP PUSH2 0x458F DUP3 PUSH2 0x4528 JUMP JUMPDEST PUSH1 0x40 DUP3 ADD SWAP1 POP SWAP2 SWAP1 POP JUMP JUMPDEST PUSH1 0x0 PUSH1 0x20 DUP3 ADD SWAP1 POP DUP2 DUP2 SUB PUSH1 0x0 DUP4 ADD MSTORE PUSH2 0x45B3 DUP2 PUSH2 0x4577 JUMP JUMPDEST SWAP1 POP SWAP2 SWAP1 POP JUMP JUMPDEST PUSH1 0x0 DUP1 REVERT JUMPDEST PUSH1 0x0 DUP1 REVERT JUMPDEST PUSH1 0x0 DUP1 REVERT JUMPDEST PUSH1 0x0 DUP3 CALLDATALOAD PUSH1 0x1 PUSH1 0x40 SUB DUP4 CALLDATASIZE SUB SUB DUP2 SLT PUSH2 0x45E5 JUMPI PUSH2 0x45E4 PUSH2 0x45BA JUMP JUMPDEST JUMPDEST DUP1 DUP4 ADD SWAP2 POP POP SWAP3 SWAP2 POP POP JUMP JUMPDEST PUSH1 0x0 DUP1 DUP4 CALLDATALOAD PUSH1 0x1 PUSH1 0x20 SUB DUP5 CALLDATASIZE SUB SUB DUP2 SLT PUSH2 0x460E JUMPI PUSH2 0x460D PUSH2 0x45BA JUMP JUMPDEST JUMPDEST DUP1 DUP5 ADD SWAP3 POP DUP3 CALLDATALOAD SWAP2 POP PUSH8 0xFFFFFFFFFFFFFFFF DUP3 GT ISZERO PUSH2 0x4630 JUMPI PUSH2 0x462F PUSH2 0x45BF JUMP JUMPDEST JUMPDEST PUSH1 0x20 DUP4 ADD SWAP3 POP PUSH1 0x1 DUP3 MUL CALLDATASIZE SUB DUP4 SGT ISZERO PUSH2 0x464C JUMPI PUSH2 0x464B PUSH2 0x45C4 JUMP JUMPDEST JUMPDEST POP SWAP3 POP SWAP3 SWAP1 POP JUMP JUMPDEST PUSH1 0x0 DUP3 SWAP1 POP SWAP3 SWAP2 POP POP JUMP JUMPDEST PUSH1 0x0 DUP2 SWAP1 POP DUP2 PUSH1 0x0 MSTORE PUSH1 0x20 PUSH1 0x0 KECCAK256 SWAP1 POP SWAP2 SWAP1 POP JUMP JUMPDEST PUSH1 0x0 PUSH1 0x20 PUSH1 0x1F DUP4 ADD DIV SWAP1 POP SWAP2 SWAP1 POP JUMP JUMPDEST PUSH1 0x0 DUP3 DUP3 SHL SWAP1 POP SWAP3 SWAP2 POP POP JUMP JUMPDEST PUSH1 0x0 PUSH1 0x8 DUP4 MUL PUSH2 0x46C1 PUSH32 0xFFFFFFFFFFFFFFFFFFFFFFFFFFFFFFFFFFFFFFFFFFFFFFFFFFFFFFFFFFFFFFFF DUP3 PUSH2 0x4684 JUMP JUMPDEST PUSH2 0x46CB DUP7 DUP4 PUSH2 0x4684 JUMP JUMPDEST SWAP6 POP DUP1 NOT DUP5 AND SWAP4 POP DUP1 DUP7 AND DUP5 OR SWAP3 POP POP POP SWAP4 SWAP3 POP POP POP JUMP JUMPDEST PUSH1 0x0 PUSH2 0x46FE PUSH2 0x46F9 PUSH2 0x46F4 DUP5 PUSH2 0x35BB JUMP JUMPDEST PUSH2 0x42EA JUMP JUMPDEST PUSH2 0x35BB JUMP JUMPDEST SWAP1 POP SWAP2 SWAP1 POP JUMP JUMPDEST PUSH1 0x0 DUP2 SWAP1 POP SWAP2 SWAP1 POP JUMP JUMPDEST PUSH2 0x4718 DUP4 PUSH2 0x46E3 JUMP JUMPDEST PUSH2 0x472C PUSH2 0x4724 DUP3 PUSH2 0x4705 JUMP JUMPDEST DUP5 DUP5 SLOAD PUSH2 0x4691 JUMP JUMPDEST DUP3 SSTORE POP POP POP POP JUMP JUMPDEST PUSH1 0x0 SWAP1 JUMP JUMPDEST PUSH2 0x4741 PUSH2 0x4734 JUMP JUMPDEST PUSH2 0x474C DUP2 DUP5 DUP5 PUSH2 0x470F JUMP JUMPDEST POP POP POP JUMP JUMPDEST JUMPDEST DUP2 DUP2 LT ISZERO PUSH2 0x4770 JUMPI PUSH2 0x4765 PUSH1 0x0 DUP3 PUSH2 0x4739 JUMP JUMPDEST PUSH1 0x1 DUP2 ADD SWAP1 POP PUSH2 0x4752 JUMP JUMPDEST POP POP JUMP JUMPDEST PUSH1 0x1F DUP3 GT ISZERO PUSH2 0x47B5 JUMPI PUSH2 0x4786 DUP2 PUSH2 0x465F JUMP JUMPDEST PUSH2 0x478F DUP5 PUSH2 0x4674 JUMP JUMPDEST DUP2 ADD PUSH1 0x20 DUP6 LT ISZERO PUSH2 0x479E JUMPI DUP2 SWAP1 POP JUMPDEST PUSH2 0x47B2 PUSH2 0x47AA DUP6 PUSH2 0x4674 JUMP JUMPDEST DUP4 ADD DUP3 PUSH2 0x4751 JUMP JUMPDEST POP POP JUMPDEST POP POP POP JUMP JUMPDEST PUSH1 0x0 DUP3 DUP3 SHR SWAP1 POP SWAP3 SWAP2 POP POP JUMP JUMPDEST PUSH1 0x0 PUSH2 0x47D8 PUSH1 0x0 NOT DUP5 PUSH1 0x8 MUL PUSH2 0x47BA JUMP JUMPDEST NOT DUP1 DUP4 AND SWAP2 POP POP SWAP3 SWAP2 POP POP JUMP JUMPDEST PUSH1 0x0 PUSH2 0x47F1 DUP4 DUP4 PUSH2 0x47C7 JUMP JUMPDEST SWAP2 POP DUP3 PUSH1 0x2 MUL DUP3 OR SWAP1 POP SWAP3 SWAP2 POP POP JUMP JUMPDEST PUSH2 0x480B DUP4 DUP4 PUSH2 0x4654 JUMP JUMPDEST PUSH8 0xFFFFFFFFFFFFFFFF DUP2 GT ISZERO PUSH2 0x4824 JUMPI PUSH2 0x4823 PUSH2 0x3D3B JUMP JUMPDEST JUMPDEST PUSH2 0x482E DUP3 SLOAD PUSH2 0x43D3 JUMP JUMPDEST PUSH2 0x4839 DUP3 DUP3 DUP6 PUSH2 0x4774 JUMP JUMPDEST PUSH1 0x0 PUSH1 0x1F DUP4 GT PUSH1 0x1 DUP2 EQ PUSH2 0x4868 JUMPI PUSH1 0x0 DUP5 ISZERO PUSH2 0x4856 JUMPI DUP3 DUP8 ADD CALLDATALOAD SWAP1 POP JUMPDEST PUSH2 0x4860 DUP6 DUP3 PUSH2 0x47E5 JUMP JUMPDEST DUP7 SSTORE POP PUSH2 0x48C8 JUMP JUMPDEST PUSH1 0x1F NOT DUP5 AND PUSH2 0x4876 DUP7 PUSH2 0x465F JUMP JUMPDEST PUSH1 0x0 JUMPDEST DUP3 DUP2 LT ISZERO PUSH2 0x489E JUMPI DUP5 DUP10 ADD CALLDATALOAD DUP3 SSTORE PUSH1 0x1 DUP3 ADD SWAP2 POP PUSH1 0x20 DUP6 ADD SWAP5 POP PUSH1 0x20 DUP2 ADD SWAP1 POP PUSH2 0x4879 JUMP JUMPDEST DUP7 DUP4 LT ISZERO PUSH2 0x48BB JUMPI DUP5 DUP10 ADD CALLDATALOAD PUSH2 0x48B7 PUSH1 0x1F DUP10 AND DUP3 PUSH2 0x47C7 JUMP JUMPDEST DUP4 SSTORE POP JUMPDEST PUSH1 0x1 PUSH1 0x2 DUP9 MUL ADD DUP9 SSTORE POP POP POP JUMPDEST POP POP POP POP POP POP POP JUMP JUMPDEST PUSH2 0x48DC DUP4 DUP4 DUP4 PUSH2 0x4801 JUMP JUMPDEST POP POP POP JUMP JUMPDEST PUSH1 0x0 DUP2 CALLDATALOAD PUSH2 0x48EE DUP2 PUSH2 0x3C40 JUMP JUMPDEST DUP1 SWAP2 POP POP SWAP2 SWAP1 POP JUMP JUMPDEST PUSH1 0x0 DUP2 PUSH1 0x0 SHL SWAP1 POP SWAP2 SWAP1 POP JUMP JUMPDEST PUSH1 0x0 PUSH32 0xFFFFFFFFFFFFFFFFFFFFFFFFFFFFFFFFFFFFFFFFFFFFFFFFFFFFFFFFFFFFFFFF PUSH2 0x4930 DUP5 PUSH2 0x48F7 JUMP JUMPDEST SWAP4 POP DUP1 NOT DUP4 AND SWAP3 POP DUP1 DUP5 AND DUP4 OR SWAP2 POP POP SWAP3 SWAP2 POP POP JUMP JUMPDEST PUSH1 0x0 PUSH2 0x4951 DUP3 PUSH2 0x392D JUMP JUMPDEST SWAP1 POP SWAP2 SWAP1 POP JUMP JUMPDEST PUSH1 0x0 DUP2 PUSH1 0x0 SHR SWAP1 POP SWAP2 SWAP1 POP JUMP JUMPDEST PUSH1 0x0 PUSH2 0x4970 DUP3 PUSH2 0x4958 JUMP JUMPDEST SWAP1 POP SWAP2 SWAP1 POP JUMP JUMPDEST PUSH2 0x4980 DUP3 PUSH2 0x4946 JUMP JUMPDEST PUSH2 0x4993 PUSH2 0x498C DUP3 PUSH2 0x4965 JUMP JUMPDEST DUP4 SLOAD PUSH2 0x4904 JUMP JUMPDEST DUP3 SSTORE POP POP POP JUMP JUMPDEST PUSH1 0x0 DUP2 ADD PUSH1 0x0 DUP4 ADD PUSH2 0x49AC DUP2 DUP6 PUSH2 0x45F1 JUMP JUMPDEST PUSH2 0x49B7 DUP2 DUP4 DUP7 PUSH2 0x48D1 JUMP JUMPDEST POP POP POP POP PUSH1 0x1 DUP2 ADD PUSH1 0x20 DUP4 ADD DUP1 PUSH2 0x49CD DUP2 PUSH2 0x48E1 JUMP JUMPDEST SWAP1 POP PUSH2 0x49D9 DUP2 DUP5 PUSH2 0x4977 JUMP JUMPDEST POP POP POP POP POP JUMP JUMPDEST PUSH2 0x49EA DUP3 DUP3 PUSH2 0x499A JUMP JUMPDEST POP POP JUMP JUMPDEST PUSH2 0x49F7 DUP2 PUSH2 0x3983 JUMP JUMPDEST DUP2 EQ PUSH2 0x4A02 JUMPI PUSH1 0x0 DUP1 REVERT JUMPDEST POP JUMP JUMPDEST PUSH1 0x0 DUP2 CALLDATALOAD PUSH2 0x4A12 DUP2 PUSH2 0x49EE JUMP JUMPDEST DUP1 SWAP2 POP POP SWAP2 SWAP1 POP JUMP JUMPDEST PUSH1 0x0 PUSH8 0xFFFFFFFFFFFFFFFF PUSH2 0x4A2F DUP5 PUSH2 0x48F7 JUMP JUMPDEST SWAP4 POP DUP1 NOT DUP4 AND SWAP3 POP DUP1 DUP5 AND DUP4 OR SWAP2 POP POP SWAP3 SWAP2 POP POP JUMP JUMPDEST PUSH1 0x0 PUSH2 0x4A60 PUSH2 0x4A5B PUSH2 0x4A56 DUP5 PUSH2 0x3983 JUMP JUMPDEST PUSH2 0x42EA JUMP JUMPDEST PUSH2 0x3983 JUMP JUMPDEST SWAP1 POP SWAP2 SWAP1 POP JUMP JUMPDEST PUSH1 0x0 DUP2 SWAP1 POP SWAP2 SWAP1 POP JUMP JUMPDEST PUSH2 0x4A7A DUP3 PUSH2 0x4A45 JUMP JUMPDEST PUSH2 0x4A8D PUSH2 0x4A86 DUP3 PUSH2 0x4A67 JUMP JUMPDEST DUP4 SLOAD PUSH2 0x4A1B JUMP JUMPDEST DUP3 SSTORE POP POP POP JUMP JUMPDEST PUSH1 0x0 DUP1 DUP4 CALLDATALOAD PUSH1 0x1 PUSH1 0x20 SUB DUP5 CALLDATASIZE SUB SUB DUP2 SLT PUSH2 0x4AB1 JUMPI PUSH2 0x4AB0 PUSH2 0x45BA JUMP JUMPDEST JUMPDEST DUP1 DUP5 ADD SWAP3 POP DUP3 CALLDATALOAD SWAP2 POP PUSH8 0xFFFFFFFFFFFFFFFF DUP3 GT ISZERO PUSH2 0x4AD3 JUMPI PUSH2 0x4AD2 PUSH2 0x45BF JUMP JUMPDEST JUMPDEST PUSH1 0x20 DUP4 ADD SWAP3 POP PUSH1 0x1 DUP3 MUL CALLDATASIZE SUB DUP4 SGT ISZERO PUSH2 0x4AEF JUMPI PUSH2 0x4AEE PUSH2 0x45C4 JUMP JUMPDEST JUMPDEST POP SWAP3 POP SWAP3 SWAP1 POP JUMP JUMPDEST PUSH1 0x0 DUP3 SWAP1 POP SWAP3 SWAP2 POP POP JUMP JUMPDEST PUSH1 0x0 DUP2 SWAP1 POP DUP2 PUSH1 0x0 MSTORE PUSH1 0x20 PUSH1 0x0 KECCAK256 SWAP1 POP SWAP2 SWAP1 POP JUMP JUMPDEST PUSH1 0x1F DUP3 GT ISZERO PUSH2 0x4B58 JUMPI PUSH2 0x4B29 DUP2 PUSH2 0x4B02 JUMP JUMPDEST PUSH2 0x4B32 DUP5 PUSH2 0x4674 JUMP JUMPDEST DUP2 ADD PUSH1 0x20 DUP6 LT ISZERO PUSH2 0x4B41 JUMPI DUP2 SWAP1 POP JUMPDEST PUSH2 0x4B55 PUSH2 0x4B4D DUP6 PUSH2 0x4674 JUMP JUMPDEST DUP4 ADD DUP3 PUSH2 0x4751 JUMP JUMPDEST POP POP JUMPDEST POP POP POP JUMP JUMPDEST PUSH2 0x4B67 DUP4 DUP4 PUSH2 0x4AF7 JUMP JUMPDEST PUSH8 0xFFFFFFFFFFFFFFFF DUP2 GT ISZERO PUSH2 0x4B80 JUMPI PUSH2 0x4B7F PUSH2 0x3D3B JUMP JUMPDEST JUMPDEST PUSH2 0x4B8A DUP3 SLOAD PUSH2 0x43D3 JUMP JUMPDEST PUSH2 0x4B95 DUP3 DUP3 DUP6 PUSH2 0x4B17 JUMP JUMPDEST PUSH1 0x0 PUSH1 0x1F DUP4 GT PUSH1 0x1 DUP2 EQ PUSH2 0x4BC4 JUMPI PUSH1 0x0 DUP5 ISZERO PUSH2 0x4BB2 JUMPI DUP3 DUP8 ADD CALLDATALOAD SWAP1 POP JUMPDEST PUSH2 0x4BBC DUP6 DUP3 PUSH2 0x47E5 JUMP JUMPDEST DUP7 SSTORE POP PUSH2 0x4C24 JUMP JUMPDEST PUSH1 0x1F NOT DUP5 AND PUSH2 0x4BD2 DUP7 PUSH2 0x4B02 JUMP JUMPDEST PUSH1 0x0 JUMPDEST DUP3 DUP2 LT ISZERO PUSH2 0x4BFA JUMPI DUP5 DUP10 ADD CALLDATALOAD DUP3 SSTORE PUSH1 0x1 DUP3 ADD SWAP2 POP PUSH1 0x20 DUP6 ADD SWAP5 POP PUSH1 0x20 DUP2 ADD SWAP1 POP PUSH2 0x4BD5 JUMP JUMPDEST DUP7 DUP4 LT ISZERO PUSH2 0x4C17 JUMPI DUP5 DUP10 ADD CALLDATALOAD PUSH2 0x4C13 PUSH1 0x1F DUP10 AND DUP3 PUSH2 0x47C7 JUMP JUMPDEST DUP4 SSTORE POP JUMPDEST PUSH1 0x1 PUSH1 0x2 DUP9 MUL ADD DUP9 SSTORE POP POP POP JUMPDEST POP POP POP POP POP POP POP JUMP JUMPDEST PUSH2 0x4C38 DUP4 DUP4 DUP4 PUSH2 0x4B5D JUMP JUMPDEST POP POP POP JUMP JUMPDEST PUSH1 0x0 DUP2 PUSH1 0x40 SHL SWAP1 POP SWAP2 SWAP1 POP JUMP JUMPDEST PUSH1 0x0 PUSH16 0xFFFFFFFFFFFFFFFF0000000000000000 PUSH2 0x4C66 DUP5 PUSH2 0x4C3D JUMP JUMPDEST SWAP4 POP DUP1 NOT DUP4 AND SWAP3 POP DUP1 DUP5 AND DUP4 OR SWAP2 POP POP SWAP3 SWAP2 POP POP JUMP JUMPDEST PUSH2 0x4C85 DUP3 PUSH2 0x4A45 JUMP JUMPDEST PUSH2 0x4C98 PUSH2 0x4C91 DUP3 PUSH2 0x4A67 JUMP JUMPDEST DUP4 SLOAD PUSH2 0x4C4A JUMP JUMPDEST DUP3 SSTORE POP POP POP JUMP JUMPDEST PUSH1 0x0 DUP2 ADD PUSH1 0x0 DUP4 ADD DUP1 PUSH2 0x4CB1 DUP2 PUSH2 0x4A05 JUMP JUMPDEST SWAP1 POP PUSH2 0x4CBD DUP2 DUP5 PUSH2 0x4A71 JUMP JUMPDEST POP POP POP PUSH1 0x0 DUP2 ADD PUSH1 0x20 DUP4 ADD DUP1 PUSH2 0x4CD2 DUP2 PUSH2 0x4A05 JUMP JUMPDEST SWAP1 POP PUSH2 0x4CDE DUP2 DUP5 PUSH2 0x4C7C JUMP JUMPDEST POP POP POP POP POP JUMP JUMPDEST PUSH2 0x4CEF DUP3 DUP3 PUSH2 0x4C9F JUMP JUMPDEST POP POP JUMP JUMPDEST PUSH1 0x0 DUP2 ADD PUSH1 0x0 DUP4 ADD PUSH2 0x4D05 DUP2 DUP6 PUSH2 0x45C9 JUMP JUMPDEST PUSH2 0x4D0F DUP2 DUP5 PUSH2 0x49E0 JUMP JUMPDEST POP POP POP PUSH1 0x2 DUP2 ADD PUSH1 0x20 DUP4 ADD PUSH2 0x4D24 DUP2 DUP6 PUSH2 0x45C9 JUMP JUMPDEST PUSH2 0x4D2E DUP2 DUP5 PUSH2 0x49E0 JUMP JUMPDEST POP POP POP PUSH1 0x4 DUP2 ADD PUSH1 0x40 DUP4 ADD DUP1 PUSH2 0x4D43 DUP2 PUSH2 0x4A05 JUMP JUMPDEST SWAP1 POP PUSH2 0x4D4F DUP2 DUP5 PUSH2 0x4A71 JUMP JUMPDEST POP POP POP PUSH1 0x5 DUP2 ADD PUSH1 0x60 DUP4 ADD PUSH2 0x4D64 DUP2 DUP6 PUSH2 0x4A94 JUMP JUMPDEST PUSH2 0x4D6F DUP2 DUP4 DUP7 PUSH2 0x4C2D JUMP JUMPDEST POP POP POP POP PUSH1 0x6 DUP2 ADD PUSH1 0x80 DUP4 ADD DUP1 PUSH2 0x4D86 DUP2 DUP5 PUSH2 0x4CE5 JUMP JUMPDEST POP POP POP PUSH1 0x7 DUP2 ADD PUSH1 0xC0 DUP4 ADD DUP1 PUSH2 0x4D9B DUP2 PUSH2 0x4A05 JUMP JUMPDEST SWAP1 POP PUSH2 0x4DA7 DUP2 DUP5 PUSH2 0x4A71 JUMP JUMPDEST POP POP POP POP POP JUMP JUMPDEST PUSH2 0x4DB8 DUP3 DUP3 PUSH2 0x4CF3 JUMP JUMPDEST POP POP JUMP JUMPDEST PUSH1 0x0 DUP1 REVERT JUMPDEST PUSH1 0x0 DUP1 REVERT JUMPDEST PUSH1 0x0 PUSH8 0xFFFFFFFFFFFFFFFF DUP3 GT ISZERO PUSH2 0x4DE1 JUMPI PUSH2 0x4DE0 PUSH2 0x3D3B JUMP JUMPDEST JUMPDEST PUSH1 0x20 DUP3 MUL SWAP1 POP PUSH1 0x20 DUP2 ADD SWAP1 POP SWAP2 SWAP1 POP JUMP JUMPDEST PUSH1 0x0 PUSH2 0x4E05 PUSH2 0x4E00 DUP5 PUSH2 0x4DC6 JUMP JUMPDEST PUSH2 0x3D9B JUMP JUMPDEST SWAP1 POP DUP1 DUP4 DUP3 MSTORE PUSH1 0x20 DUP3 ADD SWAP1 POP PUSH1 0x20 DUP5 MUL DUP4 ADD DUP6 DUP2 GT ISZERO PUSH2 0x4E28 JUMPI PUSH2 0x4E27 PUSH2 0x3AE7 JUMP JUMPDEST JUMPDEST DUP4 JUMPDEST DUP2 DUP2 LT ISZERO PUSH2 0x4E6F JUMPI DUP1 CALLDATALOAD PUSH8 0xFFFFFFFFFFFFFFFF DUP2 GT ISZERO PUSH2 0x4E4D JUMPI PUSH2 0x4E4C PUSH2 0x3ADD JUMP JUMPDEST JUMPDEST DUP1 DUP7 ADD PUSH2 0x4E5A DUP10 DUP3 PUSH2 0x3E38 JUMP JUMPDEST DUP6 MSTORE PUSH1 0x20 DUP6 ADD SWAP5 POP POP POP PUSH1 0x20 DUP2 ADD SWAP1 POP PUSH2 0x4E2A JUMP JUMPDEST POP POP POP SWAP4 SWAP3 POP POP POP JUMP JUMPDEST PUSH1 0x0 DUP3 PUSH1 0x1F DUP4 ADD SLT PUSH2 0x4E8E JUMPI PUSH2 0x4E8D PUSH2 0x3ADD JUMP JUMPDEST JUMPDEST DUP2 CALLDATALOAD PUSH2 0x4E9E DUP5 DUP3 PUSH1 0x20 DUP7 ADD PUSH2 0x4DF2 JUMP JUMPDEST SWAP2 POP POP SWAP3 SWAP2 POP POP JUMP JUMPDEST PUSH1 0x0 PUSH2 0x120 DUP3 DUP5 SUB SLT ISZERO PUSH2 0x4EBE JUMPI PUSH2 0x4EBD PUSH2 0x4DBC JUMP JUMPDEST JUMPDEST PUSH2 0x4EC9 PUSH2 0x120 PUSH2 0x3D9B JUMP JUMPDEST SWAP1 POP PUSH1 0x0 DUP3 ADD CALLDATALOAD PUSH8 0xFFFFFFFFFFFFFFFF DUP2 GT ISZERO PUSH2 0x4EE9 JUMPI PUSH2 0x4EE8 PUSH2 0x4DC1 JUMP JUMPDEST JUMPDEST PUSH2 0x4EF5 DUP5 DUP3 DUP6 ADD PUSH2 0x3E38 JUMP JUMPDEST PUSH1 0x0 DUP4 ADD MSTORE POP PUSH1 0x20 DUP3 ADD CALLDATALOAD PUSH8 0xFFFFFFFFFFFFFFFF DUP2 GT ISZERO PUSH2 0x4F19 JUMPI PUSH2 0x4F18 PUSH2 0x4DC1 JUMP JUMPDEST JUMPDEST PUSH2 0x4F25 DUP5 DUP3 DUP6 ADD PUSH2 0x3E38 JUMP JUMPDEST PUSH1 0x20 DUP4 ADD MSTORE POP PUSH1 0x40 DUP3 ADD CALLDATALOAD PUSH8 0xFFFFFFFFFFFFFFFF DUP2 GT ISZERO PUSH2 0x4F49 JUMPI PUSH2 0x4F48 PUSH2 0x4DC1 JUMP JUMPDEST JUMPDEST PUSH2 0x4F55 DUP5 DUP3 DUP6 ADD PUSH2 0x3E38 JUMP JUMPDEST PUSH1 0x40 DUP4 ADD MSTORE POP PUSH1 0x60 DUP3 ADD CALLDATALOAD PUSH8 0xFFFFFFFFFFFFFFFF DUP2 GT ISZERO PUSH2 0x4F79 JUMPI PUSH2 0x4F78 PUSH2 0x4DC1 JUMP JUMPDEST JUMPDEST PUSH2 0x4F85 DUP5 DUP3 DUP6 ADD PUSH2 0x4E79 JUMP JUMPDEST PUSH1 0x60 DUP4 ADD MSTORE POP PUSH1 0x80 DUP3 ADD CALLDATALOAD PUSH8 0xFFFFFFFFFFFFFFFF DUP2 GT ISZERO PUSH2 0x4FA9 JUMPI PUSH2 0x4FA8 PUSH2 0x4DC1 JUMP JUMPDEST JUMPDEST PUSH2 0x4FB5 DUP5 DUP3 DUP6 ADD PUSH2 0x4E79 JUMP JUMPDEST PUSH1 0x80 DUP4 ADD MSTORE POP PUSH1 0xA0 DUP3 ADD CALLDATALOAD PUSH8 0xFFFFFFFFFFFFFFFF DUP2 GT ISZERO PUSH2 0x4FD9 JUMPI PUSH2 0x4FD8 PUSH2 0x4DC1 JUMP JUMPDEST JUMPDEST PUSH2 0x4FE5 DUP5 DUP3 DUP6 ADD PUSH2 0x4E79 JUMP JUMPDEST PUSH1 0xA0 DUP4 ADD MSTORE POP PUSH1 0xC0 PUSH2 0x4FF9 DUP5 DUP3 DUP6 ADD PUSH2 0x3691 JUMP JUMPDEST PUSH1 0xC0 DUP4 ADD MSTORE POP PUSH1 0xE0 PUSH2 0x500D DUP5 DUP3 DUP6 ADD PUSH2 0x3691 JUMP JUMPDEST PUSH1 0xE0 DUP4 ADD MSTORE POP PUSH2 0x100 DUP3 ADD CALLDATALOAD PUSH8 0xFFFFFFFFFFFFFFFF DUP2 GT ISZERO PUSH2 0x5032 JUMPI PUSH2 0x5031 PUSH2 0x4DC1 JUMP JUMPDEST JUMPDEST PUSH2 0x503E DUP5 DUP3 DUP6 ADD PUSH2 0x3E38 JUMP JUMPDEST PUSH2 0x100 DUP4 ADD MSTORE POP SWAP3 SWAP2 POP POP JUMP JUMPDEST PUSH1 0x0 PUSH1 0x20 DUP3 DUP5 SUB SLT ISZERO PUSH2 0x5061 JUMPI PUSH2 0x5060 PUSH2 0x3444 JUMP JUMPDEST JUMPDEST PUSH1 0x0 DUP3 ADD CALLDATALOAD PUSH8 0xFFFFFFFFFFFFFFFF DUP2 GT ISZERO PUSH2 0x507F JUMPI PUSH2 0x507E PUSH2 0x3449 JUMP JUMPDEST JUMPDEST PUSH2 0x508B DUP5 DUP3 DUP6 ADD PUSH2 0x4EA7 JUMP JUMPDEST SWAP2 POP POP SWAP3 SWAP2 POP POP JUMP JUMPDEST PUSH32 0x4E487B7100000000000000000000000000000000000000000000000000000000 PUSH1 0x0 MSTORE PUSH1 0x32 PUSH1 0x4 MSTORE PUSH1 0x24 PUSH1 0x0 REVERT JUMPDEST PUSH1 0x0 PUSH1 0x40 DUP3 ADD SWAP1 POP PUSH2 0x50D8 PUSH1 0x0 DUP4 ADD DUP6 PUSH2 0x3650 JUMP JUMPDEST DUP2 DUP2 SUB PUSH1 0x20 DUP4 ADD MSTORE PUSH2 0x50EA DUP2 DUP5 PUSH2 0x3560 JUMP JUMPDEST SWAP1 POP SWAP4 SWAP3 POP POP POP JUMP JUMPDEST PUSH1 0x0 PUSH2 0x50FE DUP3 PUSH2 0x4316 JUMP JUMPDEST SWAP1 POP SWAP2 SWAP1 POP JUMP JUMPDEST PUSH2 0x510E DUP2 PUSH2 0x50F3 JUMP JUMPDEST DUP3 MSTORE POP POP JUMP JUMPDEST PUSH1 0x0 DUP2 SLOAD PUSH2 0x5121 DUP2 PUSH2 0x43D3 JUMP JUMPDEST PUSH2 0x512B DUP2 DUP7 PUSH2 0x3514 JUMP JUMPDEST SWAP5 POP PUSH1 0x1 DUP3 AND PUSH1 0x0 DUP2 EQ PUSH2 0x5146 JUMPI PUSH1 0x1 DUP2 EQ PUSH2 0x515C JUMPI PUSH2 0x518F JUMP JUMPDEST PUSH1 0xFF NOT DUP4 AND DUP7 MSTORE DUP2 ISZERO ISZERO PUSH1 0x20 MUL DUP7 ADD SWAP4 POP PUSH2 0x518F JUMP JUMPDEST PUSH2 0x5165 DUP6 PUSH2 0x465F JUMP JUMPDEST PUSH1 0x0 JUMPDEST DUP4 DUP2 LT ISZERO PUSH2 0x5187 JUMPI DUP2 SLOAD DUP2 DUP10 ADD MSTORE PUSH1 0x1 DUP3 ADD SWAP2 POP PUSH1 0x20 DUP2 ADD SWAP1 POP PUSH2 0x5168 JUMP JUMPDEST DUP1 DUP9 ADD SWAP6 POP POP POP JUMPDEST POP POP POP SWAP3 SWAP2 POP POP JUMP JUMPDEST PUSH32 0x4E487B7100000000000000000000000000000000000000000000000000000000 PUSH1 0x0 MSTORE PUSH1 0x21 PUSH1 0x4 MSTORE PUSH1 0x24 PUSH1 0x0 REVERT JUMPDEST PUSH1 0x3 DUP2 LT PUSH2 0x51D8 JUMPI PUSH2 0x51D7 PUSH2 0x5198 JUMP JUMPDEST JUMPDEST POP JUMP JUMPDEST PUSH1 0x0 DUP2 SWAP1 POP PUSH2 0x51E9 DUP3 PUSH2 0x51C7 JUMP JUMPDEST SWAP2 SWAP1 POP JUMP JUMPDEST PUSH1 0x0 PUSH2 0x51F9 DUP3 PUSH2 0x51DB JUMP JUMPDEST SWAP1 POP SWAP2 SWAP1 POP JUMP JUMPDEST PUSH2 0x5209 DUP2 PUSH2 0x51EE JUMP JUMPDEST DUP3 MSTORE POP POP JUMP JUMPDEST PUSH1 0x0 DUP3 DUP3 MSTORE PUSH1 0x20 DUP3 ADD SWAP1 POP SWAP3 SWAP2 POP POP JUMP JUMPDEST PUSH1 0x0 DUP2 SWAP1 POP SWAP2 SWAP1 POP JUMP JUMPDEST PUSH1 0x0 PUSH2 0x5236 DUP4 DUP6 PUSH2 0x38E3 JUMP JUMPDEST SWAP4 POP PUSH2 0x5243 DUP4 DUP6 DUP5 PUSH2 0x3DE7 JUMP JUMPDEST PUSH2 0x524C DUP4 PUSH2 0x354F JUMP JUMPDEST DUP5 ADD SWAP1 POP SWAP4 SWAP3 POP POP POP JUMP JUMPDEST PUSH1 0x0 PUSH2 0x5264 DUP5 DUP5 DUP5 PUSH2 0x522A JUMP JUMPDEST SWAP1 POP SWAP4 SWAP3 POP POP POP JUMP JUMPDEST PUSH1 0x0 DUP1 REVERT JUMPDEST PUSH1 0x0 DUP1 REVERT JUMPDEST PUSH1 0x0 DUP1 REVERT JUMPDEST PUSH1 0x0 DUP1 DUP4 CALLDATALOAD PUSH1 0x1 PUSH1 0x20 SUB DUP5 CALLDATASIZE SUB SUB DUP2 SLT PUSH2 0x5299 JUMPI PUSH2 0x5298 PUSH2 0x5277 JUMP JUMPDEST JUMPDEST DUP4 DUP2 ADD SWAP3 POP DUP3 CALLDATALOAD SWAP2 POP PUSH1 0x20 DUP4 ADD SWAP3 POP PUSH8 0xFFFFFFFFFFFFFFFF DUP3 GT ISZERO PUSH2 0x52C1 JUMPI PUSH2 0x52C0 PUSH2 0x526D JUMP JUMPDEST JUMPDEST PUSH1 0x1 DUP3 MUL CALLDATASIZE SUB DUP4 SGT ISZERO PUSH2 0x52D7 JUMPI PUSH2 0x52D6 PUSH2 0x5272 JUMP JUMPDEST JUMPDEST POP SWAP3 POP SWAP3 SWAP1 POP JUMP JUMPDEST PUSH1 0x0 PUSH1 0x20 DUP3 ADD SWAP1 POP SWAP2 SWAP1 POP JUMP JUMPDEST PUSH1 0x0 PUSH2 0x52F8 DUP4 DUP6 PUSH2 0x520F JUMP JUMPDEST SWAP4 POP DUP4 PUSH1 0x20 DUP5 MUL DUP6 ADD PUSH2 0x530A DUP5 PUSH2 0x5220 JUMP JUMPDEST DUP1 PUSH1 0x0 JUMPDEST DUP8 DUP2 LT ISZERO PUSH2 0x5350 JUMPI DUP5 DUP5 SUB DUP10 MSTORE PUSH2 0x5325 DUP3 DUP5 PUSH2 0x527C JUMP JUMPDEST PUSH2 0x5330 DUP7 DUP3 DUP5 PUSH2 0x5257 JUMP JUMPDEST SWAP6 POP PUSH2 0x533B DUP5 PUSH2 0x52DF JUMP JUMPDEST SWAP4 POP PUSH1 0x20 DUP12 ADD SWAP11 POP POP POP PUSH1 0x1 DUP2 ADD SWAP1 POP PUSH2 0x530E JUMP JUMPDEST POP DUP3 SWAP8 POP DUP8 SWAP5 POP POP POP POP POP SWAP4 SWAP3 POP POP POP JUMP JUMPDEST PUSH1 0x0 PUSH2 0x5371 PUSH1 0x20 DUP5 ADD DUP5 PUSH2 0x3C57 JUMP JUMPDEST SWAP1 POP SWAP3 SWAP2 POP POP JUMP JUMPDEST PUSH1 0x0 PUSH1 0x60 DUP4 ADD PUSH2 0x538C PUSH1 0x0 DUP5 ADD DUP5 PUSH2 0x527C JUMP JUMPDEST DUP6 DUP4 SUB PUSH1 0x0 DUP8 ADD MSTORE PUSH2 0x539F DUP4 DUP3 DUP5 PUSH2 0x522A JUMP JUMPDEST SWAP3 POP POP POP PUSH2 0x53B0 PUSH1 0x20 DUP5 ADD DUP5 PUSH2 0x5362 JUMP JUMPDEST PUSH2 0x53BD PUSH1 0x20 DUP7 ADD DUP3 PUSH2 0x3937 JUMP JUMPDEST POP PUSH2 0x53CB PUSH1 0x40 DUP5 ADD DUP5 PUSH2 0x527C JUMP JUMPDEST DUP6 DUP4 SUB PUSH1 0x40 DUP8 ADD MSTORE PUSH2 0x53DE DUP4 DUP3 DUP5 PUSH2 0x522A JUMP JUMPDEST SWAP3 POP POP POP DUP1 SWAP2 POP POP SWAP3 SWAP2 POP POP JUMP JUMPDEST PUSH1 0x0 DUP3 SWAP1 POP SWAP3 SWAP2 POP POP JUMP JUMPDEST PUSH1 0x0 DUP2 CALLDATALOAD SWAP1 POP PUSH2 0x5406 DUP2 PUSH2 0x49EE JUMP JUMPDEST SWAP3 SWAP2 POP POP JUMP JUMPDEST PUSH1 0x0 PUSH2 0x541B PUSH1 0x20 DUP5 ADD DUP5 PUSH2 0x53F7 JUMP JUMPDEST SWAP1 POP SWAP3 SWAP2 POP POP JUMP JUMPDEST PUSH1 0x40 DUP3 ADD PUSH2 0x5434 PUSH1 0x0 DUP4 ADD DUP4 PUSH2 0x540C JUMP JUMPDEST PUSH2 0x5441 PUSH1 0x0 DUP6 ADD DUP3 PUSH2 0x39A6 JUMP JUMPDEST POP PUSH2 0x544F PUSH1 0x20 DUP4 ADD DUP4 PUSH2 0x540C JUMP JUMPDEST PUSH2 0x545C PUSH1 0x20 DUP6 ADD DUP3 PUSH2 0x39A6 JUMP JUMPDEST POP POP POP POP JUMP JUMPDEST PUSH1 0x0 DUP1 DUP4 CALLDATALOAD PUSH1 0x1 PUSH1 0x20 SUB DUP5 CALLDATASIZE SUB SUB DUP2 SLT PUSH2 0x547F JUMPI PUSH2 0x547E PUSH2 0x5277 JUMP JUMPDEST JUMPDEST DUP4 DUP2 ADD SWAP3 POP DUP3 CALLDATALOAD SWAP2 POP PUSH1 0x20 DUP4 ADD SWAP3 POP PUSH8 0xFFFFFFFFFFFFFFFF DUP3 GT ISZERO PUSH2 0x54A7 JUMPI PUSH2 0x54A6 PUSH2 0x526D JUMP JUMPDEST JUMPDEST PUSH1 0x1 DUP3 MUL CALLDATASIZE SUB DUP4 SGT ISZERO PUSH2 0x54BD JUMPI PUSH2 0x54BC PUSH2 0x5272 JUMP JUMPDEST JUMPDEST POP SWAP3 POP SWAP3 SWAP1 POP JUMP JUMPDEST PUSH1 0x0 PUSH2 0x54D1 DUP4 DUP6 PUSH2 0x383A JUMP JUMPDEST SWAP4 POP PUSH2 0x54DE DUP4 DUP6 DUP5 PUSH2 0x3DE7 JUMP JUMPDEST PUSH2 0x54E7 DUP4 PUSH2 0x354F JUMP JUMPDEST DUP5 ADD SWAP1 POP SWAP4 SWAP3 POP POP POP JUMP JUMPDEST PUSH1 0x0 PUSH1 0x60 DUP4 ADD PUSH2 0x5505 PUSH1 0x0 DUP5 ADD DUP5 PUSH2 0x53EC JUMP JUMPDEST PUSH2 0x5512 PUSH1 0x0 DUP7 ADD DUP3 PUSH2 0x5423 JUMP JUMPDEST POP PUSH2 0x5520 PUSH1 0x40 DUP5 ADD DUP5 PUSH2 0x5462 JUMP JUMPDEST DUP6 DUP4 SUB PUSH1 0x40 DUP8 ADD MSTORE PUSH2 0x5533 DUP4 DUP3 DUP5 PUSH2 0x54C5 JUMP JUMPDEST SWAP3 POP POP POP DUP1 SWAP2 POP POP SWAP3 SWAP2 POP POP JUMP JUMPDEST PUSH1 0x0 PUSH1 0xE0 DUP3 ADD SWAP1 POP PUSH2 0x5556 PUSH1 0x0 DUP4 ADD DUP12 PUSH2 0x5105 JUMP JUMPDEST DUP2 DUP2 SUB PUSH1 0x20 DUP4 ADD MSTORE PUSH2 0x5568 DUP2 DUP11 PUSH2 0x5114 JUMP JUMPDEST SWAP1 POP PUSH2 0x5577 PUSH1 0x40 DUP4 ADD DUP10 PUSH2 0x5200 JUMP JUMPDEST PUSH2 0x5584 PUSH1 0x60 DUP4 ADD DUP9 PUSH2 0x34DF JUMP JUMPDEST DUP2 DUP2 SUB PUSH1 0x80 DUP4 ADD MSTORE PUSH2 0x5597 DUP2 DUP7 DUP9 PUSH2 0x52EC JUMP JUMPDEST SWAP1 POP DUP2 DUP2 SUB PUSH1 0xA0 DUP4 ADD MSTORE PUSH2 0x55AB DUP2 DUP6 PUSH2 0x5379 JUMP JUMPDEST SWAP1 POP DUP2 DUP2 SUB PUSH1 0xC0 DUP4 ADD MSTORE PUSH2 0x55BF DUP2 DUP5 PUSH2 0x54F2 JUMP JUMPDEST SWAP1 POP SWAP10 SWAP9 POP POP POP POP POP POP POP POP POP JUMP JUMPDEST PUSH32 0x4E487B7100000000000000000000000000000000000000000000000000000000 PUSH1 0x0 MSTORE PUSH1 0x11 PUSH1 0x4 MSTORE PUSH1 0x24 PUSH1 0x0 REVERT JUMPDEST PUSH1 0x0 PUSH2 0x5608 DUP3 PUSH2 0x35BB JUMP JUMPDEST SWAP2 POP PUSH32 0xFFFFFFFFFFFFFFFFFFFFFFFFFFFFFFFFFFFFFFFFFFFFFFFFFFFFFFFFFFFFFFFF DUP3 SUB PUSH2 0x563A JUMPI PUSH2 0x5639 PUSH2 0x55CE JUMP JUMPDEST JUMPDEST PUSH1 0x1 DUP3 ADD SWAP1 POP SWAP2 SWAP1 POP JUMP JUMPDEST PUSH32 0x4368616E6E656C206E6F7420666F756E64000000000000000000000000000000 PUSH1 0x0 DUP3 ADD MSTORE POP JUMP JUMPDEST PUSH1 0x0 PUSH2 0x567B PUSH1 0x11 DUP4 PUSH2 0x3514 JUMP JUMPDEST SWAP2 POP PUSH2 0x5686 DUP3 PUSH2 0x5645 JUMP JUMPDEST PUSH1 0x20 DUP3 ADD SWAP1 POP SWAP2 SWAP1 POP JUMP JUMPDEST PUSH1 0x0 PUSH1 0x20 DUP3 ADD SWAP1 POP DUP2 DUP2 SUB PUSH1 0x0 DUP4 ADD MSTORE PUSH2 0x56AA DUP2 PUSH2 0x566E JUMP JUMPDEST SWAP1 POP SWAP2 SWAP1 POP JUMP JUMPDEST PUSH32 0x4552433732313A20696E76616C696420746F6B656E2049440000000000000000 PUSH1 0x0 DUP3 ADD MSTORE POP JUMP JUMPDEST PUSH1 0x0 PUSH2 0x56E7 PUSH1 0x18 DUP4 PUSH2 0x3514 JUMP JUMPDEST SWAP2 POP PUSH2 0x56F2 DUP3 PUSH2 0x56B1 JUMP JUMPDEST PUSH1 0x20 DUP3 ADD SWAP1 POP SWAP2 SWAP1 POP JUMP JUMPDEST PUSH1 0x0 PUSH1 0x20 DUP3 ADD SWAP1 POP DUP2 DUP2 SUB PUSH1 0x0 DUP4 ADD MSTORE PUSH2 0x5716 DUP2 PUSH2 0x56DA JUMP JUMPDEST SWAP1 POP SWAP2 SWAP1 POP JUMP JUMPDEST PUSH32 0x4552433732313A2061646472657373207A65726F206973206E6F742061207661 PUSH1 0x0 DUP3 ADD MSTORE PUSH32 0x6C6964206F776E65720000000000000000000000000000000000000000000000 PUSH1 0x20 DUP3 ADD MSTORE POP JUMP JUMPDEST PUSH1 0x0 PUSH2 0x5779 PUSH1 0x29 DUP4 PUSH2 0x3514 JUMP JUMPDEST SWAP2 POP PUSH2 0x5784 DUP3 PUSH2 0x571D JUMP JUMPDEST PUSH1 0x40 DUP3 ADD SWAP1 POP SWAP2 SWAP1 POP JUMP JUMPDEST PUSH1 0x0 PUSH1 0x20 DUP3 ADD SWAP1 POP DUP2 DUP2 SUB PUSH1 0x0 DUP4 ADD MSTORE PUSH2 0x57A8 DUP2 PUSH2 0x576C JUMP JUMPDEST SWAP1 POP SWAP2 SWAP1 POP JUMP JUMPDEST PUSH32 0x596F7520617265206E6F7420746865206F776E6572206F66207468697320746F PUSH1 0x0 DUP3 ADD MSTORE PUSH32 0x6B656E0000000000000000000000000000000000000000000000000000000000 PUSH1 0x20 DUP3 ADD MSTORE POP JUMP JUMPDEST PUSH1 0x0 PUSH2 0x580B PUSH1 0x23 DUP4 PUSH2 0x3514 JUMP JUMPDEST SWAP2 POP PUSH2 0x5816 DUP3 PUSH2 0x57AF JUMP JUMPDEST PUSH1 0x40 DUP3 ADD SWAP1 POP SWAP2 SWAP1 POP JUMP JUMPDEST PUSH1 0x0 PUSH1 0x20 DUP3 ADD SWAP1 POP DUP2 DUP2 SUB PUSH1 0x0 DUP4 ADD MSTORE PUSH2 0x583A DUP2 PUSH2 0x57FE JUMP JUMPDEST SWAP1 POP SWAP2 SWAP1 POP JUMP JUMPDEST PUSH1 0x0 DUP2 CALLDATALOAD PUSH2 0x584E DUP2 PUSH2 0x3AB1 JUMP JUMPDEST DUP1 SWAP2 POP POP SWAP2 SWAP1 POP JUMP JUMPDEST PUSH1 0x0 PUSH1 0xFF PUSH2 0x5864 DUP5 PUSH2 0x48F7 JUMP JUMPDEST SWAP4 POP DUP1 NOT DUP4 AND SWAP3 POP DUP1 DUP5 AND DUP4 OR SWAP2 POP POP SWAP3 SWAP2 POP POP JUMP JUMPDEST PUSH1 0x0 PUSH2 0x5885 DUP3 PUSH2 0x34D3 JUMP JUMPDEST SWAP1 POP SWAP2 SWAP1 POP JUMP JUMPDEST PUSH1 0x0 DUP2 SWAP1 POP SWAP2 SWAP1 POP JUMP JUMPDEST PUSH2 0x589F DUP3 PUSH2 0x587A JUMP JUMPDEST PUSH2 0x58B2 PUSH2 0x58AB DUP3 PUSH2 0x588C JUMP JUMPDEST DUP4 SLOAD PUSH2 0x5857 JUMP JUMPDEST DUP3 SSTORE POP POP POP JUMP JUMPDEST PUSH1 0x0 DUP2 ADD PUSH1 0x0 DUP4 ADD DUP1 PUSH2 0x58CB DUP2 PUSH2 0x5841 JUMP JUMPDEST SWAP1 POP PUSH2 0x58D7 DUP2 DUP5 PUSH2 0x5896 JUMP JUMPDEST POP POP POP PUSH1 0x1 DUP2 ADD PUSH1 0x20 DUP4 ADD PUSH2 0x58EC DUP2 DUP6 PUSH2 0x4A94 JUMP JUMPDEST PUSH2 0x58F7 DUP2 DUP4 DUP7 PUSH2 0x4C2D JUMP JUMPDEST POP POP POP POP POP POP JUMP JUMPDEST PUSH2 0x5909 DUP3 DUP3 PUSH2 0x58B9 JUMP JUMPDEST POP POP JUMP JUMPDEST PUSH1 0x0 DUP2 SWAP1 POP SWAP3 SWAP2 POP POP JUMP JUMPDEST PUSH1 0x0 DUP2 SLOAD PUSH2 0x5925 DUP2 PUSH2 0x43D3 JUMP JUMPDEST PUSH2 0x592F DUP2 DUP7 PUSH2 0x590D JUMP JUMPDEST SWAP5 POP PUSH1 0x1 DUP3 AND PUSH1 0x0 DUP2 EQ PUSH2 0x594A JUMPI PUSH1 0x1 DUP2 EQ PUSH2 0x595F JUMPI PUSH2 0x5992 JUMP JUMPDEST PUSH1 0xFF NOT DUP4 AND DUP7 MSTORE DUP2 ISZERO ISZERO DUP3 MUL DUP7 ADD SWAP4 POP PUSH2 0x5992 JUMP JUMPDEST PUSH2 0x5968 DUP6 PUSH2 0x465F JUMP JUMPDEST PUSH1 0x0 JUMPDEST DUP4 DUP2 LT ISZERO PUSH2 0x598A JUMPI DUP2 SLOAD DUP2 DUP10 ADD MSTORE PUSH1 0x1 DUP3 ADD SWAP2 POP PUSH1 0x20 DUP2 ADD SWAP1 POP PUSH2 0x596B JUMP JUMPDEST DUP4 DUP9 ADD SWAP6 POP POP POP JUMPDEST POP POP POP SWAP3 SWAP2 POP POP JUMP JUMPDEST PUSH1 0x0 PUSH2 0x59A7 DUP3 DUP5 PUSH2 0x5918 JUMP JUMPDEST SWAP2 POP DUP2 SWAP1 POP SWAP3 SWAP2 POP POP JUMP JUMPDEST PUSH1 0x0 PUSH2 0x59BE DUP4 DUP6 PUSH2 0x590D JUMP JUMPDEST SWAP4 POP PUSH2 0x59CB DUP4 DUP6 DUP5 PUSH2 0x3DE7 JUMP JUMPDEST DUP3 DUP5 ADD SWAP1 POP SWAP4 SWAP3 POP POP POP JUMP JUMPDEST PUSH1 0x0 PUSH2 0x59E4 DUP3 DUP5 DUP7 PUSH2 0x59B2 JUMP JUMPDEST SWAP2 POP DUP2 SWAP1 POP SWAP4 SWAP3 POP POP POP JUMP JUMPDEST PUSH32 0x556E737570706F727465642076657273696F6E00000000000000000000000000 PUSH1 0x0 DUP3 ADD MSTORE POP JUMP JUMPDEST PUSH1 0x0 PUSH2 0x5A26 PUSH1 0x13 DUP4 PUSH2 0x3514 JUMP JUMPDEST SWAP2 POP PUSH2 0x5A31 DUP3 PUSH2 0x59F0 JUMP JUMPDEST PUSH1 0x20 DUP3 ADD SWAP1 POP SWAP2 SWAP1 POP JUMP JUMPDEST PUSH1 0x0 PUSH1 0x20 DUP3 ADD SWAP1 POP DUP2 DUP2 SUB PUSH1 0x0 DUP4 ADD MSTORE PUSH2 0x5A55 DUP2 PUSH2 0x5A19 JUMP JUMPDEST SWAP1 POP SWAP2 SWAP1 POP JUMP JUMPDEST PUSH32 0x4552433732314D657461646174613A2055524920717565727920666F72206E6F PUSH1 0x0 DUP3 ADD MSTORE PUSH32 0x6E6578697374656E7420746F6B656E0000000000000000000000000000000000 PUSH1 0x20 DUP3 ADD MSTORE POP JUMP JUMPDEST PUSH1 0x0 PUSH2 0x5AB8 PUSH1 0x2F DUP4 PUSH2 0x3514 JUMP JUMPDEST SWAP2 POP PUSH2 0x5AC3 DUP3 PUSH2 0x5A5C JUMP JUMPDEST PUSH1 0x40 DUP3 ADD SWAP1 POP SWAP2 SWAP1 POP JUMP JUMPDEST PUSH1 0x0 PUSH1 0x20 DUP3 ADD SWAP1 POP DUP2 DUP2 SUB PUSH1 0x0 DUP4 ADD MSTORE PUSH2 0x5AE7 DUP2 PUSH2 0x5AAB JUMP JUMPDEST SWAP1 POP SWAP2 SWAP1 POP JUMP JUMPDEST POP JUMP JUMPDEST PUSH1 0x0 PUSH2 0x5AFE PUSH1 0x0 DUP4 PUSH2 0x590D JUMP JUMPDEST SWAP2 POP PUSH2 0x5B09 DUP3 PUSH2 0x5AEE JUMP JUMPDEST PUSH1 0x0 DUP3 ADD SWAP1 POP SWAP2 SWAP1 POP JUMP JUMPDEST PUSH1 0x0 PUSH2 0x5B1F DUP3 PUSH2 0x5AF1 JUMP JUMPDEST SWAP2 POP DUP2 SWAP1 POP SWAP2 SWAP1 POP JUMP JUMPDEST PUSH1 0x0 PUSH2 0x5B34 DUP3 PUSH2 0x3509 JUMP JUMPDEST PUSH2 0x5B3E DUP2 DUP6 PUSH2 0x590D JUMP JUMPDEST SWAP4 POP PUSH2 0x5B4E DUP2 DUP6 PUSH1 0x20 DUP7 ADD PUSH2 0x3525 JUMP JUMPDEST DUP1 DUP5 ADD SWAP2 POP POP SWAP3 SWAP2 POP POP JUMP JUMPDEST PUSH1 0x0 PUSH2 0x5B66 DUP3 DUP5 PUSH2 0x5B29 JUMP JUMPDEST SWAP2 POP DUP2 SWAP1 POP SWAP3 SWAP2 POP POP JUMP JUMPDEST PUSH32 0x4F776E61626C653A206E6577206F776E657220697320746865207A65726F2061 PUSH1 0x0 DUP3 ADD MSTORE PUSH32 0x6464726573730000000000000000000000000000000000000000000000000000 PUSH1 0x20 DUP3 ADD MSTORE POP JUMP JUMPDEST PUSH1 0x0 PUSH2 0x5BCD PUSH1 0x26 DUP4 PUSH2 0x3514 JUMP JUMPDEST SWAP2 POP PUSH2 0x5BD8 DUP3 PUSH2 0x5B71 JUMP JUMPDEST PUSH1 0x40 DUP3 ADD SWAP1 POP SWAP2 SWAP1 POP JUMP JUMPDEST PUSH1 0x0 PUSH1 0x20 DUP3 ADD SWAP1 POP DUP2 DUP2 SUB PUSH1 0x0 DUP4 ADD MSTORE PUSH2 0x5BFC DUP2 PUSH2 0x5BC0 JUMP JUMPDEST SWAP1 POP SWAP2 SWAP1 POP JUMP JUMPDEST PUSH32 0x4552433732313A207472616E736665722066726F6D20696E636F727265637420 PUSH1 0x0 DUP3 ADD MSTORE PUSH32 0x6F776E6572000000000000000000000000000000000000000000000000000000 PUSH1 0x20 DUP3 ADD MSTORE POP JUMP JUMPDEST PUSH1 0x0 PUSH2 0x5C5F PUSH1 0x25 DUP4 PUSH2 0x3514 JUMP JUMPDEST SWAP2 POP PUSH2 0x5C6A DUP3 PUSH2 0x5C03 JUMP JUMPDEST PUSH1 0x40 DUP3 ADD SWAP1 POP SWAP2 SWAP1 POP JUMP JUMPDEST PUSH1 0x0 PUSH1 0x20 DUP3 ADD SWAP1 POP DUP2 DUP2 SUB PUSH1 0x0 DUP4 ADD MSTORE PUSH2 0x5C8E DUP2 PUSH2 0x5C52 JUMP JUMPDEST SWAP1 POP SWAP2 SWAP1 POP JUMP JUMPDEST PUSH32 0x4552433732313A207472616E7366657220746F20746865207A65726F20616464 PUSH1 0x0 DUP3 ADD MSTORE PUSH32 0x7265737300000000000000000000000000000000000000000000000000000000 PUSH1 0x20 DUP3 ADD MSTORE POP JUMP JUMPDEST PUSH1 0x0 PUSH2 0x5CF1 PUSH1 0x24 DUP4 PUSH2 0x3514 JUMP JUMPDEST SWAP2 POP PUSH2 0x5CFC DUP3 PUSH2 0x5C95 JUMP JUMPDEST PUSH1 0x40 DUP3 ADD SWAP1 POP SWAP2 SWAP1 POP JUMP JUMPDEST PUSH1 0x0 PUSH1 0x20 DUP3 ADD SWAP1 POP DUP2 DUP2 SUB PUSH1 0x0 DUP4 ADD MSTORE PUSH2 0x5D20 DUP2 PUSH2 0x5CE4 JUMP JUMPDEST SWAP1 POP SWAP2 SWAP1 POP JUMP JUMPDEST PUSH1 0x0 PUSH2 0x5D32 DUP3 PUSH2 0x35BB JUMP JUMPDEST SWAP2 POP PUSH2 0x5D3D DUP4 PUSH2 0x35BB JUMP JUMPDEST SWAP3 POP DUP3 DUP3 SUB SWAP1 POP DUP2 DUP2 GT ISZERO PUSH2 0x5D55 JUMPI PUSH2 0x5D54 PUSH2 0x55CE JUMP JUMPDEST JUMPDEST SWAP3 SWAP2 POP POP JUMP JUMPDEST PUSH1 0x0 PUSH2 0x5D66 DUP3 PUSH2 0x35BB JUMP JUMPDEST SWAP2 POP PUSH2 0x5D71 DUP4 PUSH2 0x35BB JUMP JUMPDEST SWAP3 POP DUP3 DUP3 MUL PUSH2 0x5D7F DUP2 PUSH2 0x35BB JUMP JUMPDEST SWAP2 POP DUP3 DUP3 DIV DUP5 EQ DUP4 ISZERO OR PUSH2 0x5D96 JUMPI PUSH2 0x5D95 PUSH2 0x55CE JUMP JUMPDEST JUMPDEST POP SWAP3 SWAP2 POP POP JUMP JUMPDEST PUSH1 0x0 PUSH2 0x5DA8 DUP3 PUSH2 0x35BB JUMP JUMPDEST SWAP2 POP PUSH2 0x5DB3 DUP4 PUSH2 0x35BB JUMP JUMPDEST SWAP3 POP DUP3 DUP3 ADD SWAP1 POP DUP1 DUP3 GT ISZERO PUSH2 0x5DCB JUMPI PUSH2 0x5DCA PUSH2 0x55CE JUMP JUMPDEST JUMPDEST SWAP3 SWAP2 POP POP JUMP JUMPDEST PUSH32 0x537472696E6720636F6E7461696E73206E6F6E2D6E756D657269632063686172 PUSH1 0x0 DUP3 ADD MSTORE PUSH32 0x6163746572730000000000000000000000000000000000000000000000000000 PUSH1 0x20 DUP3 ADD MSTORE POP JUMP JUMPDEST PUSH1 0x0 PUSH2 0x5E2D PUSH1 0x26 DUP4 PUSH2 0x3514 JUMP JUMPDEST SWAP2 POP PUSH2 0x5E38 DUP3 PUSH2 0x5DD1 JUMP JUMPDEST PUSH1 0x40 DUP3 ADD SWAP1 POP SWAP2 SWAP1 POP JUMP JUMPDEST PUSH1 0x0 PUSH1 0x20 DUP3 ADD SWAP1 POP DUP2 DUP2 SUB PUSH1 0x0 DUP4 ADD MSTORE PUSH2 0x5E5C DUP2 PUSH2 0x5E20 JUMP JUMPDEST SWAP1 POP SWAP2 SWAP1 POP JUMP JUMPDEST PUSH32 0x4F776E61626C653A2063616C6C6572206973206E6F7420746865206F776E6572 PUSH1 0x0 DUP3 ADD MSTORE POP JUMP JUMPDEST PUSH1 0x0 PUSH2 0x5E99 PUSH1 0x20 DUP4 PUSH2 0x3514 JUMP JUMPDEST SWAP2 POP PUSH2 0x5EA4 DUP3 PUSH2 0x5E63 JUMP JUMPDEST PUSH1 0x20 DUP3 ADD SWAP1 POP SWAP2 SWAP1 POP JUMP JUMPDEST PUSH1 0x0 PUSH1 0x20 DUP3 ADD SWAP1 POP DUP2 DUP2 SUB PUSH1 0x0 DUP4 ADD MSTORE PUSH2 0x5EC8 DUP2 PUSH2 0x5E8C JUMP JUMPDEST SWAP1 POP SWAP2 SWAP1 POP JUMP JUMPDEST PUSH32 0x5468697320746F6B656E206973206E6F74206C6F636B65640000000000000000 PUSH1 0x0 DUP3 ADD MSTORE POP JUMP JUMPDEST PUSH1 0x0 PUSH2 0x5F05 PUSH1 0x18 DUP4 PUSH2 0x3514 JUMP JUMPDEST SWAP2 POP PUSH2 0x5F10 DUP3 PUSH2 0x5ECF JUMP JUMPDEST PUSH1 0x20 DUP3 ADD SWAP1 POP SWAP2 SWAP1 POP JUMP JUMPDEST PUSH1 0x0 PUSH1 0x20 DUP3 ADD SWAP1 POP DUP2 DUP2 SUB PUSH1 0x0 DUP4 ADD MSTORE PUSH2 0x5F34 DUP2 PUSH2 0x5EF8 JUMP JUMPDEST SWAP1 POP SWAP2 SWAP1 POP JUMP JUMPDEST PUSH1 0x0 DUP2 MLOAD SWAP1 POP SWAP2 SWAP1 POP JUMP JUMPDEST PUSH1 0x0 DUP3 DUP3 MSTORE PUSH1 0x20 DUP3 ADD SWAP1 POP SWAP3 SWAP2 POP POP JUMP JUMPDEST PUSH1 0x0 DUP2 SWAP1 POP PUSH1 0x20 DUP3 ADD SWAP1 POP SWAP2 SWAP1 POP JUMP JUMPDEST PUSH1 0x0 PUSH2 0x5F73 DUP4 DUP4 PUSH2 0x38F4 JUMP JUMPDEST SWAP1 POP SWAP3 SWAP2 POP POP JUMP JUMPDEST PUSH1 0x0 PUSH1 0x20 DUP3 ADD SWAP1 POP SWAP2 SWAP1 POP JUMP JUMPDEST PUSH1 0x0 PUSH2 0x5F93 DUP3 PUSH2 0x5F3B JUMP JUMPDEST PUSH2 0x5F9D DUP2 DUP6 PUSH2 0x5F46 JUMP JUMPDEST SWAP4 POP DUP4 PUSH1 0x20 DUP3 MUL DUP6 ADD PUSH2 0x5FAF DUP6 PUSH2 0x5F57 JUMP JUMPDEST DUP1 PUSH1 0x0 JUMPDEST DUP6 DUP2 LT ISZERO PUSH2 0x5FEB JUMPI DUP5 DUP5 SUB DUP10 MSTORE DUP2 MLOAD PUSH2 0x5FCC DUP6 DUP3 PUSH2 0x5F67 JUMP JUMPDEST SWAP5 POP PUSH2 0x5FD7 DUP4 PUSH2 0x5F7B JUMP JUMPDEST SWAP3 POP PUSH1 0x20 DUP11 ADD SWAP10 POP POP PUSH1 0x1 DUP2 ADD SWAP1 POP PUSH2 0x5FB3 JUMP JUMPDEST POP DUP3 SWAP8 POP DUP8 SWAP6 POP POP POP POP POP POP SWAP3 SWAP2 POP POP JUMP JUMPDEST PUSH2 0x6006 DUP2 PUSH2 0x363E JUMP JUMPDEST DUP3 MSTORE POP POP JUMP JUMPDEST PUSH1 0x0 PUSH2 0x120 DUP4 ADD PUSH1 0x0 DUP4 ADD MLOAD DUP5 DUP3 SUB PUSH1 0x0 DUP7 ADD MSTORE PUSH2 0x602A DUP3 DUP3 PUSH2 0x38F4 JUMP JUMPDEST SWAP2 POP POP PUSH1 0x20 DUP4 ADD MLOAD DUP5 DUP3 SUB PUSH1 0x20 DUP7 ADD MSTORE PUSH2 0x6044 DUP3 DUP3 PUSH2 0x38F4 JUMP JUMPDEST SWAP2 POP POP PUSH1 0x40 DUP4 ADD MLOAD DUP5 DUP3 SUB PUSH1 0x40 DUP7 ADD MSTORE PUSH2 0x605E DUP3 DUP3 PUSH2 0x38F4 JUMP JUMPDEST SWAP2 POP POP PUSH1 0x60 DUP4 ADD MLOAD DUP5 DUP3 SUB PUSH1 0x60 DUP7 ADD MSTORE PUSH2 0x6078 DUP3 DUP3 PUSH2 0x5F88 JUMP JUMPDEST SWAP2 POP POP PUSH1 0x80 DUP4 ADD MLOAD DUP5 DUP3 SUB PUSH1 0x80 DUP7 ADD MSTORE PUSH2 0x6092 DUP3 DUP3 PUSH2 0x5F88 JUMP JUMPDEST SWAP2 POP POP PUSH1 0xA0 DUP4 ADD MLOAD DUP5 DUP3 SUB PUSH1 0xA0 DUP7 ADD MSTORE PUSH2 0x60AC DUP3 DUP3 PUSH2 0x5F88 JUMP JUMPDEST SWAP2 POP POP PUSH1 0xC0 DUP4 ADD MLOAD PUSH2 0x60C1 PUSH1 0xC0 DUP7 ADD DUP3 PUSH2 0x5FFD JUMP JUMPDEST POP PUSH1 0xE0 DUP4 ADD MLOAD PUSH2 0x60D4 PUSH1 0xE0 DUP7 ADD DUP3 PUSH2 0x5FFD JUMP JUMPDEST POP PUSH2 0x100 DUP4 ADD MLOAD DUP5 DUP3 SUB PUSH2 0x100 DUP7 ADD MSTORE PUSH2 0x60EE DUP3 DUP3 PUSH2 0x38F4 JUMP JUMPDEST SWAP2 POP POP DUP1 SWAP2 POP POP SWAP3 SWAP2 POP POP JUMP JUMPDEST PUSH1 0x0 PUSH1 0x20 DUP3 ADD SWAP1 POP DUP2 DUP2 SUB PUSH1 0x0 DUP4 ADD MSTORE PUSH2 0x6115 DUP2 DUP5 PUSH2 0x600C JUMP JUMPDEST SWAP1 POP SWAP3 SWAP2 POP POP JUMP JUMPDEST PUSH1 0x0 PUSH1 0x60 DUP3 DUP5 SUB SLT ISZERO PUSH2 0x6133 JUMPI PUSH2 0x6132 PUSH2 0x4DBC JUMP JUMPDEST JUMPDEST PUSH2 0x613D PUSH1 0x60 PUSH2 0x3D9B JUMP JUMPDEST SWAP1 POP PUSH1 0x0 PUSH2 0x614D DUP5 DUP3 DUP6 ADD PUSH2 0x35DC JUMP JUMPDEST PUSH1 0x0 DUP4 ADD MSTORE POP PUSH1 0x20 PUSH2 0x6161 DUP5 DUP3 DUP6 ADD PUSH2 0x35DC JUMP JUMPDEST PUSH1 0x20 DUP4 ADD MSTORE POP PUSH1 0x40 PUSH2 0x6175 DUP5 DUP3 DUP6 ADD PUSH2 0x35DC JUMP JUMPDEST PUSH1 0x40 DUP4 ADD MSTORE POP SWAP3 SWAP2 POP POP JUMP JUMPDEST PUSH1 0x0 PUSH1 0x60 DUP3 DUP5 SUB SLT ISZERO PUSH2 0x6197 JUMPI PUSH2 0x6196 PUSH2 0x3444 JUMP JUMPDEST JUMPDEST PUSH1 0x0 PUSH2 0x61A5 DUP5 DUP3 DUP6 ADD PUSH2 0x611D JUMP JUMPDEST SWAP2 POP POP SWAP3 SWAP2 POP POP JUMP JUMPDEST PUSH1 0x0 PUSH2 0x61BD PUSH1 0x20 DUP5 ADD DUP5 PUSH2 0x35DC JUMP JUMPDEST SWAP1 POP SWAP3 SWAP2 POP POP JUMP JUMPDEST PUSH2 0x61CE DUP2 PUSH2 0x35BB JUMP JUMPDEST DUP3 MSTORE POP POP JUMP JUMPDEST PUSH1 0x60 DUP3 ADD PUSH2 0x61E5 PUSH1 0x0 DUP4 ADD DUP4 PUSH2 0x61AE JUMP JUMPDEST PUSH2 0x61F2 PUSH1 0x0 DUP6 ADD DUP3 PUSH2 0x61C5 JUMP JUMPDEST POP PUSH2 0x6200 PUSH1 0x20 DUP4 ADD DUP4 PUSH2 0x61AE JUMP JUMPDEST PUSH2 0x620D PUSH1 0x20 DUP6 ADD DUP3 PUSH2 0x61C5 JUMP JUMPDEST POP PUSH2 0x621B PUSH1 0x40 DUP4 ADD DUP4 PUSH2 0x61AE JUMP JUMPDEST PUSH2 0x6228 PUSH1 0x40 DUP6 ADD DUP3 PUSH2 0x61C5 JUMP JUMPDEST POP POP POP POP JUMP JUMPDEST PUSH1 0x0 PUSH1 0xC0 DUP3 ADD SWAP1 POP PUSH2 0x6243 PUSH1 0x0 DUP4 ADD DUP8 PUSH2 0x4177 JUMP JUMPDEST DUP2 DUP2 SUB PUSH1 0x20 DUP4 ADD MSTORE PUSH2 0x6255 DUP2 DUP7 PUSH2 0x3755 JUMP JUMPDEST SWAP1 POP PUSH2 0x6264 PUSH1 0x40 DUP4 ADD DUP6 PUSH2 0x3997 JUMP JUMPDEST PUSH2 0x6271 PUSH1 0x60 DUP4 ADD DUP5 PUSH2 0x61D4 JUMP JUMPDEST SWAP6 SWAP5 POP POP POP POP POP JUMP JUMPDEST PUSH32 0x4552433732313A20617070726F766520746F2063616C6C657200000000000000 PUSH1 0x0 DUP3 ADD MSTORE POP JUMP JUMPDEST PUSH1 0x0 PUSH2 0x62B0 PUSH1 0x19 DUP4 PUSH2 0x3514 JUMP JUMPDEST SWAP2 POP PUSH2 0x62BB DUP3 PUSH2 0x627A JUMP JUMPDEST PUSH1 0x20 DUP3 ADD SWAP1 POP SWAP2 SWAP1 POP JUMP JUMPDEST PUSH1 0x0 PUSH1 0x20 DUP3 ADD SWAP1 POP DUP2 DUP2 SUB PUSH1 0x0 DUP4 ADD MSTORE PUSH2 0x62DF DUP2 PUSH2 0x62A3 JUMP JUMPDEST SWAP1 POP SWAP2 SWAP1 POP JUMP JUMPDEST PUSH32 0x4552433732313A207472616E7366657220746F206E6F6E204552433732315265 PUSH1 0x0 DUP3 ADD MSTORE PUSH32 0x63656976657220696D706C656D656E7465720000000000000000000000000000 PUSH1 0x20 DUP3 ADD MSTORE POP JUMP JUMPDEST PUSH1 0x0 PUSH2 0x6342 PUSH1 0x32 DUP4 PUSH2 0x3514 JUMP JUMPDEST SWAP2 POP PUSH2 0x634D DUP3 PUSH2 0x62E6 JUMP JUMPDEST PUSH1 0x40 DUP3 ADD SWAP1 POP SWAP2 SWAP1 POP JUMP JUMPDEST PUSH1 0x0 PUSH1 0x20 DUP3 ADD SWAP1 POP DUP2 DUP2 SUB PUSH1 0x0 DUP4 ADD MSTORE PUSH2 0x6371 DUP2 PUSH2 0x6335 JUMP JUMPDEST SWAP1 POP SWAP2 SWAP1 POP JUMP JUMPDEST PUSH32 0x4E487B7100000000000000000000000000000000000000000000000000000000 PUSH1 0x0 MSTORE PUSH1 0x12 PUSH1 0x4 MSTORE PUSH1 0x24 PUSH1 0x0 REVERT JUMPDEST PUSH1 0x0 PUSH1 0x80 DUP3 ADD SWAP1 POP PUSH2 0x63BC PUSH1 0x0 DUP4 ADD DUP8 PUSH2 0x3650 JUMP JUMPDEST PUSH2 0x63C9 PUSH1 0x20 DUP4 ADD DUP7 PUSH2 0x3650 JUMP JUMPDEST PUSH2 0x63D6 PUSH1 0x40 DUP4 ADD DUP6 PUSH2 0x3A87 JUMP JUMPDEST DUP2 DUP2 SUB PUSH1 0x60 DUP4 ADD MSTORE PUSH2 0x63E8 DUP2 DUP5 PUSH2 0x3755 JUMP JUMPDEST SWAP1 POP SWAP6 SWAP5 POP POP POP POP POP JUMP JUMPDEST PUSH1 0x0 DUP2 MLOAD SWAP1 POP PUSH2 0x6402 DUP2 PUSH2 0x347A JUMP JUMPDEST SWAP3 SWAP2 POP POP JUMP JUMPDEST PUSH1 0x0 PUSH1 0x20 DUP3 DUP5 SUB SLT ISZERO PUSH2 0x641E JUMPI PUSH2 0x641D PUSH2 0x3444 JUMP JUMPDEST JUMPDEST PUSH1 0x0 PUSH2 0x642C DUP5 DUP3 DUP6 ADD PUSH2 0x63F3 JUMP JUMPDEST SWAP2 POP POP SWAP3 SWAP2 POP POP JUMP JUMPDEST PUSH32 0x4552433732313A206D696E7420746F20746865207A65726F2061646472657373 PUSH1 0x0 DUP3 ADD MSTORE POP JUMP JUMPDEST PUSH1 0x0 PUSH2 0x646B PUSH1 0x20 DUP4 PUSH2 0x3514 JUMP JUMPDEST SWAP2 POP PUSH2 0x6476 DUP3 PUSH2 0x6435 JUMP JUMPDEST PUSH1 0x20 DUP3 ADD SWAP1 POP SWAP2 SWAP1 POP JUMP JUMPDEST PUSH1 0x0 PUSH1 0x20 DUP3 ADD SWAP1 POP DUP2 DUP2 SUB PUSH1 0x0 DUP4 ADD MSTORE PUSH2 0x649A DUP2 PUSH2 0x645E JUMP JUMPDEST SWAP1 POP SWAP2 SWAP1 POP JUMP JUMPDEST PUSH32 0x4552433732313A20746F6B656E20616C7265616479206D696E74656400000000 PUSH1 0x0 DUP3 ADD MSTORE POP JUMP JUMPDEST PUSH1 0x0 PUSH2 0x64D7 PUSH1 0x1C DUP4 PUSH2 0x3514 JUMP JUMPDEST SWAP2 POP PUSH2 0x64E2 DUP3 PUSH2 0x64A1 JUMP JUMPDEST PUSH1 0x20 DUP3 ADD SWAP1 POP SWAP2 SWAP1 POP JUMP JUMPDEST PUSH1 0x0 PUSH1 0x20 DUP3 ADD SWAP1 POP DUP2 DUP2 SUB PUSH1 0x0 DUP4 ADD MSTORE PUSH2 0x6506 DUP2 PUSH2 0x64CA JUMP JUMPDEST SWAP1 POP SWAP2 SWAP1 POP JUMP JUMPDEST PUSH1 0x0 PUSH2 0x6518 DUP3 PUSH2 0x35BB JUMP JUMPDEST SWAP2 POP PUSH1 0x0 DUP3 SUB PUSH2 0x652B JUMPI PUSH2 0x652A PUSH2 0x55CE JUMP JUMPDEST JUMPDEST PUSH1 0x1 DUP3 SUB SWAP1 POP SWAP2 SWAP1 POP JUMP JUMPDEST PUSH32 0x537472696E67733A20686578206C656E67746820696E73756666696369656E74 PUSH1 0x0 DUP3 ADD MSTORE POP JUMP JUMPDEST PUSH1 0x0 PUSH2 0x656C PUSH1 0x20 DUP4 PUSH2 0x3514 JUMP JUMPDEST SWAP2 POP PUSH2 0x6577 DUP3 PUSH2 0x6536 JUMP JUMPDEST PUSH1 0x20 DUP3 ADD SWAP1 POP SWAP2 SWAP1 POP JUMP JUMPDEST PUSH1 0x0 PUSH1 0x20 DUP3 ADD SWAP1 POP DUP2 DUP2 SUB PUSH1 0x0 DUP4 ADD MSTORE PUSH2 0x659B DUP2 PUSH2 0x655F JUMP JUMPDEST SWAP1 POP SWAP2 SWAP1 POP JUMP INVALID PUSH9 0x747470733A2F2F7261 PUSH24 0x2E67697468756275736572636F6E74656E742E636F6D2F62 PUSH3 0x656872 PUSH14 0x616E31302F73616D706C654E4654 0x4D PUSH6 0x746144617461 0x2F PUSH14 0x61696E2F6D657461646174612E6A PUSH20 0x6F6EA2646970667358221220DE35DBB94491D5DC 0xA8 CALLVALUE 0xCD 0xDF 0xE POP CALLDATASIZE DUP3 MSTORE8 0x25 CALLDATALOAD CALLER 0xE0 0xE8 PUSH17 0x354B00D5DD1ECF29D764736F6C63430008 EQ STOP CALLER "},"methodIdentifiers":{"ackPackets(uint256)":"4252ae9b","approve(address,uint256)":"095ea7b3","balanceOf(address)":"70a08231","connectedChannels(uint256)":"bb3f9f8d","createChannel(bool,string[],(string,bytes32,string),((uint64,uint64),bytes))":"59565fdb","getApproved(uint256)":"081812fc","initiateNFTTransfer(uint256,address,string,(uint256,uint256,uint256))":"7476c43a","isApprovedForAll(address,address)":"e985e9c5","mintNFT(address)":"54ba0f27","name()":"06fdde03","onAcknowledgementPacket(((string,bytes32),(string,bytes32),uint64,bytes,(uint64,uint64),uint64),(bool,bytes))":"7e1d42b5","onCloseIbcChannel(bytes32,string,bytes32)":"5fe39e0d","onConnectIbcChannel(bytes32,bytes32,string)":"a6c50b4d","onOpenIbcChannel(string,uint8,bool,string[],string,bytes32,string)":"d39b59c8","onRecvPacket(((string,bytes32),(string,bytes32),uint64,bytes,(uint64,uint64),uint64))":"4dcc0aa6","onTimeoutPacket(((string,bytes32),(string,bytes32),uint64,bytes,(uint64,uint64),uint64))":"602f9834","owner()":"8da5cb5b","ownerOf(uint256)":"6352211e","recvedPackets(uint256)":"f12b758a","renounceOwnership()":"715018a6","safeTransferFrom(address,address,uint256)":"42842e0e","safeTransferFrom(address,address,uint256,bytes)":"b88d4fde","setApprovalForAll(address,bool)":"a22cb465","supportedVersions(uint256)":"7d622184","supportsInterface(bytes4)":"01ffc9a7","symbol()":"95d89b41","timeoutPackets(uint256)":"4eeb7391","tokenURI(uint256)":"c87b56dd","transferFrom(address,address,uint256)":"23b872dd","transferOwnership(address)":"f2fde38b","vibcDispatcher()":"da96e10c"}}}}}