{
  "_format": "hh-sol-artifact-1",
  "contractName": "bidirectionalNFT_A",
  "sourceName": "contracts/bidrectionalNFT_A.sol",
  "abi": [
    {
      "inputs": [
        {
          "internalType": "string",
          "name": "_name",
          "type": "string"
        },
        {
          "internalType": "string",
          "name": "_symbol",
          "type": "string"
        }
      ],
      "stateMutability": "nonpayable",
      "type": "constructor"
    },
    {
      "inputs": [],
      "name": "invalidCounterPartyPortId",
      "type": "error"
    },
    {
      "anonymous": false,
      "inputs": [
        {
          "indexed": true,
          "internalType": "address",
          "name": "owner",
          "type": "address"
        },
        {
          "indexed": true,
          "internalType": "address",
          "name": "approved",
          "type": "address"
        },
        {
          "indexed": true,
          "internalType": "uint256",
          "name": "tokenId",
          "type": "uint256"
        }
      ],
      "name": "Approval",
      "type": "event"
    },
    {
      "anonymous": false,
      "inputs": [
        {
          "indexed": true,
          "internalType": "address",
          "name": "owner",
          "type": "address"
        },
        {
          "indexed": true,
          "internalType": "address",
          "name": "operator",
          "type": "address"
        },
        {
          "indexed": false,
          "internalType": "bool",
          "name": "approved",
          "type": "bool"
        }
      ],
      "name": "ApprovalForAll",
      "type": "event"
    },
    {
      "anonymous": false,
      "inputs": [
        {
          "indexed": true,
          "internalType": "address",
          "name": "owner",
          "type": "address"
        },
        {
          "indexed": true,
          "internalType": "uint256",
          "name": "tokenId",
          "type": "uint256"
        }
      ],
      "name": "NFTLocked",
      "type": "event"
    },
    {
      "anonymous": false,
      "inputs": [
        {
          "indexed": true,
          "internalType": "address",
          "name": "owner",
          "type": "address"
        },
        {
          "indexed": true,
          "internalType": "uint256",
          "name": "tokenId",
          "type": "uint256"
        },
        {
          "indexed": false,
          "internalType": "address",
          "name": "destinationAddress",
          "type": "address"
        }
      ],
      "name": "NFTTransferred",
      "type": "event"
    },
    {
      "anonymous": false,
      "inputs": [
        {
          "indexed": true,
          "internalType": "address",
          "name": "owner",
          "type": "address"
        },
        {
          "indexed": true,
          "internalType": "uint256",
          "name": "tokenId",
          "type": "uint256"
        }
      ],
      "name": "NFTUnlocked",
      "type": "event"
    },
    {
      "anonymous": false,
      "inputs": [
        {
          "indexed": true,
          "internalType": "address",
          "name": "previousOwner",
          "type": "address"
        },
        {
          "indexed": true,
          "internalType": "address",
          "name": "newOwner",
          "type": "address"
        }
      ],
      "name": "OwnershipTransferred",
      "type": "event"
    },
    {
      "anonymous": false,
      "inputs": [
        {
          "indexed": true,
          "internalType": "address",
          "name": "from",
          "type": "address"
        },
        {
          "indexed": true,
          "internalType": "address",
          "name": "to",
          "type": "address"
        },
        {
          "indexed": true,
          "internalType": "uint256",
          "name": "tokenId",
          "type": "uint256"
        }
      ],
      "name": "Transfer",
      "type": "event"
    },
    {
      "inputs": [
        {
          "internalType": "uint256",
          "name": "",
          "type": "uint256"
        }
      ],
      "name": "ackPackets",
      "outputs": [
        {
          "internalType": "bool",
          "name": "success",
          "type": "bool"
        },
        {
          "internalType": "bytes",
          "name": "data",
          "type": "bytes"
        }
      ],
      "stateMutability": "view",
      "type": "function"
    },
    {
      "inputs": [
        {
          "internalType": "address",
          "name": "to",
          "type": "address"
        },
        {
          "internalType": "uint256",
          "name": "tokenId",
          "type": "uint256"
        }
      ],
      "name": "approve",
      "outputs": [],
      "stateMutability": "nonpayable",
      "type": "function"
    },
    {
      "inputs": [
        {
          "internalType": "address",
          "name": "owner",
          "type": "address"
        }
      ],
      "name": "balanceOf",
      "outputs": [
        {
          "internalType": "uint256",
          "name": "",
          "type": "uint256"
        }
      ],
      "stateMutability": "view",
      "type": "function"
    },
    {
      "inputs": [
        {
          "internalType": "uint256",
          "name": "",
          "type": "uint256"
        }
      ],
      "name": "connectedChannels",
      "outputs": [
        {
          "internalType": "bytes32",
          "name": "",
          "type": "bytes32"
        }
      ],
      "stateMutability": "view",
      "type": "function"
    },
    {
      "inputs": [
        {
          "internalType": "bool",
          "name": "feeEnabled",
          "type": "bool"
        },
        {
          "internalType": "string[]",
          "name": "connectionHops",
          "type": "string[]"
        },
        {
          "components": [
            {
              "internalType": "string",
              "name": "portId",
              "type": "string"
            },
            {
              "internalType": "bytes32",
              "name": "channelId",
              "type": "bytes32"
            },
            {
              "internalType": "string",
              "name": "version",
              "type": "string"
            }
          ],
          "internalType": "struct CounterParty",
          "name": "counterparty",
          "type": "tuple"
        },
        {
          "components": [
            {
              "components": [
                {
                  "internalType": "uint64",
                  "name": "revision_number",
                  "type": "uint64"
                },
                {
                  "internalType": "uint64",
                  "name": "revision_height",
                  "type": "uint64"
                }
              ],
              "internalType": "struct Height",
              "name": "proofHeight",
              "type": "tuple"
            },
            {
              "internalType": "bytes",
              "name": "proof",
              "type": "bytes"
            }
          ],
          "internalType": "struct Proof",
          "name": "proof",
          "type": "tuple"
        }
      ],
      "name": "createChannel",
      "outputs": [],
      "stateMutability": "nonpayable",
      "type": "function"
    },
    {
      "inputs": [
        {
          "internalType": "uint256",
          "name": "tokenId",
          "type": "uint256"
        }
      ],
      "name": "getApproved",
      "outputs": [
        {
          "internalType": "address",
          "name": "",
          "type": "address"
        }
      ],
      "stateMutability": "view",
      "type": "function"
    },
    {
      "inputs": [
        {
          "internalType": "uint256",
          "name": "tokenId",
          "type": "uint256"
        }
      ],
      "name": "getClassId",
      "outputs": [
        {
          "internalType": "string",
          "name": "",
          "type": "string"
        }
      ],
      "stateMutability": "view",
      "type": "function"
    },
    {
      "inputs": [
        {
          "internalType": "uint256",
          "name": "tokenId",
          "type": "uint256"
        },
        {
          "internalType": "address",
          "name": "destinationAddress",
          "type": "address"
        },
        {
          "internalType": "string",
          "name": "memo",
          "type": "string"
        },
        {
          "components": [
            {
              "internalType": "uint256",
              "name": "recvFee",
              "type": "uint256"
            },
            {
              "internalType": "uint256",
              "name": "ackFee",
              "type": "uint256"
            },
            {
              "internalType": "uint256",
              "name": "timeoutFee",
              "type": "uint256"
            }
          ],
          "internalType": "struct PacketFee",
          "name": "fee",
          "type": "tuple"
        }
      ],
      "name": "initiateNFTTransfer",
      "outputs": [],
      "stateMutability": "nonpayable",
      "type": "function"
    },
    {
      "inputs": [
        {
          "internalType": "address",
          "name": "owner",
          "type": "address"
        },
        {
          "internalType": "address",
          "name": "operator",
          "type": "address"
        }
      ],
      "name": "isApprovedForAll",
      "outputs": [
        {
          "internalType": "bool",
          "name": "",
          "type": "bool"
        }
      ],
      "stateMutability": "view",
      "type": "function"
    },
    {
      "inputs": [
        {
          "internalType": "address",
          "name": "recipient",
          "type": "address"
        }
      ],
      "name": "mintNFT",
      "outputs": [
        {
          "internalType": "uint256",
          "name": "",
          "type": "uint256"
        }
      ],
      "stateMutability": "nonpayable",
      "type": "function"
    },
    {
      "inputs": [],
      "name": "name",
      "outputs": [
        {
          "internalType": "string",
          "name": "",
          "type": "string"
        }
      ],
      "stateMutability": "view",
      "type": "function"
    },
    {
      "inputs": [
        {
          "components": [
            {
              "components": [
                {
                  "internalType": "string",
                  "name": "portId",
                  "type": "string"
                },
                {
                  "internalType": "bytes32",
                  "name": "channelId",
                  "type": "bytes32"
                }
              ],
              "internalType": "struct IbcEndpoint",
              "name": "src",
              "type": "tuple"
            },
            {
              "components": [
                {
                  "internalType": "string",
                  "name": "portId",
                  "type": "string"
                },
                {
                  "internalType": "bytes32",
                  "name": "channelId",
                  "type": "bytes32"
                }
              ],
              "internalType": "struct IbcEndpoint",
              "name": "dest",
              "type": "tuple"
            },
            {
              "internalType": "uint64",
              "name": "sequence",
              "type": "uint64"
            },
            {
              "internalType": "bytes",
              "name": "data",
              "type": "bytes"
            },
            {
              "components": [
                {
                  "internalType": "uint64",
                  "name": "revision_number",
                  "type": "uint64"
                },
                {
                  "internalType": "uint64",
                  "name": "revision_height",
                  "type": "uint64"
                }
              ],
              "internalType": "struct Height",
              "name": "timeoutHeight",
              "type": "tuple"
            },
            {
              "internalType": "uint64",
              "name": "timeoutTimestamp",
              "type": "uint64"
            }
          ],
          "internalType": "struct IbcPacket",
          "name": "packet",
          "type": "tuple"
        },
        {
          "components": [
            {
              "internalType": "bool",
              "name": "success",
              "type": "bool"
            },
            {
              "internalType": "bytes",
              "name": "data",
              "type": "bytes"
            }
          ],
          "internalType": "struct AckPacket",
          "name": "ack",
          "type": "tuple"
        }
      ],
      "name": "onAcknowledgementPacket",
      "outputs": [],
      "stateMutability": "nonpayable",
      "type": "function"
    },
    {
      "inputs": [
        {
          "internalType": "bytes32",
          "name": "channelId",
          "type": "bytes32"
        },
        {
          "internalType": "string",
          "name": "counterpartyPortId",
          "type": "string"
        },
        {
          "internalType": "bytes32",
          "name": "counterpartyChannelId",
          "type": "bytes32"
        }
      ],
      "name": "onCloseIbcChannel",
      "outputs": [],
      "stateMutability": "nonpayable",
      "type": "function"
    },
    {
      "inputs": [
        {
          "internalType": "bytes32",
          "name": "channelId",
          "type": "bytes32"
        },
        {
          "internalType": "bytes32",
          "name": "counterpartyChannelId",
          "type": "bytes32"
        },
        {
          "internalType": "string",
          "name": "counterpartyVersion",
          "type": "string"
        }
      ],
      "name": "onConnectIbcChannel",
      "outputs": [],
      "stateMutability": "nonpayable",
      "type": "function"
    },
    {
      "inputs": [
        {
          "internalType": "string",
          "name": "version",
          "type": "string"
        },
        {
          "internalType": "enum ChannelOrder",
          "name": "ordering",
          "type": "uint8"
        },
        {
          "internalType": "bool",
          "name": "feeEnabled",
          "type": "bool"
        },
        {
          "internalType": "string[]",
          "name": "connectionHops",
          "type": "string[]"
        },
        {
          "internalType": "string",
          "name": "counterpartyPortId",
          "type": "string"
        },
        {
          "internalType": "bytes32",
          "name": "counterpartyChannelId",
          "type": "bytes32"
        },
        {
          "internalType": "string",
          "name": "counterpartyVersion",
          "type": "string"
        }
      ],
      "name": "onOpenIbcChannel",
      "outputs": [
        {
          "internalType": "string",
          "name": "selectedVersion",
          "type": "string"
        }
      ],
      "stateMutability": "nonpayable",
      "type": "function"
    },
    {
      "inputs": [
        {
          "components": [
            {
              "components": [
                {
                  "internalType": "string",
                  "name": "portId",
                  "type": "string"
                },
                {
                  "internalType": "bytes32",
                  "name": "channelId",
                  "type": "bytes32"
                }
              ],
              "internalType": "struct IbcEndpoint",
              "name": "src",
              "type": "tuple"
            },
            {
              "components": [
                {
                  "internalType": "string",
                  "name": "portId",
                  "type": "string"
                },
                {
                  "internalType": "bytes32",
                  "name": "channelId",
                  "type": "bytes32"
                }
              ],
              "internalType": "struct IbcEndpoint",
              "name": "dest",
              "type": "tuple"
            },
            {
              "internalType": "uint64",
              "name": "sequence",
              "type": "uint64"
            },
            {
              "internalType": "bytes",
              "name": "data",
              "type": "bytes"
            },
            {
              "components": [
                {
                  "internalType": "uint64",
                  "name": "revision_number",
                  "type": "uint64"
                },
                {
                  "internalType": "uint64",
                  "name": "revision_height",
                  "type": "uint64"
                }
              ],
              "internalType": "struct Height",
              "name": "timeoutHeight",
              "type": "tuple"
            },
            {
              "internalType": "uint64",
              "name": "timeoutTimestamp",
              "type": "uint64"
            }
          ],
          "internalType": "struct IbcPacket",
          "name": "packet",
          "type": "tuple"
        }
      ],
      "name": "onRecvPacket",
      "outputs": [
        {
          "components": [
            {
              "internalType": "bool",
              "name": "success",
              "type": "bool"
            },
            {
              "internalType": "bytes",
              "name": "data",
              "type": "bytes"
            }
          ],
          "internalType": "struct AckPacket",
          "name": "ackPacket",
          "type": "tuple"
        }
      ],
      "stateMutability": "nonpayable",
      "type": "function"
    },
    {
      "inputs": [
        {
          "components": [
            {
              "components": [
                {
                  "internalType": "string",
                  "name": "portId",
                  "type": "string"
                },
                {
                  "internalType": "bytes32",
                  "name": "channelId",
                  "type": "bytes32"
                }
              ],
              "internalType": "struct IbcEndpoint",
              "name": "src",
              "type": "tuple"
            },
            {
              "components": [
                {
                  "internalType": "string",
                  "name": "portId",
                  "type": "string"
                },
                {
                  "internalType": "bytes32",
                  "name": "channelId",
                  "type": "bytes32"
                }
              ],
              "internalType": "struct IbcEndpoint",
              "name": "dest",
              "type": "tuple"
            },
            {
              "internalType": "uint64",
              "name": "sequence",
              "type": "uint64"
            },
            {
              "internalType": "bytes",
              "name": "data",
              "type": "bytes"
            },
            {
              "components": [
                {
                  "internalType": "uint64",
                  "name": "revision_number",
                  "type": "uint64"
                },
                {
                  "internalType": "uint64",
                  "name": "revision_height",
                  "type": "uint64"
                }
              ],
              "internalType": "struct Height",
              "name": "timeoutHeight",
              "type": "tuple"
            },
            {
              "internalType": "uint64",
              "name": "timeoutTimestamp",
              "type": "uint64"
            }
          ],
          "internalType": "struct IbcPacket",
          "name": "packet",
          "type": "tuple"
        }
      ],
      "name": "onTimeoutPacket",
      "outputs": [],
      "stateMutability": "nonpayable",
      "type": "function"
    },
    {
      "inputs": [],
      "name": "owner",
      "outputs": [
        {
          "internalType": "address",
          "name": "",
          "type": "address"
        }
      ],
      "stateMutability": "view",
      "type": "function"
    },
    {
      "inputs": [
        {
          "internalType": "uint256",
          "name": "tokenId",
          "type": "uint256"
        }
      ],
      "name": "ownerOf",
      "outputs": [
        {
          "internalType": "address",
          "name": "",
          "type": "address"
        }
      ],
      "stateMutability": "view",
      "type": "function"
    },
    {
      "inputs": [
        {
          "internalType": "uint256",
          "name": "",
          "type": "uint256"
        }
      ],
      "name": "recvedPackets",
      "outputs": [
        {
          "components": [
            {
              "internalType": "string",
              "name": "portId",
              "type": "string"
            },
            {
              "internalType": "bytes32",
              "name": "channelId",
              "type": "bytes32"
            }
          ],
          "internalType": "struct IbcEndpoint",
          "name": "src",
          "type": "tuple"
        },
        {
          "components": [
            {
              "internalType": "string",
              "name": "portId",
              "type": "string"
            },
            {
              "internalType": "bytes32",
              "name": "channelId",
              "type": "bytes32"
            }
          ],
          "internalType": "struct IbcEndpoint",
          "name": "dest",
          "type": "tuple"
        },
        {
          "internalType": "uint64",
          "name": "sequence",
          "type": "uint64"
        },
        {
          "internalType": "bytes",
          "name": "data",
          "type": "bytes"
        },
        {
          "components": [
            {
              "internalType": "uint64",
              "name": "revision_number",
              "type": "uint64"
            },
            {
              "internalType": "uint64",
              "name": "revision_height",
              "type": "uint64"
            }
          ],
          "internalType": "struct Height",
          "name": "timeoutHeight",
          "type": "tuple"
        },
        {
          "internalType": "uint64",
          "name": "timeoutTimestamp",
          "type": "uint64"
        }
      ],
      "stateMutability": "view",
      "type": "function"
    },
    {
      "inputs": [],
      "name": "renounceOwnership",
      "outputs": [],
      "stateMutability": "nonpayable",
      "type": "function"
    },
    {
      "inputs": [
        {
          "internalType": "address",
          "name": "from",
          "type": "address"
        },
        {
          "internalType": "address",
          "name": "to",
          "type": "address"
        },
        {
          "internalType": "uint256",
          "name": "tokenId",
          "type": "uint256"
        }
      ],
      "name": "safeTransferFrom",
      "outputs": [],
      "stateMutability": "nonpayable",
      "type": "function"
    },
    {
      "inputs": [
        {
          "internalType": "address",
          "name": "from",
          "type": "address"
        },
        {
          "internalType": "address",
          "name": "to",
          "type": "address"
        },
        {
          "internalType": "uint256",
          "name": "tokenId",
          "type": "uint256"
        },
        {
          "internalType": "bytes",
          "name": "data",
          "type": "bytes"
        }
      ],
      "name": "safeTransferFrom",
      "outputs": [],
      "stateMutability": "nonpayable",
      "type": "function"
    },
    {
      "inputs": [
        {
          "internalType": "address",
          "name": "operator",
          "type": "address"
        },
        {
          "internalType": "bool",
          "name": "approved",
          "type": "bool"
        }
      ],
      "name": "setApprovalForAll",
      "outputs": [],
      "stateMutability": "nonpayable",
      "type": "function"
    },
    {
      "inputs": [
        {
          "internalType": "uint256",
          "name": "",
          "type": "uint256"
        }
      ],
      "name": "supportedVersions",
      "outputs": [
        {
          "internalType": "string",
          "name": "",
          "type": "string"
        }
      ],
      "stateMutability": "view",
      "type": "function"
    },
    {
      "inputs": [
        {
          "internalType": "bytes4",
          "name": "interfaceId",
          "type": "bytes4"
        }
      ],
      "name": "supportsInterface",
      "outputs": [
        {
          "internalType": "bool",
          "name": "",
          "type": "bool"
        }
      ],
      "stateMutability": "view",
      "type": "function"
    },
    {
      "inputs": [],
      "name": "symbol",
      "outputs": [
        {
          "internalType": "string",
          "name": "",
          "type": "string"
        }
      ],
      "stateMutability": "view",
      "type": "function"
    },
    {
      "inputs": [
        {
          "internalType": "uint256",
          "name": "",
          "type": "uint256"
        }
      ],
      "name": "timeoutPackets",
      "outputs": [
        {
          "components": [
            {
              "internalType": "string",
              "name": "portId",
              "type": "string"
            },
            {
              "internalType": "bytes32",
              "name": "channelId",
              "type": "bytes32"
            }
          ],
          "internalType": "struct IbcEndpoint",
          "name": "src",
          "type": "tuple"
        },
        {
          "components": [
            {
              "internalType": "string",
              "name": "portId",
              "type": "string"
            },
            {
              "internalType": "bytes32",
              "name": "channelId",
              "type": "bytes32"
            }
          ],
          "internalType": "struct IbcEndpoint",
          "name": "dest",
          "type": "tuple"
        },
        {
          "internalType": "uint64",
          "name": "sequence",
          "type": "uint64"
        },
        {
          "internalType": "bytes",
          "name": "data",
          "type": "bytes"
        },
        {
          "components": [
            {
              "internalType": "uint64",
              "name": "revision_number",
              "type": "uint64"
            },
            {
              "internalType": "uint64",
              "name": "revision_height",
              "type": "uint64"
            }
          ],
          "internalType": "struct Height",
          "name": "timeoutHeight",
          "type": "tuple"
        },
        {
          "internalType": "uint64",
          "name": "timeoutTimestamp",
          "type": "uint64"
        }
      ],
      "stateMutability": "view",
      "type": "function"
    },
    {
      "inputs": [
        {
          "internalType": "uint256",
          "name": "tokenId",
          "type": "uint256"
        }
      ],
      "name": "tokenURI",
      "outputs": [
        {
          "internalType": "string",
          "name": "",
          "type": "string"
        }
      ],
      "stateMutability": "view",
      "type": "function"
    },
    {
      "inputs": [
        {
          "internalType": "address",
          "name": "from",
          "type": "address"
        },
        {
          "internalType": "address",
          "name": "to",
          "type": "address"
        },
        {
          "internalType": "uint256",
          "name": "tokenId",
          "type": "uint256"
        }
      ],
      "name": "transferFrom",
      "outputs": [],
      "stateMutability": "nonpayable",
      "type": "function"
    },
    {
      "inputs": [
        {
          "internalType": "address",
          "name": "newOwner",
          "type": "address"
        }
      ],
      "name": "transferOwnership",
      "outputs": [],
      "stateMutability": "nonpayable",
      "type": "function"
    },
    {
      "inputs": [],
      "name": "vibcDispatcher",
      "outputs": [
        {
          "internalType": "contract IbcDispatcher",
          "name": "",
          "type": "address"
        }
      ],
      "stateMutability": "view",
      "type": "function"
    }
  ],
  "bytecode": "0x60806040523480156200001157600080fd5b506040516200772938038062007729833981810160405281019062000037919062000969565b8181620000596200004d6200009960201b60201c565b620000a160201b60201c565b81600190816200006a919062000c39565b5080600290816200007c919062000c39565b50505062000090336200016560201b60201c565b505050620010b5565b600033905090565b60008060009054906101000a900473ffffffffffffffffffffffffffffffffffffffff169050816000806101000a81548173ffffffffffffffffffffffffffffffffffffffff021916908373ffffffffffffffffffffffffffffffffffffffff1602179055508173ffffffffffffffffffffffffffffffffffffffff168173ffffffffffffffffffffffffffffffffffffffff167f8be0079c531659141344cd1fd0a4f28419497f9722a3daafe3b4186f6b6457e060405160405180910390a35050565b600062000177620001c560201b60201c565b6200018960076200025660201b60201c565b620001ac82620001a060076200026c60201b60201c565b6200027a60201b60201c565b620001be60076200026c60201b60201c565b9050919050565b620001d56200009960201b60201c565b73ffffffffffffffffffffffffffffffffffffffff16620001fb620002a060201b60201c565b73ffffffffffffffffffffffffffffffffffffffff161462000254576040517f08c379a00000000000000000000000000000000000000000000000000000000081526004016200024b9062000d81565b60405180910390fd5b565b6001816000016000828254019250508190555050565b600081600001549050919050565b6200029c828260405180602001604052806000815250620002c960201b60201c565b5050565b60008060009054906101000a900473ffffffffffffffffffffffffffffffffffffffff16905090565b620002db83836200033760201b60201c565b620002f060008484846200057d60201b60201c565b62000332576040517f08c379a0000000000000000000000000000000000000000000000000000000008152600401620003299062000e19565b60405180910390fd5b505050565b600073ffffffffffffffffffffffffffffffffffffffff168273ffffffffffffffffffffffffffffffffffffffff1603620003a9576040517f08c379a0000000000000000000000000000000000000000000000000000000008152600401620003a09062000e8b565b60405180910390fd5b620003ba816200072160201b60201c565b15620003fd576040517f08c379a0000000000000000000000000000000000000000000000000000000008152600401620003f49062000efd565b60405180910390fd5b620004136000838360016200076a60201b60201c565b62000424816200072160201b60201c565b1562000467576040517f08c379a00000000000000000000000000000000000000000000000000000000081526004016200045e9062000efd565b60405180910390fd5b6001600460008473ffffffffffffffffffffffffffffffffffffffff1673ffffffffffffffffffffffffffffffffffffffff16815260200190815260200160002060008282540192505081905550816003600083815260200190815260200160002060006101000a81548173ffffffffffffffffffffffffffffffffffffffff021916908373ffffffffffffffffffffffffffffffffffffffff160217905550808273ffffffffffffffffffffffffffffffffffffffff16600073ffffffffffffffffffffffffffffffffffffffff167fddf252ad1be2c89b69c2b068fc378daa952ba7f163c4a11628f55a4df523b3ef60405160405180910390a4620005796000838360016200077060201b60201c565b5050565b6000620005a68473ffffffffffffffffffffffffffffffffffffffff166200077660201b60201c565b1562000714578373ffffffffffffffffffffffffffffffffffffffff1663150b7a02620005d86200009960201b60201c565b8786866040518563ffffffff1660e01b8152600401620005fc949392919062000fd2565b6020604051808303816000875af19250505080156200063b57506040513d601f19601f8201168201806040525081019062000638919062001083565b60015b620006c3573d80600081146200066e576040519150601f19603f3d011682016040523d82523d6000602084013e62000673565b606091505b506000815103620006bb576040517f08c379a0000000000000000000000000000000000000000000000000000000008152600401620006b29062000e19565b60405180910390fd5b805181602001fd5b63150b7a0260e01b7bffffffffffffffffffffffffffffffffffffffffffffffffffffffff1916817bffffffffffffffffffffffffffffffffffffffffffffffffffffffff19161491505062000719565b600190505b949350505050565b60008073ffffffffffffffffffffffffffffffffffffffff166200074b836200079960201b60201c565b73ffffffffffffffffffffffffffffffffffffffff1614159050919050565b50505050565b50505050565b6000808273ffffffffffffffffffffffffffffffffffffffff163b119050919050565b60006003600083815260200190815260200160002060009054906101000a900473ffffffffffffffffffffffffffffffffffffffff169050919050565b6000604051905090565b600080fd5b600080fd5b600080fd5b600080fd5b6000601f19601f8301169050919050565b7f4e487b7100000000000000000000000000000000000000000000000000000000600052604160045260246000fd5b6200083f82620007f4565b810181811067ffffffffffffffff8211171562000861576200086062000805565b5b80604052505050565b600062000876620007d6565b905062000884828262000834565b919050565b600067ffffffffffffffff821115620008a757620008a662000805565b5b620008b282620007f4565b9050602081019050919050565b60005b83811015620008df578082015181840152602081019050620008c2565b60008484015250505050565b600062000902620008fc8462000889565b6200086a565b905082815260208101848484011115620009215762000920620007ef565b5b6200092e848285620008bf565b509392505050565b600082601f8301126200094e576200094d620007ea565b5b815162000960848260208601620008eb565b91505092915050565b60008060408385031215620009835762000982620007e0565b5b600083015167ffffffffffffffff811115620009a457620009a3620007e5565b5b620009b28582860162000936565b925050602083015167ffffffffffffffff811115620009d657620009d5620007e5565b5b620009e48582860162000936565b9150509250929050565b600081519050919050565b7f4e487b7100000000000000000000000000000000000000000000000000000000600052602260045260246000fd5b6000600282049050600182168062000a4157607f821691505b60208210810362000a575762000a56620009f9565b5b50919050565b60008190508160005260206000209050919050565b60006020601f8301049050919050565b600082821b905092915050565b60006008830262000ac17fffffffffffffffffffffffffffffffffffffffffffffffffffffffffffffffff8262000a82565b62000acd868362000a82565b95508019841693508086168417925050509392505050565b6000819050919050565b6000819050919050565b600062000b1a62000b1462000b0e8462000ae5565b62000aef565b62000ae5565b9050919050565b6000819050919050565b62000b368362000af9565b62000b4e62000b458262000b21565b84845462000a8f565b825550505050565b600090565b62000b6562000b56565b62000b7281848462000b2b565b505050565b5b8181101562000b9a5762000b8e60008262000b5b565b60018101905062000b78565b5050565b601f82111562000be95762000bb38162000a5d565b62000bbe8462000a72565b8101602085101562000bce578190505b62000be662000bdd8562000a72565b83018262000b77565b50505b505050565b600082821c905092915050565b600062000c0e6000198460080262000bee565b1980831691505092915050565b600062000c29838362000bfb565b9150826002028217905092915050565b62000c4482620009ee565b67ffffffffffffffff81111562000c605762000c5f62000805565b5b62000c6c825462000a28565b62000c7982828562000b9e565b600060209050601f83116001811462000cb1576000841562000c9c578287015190505b62000ca8858262000c1b565b86555062000d18565b601f19841662000cc18662000a5d565b60005b8281101562000ceb5784890151825560018201915060208501945060208101905062000cc4565b8683101562000d0b578489015162000d07601f89168262000bfb565b8355505b6001600288020188555050505b505050505050565b600082825260208201905092915050565b7f4f776e61626c653a2063616c6c6572206973206e6f7420746865206f776e6572600082015250565b600062000d6960208362000d20565b915062000d768262000d31565b602082019050919050565b6000602082019050818103600083015262000d9c8162000d5a565b9050919050565b7f4552433732313a207472616e7366657220746f206e6f6e20455243373231526560008201527f63656976657220696d706c656d656e7465720000000000000000000000000000602082015250565b600062000e0160328362000d20565b915062000e0e8262000da3565b604082019050919050565b6000602082019050818103600083015262000e348162000df2565b9050919050565b7f4552433732313a206d696e7420746f20746865207a65726f2061646472657373600082015250565b600062000e7360208362000d20565b915062000e808262000e3b565b602082019050919050565b6000602082019050818103600083015262000ea68162000e64565b9050919050565b7f4552433732313a20746f6b656e20616c7265616479206d696e74656400000000600082015250565b600062000ee5601c8362000d20565b915062000ef28262000ead565b602082019050919050565b6000602082019050818103600083015262000f188162000ed6565b9050919050565b600073ffffffffffffffffffffffffffffffffffffffff82169050919050565b600062000f4c8262000f1f565b9050919050565b62000f5e8162000f3f565b82525050565b62000f6f8162000ae5565b82525050565b600081519050919050565b600082825260208201905092915050565b600062000f9e8262000f75565b62000faa818562000f80565b935062000fbc818560208601620008bf565b62000fc781620007f4565b840191505092915050565b600060808201905062000fe9600083018762000f53565b62000ff8602083018662000f53565b62001007604083018562000f64565b81810360608301526200101b818462000f91565b905095945050505050565b60007fffffffff0000000000000000000000000000000000000000000000000000000082169050919050565b6200105d8162001026565b81146200106957600080fd5b50565b6000815190506200107d8162001052565b92915050565b6000602082840312156200109c576200109b620007e0565b5b6000620010ac848285016200106c565b91505092915050565b61666480620010c56000396000f3fe608060405234801561001057600080fd5b50600436106101f05760003560e01c80637476c43a1161010f578063b88d4fde116100a2578063da96e10c11610071578063da96e10c14610603578063e985e9c514610621578063f12b758a14610651578063f2fde38b14610686576101f0565b8063b88d4fde14610557578063bb3f9f8d14610573578063c87b56dd146105a3578063d39b59c8146105d3576101f0565b80638da5cb5b116100de5780638da5cb5b146104e357806395d89b4114610501578063a22cb4651461051f578063a6c50b4d1461053b576101f0565b80637476c43a1461044b5780637d622184146104675780637e1d42b5146104975780638a8e1730146104b3576101f0565b80634eeb739111610187578063602f983411610156578063602f9834146103c55780636352211e146103e157806370a0823114610411578063715018a614610441576101f0565b80634eeb73911461032857806354ba0f271461035d57806359565fdb1461038d5780635fe39e0d146103a9576101f0565b806323b872dd116101c357806323b872dd1461028f5780634252ae9b146102ab57806342842e0e146102dc5780634dcc0aa6146102f8576101f0565b806301ffc9a7146101f557806306fdde0314610225578063081812fc14610243578063095ea7b314610273575b600080fd5b61020f600480360381019061020a91906134e1565b6106a2565b60405161021c9190613529565b60405180910390f35b61022d610784565b60405161023a91906135d4565b60405180910390f35b61025d6004803603810190610258919061362c565b610816565b60405161026a919061369a565b60405180910390f35b61028d600480360381019061028891906136e1565b61085c565b005b6102a960048036038101906102a49190613721565b610973565b005b6102c560048036038101906102c0919061362c565b6109d3565b6040516102d39291906137c9565b60405180910390f35b6102f660048036038101906102f19190613721565b610a9c565b005b610312600480360381019061030d919061381d565b610abc565b60405161031f91906138fc565b60405180910390f35b610342600480360381019061033d919061362c565b610bf9565b60405161035496959493929190613a1f565b60405180910390f35b61037760048036038101906103729190613a95565b610eaf565b6040516103849190613ad1565b60405180910390f35b6103a760048036038101906103a29190613bbb565b610ee7565b005b6103c360048036038101906103be9190613cfd565b610fa8565b005b6103df60048036038101906103da919061381d565b611064565b005b6103fb60048036038101906103f6919061362c565b6110a1565b604051610408919061369a565b60405180910390f35b61042b60048036038101906104269190613a95565b611127565b6040516104389190613ad1565b60405180910390f35b6104496111de565b005b61046560048036038101906104609190613ec0565b6111f2565b005b610481600480360381019061047c919061362c565b6112d3565b60405161048e91906135d4565b60405180910390f35b6104b160048036038101906104ac9190613f62565b61137f565b005b6104cd60048036038101906104c8919061362c565b6113bd565b6040516104da91906135d4565b60405180910390f35b6104eb611423565b6040516104f8919061369a565b60405180910390f35b61050961144c565b60405161051691906135d4565b60405180910390f35b61053960048036038101906105349190613fda565b6114de565b005b6105556004803603810190610550919061401a565b6114f4565b005b610571600480360381019061056c919061412f565b611604565b005b61058d6004803603810190610588919061362c565b611666565b60405161059a91906141c1565b60405180910390f35b6105bd60048036038101906105b8919061362c565b61168a565b6040516105ca91906135d4565b60405180910390f35b6105ed60048036038101906105e89190614201565b6116f4565b6040516105fa91906135d4565b60405180910390f35b61060b6118c4565b6040516106189190614384565b60405180910390f35b61063b6004803603810190610636919061439f565b6118ea565b6040516106489190613529565b60405180910390f35b61066b6004803603810190610666919061362c565b61197e565b60405161067d96959493929190613a1f565b60405180910390f35b6106a0600480360381019061069b9190613a95565b611c34565b005b60007f80ac58cd000000000000000000000000000000000000000000000000000000007bffffffffffffffffffffffffffffffffffffffffffffffffffffffff1916827bffffffffffffffffffffffffffffffffffffffffffffffffffffffff1916148061076d57507f5b5e139f000000000000000000000000000000000000000000000000000000007bffffffffffffffffffffffffffffffffffffffffffffffffffffffff1916827bffffffffffffffffffffffffffffffffffffffffffffffffffffffff1916145b8061077d575061077c82611cb7565b5b9050919050565b6060600180546107939061440e565b80601f01602080910402602001604051908101604052809291908181526020018280546107bf9061440e565b801561080c5780601f106107e15761010080835404028352916020019161080c565b820191906000526020600020905b8154815290600101906020018083116107ef57829003601f168201915b5050505050905090565b600061082182611d21565b6005600083815260200190815260200160002060009054906101000a900473ffffffffffffffffffffffffffffffffffffffff169050919050565b6000610867826110a1565b90508073ffffffffffffffffffffffffffffffffffffffff168373ffffffffffffffffffffffffffffffffffffffff16036108d7576040517f08c379a00000000000000000000000000000000000000000000000000000000081526004016108ce906144b1565b60405180910390fd5b8073ffffffffffffffffffffffffffffffffffffffff166108f6611d6c565b73ffffffffffffffffffffffffffffffffffffffff16148061092557506109248161091f611d6c565b6118ea565b5b610964576040517f08c379a000000000000000000000000000000000000000000000000000000000815260040161095b90614543565b60405180910390fd5b61096e8383611d74565b505050565b61098461097e611d6c565b82611e2d565b6109c3576040517f08c379a00000000000000000000000000000000000000000000000000000000081526004016109ba906145d5565b60405180910390fd5b6109ce838383611ec2565b505050565b600981815481106109e357600080fd5b90600052602060002090600202016000915090508060000160009054906101000a900460ff1690806001018054610a199061440e565b80601f0160208091040260200160405190810160405280929190818152602001828054610a459061440e565b8015610a925780601f10610a6757610100808354040283529160200191610a92565b820191906000526020600020905b815481529060010190602001808311610a7557829003601f168201915b5050505050905082565b610ab783838360405180602001604052806000815250611604565b505050565b610ac4613459565b600b8290806001815401808255809150506001900390600052602060002090600802016000909190919091508181610afc9190614de9565b50506000828060600190610b109190614acf565b810190610b1d9190615086565b90506000610b498260600151600081518110610b3c57610b3b6150cf565b5b60200260200101516121bb565b90506008600082815260200190815260200160002060009054906101000a900460ff1615610b7f57610b7a81612315565b610b8e565b610b8c8260e00151610eaf565b505b60008260e001518360600151600081518110610bad57610bac6150cf565b5b6020026020010151604051602001610bc69291906150fe565b60405160208183030381529060405290506040518060400160405280600115158152602001828152509350505050919050565b600a8181548110610c0957600080fd5b906000526020600020906008020160009150905080600001604051806040016040529081600082018054610c3c9061440e565b80601f0160208091040260200160405190810160405280929190818152602001828054610c689061440e565b8015610cb55780601f10610c8a57610100808354040283529160200191610cb5565b820191906000526020600020905b815481529060010190602001808311610c9857829003601f168201915b505050505081526020016001820154815250509080600201604051806040016040529081600082018054610ce89061440e565b80601f0160208091040260200160405190810160405280929190818152602001828054610d149061440e565b8015610d615780601f10610d3657610100808354040283529160200191610d61565b820191906000526020600020905b815481529060010190602001808311610d4457829003601f168201915b50505050508152602001600182015481525050908060040160009054906101000a900467ffffffffffffffff1690806005018054610d9e9061440e565b80601f0160208091040260200160405190810160405280929190818152602001828054610dca9061440e565b8015610e175780601f10610dec57610100808354040283529160200191610e17565b820191906000526020600020905b815481529060010190602001808311610dfa57829003601f168201915b505050505090806006016040518060400160405290816000820160009054906101000a900467ffffffffffffffff1667ffffffffffffffff1667ffffffffffffffff1681526020016000820160089054906101000a900467ffffffffffffffff1667ffffffffffffffff1667ffffffffffffffff1681525050908060070160009054906101000a900467ffffffffffffffff16905086565b6000610eb9612390565b610ec3600761240e565b610ed682610ed16007612424565b612432565b610ee06007612424565b9050919050565b600e60009054906101000a900473ffffffffffffffffffffffffffffffffffffffff1673ffffffffffffffffffffffffffffffffffffffff16637e9077b030600d600081548110610f3b57610f3a6150cf565b5b90600052602060002001600189898989896040518963ffffffff1660e01b8152600401610f6f98979695949392919061557c565b600060405180830381600087803b158015610f8957600080fd5b505af1158015610f9d573d6000803e3d6000fd5b505050505050505050565b6000805b600c8054905081101561101c5785600c8281548110610fce57610fcd6150cf565b5b90600052602060002001540361100957600c8181548110610ff257610ff16150cf565b5b90600052602060002001600090556001915061101c565b808061101490615638565b915050610fac565b508061105d576040517f08c379a0000000000000000000000000000000000000000000000000000000008152600401611054906156cc565b60405180910390fd5b5050505050565b600a819080600181540180825580915050600190039060005260206000209060080201600090919091909150818161109c9190614de9565b505050565b6000806110ad83612450565b9050600073ffffffffffffffffffffffffffffffffffffffff168173ffffffffffffffffffffffffffffffffffffffff160361111e576040517f08c379a000000000000000000000000000000000000000000000000000000000815260040161111590615738565b60405180910390fd5b80915050919050565b60008073ffffffffffffffffffffffffffffffffffffffff168273ffffffffffffffffffffffffffffffffffffffff1603611197576040517f08c379a000000000000000000000000000000000000000000000000000000000815260040161118e906157ca565b60405180910390fd5b600460008373ffffffffffffffffffffffffffffffffffffffff1673ffffffffffffffffffffffffffffffffffffffff168152602001908152602001600020549050919050565b6111e6612390565b6111f0600061248d565b565b3373ffffffffffffffffffffffffffffffffffffffff16611212856110a1565b73ffffffffffffffffffffffffffffffffffffffff1614611268576040517f08c379a000000000000000000000000000000000000000000000000000000000815260040161125f9061585c565b60405180910390fd5b61127184612551565b61127e84338585856125cc565b833373ffffffffffffffffffffffffffffffffffffffff167fb7076e58f35e6669b2f089716c3fe1955d72ff0150ad8a5f90475c77fa43bf99856040516112c5919061369a565b60405180910390a350505050565b600d81815481106112e357600080fd5b9060005260206000200160009150905080546112fe9061440e565b80601f016020809104026020016040519081016040528092919081815260200182805461132a9061440e565b80156113775780601f1061134c57610100808354040283529160200191611377565b820191906000526020600020905b81548152906001019060200180831161135a57829003601f168201915b505050505081565b600981908060018154018082558091505060019003906000526020600020906002020160009091909190915081816113b7919061593a565b50505050565b60606113c88261298d565b611407576040517f08c379a00000000000000000000000000000000000000000000000000000000081526004016113fe906159ba565b60405180910390fd5b6000608083901c905061141b8160206129ce565b915050919050565b60008060009054906101000a900473ffffffffffffffffffffffffffffffffffffffff16905090565b60606002805461145b9061440e565b80601f01602080910402602001604051908101604052809291908181526020018280546114879061440e565b80156114d45780601f106114a9576101008083540402835291602001916114d4565b820191906000526020600020905b8154815290600101906020018083116114b757829003601f168201915b5050505050905090565b6114f06114e9611d6c565b8383612c0a565b5050565b6000805b600d8054905081101561159357600d8181548110611519576115186150cf565b5b906000526020600020016040516020016115339190615a68565b60405160208183030381529060405280519060200120848460405160200161155c929190615aa4565b60405160208183030381529060405280519060200120036115805760019150611593565b808061158b90615638565b9150506114f8565b50806115d4576040517f08c379a00000000000000000000000000000000000000000000000000000000081526004016115cb90615b09565b60405180910390fd5b600c8590806001815401808255809150506001900390600052602060002001600090919091909150555050505050565b61161561160f611d6c565b83611e2d565b611654576040517f08c379a000000000000000000000000000000000000000000000000000000000815260040161164b906145d5565b60405180910390fd5b61166084848484612d76565b50505050565b600c818154811061167657600080fd5b906000526020600020016000915090505481565b60606116958261298d565b6116d4576040517f08c379a00000000000000000000000000000000000000000000000000000000081526004016116cb906159ba565b60405180910390fd5b6040518060800160405280605181526020016165de605191399050919050565b606060088686905011611733576040517f41cd6a4700000000000000000000000000000000000000000000000000000000815260040160405180910390fd5b600060405160200161174490615b4f565b604051602081830303815290604052805190602001208d8d60405160200161176d929190615aa4565b604051602081830303815290604052805190602001201461178f578c8c611792565b83835b8080601f016020809104026020016040519081016040528093929190818152602001838380828437600081840152601f19601f82011690508083019250505050505050915060005b600d8054905081101561187357600d81815481106117fb576117fa6150cf565b5b906000526020600020016040516020016118159190615a68565b604051602081830303815290604052805190602001208360405160200161183c9190615b95565b60405160208183030381529060405280519060200120036118605760019150611873565b808061186b90615638565b9150506117da565b50806118b4576040517f08c379a00000000000000000000000000000000000000000000000000000000081526004016118ab90615b09565b60405180910390fd5b509b9a5050505050505050505050565b600e60009054906101000a900473ffffffffffffffffffffffffffffffffffffffff1681565b6000600660008473ffffffffffffffffffffffffffffffffffffffff1673ffffffffffffffffffffffffffffffffffffffff16815260200190815260200160002060008373ffffffffffffffffffffffffffffffffffffffff1673ffffffffffffffffffffffffffffffffffffffff16815260200190815260200160002060009054906101000a900460ff16905092915050565b600b818154811061198e57600080fd5b9060005260206000209060080201600091509050806000016040518060400160405290816000820180546119c19061440e565b80601f01602080910402602001604051908101604052809291908181526020018280546119ed9061440e565b8015611a3a5780601f10611a0f57610100808354040283529160200191611a3a565b820191906000526020600020905b815481529060010190602001808311611a1d57829003601f168201915b505050505081526020016001820154815250509080600201604051806040016040529081600082018054611a6d9061440e565b80601f0160208091040260200160405190810160405280929190818152602001828054611a999061440e565b8015611ae65780601f10611abb57610100808354040283529160200191611ae6565b820191906000526020600020905b815481529060010190602001808311611ac957829003601f168201915b50505050508152602001600182015481525050908060040160009054906101000a900467ffffffffffffffff1690806005018054611b239061440e565b80601f0160208091040260200160405190810160405280929190818152602001828054611b4f9061440e565b8015611b9c5780601f10611b7157610100808354040283529160200191611b9c565b820191906000526020600020905b815481529060010190602001808311611b7f57829003601f168201915b505050505090806006016040518060400160405290816000820160009054906101000a900467ffffffffffffffff1667ffffffffffffffff1667ffffffffffffffff1681526020016000820160089054906101000a900467ffffffffffffffff1667ffffffffffffffff1667ffffffffffffffff1681525050908060070160009054906101000a900467ffffffffffffffff16905086565b611c3c612390565b600073ffffffffffffffffffffffffffffffffffffffff168173ffffffffffffffffffffffffffffffffffffffff1603611cab576040517f08c379a0000000000000000000000000000000000000000000000000000000008152600401611ca290615c1e565b60405180910390fd5b611cb48161248d565b50565b60007f01ffc9a7000000000000000000000000000000000000000000000000000000007bffffffffffffffffffffffffffffffffffffffffffffffffffffffff1916827bffffffffffffffffffffffffffffffffffffffffffffffffffffffff1916149050919050565b611d2a8161298d565b611d69576040517f08c379a0000000000000000000000000000000000000000000000000000000008152600401611d6090615738565b60405180910390fd5b50565b600033905090565b816005600083815260200190815260200160002060006101000a81548173ffffffffffffffffffffffffffffffffffffffff021916908373ffffffffffffffffffffffffffffffffffffffff160217905550808273ffffffffffffffffffffffffffffffffffffffff16611de7836110a1565b73ffffffffffffffffffffffffffffffffffffffff167f8c5be1e5ebec7d5bd14f71427d1e84f3dd0314c0f7b2291e5b200ac8c7c3b92560405160405180910390a45050565b600080611e39836110a1565b90508073ffffffffffffffffffffffffffffffffffffffff168473ffffffffffffffffffffffffffffffffffffffff161480611e7b5750611e7a81856118ea565b5b80611eb957508373ffffffffffffffffffffffffffffffffffffffff16611ea184610816565b73ffffffffffffffffffffffffffffffffffffffff16145b91505092915050565b8273ffffffffffffffffffffffffffffffffffffffff16611ee2826110a1565b73ffffffffffffffffffffffffffffffffffffffff1614611f38576040517f08c379a0000000000000000000000000000000000000000000000000000000008152600401611f2f90615cb0565b60405180910390fd5b600073ffffffffffffffffffffffffffffffffffffffff168273ffffffffffffffffffffffffffffffffffffffff1603611fa7576040517f08c379a0000000000000000000000000000000000000000000000000000000008152600401611f9e90615d42565b60405180910390fd5b611fb48383836001612dd2565b8273ffffffffffffffffffffffffffffffffffffffff16611fd4826110a1565b73ffffffffffffffffffffffffffffffffffffffff161461202a576040517f08c379a000000000000000000000000000000000000000000000000000000000815260040161202190615cb0565b60405180910390fd5b6005600082815260200190815260200160002060006101000a81549073ffffffffffffffffffffffffffffffffffffffff02191690556001600460008573ffffffffffffffffffffffffffffffffffffffff1673ffffffffffffffffffffffffffffffffffffffff168152602001908152602001600020600082825403925050819055506001600460008473ffffffffffffffffffffffffffffffffffffffff1673ffffffffffffffffffffffffffffffffffffffff16815260200190815260200160002060008282540192505081905550816003600083815260200190815260200160002060006101000a81548173ffffffffffffffffffffffffffffffffffffffff021916908373ffffffffffffffffffffffffffffffffffffffff160217905550808273ffffffffffffffffffffffffffffffffffffffff168473ffffffffffffffffffffffffffffffffffffffff167fddf252ad1be2c89b69c2b068fc378daa952ba7f163c4a11628f55a4df523b3ef60405160405180910390a46121b68383836001612dd8565b505050565b60008060009050600083905060005b815181101561230a57603060f81b8282815181106121eb576121ea6150cf565b5b602001015160f81c60f81b7effffffffffffffffffffffffffffffffffffffffffffffffffffffffffffff1916101580156122695750603960f81b828281518110612239576122386150cf565b5b602001015160f81c60f81b7effffffffffffffffffffffffffffffffffffffffffffffffffffffffffffff191611155b156122bc576030828281518110612283576122826150cf565b5b602001015160f81c60f81b60f81c60ff1661229e9190615d62565b600a846122ab9190615d96565b6122b59190615dd8565b92506122f7565b6040517f08c379a00000000000000000000000000000000000000000000000000000000081526004016122ee90615e7e565b60405180910390fd5b808061230290615638565b9150506121ca565b508192505050919050565b60006008600083815260200190815260200160002060006101000a81548160ff0219169083151502179055508061234b826110a1565b73ffffffffffffffffffffffffffffffffffffffff167ff15274e1fe5043a963d7d1dfdb31b4c69407f0c6f0fc77ddf03f605961cfe28460405160405180910390a350565b612398611d6c565b73ffffffffffffffffffffffffffffffffffffffff166123b6611423565b73ffffffffffffffffffffffffffffffffffffffff161461240c576040517f08c379a000000000000000000000000000000000000000000000000000000000815260040161240390615eea565b60405180910390fd5b565b6001816000016000828254019250508190555050565b600081600001549050919050565b61244c828260405180602001604052806000815250612dde565b5050565b60006003600083815260200190815260200160002060009054906101000a900473ffffffffffffffffffffffffffffffffffffffff169050919050565b60008060009054906101000a900473ffffffffffffffffffffffffffffffffffffffff169050816000806101000a81548173ffffffffffffffffffffffffffffffffffffffff021916908373ffffffffffffffffffffffffffffffffffffffff1602179055508173ffffffffffffffffffffffffffffffffffffffff168173ffffffffffffffffffffffffffffffffffffffff167f8be0079c531659141344cd1fd0a4f28419497f9722a3daafe3b4186f6b6457e060405160405180910390a35050565b60016008600083815260200190815260200160002060006101000a81548160ff02191690831515021790555080612587826110a1565b73ffffffffffffffffffffffffffffffffffffffff167fa9262575db5f22d8b54192efce38602ac59d04bcdbcba1962fc351473de5614660405160405180910390a350565b600115156008600087815260200190815260200160002060009054906101000a900460ff16151514612633576040517f08c379a000000000000000000000000000000000000000000000000000000000815260040161262a90615f56565b60405180910390fd5b600060405180610120016040528061264a886113bd565b81526020016040518060800160405280605181526020016165de605191398152602001604051806020016040528060008152508152602001600167ffffffffffffffff81111561269d5761269c613d76565b5b6040519080825280602002602001820160405280156126d057816020015b60608152602001906001900390816126bb5790505b508152602001600167ffffffffffffffff8111156126f1576126f0613d76565b5b60405190808252806020026020018201604052801561272457816020015b606081526020019060019003908161270f5790505b508152602001600167ffffffffffffffff81111561274557612744613d76565b5b60405190808252806020026020018201604052801561277857816020015b60608152602001906001900390816127635790505b5081526020018673ffffffffffffffffffffffffffffffffffffffff1681526020018573ffffffffffffffffffffffffffffffffffffffff1681526020018481525090506127c586612e39565b81606001516000815181106127dd576127dc6150cf565b5b60200260200101819052506127f18661168a565b8160800151600081518110612809576128086150cf565b5b60200260200101819052506040518060400160405280601481526020017f6164646974696f6e616c206461746120686572650000000000000000000000008152508160a00151600081518110612862576128616150cf565b5b60200260200101819052506000816040516020016128809190616136565b60405160208183030381529060405290506000633b9aca00618ca0426128a69190615dd8565b6128b09190615d96565b90506000600c6000815481106128c9576128c86150cf565b5b90600052602060002001549050600e60009054906101000a900473ffffffffffffffffffffffffffffffffffffffff1673ffffffffffffffffffffffffffffffffffffffff1663ca034bff61292d8780360381019061292891906161bc565b612f07565b8386868a6040518663ffffffff1660e01b81526004016129509493929190616269565b6000604051808303818588803b15801561296957600080fd5b505af115801561297d573d6000803e3d6000fd5b5050505050505050505050505050565b60008073ffffffffffffffffffffffffffffffffffffffff166129af83612450565b73ffffffffffffffffffffffffffffffffffffffff1614159050919050565b6060600060028360026129e19190615d96565b6129eb9190615dd8565b67ffffffffffffffff811115612a0457612a03613d76565b5b6040519080825280601f01601f191660200182016040528015612a365781602001600182028036833780820191505090505b5090507f300000000000000000000000000000000000000000000000000000000000000081600081518110612a6e57612a6d6150cf565b5b60200101907effffffffffffffffffffffffffffffffffffffffffffffffffffffffffffff1916908160001a9053507f780000000000000000000000000000000000000000000000000000000000000081600181518110612ad257612ad16150cf565b5b60200101907effffffffffffffffffffffffffffffffffffffffffffffffffffffffffffff1916908160001a90535060006001846002612b129190615d96565b612b1c9190615dd8565b90505b6001811115612bbc577f3031323334353637383961626364656600000000000000000000000000000000600f861660108110612b5e57612b5d6150cf565b5b1a60f81b828281518110612b7557612b746150cf565b5b60200101907effffffffffffffffffffffffffffffffffffffffffffffffffffffffffffff1916908160001a905350600485901c945080612bb5906162b5565b9050612b1f565b5060008414612c00576040517f08c379a0000000000000000000000000000000000000000000000000000000008152600401612bf79061632a565b60405180910390fd5b8091505092915050565b8173ffffffffffffffffffffffffffffffffffffffff168373ffffffffffffffffffffffffffffffffffffffff1603612c78576040517f08c379a0000000000000000000000000000000000000000000000000000000008152600401612c6f90616396565b60405180910390fd5b80600660008573ffffffffffffffffffffffffffffffffffffffff1673ffffffffffffffffffffffffffffffffffffffff16815260200190815260200160002060008473ffffffffffffffffffffffffffffffffffffffff1673ffffffffffffffffffffffffffffffffffffffff16815260200190815260200160002060006101000a81548160ff0219169083151502179055508173ffffffffffffffffffffffffffffffffffffffff168373ffffffffffffffffffffffffffffffffffffffff167f17307eab39ab6107e8899845ad3d59bd9653f200f220920489ca2b5937696c3183604051612d699190613529565b60405180910390a3505050565b612d81848484611ec2565b612d8d84848484612f3f565b612dcc576040517f08c379a0000000000000000000000000000000000000000000000000000000008152600401612dc390616428565b60405180910390fd5b50505050565b50505050565b50505050565b612de883836130c6565b612df56000848484612f3f565b612e34576040517f08c379a0000000000000000000000000000000000000000000000000000000008152600401612e2b90616428565b60405180910390fd5b505050565b606060006001612e48846132e3565b01905060008167ffffffffffffffff811115612e6757612e66613d76565b5b6040519080825280601f01601f191660200182016040528015612e995781602001600182028036833780820191505090505b509050600082602001820190505b600115612efc578080600190039150507f3031323334353637383961626364656600000000000000000000000000000000600a86061a8153600a8581612ef057612eef616448565b5b04945060008503612ea7575b819350505050919050565b60008082602001518360000151612f1e9190615dd8565b905080836040015111612f315780612f37565b82604001515b915050919050565b6000612f608473ffffffffffffffffffffffffffffffffffffffff16613436565b156130b9578373ffffffffffffffffffffffffffffffffffffffff1663150b7a02612f89611d6c565b8786866040518563ffffffff1660e01b8152600401612fab9493929190616477565b6020604051808303816000875af1925050508015612fe757506040513d601f19601f82011682018060405250810190612fe491906164d8565b60015b613069573d8060008114613017576040519150601f19603f3d011682016040523d82523d6000602084013e61301c565b606091505b506000815103613061576040517f08c379a000000000000000000000000000000000000000000000000000000000815260040161305890616428565b60405180910390fd5b805181602001fd5b63150b7a0260e01b7bffffffffffffffffffffffffffffffffffffffffffffffffffffffff1916817bffffffffffffffffffffffffffffffffffffffffffffffffffffffff1916149150506130be565b600190505b949350505050565b600073ffffffffffffffffffffffffffffffffffffffff168273ffffffffffffffffffffffffffffffffffffffff1603613135576040517f08c379a000000000000000000000000000000000000000000000000000000000815260040161312c90616551565b60405180910390fd5b61313e8161298d565b1561317e576040517f08c379a0000000000000000000000000000000000000000000000000000000008152600401613175906165bd565b60405180910390fd5b61318c600083836001612dd2565b6131958161298d565b156131d5576040517f08c379a00000000000000000000000000000000000000000000000000000000081526004016131cc906165bd565b60405180910390fd5b6001600460008473ffffffffffffffffffffffffffffffffffffffff1673ffffffffffffffffffffffffffffffffffffffff16815260200190815260200160002060008282540192505081905550816003600083815260200190815260200160002060006101000a81548173ffffffffffffffffffffffffffffffffffffffff021916908373ffffffffffffffffffffffffffffffffffffffff160217905550808273ffffffffffffffffffffffffffffffffffffffff16600073ffffffffffffffffffffffffffffffffffffffff167fddf252ad1be2c89b69c2b068fc378daa952ba7f163c4a11628f55a4df523b3ef60405160405180910390a46132df600083836001612dd8565b5050565b600080600090507a184f03e93ff9f4daa797ed6e38ed64bf6a1f0100000000000000008310613341577a184f03e93ff9f4daa797ed6e38ed64bf6a1f010000000000000000838161333757613336616448565b5b0492506040810190505b6d04ee2d6d415b85acef8100000000831061337e576d04ee2d6d415b85acef8100000000838161337457613373616448565b5b0492506020810190505b662386f26fc1000083106133ad57662386f26fc1000083816133a3576133a2616448565b5b0492506010810190505b6305f5e10083106133d6576305f5e10083816133cc576133cb616448565b5b0492506008810190505b61271083106133fb5761271083816133f1576133f0616448565b5b0492506004810190505b6064831061341e576064838161341457613413616448565b5b0492506002810190505b600a831061342d576001810190505b80915050919050565b6000808273ffffffffffffffffffffffffffffffffffffffff163b119050919050565b6040518060400160405280600015158152602001606081525090565b6000604051905090565b600080fd5b600080fd5b60007fffffffff0000000000000000000000000000000000000000000000000000000082169050919050565b6134be81613489565b81146134c957600080fd5b50565b6000813590506134db816134b5565b92915050565b6000602082840312156134f7576134f661347f565b5b6000613505848285016134cc565b91505092915050565b60008115159050919050565b6135238161350e565b82525050565b600060208201905061353e600083018461351a565b92915050565b600081519050919050565b600082825260208201905092915050565b60005b8381101561357e578082015181840152602081019050613563565b60008484015250505050565b6000601f19601f8301169050919050565b60006135a682613544565b6135b0818561354f565b93506135c0818560208601613560565b6135c98161358a565b840191505092915050565b600060208201905081810360008301526135ee818461359b565b905092915050565b6000819050919050565b613609816135f6565b811461361457600080fd5b50565b60008135905061362681613600565b92915050565b6000602082840312156136425761364161347f565b5b600061365084828501613617565b91505092915050565b600073ffffffffffffffffffffffffffffffffffffffff82169050919050565b600061368482613659565b9050919050565b61369481613679565b82525050565b60006020820190506136af600083018461368b565b92915050565b6136be81613679565b81146136c957600080fd5b50565b6000813590506136db816136b5565b92915050565b600080604083850312156136f8576136f761347f565b5b6000613706858286016136cc565b925050602061371785828601613617565b9150509250929050565b60008060006060848603121561373a5761373961347f565b5b6000613748868287016136cc565b9350506020613759868287016136cc565b925050604061376a86828701613617565b9150509250925092565b600081519050919050565b600082825260208201905092915050565b600061379b82613774565b6137a5818561377f565b93506137b5818560208601613560565b6137be8161358a565b840191505092915050565b60006040820190506137de600083018561351a565b81810360208301526137f08184613790565b90509392505050565b600080fd5b600060e08284031215613814576138136137f9565b5b81905092915050565b6000602082840312156138335761383261347f565b5b600082013567ffffffffffffffff81111561385157613850613484565b5b61385d848285016137fe565b91505092915050565b61386f8161350e565b82525050565b600082825260208201905092915050565b600061389182613774565b61389b8185613875565b93506138ab818560208601613560565b6138b48161358a565b840191505092915050565b60006040830160008301516138d76000860182613866565b50602083015184820360208601526138ef8282613886565b9150508091505092915050565b6000602082019050818103600083015261391681846138bf565b905092915050565b600082825260208201905092915050565b600061393a82613544565b613944818561391e565b9350613954818560208601613560565b61395d8161358a565b840191505092915050565b6000819050919050565b61397b81613968565b82525050565b6000604083016000830151848203600086015261399e828261392f565b91505060208301516139b36020860182613972565b508091505092915050565b600067ffffffffffffffff82169050919050565b6139db816139be565b82525050565b6139ea816139be565b82525050565b604082016000820151613a0660008501826139e1565b506020820151613a1960208501826139e1565b50505050565b600060e0820190508181036000830152613a398189613981565b90508181036020830152613a4d8188613981565b9050613a5c60408301876139d2565b8181036060830152613a6e8186613790565b9050613a7d60808301856139f0565b613a8a60c08301846139d2565b979650505050505050565b600060208284031215613aab57613aaa61347f565b5b6000613ab9848285016136cc565b91505092915050565b613acb816135f6565b82525050565b6000602082019050613ae66000830184613ac2565b92915050565b613af58161350e565b8114613b0057600080fd5b50565b600081359050613b1281613aec565b92915050565b600080fd5b600080fd5b600080fd5b60008083601f840112613b3d57613b3c613b18565b5b8235905067ffffffffffffffff811115613b5a57613b59613b1d565b5b602083019150836020820283011115613b7657613b75613b22565b5b9250929050565b600060608284031215613b9357613b926137f9565b5b81905092915050565b600060608284031215613bb257613bb16137f9565b5b81905092915050565b600080600080600060808688031215613bd757613bd661347f565b5b6000613be588828901613b03565b955050602086013567ffffffffffffffff811115613c0657613c05613484565b5b613c1288828901613b27565b9450945050604086013567ffffffffffffffff811115613c3557613c34613484565b5b613c4188828901613b7d565b925050606086013567ffffffffffffffff811115613c6257613c61613484565b5b613c6e88828901613b9c565b9150509295509295909350565b613c8481613968565b8114613c8f57600080fd5b50565b600081359050613ca181613c7b565b92915050565b60008083601f840112613cbd57613cbc613b18565b5b8235905067ffffffffffffffff811115613cda57613cd9613b1d565b5b602083019150836001820283011115613cf657613cf5613b22565b5b9250929050565b60008060008060608587031215613d1757613d1661347f565b5b6000613d2587828801613c92565b945050602085013567ffffffffffffffff811115613d4657613d45613484565b5b613d5287828801613ca7565b93509350506040613d6587828801613c92565b91505092959194509250565b600080fd5b7f4e487b7100000000000000000000000000000000000000000000000000000000600052604160045260246000fd5b613dae8261358a565b810181811067ffffffffffffffff82111715613dcd57613dcc613d76565b5b80604052505050565b6000613de0613475565b9050613dec8282613da5565b919050565b600067ffffffffffffffff821115613e0c57613e0b613d76565b5b613e158261358a565b9050602081019050919050565b82818337600083830152505050565b6000613e44613e3f84613df1565b613dd6565b905082815260208101848484011115613e6057613e5f613d71565b5b613e6b848285613e22565b509392505050565b600082601f830112613e8857613e87613b18565b5b8135613e98848260208601613e31565b91505092915050565b600060608284031215613eb757613eb66137f9565b5b81905092915050565b60008060008060c08587031215613eda57613ed961347f565b5b6000613ee887828801613617565b9450506020613ef9878288016136cc565b935050604085013567ffffffffffffffff811115613f1a57613f19613484565b5b613f2687828801613e73565b9250506060613f3787828801613ea1565b91505092959194509250565b600060408284031215613f5957613f586137f9565b5b81905092915050565b60008060408385031215613f7957613f7861347f565b5b600083013567ffffffffffffffff811115613f9757613f96613484565b5b613fa3858286016137fe565b925050602083013567ffffffffffffffff811115613fc457613fc3613484565b5b613fd085828601613f43565b9150509250929050565b60008060408385031215613ff157613ff061347f565b5b6000613fff858286016136cc565b925050602061401085828601613b03565b9150509250929050565b600080600080606085870312156140345761403361347f565b5b600061404287828801613c92565b945050602061405387828801613c92565b935050604085013567ffffffffffffffff81111561407457614073613484565b5b61408087828801613ca7565b925092505092959194509250565b600067ffffffffffffffff8211156140a9576140a8613d76565b5b6140b28261358a565b9050602081019050919050565b60006140d26140cd8461408e565b613dd6565b9050828152602081018484840111156140ee576140ed613d71565b5b6140f9848285613e22565b509392505050565b600082601f83011261411657614115613b18565b5b81356141268482602086016140bf565b91505092915050565b600080600080608085870312156141495761414861347f565b5b6000614157878288016136cc565b9450506020614168878288016136cc565b935050604061417987828801613617565b925050606085013567ffffffffffffffff81111561419a57614199613484565b5b6141a687828801614101565b91505092959194509250565b6141bb81613968565b82525050565b60006020820190506141d660008301846141b2565b92915050565b600381106141e957600080fd5b50565b6000813590506141fb816141dc565b92915050565b600080600080600080600080600080600060e08c8e0312156142265761422561347f565b5b60008c013567ffffffffffffffff81111561424457614243613484565b5b6142508e828f01613ca7565b9b509b505060206142638e828f016141ec565b99505060406142748e828f01613b03565b98505060608c013567ffffffffffffffff81111561429557614294613484565b5b6142a18e828f01613b27565b975097505060808c013567ffffffffffffffff8111156142c4576142c3613484565b5b6142d08e828f01613ca7565b955095505060a06142e38e828f01613c92565b93505060c08c013567ffffffffffffffff81111561430457614303613484565b5b6143108e828f01613ca7565b92509250509295989b509295989b9093969950565b6000819050919050565b600061434a61434561434084613659565b614325565b613659565b9050919050565b600061435c8261432f565b9050919050565b600061436e82614351565b9050919050565b61437e81614363565b82525050565b60006020820190506143996000830184614375565b92915050565b600080604083850312156143b6576143b561347f565b5b60006143c4858286016136cc565b92505060206143d5858286016136cc565b9150509250929050565b7f4e487b7100000000000000000000000000000000000000000000000000000000600052602260045260246000fd5b6000600282049050600182168061442657607f821691505b602082108103614439576144386143df565b5b50919050565b7f4552433732313a20617070726f76616c20746f2063757272656e74206f776e6560008201527f7200000000000000000000000000000000000000000000000000000000000000602082015250565b600061449b60218361354f565b91506144a68261443f565b604082019050919050565b600060208201905081810360008301526144ca8161448e565b9050919050565b7f4552433732313a20617070726f76652063616c6c6572206973206e6f7420746f60008201527f6b656e206f776e6572206f7220617070726f76656420666f7220616c6c000000602082015250565b600061452d603d8361354f565b9150614538826144d1565b604082019050919050565b6000602082019050818103600083015261455c81614520565b9050919050565b7f4552433732313a2063616c6c6572206973206e6f7420746f6b656e206f776e6560008201527f72206f7220617070726f76656400000000000000000000000000000000000000602082015250565b60006145bf602d8361354f565b91506145ca82614563565b604082019050919050565b600060208201905081810360008301526145ee816145b2565b9050919050565b600080fd5b600080fd5b600080fd5b6000823560016040038336030381126146205761461f6145f5565b5b80830191505092915050565b60008083356001602003843603038112614649576146486145f5565b5b80840192508235915067ffffffffffffffff82111561466b5761466a6145fa565b5b602083019250600182023603831315614687576146866145ff565b5b509250929050565b600082905092915050565b60008190508160005260206000209050919050565b60006020601f8301049050919050565b600082821b905092915050565b6000600883026146fc7fffffffffffffffffffffffffffffffffffffffffffffffffffffffffffffffff826146bf565b61470686836146bf565b95508019841693508086168417925050509392505050565b600061473961473461472f846135f6565b614325565b6135f6565b9050919050565b6000819050919050565b6147538361471e565b61476761475f82614740565b8484546146cc565b825550505050565b600090565b61477c61476f565b61478781848461474a565b505050565b5b818110156147ab576147a0600082614774565b60018101905061478d565b5050565b601f8211156147f0576147c18161469a565b6147ca846146af565b810160208510156147d9578190505b6147ed6147e5856146af565b83018261478c565b50505b505050565b600082821c905092915050565b6000614813600019846008026147f5565b1980831691505092915050565b600061482c8383614802565b9150826002028217905092915050565b614846838361468f565b67ffffffffffffffff81111561485f5761485e613d76565b5b614869825461440e565b6148748282856147af565b6000601f8311600181146148a35760008415614891578287013590505b61489b8582614820565b865550614903565b601f1984166148b18661469a565b60005b828110156148d9578489013582556001820191506020850194506020810190506148b4565b868310156148f657848901356148f2601f891682614802565b8355505b6001600288020188555050505b50505050505050565b61491783838361483c565b505050565b6000813561492981613c7b565b80915050919050565b60008160001b9050919050565b60007fffffffffffffffffffffffffffffffffffffffffffffffffffffffffffffffff61496b84614932565b9350801983169250808416831791505092915050565b600061498c82613968565b9050919050565b60008160001c9050919050565b60006149ab82614993565b9050919050565b6149bb82614981565b6149ce6149c7826149a0565b835461493f565b8255505050565b60008101600083016149e7818561462c565b6149f281838661490c565b50505050600181016020830180614a088161491c565b9050614a1481846149b2565b5050505050565b614a2582826149d5565b5050565b614a32816139be565b8114614a3d57600080fd5b50565b60008135614a4d81614a29565b80915050919050565b600067ffffffffffffffff614a6a84614932565b9350801983169250808416831791505092915050565b6000614a9b614a96614a91846139be565b614325565b6139be565b9050919050565b6000819050919050565b614ab582614a80565b614ac8614ac182614aa2565b8354614a56565b8255505050565b60008083356001602003843603038112614aec57614aeb6145f5565b5b80840192508235915067ffffffffffffffff821115614b0e57614b0d6145fa565b5b602083019250600182023603831315614b2a57614b296145ff565b5b509250929050565b600082905092915050565b60008190508160005260206000209050919050565b601f821115614b9357614b6481614b3d565b614b6d846146af565b81016020851015614b7c578190505b614b90614b88856146af565b83018261478c565b50505b505050565b614ba28383614b32565b67ffffffffffffffff811115614bbb57614bba613d76565b5b614bc5825461440e565b614bd0828285614b52565b6000601f831160018114614bff5760008415614bed578287013590505b614bf78582614820565b865550614c5f565b601f198416614c0d86614b3d565b60005b82811015614c3557848901358255600182019150602085019450602081019050614c10565b86831015614c525784890135614c4e601f891682614802565b8355505b6001600288020188555050505b50505050505050565b614c73838383614b98565b505050565b60008160401b9050919050565b60006fffffffffffffffff0000000000000000614ca184614c78565b9350801983169250808416831791505092915050565b614cc082614a80565b614cd3614ccc82614aa2565b8354614c85565b8255505050565b600081016000830180614cec81614a40565b9050614cf88184614aac565b505050600081016020830180614d0d81614a40565b9050614d198184614cb7565b5050505050565b614d2a8282614cda565b5050565b6000810160008301614d408185614604565b614d4a8184614a1b565b5050506002810160208301614d5f8185614604565b614d698184614a1b565b505050600481016040830180614d7e81614a40565b9050614d8a8184614aac565b5050506005810160608301614d9f8185614acf565b614daa818386614c68565b50505050600681016080830180614dc18184614d20565b5050506007810160c0830180614dd681614a40565b9050614de28184614aac565b5050505050565b614df38282614d2e565b5050565b600080fd5b600080fd5b600067ffffffffffffffff821115614e1c57614e1b613d76565b5b602082029050602081019050919050565b6000614e40614e3b84614e01565b613dd6565b90508083825260208201905060208402830185811115614e6357614e62613b22565b5b835b81811015614eaa57803567ffffffffffffffff811115614e8857614e87613b18565b5b808601614e958982613e73565b85526020850194505050602081019050614e65565b5050509392505050565b600082601f830112614ec957614ec8613b18565b5b8135614ed9848260208601614e2d565b91505092915050565b60006101208284031215614ef957614ef8614df7565b5b614f04610120613dd6565b9050600082013567ffffffffffffffff811115614f2457614f23614dfc565b5b614f3084828501613e73565b600083015250602082013567ffffffffffffffff811115614f5457614f53614dfc565b5b614f6084828501613e73565b602083015250604082013567ffffffffffffffff811115614f8457614f83614dfc565b5b614f9084828501613e73565b604083015250606082013567ffffffffffffffff811115614fb457614fb3614dfc565b5b614fc084828501614eb4565b606083015250608082013567ffffffffffffffff811115614fe457614fe3614dfc565b5b614ff084828501614eb4565b60808301525060a082013567ffffffffffffffff81111561501457615013614dfc565b5b61502084828501614eb4565b60a08301525060c0615034848285016136cc565b60c08301525060e0615048848285016136cc565b60e08301525061010082013567ffffffffffffffff81111561506d5761506c614dfc565b5b61507984828501613e73565b6101008301525092915050565b60006020828403121561509c5761509b61347f565b5b600082013567ffffffffffffffff8111156150ba576150b9613484565b5b6150c684828501614ee2565b91505092915050565b7f4e487b7100000000000000000000000000000000000000000000000000000000600052603260045260246000fd5b6000604082019050615113600083018561368b565b8181036020830152615125818461359b565b90509392505050565b600061513982614351565b9050919050565b6151498161512e565b82525050565b6000815461515c8161440e565b615166818661354f565b945060018216600081146151815760018114615197576151ca565b60ff1983168652811515602002860193506151ca565b6151a08561469a565b60005b838110156151c2578154818901526001820191506020810190506151a3565b808801955050505b50505092915050565b7f4e487b7100000000000000000000000000000000000000000000000000000000600052602160045260246000fd5b60038110615213576152126151d3565b5b50565b600081905061522482615202565b919050565b600061523482615216565b9050919050565b61524481615229565b82525050565b600082825260208201905092915050565b6000819050919050565b6000615271838561391e565b935061527e838584613e22565b6152878361358a565b840190509392505050565b600061529f848484615265565b90509392505050565b600080fd5b600080fd5b600080fd5b600080833560016020038436030381126152d4576152d36152b2565b5b83810192508235915060208301925067ffffffffffffffff8211156152fc576152fb6152a8565b5b600182023603831315615312576153116152ad565b5b509250929050565b6000602082019050919050565b6000615333838561524a565b9350836020840285016153458461525b565b8060005b8781101561538b57848403895261536082846152b7565b61536b868284615292565b95506153768461531a565b935060208b019a505050600181019050615349565b50829750879450505050509392505050565b60006153ac6020840184613c92565b905092915050565b6000606083016153c760008401846152b7565b85830360008701526153da838284615265565b925050506153eb602084018461539d565b6153f86020860182613972565b5061540660408401846152b7565b8583036040870152615419838284615265565b925050508091505092915050565b600082905092915050565b60008135905061544181614a29565b92915050565b60006154566020840184615432565b905092915050565b6040820161546f6000830183615447565b61547c60008501826139e1565b5061548a6020830183615447565b61549760208501826139e1565b50505050565b600080833560016020038436030381126154ba576154b96152b2565b5b83810192508235915060208301925067ffffffffffffffff8211156154e2576154e16152a8565b5b6001820236038313156154f8576154f76152ad565b5b509250929050565b600061550c8385613875565b9350615519838584613e22565b6155228361358a565b840190509392505050565b6000606083016155406000840184615427565b61554d600086018261545e565b5061555b604084018461549d565b858303604087015261556e838284615500565b925050508091505092915050565b600060e082019050615591600083018b615140565b81810360208301526155a3818a61514f565b90506155b2604083018961523b565b6155bf606083018861351a565b81810360808301526155d2818688615327565b905081810360a08301526155e681856153b4565b905081810360c08301526155fa818461552d565b90509998505050505050505050565b7f4e487b7100000000000000000000000000000000000000000000000000000000600052601160045260246000fd5b6000615643826135f6565b91507fffffffffffffffffffffffffffffffffffffffffffffffffffffffffffffffff820361567557615674615609565b5b600182019050919050565b7f4368616e6e656c206e6f7420666f756e64000000000000000000000000000000600082015250565b60006156b660118361354f565b91506156c182615680565b602082019050919050565b600060208201905081810360008301526156e5816156a9565b9050919050565b7f4552433732313a20696e76616c696420746f6b656e2049440000000000000000600082015250565b600061572260188361354f565b915061572d826156ec565b602082019050919050565b6000602082019050818103600083015261575181615715565b9050919050565b7f4552433732313a2061646472657373207a65726f206973206e6f74206120766160008201527f6c6964206f776e65720000000000000000000000000000000000000000000000602082015250565b60006157b460298361354f565b91506157bf82615758565b604082019050919050565b600060208201905081810360008301526157e3816157a7565b9050919050565b7f596f7520617265206e6f7420746865206f776e6572206f66207468697320746f60008201527f6b656e0000000000000000000000000000000000000000000000000000000000602082015250565b600061584660238361354f565b9150615851826157ea565b604082019050919050565b6000602082019050818103600083015261587581615839565b9050919050565b6000813561588981613aec565b80915050919050565b600060ff61589f84614932565b9350801983169250808416831791505092915050565b60006158c08261350e565b9050919050565b6000819050919050565b6158da826158b5565b6158ed6158e6826158c7565b8354615892565b8255505050565b6000810160008301806159068161587c565b905061591281846158d1565b50505060018101602083016159278185614acf565b615932818386614c68565b505050505050565b61594482826158f4565b5050565b7f4552433732314d657461646174613a2055524920717565727920666f72206e6f60008201527f6e6578697374656e7420746f6b656e0000000000000000000000000000000000602082015250565b60006159a4602f8361354f565b91506159af82615948565b604082019050919050565b600060208201905081810360008301526159d381615997565b9050919050565b600081905092915050565b600081546159f28161440e565b6159fc81866159da565b94506001821660008114615a175760018114615a2c57615a5f565b60ff1983168652811515820286019350615a5f565b615a358561469a565b60005b83811015615a5757815481890152600182019150602081019050615a38565b838801955050505b50505092915050565b6000615a7482846159e5565b915081905092915050565b6000615a8b83856159da565b9350615a98838584613e22565b82840190509392505050565b6000615ab1828486615a7f565b91508190509392505050565b7f556e737570706f727465642076657273696f6e00000000000000000000000000600082015250565b6000615af360138361354f565b9150615afe82615abd565b602082019050919050565b60006020820190508181036000830152615b2281615ae6565b9050919050565b50565b6000615b396000836159da565b9150615b4482615b29565b600082019050919050565b6000615b5a82615b2c565b9150819050919050565b6000615b6f82613544565b615b7981856159da565b9350615b89818560208601613560565b80840191505092915050565b6000615ba18284615b64565b915081905092915050565b7f4f776e61626c653a206e6577206f776e657220697320746865207a65726f206160008201527f6464726573730000000000000000000000000000000000000000000000000000602082015250565b6000615c0860268361354f565b9150615c1382615bac565b604082019050919050565b60006020820190508181036000830152615c3781615bfb565b9050919050565b7f4552433732313a207472616e736665722066726f6d20696e636f72726563742060008201527f6f776e6572000000000000000000000000000000000000000000000000000000602082015250565b6000615c9a60258361354f565b9150615ca582615c3e565b604082019050919050565b60006020820190508181036000830152615cc981615c8d565b9050919050565b7f4552433732313a207472616e7366657220746f20746865207a65726f2061646460008201527f7265737300000000000000000000000000000000000000000000000000000000602082015250565b6000615d2c60248361354f565b9150615d3782615cd0565b604082019050919050565b60006020820190508181036000830152615d5b81615d1f565b9050919050565b6000615d6d826135f6565b9150615d78836135f6565b9250828203905081811115615d9057615d8f615609565b5b92915050565b6000615da1826135f6565b9150615dac836135f6565b9250828202615dba816135f6565b91508282048414831517615dd157615dd0615609565b5b5092915050565b6000615de3826135f6565b9150615dee836135f6565b9250828201905080821115615e0657615e05615609565b5b92915050565b7f537472696e6720636f6e7461696e73206e6f6e2d6e756d65726963206368617260008201527f6163746572730000000000000000000000000000000000000000000000000000602082015250565b6000615e6860268361354f565b9150615e7382615e0c565b604082019050919050565b60006020820190508181036000830152615e9781615e5b565b9050919050565b7f4f776e61626c653a2063616c6c6572206973206e6f7420746865206f776e6572600082015250565b6000615ed460208361354f565b9150615edf82615e9e565b602082019050919050565b60006020820190508181036000830152615f0381615ec7565b9050919050565b7f5468697320746f6b656e206973206e6f74206c6f636b65640000000000000000600082015250565b6000615f4060188361354f565b9150615f4b82615f0a565b602082019050919050565b60006020820190508181036000830152615f6f81615f33565b9050919050565b600081519050919050565b600082825260208201905092915050565b6000819050602082019050919050565b6000615fae838361392f565b905092915050565b6000602082019050919050565b6000615fce82615f76565b615fd88185615f81565b935083602082028501615fea85615f92565b8060005b8581101561602657848403895281516160078582615fa2565b945061601283615fb6565b925060208a01995050600181019050615fee565b50829750879550505050505092915050565b61604181613679565b82525050565b6000610120830160008301518482036000860152616065828261392f565b9150506020830151848203602086015261607f828261392f565b91505060408301518482036040860152616099828261392f565b915050606083015184820360608601526160b38282615fc3565b915050608083015184820360808601526160cd8282615fc3565b91505060a083015184820360a08601526160e78282615fc3565b91505060c08301516160fc60c0860182616038565b5060e083015161610f60e0860182616038565b50610100830151848203610100860152616129828261392f565b9150508091505092915050565b600060208201905081810360008301526161508184616047565b905092915050565b60006060828403121561616e5761616d614df7565b5b6161786060613dd6565b9050600061618884828501613617565b600083015250602061619c84828501613617565b60208301525060406161b084828501613617565b60408301525092915050565b6000606082840312156161d2576161d161347f565b5b60006161e084828501616158565b91505092915050565b60006161f86020840184613617565b905092915050565b616209816135f6565b82525050565b6060820161622060008301836161e9565b61622d6000850182616200565b5061623b60208301836161e9565b6162486020850182616200565b5061625660408301836161e9565b6162636040850182616200565b50505050565b600060c08201905061627e60008301876141b2565b81810360208301526162908186613790565b905061629f60408301856139d2565b6162ac606083018461620f565b95945050505050565b60006162c0826135f6565b9150600082036162d3576162d2615609565b5b600182039050919050565b7f537472696e67733a20686578206c656e67746820696e73756666696369656e74600082015250565b600061631460208361354f565b915061631f826162de565b602082019050919050565b6000602082019050818103600083015261634381616307565b9050919050565b7f4552433732313a20617070726f766520746f2063616c6c657200000000000000600082015250565b600061638060198361354f565b915061638b8261634a565b602082019050919050565b600060208201905081810360008301526163af81616373565b9050919050565b7f4552433732313a207472616e7366657220746f206e6f6e20455243373231526560008201527f63656976657220696d706c656d656e7465720000000000000000000000000000602082015250565b600061641260328361354f565b915061641d826163b6565b604082019050919050565b6000602082019050818103600083015261644181616405565b9050919050565b7f4e487b7100000000000000000000000000000000000000000000000000000000600052601260045260246000fd5b600060808201905061648c600083018761368b565b616499602083018661368b565b6164a66040830185613ac2565b81810360608301526164b88184613790565b905095945050505050565b6000815190506164d2816134b5565b92915050565b6000602082840312156164ee576164ed61347f565b5b60006164fc848285016164c3565b91505092915050565b7f4552433732313a206d696e7420746f20746865207a65726f2061646472657373600082015250565b600061653b60208361354f565b915061654682616505565b602082019050919050565b6000602082019050818103600083015261656a8161652e565b9050919050565b7f4552433732313a20746f6b656e20616c7265616479206d696e74656400000000600082015250565b60006165a7601c8361354f565b91506165b282616571565b602082019050919050565b600060208201905081810360008301526165d68161659a565b905091905056fe68747470733a2f2f7261772e67697468756275736572636f6e74656e742e636f6d2f62626568726d616e31302f73616d706c654e46544d657461446174612f6d61696e2f6d657461646174612e6a736f6ea26469706673582212206b4ca686104884343084b97a4f806d71fb438ef0a5335fb0262d34e7a5b7c0a664736f6c63430008140033",
  "linkReferences": {},
  "deployedLinkReferences": {}
}